Date: Tue, 06 Feb 2007 12:26:14 +0100
From: Jiri Slaby <>
Subject: Re: hwsusp defunct
Sender: linux-kernel-owner@vger.kernel.org
Precedence: bulk
List-ID: <linux-kernel.vger.kernel.org>
X-Mailing-List: linux-kernel@vger.kernel.org
X-Lkml-Link: https://lkml.org/lkml/2007/2/6/104

Jiri Slaby napsal(a):
> monitor doesn't wake (actually I've this problem on another machine when 
Ah, oh. Monitor over DVI on
01:00.0 VGA compatible controller: nVidia Corporation NV28 [GeForce4 Ti 4200 AGP 
8x] (rev a1) (prog-if 00 [VGA])
         Subsystem: ASUSTeK Computer Inc. Unknown device 807b
         Control: I/O+ Mem+ BusMaster+ SpecCycle- MemWINV- VGASnoop- ParErr- 
Stepping- SERR- FastB2B-
         Status: Cap+ 66MHz+ UDF- FastB2B+ ParErr- DEVSEL=medium >TAbort- 
<TAbort- <MAbort- >SERR- <PERR-
         Latency: 248 (1250ns min, 250ns max)
         Interrupt: pin A routed to IRQ 11
         Region 0: Memory at fd000000 (32-bit, non-prefetchable) [size=16M]
         Region 1: Memory at e8000000 (32-bit, prefetchable) [size=128M]
         [virtual] Expansion ROM at fe9e0000 [disabled] [size=128K]
         Capabilities: [60] Power Management version 2
                 Flags: PMEClk- DSI- D1- D2- AuxCurrent=0mA 
PME(D0-,D1-,D2-,D3hot-,D3cold-)
                 Status: D0 PME-Enable- DSel=0 DScale=0 PME-
         Capabilities: [44] AGP version 3.0
                 Status: RQ=32 Iso- ArqSz=0 Cal=3 SBA+ ITACoh- GART64- HTrans- 
64bit- FW+ AGP3+ Rate=x4,x8
                 Command: RQ=32 ArqSz=2 Cal=0 SBA+ AGP+ GART64- 64bit- FW- Rate=x8
00: de 10 81 02 07 00 b0 02 a1 00 00 03 00 f8 00 00
10: 00 00 00 fd 08 00 00 e8 00 00 00 00 00 00 00 00
20: 00 00 00 00 00 00 00 00 00 00 00 00 43 10 7b 80
30: 00 00 00 00 60 00 00 00 00 00 00 00 0b 01 05 01
40: 43 10 7b 80 02 00 30 00 1b 0e 00 1f 02 43 00 1f
50: 01 00 00 00 01 00 00 00 ce d6 23 00 0f 00 00 00
60: 01 44 02 00 00 00 00 00 00 00 00 00 00 00 00 00
70: 00 00 00 00 00 00 00 00 00 00 00 00 00 00 00 00
80: 00 00 00 00 00 00 00 00 00 00 00 00 00 00 00 00
90: 00 00 00 00 00 00 00 00 00 00 00 00 00 00 00 00
a0: 00 00 00 00 00 00 00 00 00 00 00 00 00 00 00 00
b0: 00 00 00 00 00 00 00 00 00 00 00 00 00 00 00 00
c0: 00 00 00 00 00 00 00 00 00 00 00 00 00 00 00 00
d0: 00 00 00 00 00 00 00 00 00 00 00 00 00 00 00 00
e0: 00 00 00 00 00 00 00 00 00 00 00 00 00 00 00 00
f0: 00 00 00 00 00 00 00 00 00 00 00 00 00 00 00 00
regards,
-- 
http://www.fi.muni.cz/~xslaby/
            Jiri Slaby
faculty of informatics, masaryk university, brno, cz
e-mail: jirislaby gmail com, gpg pubkey fingerprint:
B674 9967 0407 CE62 ACC8  22A0 32CC 55C3 39D4 7A7E
-
To unsubscribe from this list: send the line "unsubscribe linux-kernel" in
the body of a message to majordomo@vger.kernel.org
More majordomo info at  
http://vger.kernel.org/majordomo-info.html
Please read the FAQ at  
http://www.tux.org/lkml/