Date: Wed, 1 Sep 1999 10:14:55 +0200
From: Martin Mares <>
Subject: Re: Odd PCI messages in 2.3.16.
Sender: linux-kernel-owner@vger.kernel.org
Precedence: bulk
List-ID: <linux-kernel.vger.kernel.org>
X-Mailing-List: linux-kernel@vger.kernel.org
X-Lkml-Link: https://lkml.org/lkml/1999/9/1/18

Hello,
> 00:00.1 IDE interface: Silicon Integrated Systems 5513 (rev d0) (prog-if 80)
> 	Subsystem: Unknown device 1039:5513
> 	Control: I/O+ Mem+ BusMaster+ SpecCycle- MemWINV- VGASnoop- ParErr- Stepping- SERR- FastB2B-
> 	Status: Cap- 66Mhz- UDF- FastB2B- ParErr- DEVSEL=fast >TAbort- <TAbort- <MAbort- >SERR- <PERR-
> 	Latency: 128 set
> 	Interrupt: pin A routed to IRQ 0
> 	Region 0: I/O ports at 8c9b47e0
> 	Region 1: I/O ports at c236a788
> 	Region 2: I/O ports at 23d68880
> 	Region 3: I/O ports at 422301fc
> 	Region 4: I/O ports at 4000
> 00: 39 10 13 55 07 00 00 00 d0 80 01 01 00 80 80 00
> 10: e1 47 9b 8c 89 a7 36 c2 81 88 d6 23 fd 01 23 42
> 20: 01 40 00 00 00 00 00 00 00 00 00 00 39 10 13 55
> 30: 00 00 00 00 00 00 00 00 00 00 00 00 00 01 00 00
   The I/O port regions 0--3 clearly contain bogus values.
   Please try 'setpci -s 0:1.0 10.l=0 10.l' to see whether these values
are hard-wired or just filled in by the BIOS.
				Have a nice fortnight
-- 
Martin `MJ' Mares   <mj@ucw.cz>   
http://atrey.karlin.mff.cuni.cz/~mj/
Faculty of Math and Physics, Charles University, Prague, Czech Rep., Earth
"Ctrl and Alt keys stuck -- press Del to continue."
-
To unsubscribe from this list: send the line "unsubscribe linux-kernel" in
the body of a message to majordomo@vger.rutgers.edu
Please read the FAQ at 
http://www.tux.org/lkml/