Date: Thu, 26 Oct 2000 11:34:57 -0400 (EDT)
From: Shane Shrybman <>
Subject: Re: Possible critical VIA vt82c686a chip bug
Sender: linux-kernel-owner@vger.kernel.org
Precedence: bulk
List-ID: <linux-kernel.vger.kernel.org>
X-Mailing-List: linux-kernel@vger.kernel.org
X-Lkml-Link: https://lkml.org/lkml/2000/10/26/16

Hi,
I have the same problem.
On Thu, 26 Oct 2000, Vojtech Pavlik wrote:
[...snip...]
> Could you send me your 'lspci -vvxxx' to confirm it's the very same
> chip?
00:07.0 ISA bridge: VIA Technologies, Inc.: Unknown device 0686 (rev 21)
        Subsystem: Unknown device 1106:0000
        Control: I/O+ Mem+ BusMaster+ SpecCycle- MemWINV- VGASnoop-
ParErr- Stepping+ SERR- FastB2B-
        Status: Cap+ 66Mhz- UDF- FastB2B- ParErr- DEVSEL=medium >TAbort-
<TAbort- <MAbort- >SERR- <PERR-
        Latency: 0 set
00: 06 11 86 06 87 00 10 02 21 00 01 06 00 00 80 00
10: 00 00 00 00 00 00 00 00 00 00 00 00 00 00 00 00
20: 00 00 00 00 00 00 00 00 00 00 00 00 06 11 00 00
30: 00 00 00 00 00 00 00 00 00 00 00 00 00 00 00 00
40: 08 01 00 00 00 80 60 e6 05 00 c4 00 00 00 00 f3
50: 02 76 34 00 00 90 ba 90 00 06 f7 08 00 00 00 00
60: 00 00 00 00 00 00 00 00 00 00 00 00 00 00 00 00
70: 00 00 00 00 05 3e 00 02 00 00 f0 40 00 00 00 00
80: 00 00 00 00 00 1d 00 00 00 00 00 02 00 00 00 00
90: 00 00 00 00 00 00 00 00 00 00 00 00 00 00 00 00
a0: 00 00 00 00 00 00 00 00 00 00 00 00 00 00 00 00
b0: 00 00 00 00 00 00 00 00 00 00 00 00 00 00 00 00
c0: 01 00 02 00 00 00 00 00 00 00 00 00 00 00 00 00
d0: 00 00 00 00 00 00 00 00 00 00 00 00 00 00 00 00
e0: 00 00 00 00 00 00 00 00 00 00 00 00 00 00 00 00
f0: 00 00 00 00 00 00 00 00 00 00 00 00 00 00 00 00
Regards,
shane
-
To unsubscribe from this list: send the line "unsubscribe linux-kernel" in
the body of a message to majordomo@vger.kernel.org
Please read the FAQ at 
http://www.tux.org/lkml/