Date: Fri, 25 Aug 2000 16:09:44 +0100 (BST)
From: Tigran Aivazian <>
Subject: Re: DEC21150 bridge and unsupported 3COM NIC
Sender: linux-kernel-owner@vger.kernel.org
Precedence: bulk
List-ID: <linux-kernel.vger.kernel.org>
X-Mailing-List: linux-kernel@vger.kernel.org
X-Lkml-Link: https://lkml.org/lkml/2000/8/25/30

On Fri, 25 Aug 2000, Martin Mares wrote:
> Hi Tigran!
> 
> > Let's have a look at what's going on with the DEC21150 bridge, this is on
> > 2.4 TODO list.
> 
> It seems the problem has nothing to do with DEC21150 -- it's just a collision
> between a bus number assigned by us to CardBus and the same one assigned by
> the BIOS to a PCI bridge (in this case, a 21150).
> 
> Please try this patch, it should help (it modifies the bus scan to work
> in two passes and assign new numbers after all already assigned ones are
> known).
> 
Hi Martin,
I have tried your patch against 2.4.0-test7 and confirm that it works
beautifully - the device 3C905C-TX behind the bridge is recognized and
working just fine.
Hugh and Simon, this means you can use your docking stations now.
Martin, however, there are now some interesting PCI-related messages on
boot which didn't happen before - I attached them for your analysis, if
you are interested.
Regards,
Tigran
-+-[03]---00.0  3Com Corporation: Unknown device 5257
 \-[00]-+-00.0  Intel Corporation 440BX/ZX - 82443BX/ZX Host bridge
        +-01.0-[01]----00.0  ATI Technologies Inc 3D Rage P/M Mobility AGP 2x
        +-03.0  Texas Instruments PCI1225
        +-03.1  Texas Instruments PCI1225
        +-07.0  Intel Corporation 82371AB PIIX4 ISA
        +-07.1  Intel Corporation 82371AB PIIX4 IDE
        +-07.2  Intel Corporation 82371AB PIIX4 USB
        +-07.3  Intel Corporation 82371AB PIIX4 ACPI
        +-08.0  ESS Technology ES1978 Maestro 2E
        \-11.0-[02]--+-05.0  CMD Technology Inc PCI0646
                     +-07.0  Adaptec AIC-7880U
                     \-08.0  3Com Corporation 3c905C-TX [Fast Etherlink]
Linux version 2.4.0-test7 (root@penguin) (gcc version egcs-2.91.66 19990314/Linux (egcs-1.1.2 release)) #1 Fri Aug 25 15:35:05 BST 2000
BIOS-provided physical RAM map:
 BIOS-e820: 000000000009fc00 @ 0000000000000000 (usable)
 BIOS-e820: 0000000000000400 @ 000000000009fc00 (reserved)
 BIOS-e820: 000000000000c000 @ 00000000000c0000 (reserved)
 BIOS-e820: 0000000007ef0000 @ 0000000000100000 (usable)
 BIOS-e820: 0000000000010000 @ 0000000007ff0000 (ACPI data)
 BIOS-e820: 0000000000060000 @ 00000000100a0000 (reserved)
 BIOS-e820: 0000000000200000 @ 00000000ffe00000 (reserved)
On node 0 totalpages: 32752
zone(0): 4096 pages.
zone(1): 28656 pages.
zone(2): 0 pages.
Kernel command line: BOOT_IMAGE=240test7 ro root=302
Initializing CPU#0
Detected 448628116 Hz processor.
Console: colour VGA+ 80x25
Calibrating delay loop... 894.57 BogoMIPS
kdb version 1.3 by Scott Lurndal. Copyright SGI, All Rights Reserved
Memory: 126400k/131008k available (1685k kernel code, 4220k reserved, 112k data, 172k init, 0k highmem)
Dentry-cache hash table entries: 16384 (order: 5, 131072 bytes)
Buffer-cache hash table entries: 4096 (order: 2, 16384 bytes)
Page-cache hash table entries: 32768 (order: 5, 131072 bytes)
Inode-cache hash table entries: 8192 (order: 4, 65536 bytes)
CPU: Intel Pentium III (Coppermine) stepping 01
Checking 386/387 coupling... OK, FPU using exception 16 error reporting.
Enabling fast FPU save and restore... done.
Enabling unmasked SIMD FPU exception support... done.
Checking SIMD FPU exceptions... OK, SIMD FPU using exception 19 error reporting.
Checking 'hlt' instruction... OK.
POSIX conformance testing by UNIFIX
mtrr: v1.36 (20000221) Richard Gooch (rgooch@atnf.csiro.au)
PCI: PCI BIOS revision 2.10 entry at 0xfc0ce, last bus=2
PCI: Using configuration type 1
PCI: Probing PCI hardware
PCI: Using IRQ router default [8086/1234] at 00:07.0
Limiting direct PCI/PCI transfers.
Linux NET4.0 for Linux 2.4
Based upon Swansea University Computer Society NET3.039
NET4: Unix domain sockets 1.0/SMP for Linux NET4.0.
NET4: Linux TCP/IP 1.0 for NET4.0
IP Protocols: ICMP, UDP, TCP
IP: routing cache hash table of 512 buckets, 4Kbytes
TCP: Hash tables configured (established 8192 bind 8192)
P6 Microcode Update Driver v1.06
Starting kswapd v1.7
pty: 256 Unix98 ptys configured
Uniform Multi-Platform E-IDE driver Revision: 6.31
ide: Assuming 33MHz system bus speed for PIO modes; override with idebus=xx
PIIX4: IDE controller on PCI bus 00 dev 39
PIIX4: chipset revision 1
PIIX4: not 100% native mode: will probe irqs later
    ide0: BM-DMA at 0x0860-0x0867, BIOS settings: hda:DMA, hdb:pio
    ide1: BM-DMA at 0x0868-0x086f, BIOS settings: hdc:DMA, hdd:pio
CMD646: IDE controller on PCI bus 02 dev 28
CMD646: chipset revision 7
CMD646: 100% native mode on irq 10
    ide2: BM-DMA at 0xfcc0-0xfcc7, BIOS settings: hde:pio, hdf:pio
    ide3: BM-DMA at 0xfcc8-0xfccf, BIOS settings: hdg:pio, hdh:pio
hda: IBM-DARA-206000, ATA DISK drive
hdc: SAMSUNG CD-ROM SN-124, ATAPI CDROM drive
ide0 at 0x1f0-0x1f7,0x3f6 on irq 14
ide1 at 0x170-0x177,0x376 on irq 15
hda: 11733120 sectors (6007 MB) w/418KiB Cache, CHS=730/255/63, UDMA(33)
hdc: ATAPI 24X CD-ROM drive, 128kB Cache, UDMA(33)
Uniform CD-ROM driver Revision: 3.11
Partition check:
 /dev/ide/host0/bus0/target0/lun0: p1 p2 p3 p4
Serial driver version 5.02 (2000-08-09) with MANY_PORTS SHARE_IRQ SERIAL_PCI enabled
ttyS00 at 0x03f8 (irq = 4) is a 16550A
3c59x.c:LK1.1.8  13 Aug 2000  Donald Becker and others. 
http://www.scyld.com/network/vortex.html
 $Revision: 1.102.2.25 $
See Documentation/networking/vortex.txt
eth0: 3Com PCI 3c905C Tornado at 0xfc00,  00:b0:d0:2e:b7:34, IRQ 10
  8K byte-wide RAM 5:3 Rx:Tx split, autoselect/Autonegotiate interface.
  MII transceiver found at address 24, status 782d.
  Enabling bus-master transmits and whole-frame receives.
Linux PCMCIA Card Services 3.1.11
  options:  [pci] [cardbus]
Yenta IRQ list 0298, PCI irq11
Socket status: 30000020
Yenta IRQ list 0298, PCI irq11
Socket status: 30000010
devfs: v0.102 (20000622) Richard Gooch (rgooch@atnf.csiro.au)
devfs: boot_options: 0x2
kmem_create: Forcing size word alignment - nfs_fh
cs: cb_alloc(bus 3): vendor 0x10b7, device 0x5257
PCI: Failed to allocate resource 0 for PCI device 10b7:5257
PCI: Failed to allocate resource 1 for PCI device 10b7:5257
PCI: Failed to allocate resource 2 for PCI device 10b7:5257
PCI: Failed to allocate resource 6 for PCI device 10b7:5257
PCI: Device 03:00.0 not available because of resource collisions
eth1: 3Com PCI 3CCFE575CT Cyclone CardBus at 0x0, <3>PCI: Device 03:00.0 not available because of resource collisions
3c59x: vortex_probe1 fails.  Returns -5
VFS: Mounted root (ext2 filesystem) readonly.
Freeing unused kernel memory: 172k freed
Adding Swap: 136512k swap-space (priority -1)
eth0: using NWAY autonegotiation
cs: IO port probe 0x1000-0x17ff: clean.
cs: IO port probe 0x0100-0x04ff: excluding 0x378-0x37f 0x4d0-0x4d7
cs: IO port probe 0x0a00-0x0aff: clean.
cs: memory probe 0xa0000000-0xa0ffffff: clean.
ttyS01 at port 0x02f8 (irq = 3) is a 16550A
eth0: using NWAY autonegotiation
microcode: CPU0 not 'upgrading' to earlier revision 15 (current=15)
00:00.0 Host bridge: Intel Corporation 440BX/ZX - 82443BX/ZX Host bridge (rev 03)
	Control: I/O- Mem+ BusMaster+ SpecCycle- MemWINV- VGASnoop- ParErr- Stepping- SERR+ FastB2B-
	Status: Cap+ 66Mhz- UDF- FastB2B- ParErr- DEVSEL=medium >TAbort- <TAbort- <MAbort+ >SERR- <PERR-
	Latency: 32 set
	Region 0: Memory at f0000000 (32-bit, prefetchable) [size=64M]
	Capabilities: [a0] AGP version 1.0
		Status: RQ=31 SBA+ 64bit- FW- Rate=x1,x2
		Command: RQ=0 SBA- AGP- 64bit- FW- Rate=<none>
00: 86 80 90 71 06 01 10 22 03 00 00 06 00 20 00 00
10: 08 00 00 f0 00 00 00 00 00 00 00 00 00 00 00 00
20: 00 00 00 00 00 00 00 00 00 00 00 00 00 00 00 00
30: 00 00 00 00 a0 00 00 00 00 00 00 00 00 00 00 00
00:01.0 PCI bridge: Intel Corporation 440BX/ZX - 82443BX/ZX AGP bridge (rev 03) (prog-if 00 [Normal decode])
	Control: I/O+ Mem+ BusMaster+ SpecCycle+ MemWINV+ VGASnoop- ParErr- Stepping- SERR+ FastB2B-
	Status: Cap- 66Mhz+ UDF- FastB2B- ParErr- DEVSEL=medium >TAbort- <TAbort- <MAbort- >SERR- <PERR-
	Latency: 32 set
	Bus: primary=00, secondary=01, subordinate=01, sec-latency=32
	I/O behind bridge: 0000e000-0000efff
	Memory behind bridge: fc000000-feffffff
	Prefetchable memory behind bridge: f6000000-f6ffffff
	BridgeCtl: Parity- SERR- NoISA+ VGA+ MAbort- >Reset- FastB2B+
00: 86 80 91 71 1f 01 20 02 03 00 04 06 00 20 01 00
10: 00 00 00 00 00 00 00 00 00 01 01 20 e0 e0 a0 22
20: 00 fc f0 fe 00 f6 f0 f6 00 00 00 00 00 00 00 00
30: 00 00 00 00 00 00 00 00 00 00 00 00 00 00 8c 00
00:03.0 CardBus bridge: Texas Instruments PCI1225 (rev 01)
	Subsystem: Dell Computer Corporation: Unknown device 00aa
	Control: I/O+ Mem+ BusMaster+ SpecCycle- MemWINV- VGASnoop- ParErr- Stepping- SERR- FastB2B-
	Status: Cap+ 66Mhz- UDF- FastB2B- ParErr- DEVSEL=medium >TAbort- <TAbort- <MAbort- >SERR- <PERR-
	Latency: 168 set, cache line size 20
	Interrupt: pin A routed to IRQ 11
	Region 0: Memory at 10000000 (32-bit, non-prefetchable) [size=4K]
	Bus: primary=00, secondary=03, subordinate=03, sec-latency=176
	Memory window 0: 10400000-107ff000 (prefetchable)
	Memory window 1: 10800000-10bff000
	I/O window 0: 00001000-000010ff
	I/O window 1: 00001400-000014ff
	BridgeCtl: Parity- SERR- ISA- VGA- MAbort- >Reset- 16bInt- PostWrite+
	16-bit legacy interface ports at 0001
00: 4c 10 1c ac 07 00 10 02 01 00 07 06 20 a8 82 00
10: 00 00 00 10 a0 00 00 02 00 03 03 b0 00 00 40 10
20: 00 f0 7f 10 00 00 80 10 00 f0 bf 10 00 10 00 00
30: fc 10 00 00 00 14 00 00 fc 14 00 00 0b 01 00 05
40: 28 10 aa 00 01 00 00 00 00 00 00 00 00 00 00 00
50: 00 00 00 00 00 00 00 00 00 00 00 00 00 00 00 00
60: 00 00 00 00 00 00 00 00 00 00 00 00 00 00 00 00
70: 00 00 00 00 00 00 00 00 00 00 00 00 00 00 00 00
00:03.1 CardBus bridge: Texas Instruments PCI1225 (rev 01)
	Subsystem: Dell Computer Corporation: Unknown device 00aa
	Control: I/O+ Mem+ BusMaster+ SpecCycle- MemWINV- VGASnoop- ParErr- Stepping- SERR- FastB2B-
	Status: Cap+ 66Mhz- UDF- FastB2B- ParErr- DEVSEL=medium >TAbort- <TAbort- <MAbort- >SERR- <PERR-
	Latency: 168 set, cache line size 20
	Interrupt: pin A routed to IRQ 11
	Region 0: Memory at 10001000 (32-bit, non-prefetchable) [size=4K]
	Bus: primary=00, secondary=07, subordinate=07, sec-latency=176
	Memory window 0: 10c00000-10fff000 (prefetchable)
	Memory window 1: 11000000-113ff000
	I/O window 0: 00001800-000018ff
	I/O window 1: 00001c00-00001cff
	BridgeCtl: Parity- SERR- ISA- VGA- MAbort- >Reset+ 16bInt+ PostWrite+
	16-bit legacy interface ports at 0001
00: 4c 10 1c ac 07 00 10 02 01 00 07 06 20 a8 82 00
10: 00 10 00 10 a0 00 00 02 00 07 07 b0 00 00 c0 10
20: 00 f0 ff 10 00 00 00 11 00 f0 3f 11 00 18 00 00
30: fc 18 00 00 00 1c 00 00 fc 1c 00 00 0b 01 c0 05
40: 28 10 aa 00 01 00 00 00 00 00 00 00 00 00 00 00
50: 00 00 00 00 00 00 00 00 00 00 00 00 00 00 00 00
60: 00 00 00 00 00 00 00 00 00 00 00 00 00 00 00 00
70: 00 00 00 00 00 00 00 00 00 00 00 00 00 00 00 00
00:07.0 Bridge: Intel Corporation 82371AB PIIX4 ISA (rev 02)
	Control: I/O+ Mem+ BusMaster+ SpecCycle+ MemWINV- VGASnoop- ParErr- Stepping- SERR+ FastB2B-
	Status: Cap- 66Mhz- UDF- FastB2B+ ParErr- DEVSEL=medium >TAbort- <TAbort- <MAbort- >SERR- <PERR-
	Latency: 0 set
00: 86 80 10 71 0f 01 80 02 02 00 80 06 00 00 80 00
10: 00 00 00 00 00 00 00 00 00 00 00 00 00 00 00 00
20: 00 00 00 00 00 00 00 00 00 00 00 00 00 00 00 00
30: 00 00 00 00 00 00 00 00 00 00 00 00 00 00 00 00
00:07.1 IDE interface: Intel Corporation 82371AB PIIX4 IDE (rev 01) (prog-if 80 [Master])
	Control: I/O+ Mem- BusMaster+ SpecCycle- MemWINV- VGASnoop- ParErr- Stepping- SERR- FastB2B-
	Status: Cap- 66Mhz- UDF- FastB2B+ ParErr- DEVSEL=medium >TAbort- <TAbort- <MAbort- >SERR- <PERR-
	Latency: 32 set
	Region 4: I/O ports at 0860 [size=16]
00: 86 80 11 71 05 00 80 02 01 80 01 01 00 20 00 00
10: 00 00 00 00 00 00 00 00 00 00 00 00 00 00 00 00
20: 61 08 00 00 00 00 00 00 00 00 00 00 00 00 00 00
30: 00 00 00 00 00 00 00 00 00 00 00 00 00 00 00 00
00:07.2 USB Controller: Intel Corporation 82371AB PIIX4 USB (rev 01) (prog-if 00 [UHCI])
	Control: I/O+ Mem- BusMaster+ SpecCycle- MemWINV- VGASnoop- ParErr- Stepping- SERR- FastB2B-
	Status: Cap- 66Mhz- UDF- FastB2B+ ParErr- DEVSEL=medium >TAbort- <TAbort- <MAbort- >SERR- <PERR-
	Latency: 32 set
	Interrupt: pin D routed to IRQ 11
	Region 4: I/O ports at dce0 [size=32]
00: 86 80 12 71 05 00 80 02 01 00 03 0c 00 20 00 00
10: 00 00 00 00 00 00 00 00 00 00 00 00 00 00 00 00
20: e1 dc 00 00 00 00 00 00 00 00 00 00 00 00 00 00
30: 00 00 00 00 00 00 00 00 00 00 00 00 0b 04 00 00
00:07.3 Bridge: Intel Corporation 82371AB PIIX4 ACPI (rev 03)
	Control: I/O+ Mem+ BusMaster- SpecCycle- MemWINV- VGASnoop- ParErr- Stepping- SERR- FastB2B-
	Status: Cap- 66Mhz- UDF- FastB2B+ ParErr- DEVSEL=medium >TAbort- <TAbort- <MAbort- >SERR- <PERR-
00: 86 80 13 71 03 00 80 02 03 00 80 06 00 00 00 00
10: 00 00 00 00 00 00 00 00 00 00 00 00 00 00 00 00
20: 00 00 00 00 00 00 00 00 00 00 00 00 00 00 00 00
30: 00 00 00 00 00 00 00 00 00 00 00 00 00 00 00 00
00:08.0 Multimedia audio controller: ESS Technology ES1978 Maestro 2E (rev 10)
	Subsystem: Dell Computer Corporation: Unknown device 00aa
	Control: I/O+ Mem- BusMaster+ SpecCycle- MemWINV- VGASnoop- ParErr- Stepping- SERR- FastB2B-
	Status: Cap+ 66Mhz- UDF- FastB2B+ ParErr- DEVSEL=medium >TAbort- <TAbort- <MAbort- >SERR- <PERR-
	Latency: 2 min, 24 max, 32 set
	Interrupt: pin A routed to IRQ 5
	Region 0: I/O ports at d800 [size=256]
	Capabilities: [c0] Power Management version 2
		Flags: PMEClk- AuxPwr- DSI+ D1+ D2+ PME-
		Status: D0 PME-Enable- DSel=0 DScale=0 PME-
00: 5d 12 78 19 05 00 90 02 10 00 01 04 00 20 00 00
10: 01 d8 00 00 00 00 00 00 00 00 00 00 00 00 00 00
20: 00 00 00 00 00 00 00 00 00 00 00 00 28 10 aa 00
30: 00 00 00 00 c0 00 00 00 00 00 00 00 05 01 02 18
00:11.0 PCI bridge: Digital Equipment Corporation DECchip 21150 (rev 04) (prog-if 00 [Normal decode])
	Control: I/O+ Mem+ BusMaster+ SpecCycle- MemWINV- VGASnoop- ParErr- Stepping- SERR+ FastB2B-
	Status: Cap+ 66Mhz- UDF- FastB2B+ ParErr- DEVSEL=medium >TAbort- <TAbort- <MAbort- >SERR- <PERR-
	Latency: 32 set, cache line size 08
	Bus: primary=00, secondary=02, subordinate=02, sec-latency=32
	I/O behind bridge: 0000f000-0000ffff
	Memory behind bridge: fa000000-fbffffff
	Prefetchable memory behind bridge: 00000000f5000000-00000000f5f00000
	BridgeCtl: Parity- SERR+ NoISA+ VGA- MAbort- >Reset- FastB2B-
	Capabilities: [dc] Power Management version 1
		Flags: PMEClk- AuxPwr- DSI- D1- D2- PME-
		Status: D0 PME-Enable- DSel=0 DScale=0 PME-
00: 11 10 22 00 07 01 90 02 04 00 04 06 08 20 01 00
10: 00 00 00 00 00 00 00 00 00 02 02 20 f1 f1 80 22
20: 00 fa f0 fb 01 f5 f1 f5 00 00 00 00 00 00 00 00
30: 00 00 00 00 dc 00 00 00 00 00 00 00 00 00 06 02
01:00.0 VGA compatible controller: ATI Technologies Inc 3D Rage P/M Mobility AGP 2x (rev 64) (prog-if 00 [VGA])
	Subsystem: Dell Computer Corporation: Unknown device 00aa
	Control: I/O+ Mem+ BusMaster+ SpecCycle- MemWINV- VGASnoop- ParErr- Stepping+ SERR- FastB2B-
	Status: Cap+ 66Mhz- UDF- FastB2B+ ParErr- DEVSEL=medium >TAbort- <TAbort- <MAbort- >SERR- <PERR-
	Latency: 8 min, 32 set, cache line size 08
	Interrupt: pin A routed to IRQ 11
	Region 0: Memory at fd000000 (32-bit, non-prefetchable) [size=16M]
	Region 1: I/O ports at ec00 [size=256]
	Region 2: Memory at fcfff000 (32-bit, non-prefetchable) [size=4K]
	Expansion ROM at <unassigned> [disabled] [size=128K]
	Capabilities: [50] AGP version 1.0
		Status: RQ=255 SBA+ 64bit- FW- Rate=x1,x2
		Command: RQ=0 SBA- AGP- 64bit- FW- Rate=<none>
	Capabilities: [5c] Power Management version 1
		Flags: PMEClk- AuxPwr- DSI- D1+ D2+ PME-
		Status: D0 PME-Enable- DSel=0 DScale=0 PME-
00: 02 10 4d 4c 87 00 90 02 64 00 00 03 08 20 00 00
10: 00 00 00 fd 01 ec 00 00 00 f0 ff fc 00 00 00 00
20: 00 00 00 00 00 00 00 00 00 00 00 00 28 10 aa 00
30: 00 00 00 00 50 00 00 00 00 00 00 00 0b 01 08 00
02:05.0 IDE interface: CMD Technology Inc PCI0646 (rev 07) (prog-if 8f [Master SecP SecO PriP PriO])
	Subsystem: CMD Technology Inc: Unknown device 0646
	Control: I/O+ Mem- BusMaster+ SpecCycle- MemWINV- VGASnoop- ParErr- Stepping- SERR- FastB2B-
	Status: Cap+ 66Mhz- UDF- FastB2B+ ParErr- DEVSEL=medium >TAbort- <TAbort- <MAbort- >SERR- <PERR-
	Latency: 2 min, 4 max, 32 set
	Interrupt: pin A routed to IRQ 10
	Region 0: I/O ports at fcf8 [size=8]
	Region 1: I/O ports at fcf0 [size=4]
	Region 2: I/O ports at fce0 [size=8]
	Region 3: I/O ports at fcd8 [size=4]
	Region 4: I/O ports at fcc0 [size=16]
	Capabilities: [60] Power Management version 1
		Flags: PMEClk- AuxPwr- DSI+ D1+ D2+ PME-
		Status: D0 PME-Enable- DSel=0 DScale=3 PME-
00: 95 10 46 06 05 00 90 02 07 8f 01 01 00 20 00 00
10: f9 fc 00 00 f1 fc 00 00 e1 fc 00 00 d9 fc 00 00
20: c1 fc 00 00 00 00 00 00 00 00 00 00 95 10 46 06
30: 00 00 00 00 60 00 00 00 00 00 00 00 0a 01 02 04
02:07.0 SCSI storage controller: Adaptec AIC-7880U (rev 01)
	Subsystem: Adaptec: Unknown device 7880
	Control: I/O+ Mem+ BusMaster+ SpecCycle- MemWINV+ VGASnoop- ParErr- Stepping- SERR+ FastB2B-
	Status: Cap+ 66Mhz- UDF- FastB2B+ ParErr- DEVSEL=medium >TAbort- <TAbort- <MAbort- >SERR- <PERR-
	Latency: 8 min, 8 max, 32 set, cache line size 08
	Interrupt: pin A routed to IRQ 10
	Region 0: I/O ports at f800 [size=256]
	Region 1: Memory at fafff000 (32-bit, non-prefetchable) [size=4K]
	Expansion ROM at fb000000 [disabled] [size=64K]
	Capabilities: [dc] Power Management version 1
		Flags: PMEClk- AuxPwr- DSI+ D1- D2- PME-
		Status: D0 PME-Enable- DSel=0 DScale=0 PME-
00: 04 90 78 80 17 01 90 02 01 00 00 01 08 20 00 00
10: 01 f8 00 00 00 f0 ff fa 00 00 00 00 00 00 00 00
20: 00 00 00 00 00 00 00 00 00 00 00 00 04 90 80 78
30: 00 00 00 fb dc 00 00 00 00 00 00 00 0a 01 08 08
02:08.0 Ethernet controller: 3Com Corporation 3c905C-TX [Fast Etherlink] (rev 6c)
	Subsystem: Dell Computer Corporation: Unknown device 00a8
	Control: I/O+ Mem+ BusMaster+ SpecCycle- MemWINV+ VGASnoop- ParErr- Stepping- SERR+ FastB2B-
	Status: Cap+ 66Mhz- UDF- FastB2B- ParErr- DEVSEL=medium >TAbort- <TAbort- <MAbort- >SERR- <PERR-
	Latency: 10 min, 10 max, 32 set, cache line size 08
	Interrupt: pin A routed to IRQ 10
	Region 0: I/O ports at fc00 [size=128]
	Region 1: Memory at faffec00 (32-bit, non-prefetchable) [size=128]
	Expansion ROM at fb000000 [disabled] [size=128K]
	Capabilities: [dc] Power Management version 2
		Flags: PMEClk- AuxPwr- DSI- D1+ D2+ PME+
		Status: D0 PME-Enable+ DSel=0 DScale=2 PME-
00: b7 10 00 92 17 01 10 02 6c 00 00 02 08 20 00 00
10: 01 fc 00 00 00 ec ff fa 00 00 00 00 00 00 00 00
20: 00 00 00 00 00 00 00 00 00 00 00 00 28 10 a8 00
30: 00 00 00 fb dc 00 00 00 00 00 00 00 0a 01 0a 0a
03:00.0 Ethernet controller: 3Com Corporation: Unknown device 5257 (rev 10)
	Subsystem: 3Com Corporation: Unknown device 5c57
	Control: I/O- Mem- BusMaster- SpecCycle- MemWINV- VGASnoop- ParErr- Stepping- SERR- FastB2B-
	Status: Cap+ 66Mhz- UDF- FastB2B- ParErr- DEVSEL=medium >TAbort- <TAbort- <MAbort- >SERR- <PERR-
	Interrupt: pin A routed to IRQ 11
	Region 0: I/O ports at <unassigned> [disabled] [size=128]
	Region 1: Memory at <unassigned> (32-bit, non-prefetchable) [disabled] [size=128]
	Region 2: Memory at <unassigned> (32-bit, non-prefetchable) [disabled] [size=128]
	Expansion ROM at <unassigned> [disabled] [size=128K]
	Capabilities: [50] Power Management version 1
		Flags: PMEClk- AuxPwr+ DSI- D1+ D2+ PME-
		Status: D0 PME-Enable- DSel=0 DScale=1 PME-
00: b7 10 57 52 00 00 10 02 10 00 00 02 00 00 00 00
10: 01 00 00 00 00 00 00 00 00 00 00 00 00 00 00 00
20: 00 00 00 00 00 00 00 00 90 00 00 00 b7 10 57 5c
30: 00 00 00 00 50 00 00 00 00 00 00 00 0b 01 0a 05