Date: Tue, 28 Dec 1999 12:53:42 -0700 (MST)
From: Chris Shutters <>
Subject: 2.3.35pre6 boot failure, PCI problems
Sender: linux-kernel-owner@vger.kernel.org
Precedence: bulk
List-ID: <linux-kernel.vger.kernel.org>
X-Mailing-List: linux-kernel@vger.kernel.org
X-Lkml-Link: https://lkml.org/lkml/1999/12/28/107

Hello all,
As the subject line says, 2.3.35pre6 will not boot on my machine.  The
boot process fails during PCI initialization.  The last three lines
printed on the screen are:
PCI: PCI BIOS revision 2.10 entry at 0xfbc8e
PCI: Using configuration type 1
PCI: Probing PCI hardware
The system in question is a Dell Latitude CPi D266XT Laptop inserted into
a docking station.  It boots and works find under all 2.2.x kernel
versions (up to and including 2.2.14pre14).
Here is the output of lspci -vvx:
00:00.0 Host bridge: Intel Corporation 440BX/ZX - 82443BX/ZX Host bridge (AGP disabled) (rev 02)
	Control: I/O- Mem+ BusMaster+ SpecCycle- MemWINV- VGASnoop- ParErr- Stepping- SERR+ FastB2B-
	Status: Cap- 66Mhz- UDF- FastB2B- ParErr- DEVSEL=medium >TAbort- <TAbort- <MAbort+ >SERR- <PERR+
	Latency: 32 set
	Region 0: Memory at d0000000 (32-bit, prefetchable)
00: 86 80 92 71 06 01 00 a2 02 00 00 06 00 20 00 00
10: 08 00 00 d0 00 00 00 00 00 00 00 00 00 00 00 00
20: 00 00 00 00 00 00 00 00 00 00 00 00 00 00 00 00
30: 00 00 00 00 00 00 00 00 00 00 00 00 00 00 00 00
00:02.0 VGA compatible controller: Neomagic Corporation NM2160 [MagicGraph 128XD] (rev 01)
	Subsystem: Unknown device 1028:0074
	Control: I/O+ Mem+ BusMaster- SpecCycle- MemWINV- VGASnoop- ParErr- Stepping- SERR- FastB2B-
	Status: Cap- 66Mhz- UDF- FastB2B+ ParErr- DEVSEL=medium >TAbort- <TAbort- <MAbort- >SERR- <PERR-
	Interrupt: pin A routed to IRQ 11
	Region 0: Memory at e1000000 (32-bit, prefetchable)
	Region 1: Memory at fbe00000 (32-bit, non-prefetchable)
	Region 2: Memory at fbd00000 (32-bit, non-prefetchable)
00: c8 10 04 00 03 00 80 02 01 00 00 03 00 20 00 00
10: 08 00 00 e1 00 00 e0 fb 00 00 d0 fb 00 00 00 00
20: 00 00 00 00 00 00 00 00 00 00 00 00 28 10 74 00
30: 00 00 00 00 00 00 00 00 00 00 00 00 0b 01 10 ff
00:03.0 CardBus bridge: Texas Instruments PCI1131 (rev 01)
	Subsystem: Unknown device 104c:ac15
	Control: I/O+ Mem+ BusMaster+ SpecCycle- MemWINV- VGASnoop- ParErr- Stepping- SERR- FastB2B-
	Status: Cap- 66Mhz- UDF- FastB2B- ParErr- DEVSEL=medium >TAbort- <TAbort- <MAbort- >SERR- <PERR-
	Latency: 32 set, cache line size 08
	Interrupt: pin A routed to IRQ 0
	Region 0: Memory at <ignored> (32-bit, non-prefetchable)
	Bus: primary=00, secondary=20, subordinate=22, sec-latency=176
	BridgeCtl: Parity- SERR- ISA- VGA- MAbort- >Reset+ 16bInt+ PostWrite+
	16-bit legacy interface ports at 0007
00: 4c 10 15 ac 07 00 00 02 01 00 07 06 08 20 82 00
10: 00 00 00 68 00 00 00 02 00 20 22 b0 00 00 00 00
20: 00 00 00 00 00 00 00 00 00 00 00 00 00 00 00 00
30: 00 00 00 00 00 00 00 00 00 00 00 00 0b 01 c0 07
40: 4c 10 15 ac 07 00 00 02 01 00 07 06 08 20 82 00
50: 00 00 00 68 00 00 00 02 00 20 22 b0 00 00 00 00
60: 00 00 00 00 00 00 00 00 00 00 00 00 00 00 00 00
70: 00 00 00 00 00 00 00 00 00 00 00 00 0b 01 c0 07
00:03.1 CardBus bridge: Texas Instruments PCI1131 (rev 01)
	Subsystem: Unknown device 104c:ac15
	Control: I/O+ Mem+ BusMaster+ SpecCycle- MemWINV- VGASnoop- ParErr- Stepping- SERR- FastB2B-
	Status: Cap- 66Mhz- UDF- FastB2B- ParErr- DEVSEL=medium >TAbort- <TAbort- <MAbort- >SERR- <PERR-
	Latency: 32 set, cache line size 08
	Interrupt: pin B routed to IRQ 0
	Region 0: Memory at <ignored> (32-bit, non-prefetchable)
	Bus: primary=00, secondary=23, subordinate=25, sec-latency=176
	BridgeCtl: Parity- SERR- ISA- VGA- MAbort- >Reset+ 16bInt+ PostWrite+
	16-bit legacy interface ports at 0007
00: 4c 10 15 ac 07 00 00 02 01 00 07 06 08 20 82 00
10: 00 10 00 68 00 00 00 02 00 23 25 b0 00 00 00 00
20: 00 00 00 00 00 00 00 00 00 00 00 00 00 00 00 00
30: 00 00 00 00 00 00 00 00 00 00 00 00 0b 02 c0 07
40: 4c 10 15 ac 07 00 00 02 01 00 07 06 08 20 82 00
50: 00 10 00 68 00 00 00 02 00 23 25 b0 00 00 00 00
60: 00 00 00 00 00 00 00 00 00 00 00 00 00 00 00 00
70: 00 00 00 00 00 00 00 00 00 00 00 00 0b 02 c0 07
00:07.0 Bridge: Intel Corporation 82371AB PIIX4 ISA (rev 01)
	Control: I/O+ Mem+ BusMaster+ SpecCycle+ MemWINV- VGASnoop- ParErr- Stepping- SERR+ FastB2B-
	Status: Cap- 66Mhz- UDF- FastB2B+ ParErr- DEVSEL=medium >TAbort- <TAbort- <MAbort- >SERR- <PERR-
	Latency: 0 set
00: 86 80 10 71 0f 01 80 02 01 00 80 06 00 00 80 00
10: 00 00 00 00 00 00 00 00 00 00 00 00 00 00 00 00
20: 00 00 00 00 00 00 00 00 00 00 00 00 00 00 00 00
30: 00 00 00 00 00 00 00 00 00 00 00 00 00 00 00 00
00:07.1 IDE interface: Intel Corporation 82371AB PIIX4 IDE (rev 01) (prog-if 80)
	Control: I/O+ Mem- BusMaster+ SpecCycle- MemWINV- VGASnoop- ParErr- Stepping- SERR- FastB2B-
	Status: Cap- 66Mhz- UDF- FastB2B+ ParErr- DEVSEL=medium >TAbort- <TAbort- <MAbort- >SERR- <PERR-
	Latency: 32 set
	Region 4: I/O ports at 0860
00: 86 80 11 71 05 00 80 02 01 80 01 01 00 20 00 00
10: 00 00 00 00 00 00 00 00 00 00 00 00 00 00 00 00
20: 61 08 00 00 00 00 00 00 00 00 00 00 00 00 00 00
30: 00 00 00 00 00 00 00 00 00 00 00 00 00 00 00 00
00:07.2 USB Controller: Intel Corporation 82371AB PIIX4 USB (rev 01)
	Control: I/O+ Mem- BusMaster+ SpecCycle- MemWINV- VGASnoop- ParErr- Stepping- SERR- FastB2B-
	Status: Cap- 66Mhz- UDF- FastB2B+ ParErr- DEVSEL=medium >TAbort- <TAbort- <MAbort- >SERR- <PERR-
	Latency: 32 set
	Interrupt: pin D routed to IRQ 11
	Region 4: I/O ports at ece0
00: 86 80 12 71 05 00 80 02 01 00 03 0c 00 20 00 00
10: 00 00 00 00 00 00 00 00 00 00 00 00 00 00 00 00
20: e1 ec 00 00 00 00 00 00 00 00 00 00 00 00 00 00
30: 00 00 00 00 00 00 00 00 00 00 00 00 0b 04 00 00
00:07.3 Bridge: Intel Corporation 82371AB PIIX4 ACPI (rev 01)
	Control: I/O+ Mem+ BusMaster- SpecCycle- MemWINV- VGASnoop- ParErr- Stepping- SERR- FastB2B-
	Status: Cap- 66Mhz- UDF- FastB2B+ ParErr- DEVSEL=medium >TAbort- <TAbort- <MAbort- >SERR- <PERR-
00: 86 80 13 71 03 00 80 02 01 00 80 06 00 00 00 00
10: 00 00 00 00 00 00 00 00 00 00 00 00 00 00 00 00
20: 00 00 00 00 00 00 00 00 00 00 00 00 00 00 00 00
30: 00 00 00 00 00 00 00 00 00 00 00 00 00 00 00 00
00:11.0 PCI bridge: Intel Corporation 82380FB (rev 01) (prog-if 80)
	Control: I/O+ Mem+ BusMaster+ SpecCycle- MemWINV- VGASnoop- ParErr- Stepping+ SERR+ FastB2B-
	Status: Cap- 66Mhz- UDF- FastB2B- ParErr- DEVSEL=slow >TAbort- <TAbort- <MAbort- >SERR- <PERR-
	Latency: 32 set, cache line size 08
	Bus: primary=00, secondary=01, subordinate=01, sec-latency=0
	Prefetchable memory behind bridge: e2000000-e2ffffff
	BridgeCtl: Parity- SERR+ NoISA+ VGA- MAbort- >Reset- FastB2B-
00: 86 80 4b 12 87 01 00 04 01 80 04 06 08 20 01 00
10: 00 00 00 00 00 00 00 00 00 01 01 00 00 00 00 24
20: 00 00 00 00 00 e2 f0 e2 00 00 00 00 00 00 00 00
30: 00 00 00 00 00 00 00 00 00 00 00 00 00 00 06 00
01:05.0 IDE interface: CMD Technology Inc PCI0646 (rev 03) (prog-if 8f)
	Subsystem: Unknown device 1095:0646
	Control: I/O+ Mem- BusMaster+ SpecCycle- MemWINV- VGASnoop- ParErr- Stepping- SERR- FastB2B-
	Status: Cap- 66Mhz- UDF- FastB2B+ ParErr- DEVSEL=medium >TAbort- <TAbort- <MAbort- >SERR- <PERR-
	Latency: 2 min, 4 max, 32 set
	Interrupt: pin A routed to IRQ 10
	Region 0: I/O ports at fcf8
	Region 1: I/O ports at fcf0
	Region 2: I/O ports at fce0
	Region 3: I/O ports at fcd8
	Region 4: I/O ports at fcc0
00: 95 10 46 06 05 00 80 02 03 8f 01 01 00 20 00 00
10: f9 fc 00 00 f1 fc 00 00 e1 fc 00 00 d9 fc 00 00
20: c1 fc 00 00 00 00 00 00 00 00 00 00 95 10 46 06
30: 00 00 00 00 00 00 00 00 00 00 00 00 0a 01 02 04
01:07.0 SCSI storage controller: Adaptec AIC-7860 (rev 03)
	Subsystem: Unknown device 9004:7860
	Control: I/O+ Mem+ BusMaster+ SpecCycle- MemWINV+ VGASnoop- ParErr- Stepping- SERR+ FastB2B-
	Status: Cap+ 66Mhz- UDF- FastB2B+ ParErr- DEVSEL=medium >TAbort- <TAbort- <MAbort- >SERR- <PERR-
	Latency: 4 min, 4 max, 32 set, cache line size 08
	Interrupt: pin A routed to IRQ 10
	Region 0: I/O ports at f800
	Region 1: Memory at fdfff000 (32-bit, non-prefetchable)
	Capabilities: [dc] Power Management version 1
		Flags: PMEClk- AuxPwr- DSI+ D1- D2- PME-
		Status: D0 PME-Enable- DSel=0 DScale=0 PME-
00: 04 90 78 60 17 01 90 02 03 00 00 01 08 20 00 00
10: 01 f8 00 00 00 f0 ff fd 00 00 00 00 00 00 00 00
20: 00 00 00 00 00 00 00 00 00 00 00 00 04 90 60 78
30: 00 00 00 00 dc 00 00 00 00 00 00 00 0a 01 04 04
01:08.0 Ethernet controller: 3Com Corporation 3c905 100BaseTX [Boomerang]
	Subsystem: Unknown device 1028:0075
	Control: I/O+ Mem+ BusMaster+ SpecCycle- MemWINV- VGASnoop- ParErr- Stepping- SERR+ FastB2B-
	Status: Cap- 66Mhz- UDF- FastB2B- ParErr- DEVSEL=medium >TAbort- <TAbort- <MAbort- >SERR- <PERR-
	Latency: 3 min, 8 max, 32 set
	Interrupt: pin A routed to IRQ 10
	Region 0: I/O ports at fc80
00: b7 10 50 90 07 01 00 02 00 00 00 02 00 20 00 00
10: 81 fc 00 00 00 00 00 00 00 00 00 00 00 00 00 00
20: 00 00 00 00 00 00 00 00 00 00 00 00 28 10 75 00
30: 00 00 00 fe 00 00 00 00 00 00 00 00 0a 01 03 08
Here is the output of lspci -H1 -vvx
00:00.0 Host bridge: Intel Corporation 440BX/ZX - 82443BX/ZX Host bridge (AGP disabled) (rev 02)
	Control: I/O- Mem+ BusMaster+ SpecCycle- MemWINV- VGASnoop- ParErr- Stepping- SERR+ FastB2B-
	Status: Cap- 66Mhz- UDF- FastB2B- ParErr- DEVSEL=medium >TAbort- <TAbort- <MAbort+ >SERR- <PERR+
	Latency: 32 set
	Region 0: Memory at d0000000 (32-bit, prefetchable)
00: 86 80 92 71 06 01 00 a2 02 00 00 06 00 20 00 00
10: 08 00 00 d0 00 00 00 00 00 00 00 00 00 00 00 00
20: 00 00 00 00 00 00 00 00 00 00 00 00 00 00 00 00
30: 00 00 00 00 00 00 00 00 00 00 00 00 00 00 00 00
00:02.0 VGA compatible controller: Neomagic Corporation NM2160 [MagicGraph 128XD] (rev 01)
	Subsystem: Unknown device 1028:0074
	Control: I/O+ Mem+ BusMaster- SpecCycle- MemWINV- VGASnoop- ParErr- Stepping- SERR- FastB2B-
	Status: Cap- 66Mhz- UDF- FastB2B+ ParErr- DEVSEL=medium >TAbort- <TAbort- <MAbort- >SERR- <PERR-
	Interrupt: pin A routed to IRQ 11
	Region 0: Memory at e1000000 (32-bit, prefetchable)
	Region 1: Memory at fbe00000 (32-bit, non-prefetchable)
	Region 2: Memory at fbd00000 (32-bit, non-prefetchable)
00: c8 10 04 00 03 00 80 02 01 00 00 03 00 20 00 00
10: 08 00 00 e1 00 00 e0 fb 00 00 d0 fb 00 00 00 00
20: 00 00 00 00 00 00 00 00 00 00 00 00 28 10 74 00
30: 00 00 00 00 00 00 00 00 00 00 00 00 0b 01 10 ff
00:03.0 CardBus bridge: Texas Instruments PCI1131 (rev 01)
	Subsystem: Unknown device 104c:ac15
	Control: I/O+ Mem+ BusMaster+ SpecCycle- MemWINV- VGASnoop- ParErr- Stepping- SERR- FastB2B-
	Status: Cap- 66Mhz- UDF- FastB2B- ParErr- DEVSEL=medium >TAbort- <TAbort- <MAbort- >SERR- <PERR-
	Latency: 32 set, cache line size 08
	Interrupt: pin A routed to IRQ 11
	Region 0: Memory at 68000000 (32-bit, non-prefetchable)
	Bus: primary=00, secondary=20, subordinate=22, sec-latency=176
	BridgeCtl: Parity- SERR- ISA- VGA- MAbort- >Reset+ 16bInt+ PostWrite+
	16-bit legacy interface ports at 0007
00: 4c 10 15 ac 07 00 00 02 01 00 07 06 08 20 82 00
10: 00 00 00 68 00 00 00 02 00 20 22 b0 00 00 00 00
20: 00 00 00 00 00 00 00 00 00 00 00 00 00 00 00 00
30: 00 00 00 00 00 00 00 00 00 00 00 00 0b 01 c0 07
40: 4c 10 15 ac 07 00 00 02 01 00 07 06 08 20 82 00
50: 00 00 00 68 00 00 00 02 00 20 22 b0 00 00 00 00
60: 00 00 00 00 00 00 00 00 00 00 00 00 00 00 00 00
70: 00 00 00 00 00 00 00 00 00 00 00 00 0b 01 c0 07
00:03.1 CardBus bridge: Texas Instruments PCI1131 (rev 01)
	Subsystem: Unknown device 104c:ac15
	Control: I/O+ Mem+ BusMaster+ SpecCycle- MemWINV- VGASnoop- ParErr- Stepping- SERR- FastB2B-
	Status: Cap- 66Mhz- UDF- FastB2B- ParErr- DEVSEL=medium >TAbort- <TAbort- <MAbort- >SERR- <PERR-
	Latency: 32 set, cache line size 08
	Interrupt: pin B routed to IRQ 11
	Region 0: Memory at 68001000 (32-bit, non-prefetchable)
	Bus: primary=00, secondary=23, subordinate=25, sec-latency=176
	BridgeCtl: Parity- SERR- ISA- VGA- MAbort- >Reset+ 16bInt+ PostWrite+
	16-bit legacy interface ports at 0007
00: 4c 10 15 ac 07 00 00 02 01 00 07 06 08 20 82 00
10: 00 10 00 68 00 00 00 02 00 23 25 b0 00 00 00 00
20: 00 00 00 00 00 00 00 00 00 00 00 00 00 00 00 00
30: 00 00 00 00 00 00 00 00 00 00 00 00 0b 02 c0 07
40: 4c 10 15 ac 07 00 00 02 01 00 07 06 08 20 82 00
50: 00 10 00 68 00 00 00 02 00 23 25 b0 00 00 00 00
60: 00 00 00 00 00 00 00 00 00 00 00 00 00 00 00 00
70: 00 00 00 00 00 00 00 00 00 00 00 00 0b 02 c0 07
00:07.0 Bridge: Intel Corporation 82371AB PIIX4 ISA (rev 01)
	Control: I/O+ Mem+ BusMaster+ SpecCycle+ MemWINV- VGASnoop- ParErr- Stepping- SERR+ FastB2B-
	Status: Cap- 66Mhz- UDF- FastB2B+ ParErr- DEVSEL=medium >TAbort- <TAbort- <MAbort- >SERR- <PERR-
	Latency: 0 set
00: 86 80 10 71 0f 01 80 02 01 00 80 06 00 00 80 00
10: 00 00 00 00 00 00 00 00 00 00 00 00 00 00 00 00
20: 00 00 00 00 00 00 00 00 00 00 00 00 00 00 00 00
30: 00 00 00 00 00 00 00 00 00 00 00 00 00 00 00 00
00:07.1 IDE interface: Intel Corporation 82371AB PIIX4 IDE (rev 01) (prog-if 80)
	Control: I/O+ Mem- BusMaster+ SpecCycle- MemWINV- VGASnoop- ParErr- Stepping- SERR- FastB2B-
	Status: Cap- 66Mhz- UDF- FastB2B+ ParErr- DEVSEL=medium >TAbort- <TAbort- <MAbort- >SERR- <PERR-
	Latency: 32 set
	Region 4: I/O ports at 0860
00: 86 80 11 71 05 00 80 02 01 80 01 01 00 20 00 00
10: 00 00 00 00 00 00 00 00 00 00 00 00 00 00 00 00
20: 61 08 00 00 00 00 00 00 00 00 00 00 00 00 00 00
30: 00 00 00 00 00 00 00 00 00 00 00 00 00 00 00 00
00:07.2 USB Controller: Intel Corporation 82371AB PIIX4 USB (rev 01)
	Control: I/O+ Mem- BusMaster+ SpecCycle- MemWINV- VGASnoop- ParErr- Stepping- SERR- FastB2B-
	Status: Cap- 66Mhz- UDF- FastB2B+ ParErr- DEVSEL=medium >TAbort- <TAbort- <MAbort- >SERR- <PERR-
	Latency: 32 set
	Interrupt: pin D routed to IRQ 11
	Region 4: I/O ports at ece0
00: 86 80 12 71 05 00 80 02 01 00 03 0c 00 20 00 00
10: 00 00 00 00 00 00 00 00 00 00 00 00 00 00 00 00
20: e1 ec 00 00 00 00 00 00 00 00 00 00 00 00 00 00
30: 00 00 00 00 00 00 00 00 00 00 00 00 0b 04 00 00
00:07.3 Bridge: Intel Corporation 82371AB PIIX4 ACPI (rev 01)
	Control: I/O+ Mem+ BusMaster- SpecCycle- MemWINV- VGASnoop- ParErr- Stepping- SERR- FastB2B-
	Status: Cap- 66Mhz- UDF- FastB2B+ ParErr- DEVSEL=medium >TAbort- <TAbort- <MAbort- >SERR- <PERR-
00: 86 80 13 71 03 00 80 02 01 00 80 06 00 00 00 00
10: 00 00 00 00 00 00 00 00 00 00 00 00 00 00 00 00
20: 00 00 00 00 00 00 00 00 00 00 00 00 00 00 00 00
30: 00 00 00 00 00 00 00 00 00 00 00 00 00 00 00 00
00:11.0 PCI bridge: Intel Corporation 82380FB (rev 01) (prog-if 80)
	Control: I/O+ Mem+ BusMaster+ SpecCycle- MemWINV- VGASnoop- ParErr- Stepping+ SERR+ FastB2B-
	Status: Cap- 66Mhz- UDF- FastB2B- ParErr- DEVSEL=slow >TAbort- <TAbort- <MAbort- >SERR- <PERR-
	Latency: 32 set, cache line size 08
	Bus: primary=00, secondary=01, subordinate=01, sec-latency=0
	Prefetchable memory behind bridge: e2000000-e2ffffff
	BridgeCtl: Parity- SERR+ NoISA+ VGA- MAbort- >Reset- FastB2B-
00: 86 80 4b 12 87 01 00 04 01 80 04 06 08 20 01 00
10: 00 00 00 00 00 00 00 00 00 01 01 00 00 00 00 24
20: 00 00 00 00 00 e2 f0 e2 00 00 00 00 00 00 00 00
30: 00 00 00 00 00 00 00 00 00 00 00 00 00 00 06 00
01:05.0 IDE interface: CMD Technology Inc PCI0646 (rev 03) (prog-if 8f)
	Subsystem: Unknown device 1095:0646
	Control: I/O+ Mem- BusMaster+ SpecCycle- MemWINV- VGASnoop- ParErr- Stepping- SERR- FastB2B-
	Status: Cap- 66Mhz- UDF- FastB2B+ ParErr- DEVSEL=medium >TAbort- <TAbort- <MAbort- >SERR- <PERR-
	Latency: 2 min, 4 max, 32 set
	Interrupt: pin A routed to IRQ 10
	Region 0: I/O ports at fcf8
	Region 1: I/O ports at fcf0
	Region 2: I/O ports at fce0
	Region 3: I/O ports at fcd8
	Region 4: I/O ports at fcc0
00: 95 10 46 06 05 00 80 02 03 8f 01 01 00 20 00 00
10: f9 fc 00 00 f1 fc 00 00 e1 fc 00 00 d9 fc 00 00
20: c1 fc 00 00 00 00 00 00 00 00 00 00 95 10 46 06
30: 00 00 00 00 00 00 00 00 00 00 00 00 0a 01 02 04
01:07.0 SCSI storage controller: Adaptec AIC-7860 (rev 03)
	Subsystem: Unknown device 9004:7860
	Control: I/O+ Mem+ BusMaster+ SpecCycle- MemWINV+ VGASnoop- ParErr- Stepping- SERR+ FastB2B-
	Status: Cap+ 66Mhz- UDF- FastB2B+ ParErr- DEVSEL=medium >TAbort- <TAbort- <MAbort- >SERR- <PERR-
	Latency: 4 min, 4 max, 32 set, cache line size 08
	Interrupt: pin A routed to IRQ 10
	Region 0: I/O ports at f800
	Region 1: Memory at fdfff000 (32-bit, non-prefetchable)
	Capabilities: [dc] Power Management version 1
		Flags: PMEClk- AuxPwr- DSI+ D1- D2- PME-
		Status: D0 PME-Enable- DSel=0 DScale=0 PME-
00: 04 90 78 60 17 01 90 02 03 00 00 01 08 20 00 00
10: 01 f8 00 00 00 f0 ff fd 00 00 00 00 00 00 00 00
20: 00 00 00 00 00 00 00 00 00 00 00 00 04 90 60 78
30: 00 00 00 00 dc 00 00 00 00 00 00 00 0a 01 04 04
01:08.0 Ethernet controller: 3Com Corporation 3c905 100BaseTX [Boomerang]
	Subsystem: Unknown device 1028:0075
	Control: I/O+ Mem+ BusMaster+ SpecCycle- MemWINV- VGASnoop- ParErr- Stepping- SERR+ FastB2B-
	Status: Cap- 66Mhz- UDF- FastB2B- ParErr- DEVSEL=medium >TAbort- <TAbort- <MAbort- >SERR- <PERR-
	Latency: 3 min, 8 max, 32 set
	Interrupt: pin A routed to IRQ 10
	Region 0: I/O ports at fc80
00: b7 10 50 90 07 01 00 02 00 00 00 02 00 20 00 00
10: 81 fc 00 00 00 00 00 00 00 00 00 00 00 00 00 00
20: 00 00 00 00 00 00 00 00 00 00 00 00 28 10 75 00
30: 00 00 00 fe 00 00 00 00 00 00 00 00 0a 01 03 08
Please let me know if anyone needs any further information from me about
this boot problem -- I am more than willing to help!
Cheers,
Chris Shutters
cshutters@dmwworldwide.com
-
To unsubscribe from this list: send the line "unsubscribe linux-kernel" in
the body of a message to majordomo@vger.rutgers.edu
Please read the FAQ at 
http://www.tux.org/lkml/