Date: Thu, 26 Oct 2000 10:18:20 -0400
From: Crutcher Dunnavant <>
Subject: Re: Possible critical VIA vt82c686a chip bug
Sender: linux-kernel-owner@vger.kernel.org
Precedence: bulk
List-ID: <linux-kernel.vger.kernel.org>
X-Mailing-List: linux-kernel@vger.kernel.org
X-Lkml-Link: https://lkml.org/lkml/2000/10/26/119

++ 26/10/00 16:11 +0200 - Vojtech Pavlik:
> On Thu, Oct 26, 2000 at 04:13:51PM +0200, Yoann Vandoorselaere wrote:
> 
> > > > > I've found a bug in my VIA SuperSouth (vt82c686a) chip (ISA bridge
> > > > > revision 0x12, silicon rev CD) on my FIC VA-503A rev 1.2:
> > > > > 
> > > > > When there is heavy disk activity (several tars running concurrently on
> > > > > UDMA66 drive, or tar'ing from one UDMA66 drive to another over two
> > > > > channels), the system time, namely gettimeofday() goes crazy - now and
> > > > > then it advances the time about 1:20 for a fraction of a second and then
> > > > > changes back to normal time.
> > > > > 
> > > > > This causes X to blank the screen when it should not, 
> > > > 
> > > > Really strange, I'm getting exactly the same problem on a machine
> > > > with the same chipset...
> > > 
> > > Could you send me your 'lspci -vvxxx' to confirm it's the very same
> > > chip?
> > 
> > 00:07.0 ISA bridge: VIA Technologies, Inc. VT82C686 [Apollo Super South] (rev 22)
> >         Subsystem: VIA Technologies, Inc. VT82C686/A PCI to ISA Bridge
> >         Control: I/O+ Mem+ BusMaster+ SpecCycle- MemWINV- VGASnoop- ParErr- Stepping+ SERR- FastB2B-
> >         Status: Cap+ 66Mhz- UDF- FastB2B- ParErr- DEVSEL=medium >TAbort- <TAbort- <MAbort- >SERR- <PERR-
> >         Latency: 0
> 
> Oh, this is a newer revision than mine (silicon CF or CG) - I'd expect
> that one not to have the problem ... well, it seems it's more widespread
> than I expected.
> 
> -- 
> Vojtech Pavlik
> SuSE Labs
> -
> To unsubscribe from this list: send the line "unsubscribe linux-kernel" in
> the body of a message to majordomo@vger.kernel.org
> Please read the FAQ at 
http://www.tux.org/lkml/
I am having the same problems, here's my info if it helps:
00:00.0 Host bridge: VIA Technologies, Inc. VT82C691 [Apollo PRO] (rev 02)
	Subsystem: Asustek Computer, Inc.: Unknown device 8023
	Control: I/O- Mem+ BusMaster+ SpecCycle- MemWINV- VGASnoop- ParErr- Stepping- SERR- FastB2B-
	Status: Cap+ 66Mhz- UDF- FastB2B- ParErr- DEVSEL=medium >TAbort- <TAbort- <MAbort+ >SERR- <PERR+
	Latency: 0
	Region 0: Memory at e4000000 (32-bit, prefetchable)
	Capabilities: [a0] AGP version 2.0
		Status: RQ=31 SBA+ 64bit- FW- Rate=x1,x2
		Command: RQ=0 SBA- AGP- 64bit- FW- Rate=<none>
00: 06 11 91 06 06 00 10 a2 02 00 00 06 00 00 00 00
10: 08 00 00 e4 00 00 00 00 00 00 00 00 00 00 00 00
20: 00 00 00 00 00 00 00 00 00 00 00 00 43 10 23 80
30: 00 00 00 00 a0 00 00 00 00 00 00 00 00 00 00 00
40: 00 00 00 00 00 00 00 00 00 00 00 00 00 00 00 00
50: 17 a4 03 b4 4f 00 10 10 80 00 08 10 10 10 10 10
60: 03 ff 00 a0 12 a5 a5 00 45 2c 65 2d 08 23 00 11
70: de 80 cc 0c 0e 81 d2 00 00 f4 01 02 00 00 00 00
80: 0f 41 00 00 c0 00 00 00 03 00 06 0f 10 00 00 00
90: 00 00 00 00 00 00 00 00 00 00 00 00 00 00 00 00
a0: 02 00 20 00 07 02 00 1f 00 00 00 00 6a 02 04 00
b0: 7f 66 82 a4 22 77 00 00 00 00 00 00 00 00 00 00
c0: 00 00 00 00 00 00 00 00 00 00 00 00 00 00 00 00
d0: 00 00 00 00 00 00 00 00 00 00 00 00 00 00 00 00
e0: 00 00 00 00 00 00 00 00 00 00 00 00 00 00 00 00
f0: 00 00 00 00 00 00 00 02 22 00 00 00 01 00 91 06
00:01.0 PCI bridge: VIA Technologies, Inc. VT82C598 [Apollo MVP3 AGP] (prog-if 00 [Normal decode])
	Control: I/O+ Mem+ BusMaster+ SpecCycle- MemWINV- VGASnoop- ParErr- Stepping- SERR- FastB2B-
	Status: Cap+ 66Mhz+ UDF- FastB2B- ParErr- DEVSEL=medium >TAbort- <TAbort- <MAbort+ >SERR- <PERR-
	Latency: 0
	Bus: primary=00, secondary=01, subordinate=01, sec-latency=0
	I/O behind bridge: 0000d000-0000dfff
	Memory behind bridge: de000000-e1dfffff
	Prefetchable memory behind bridge: e1f00000-e3ffffff
	BridgeCtl: Parity- SERR- NoISA- VGA+ MAbort- >Reset- FastB2B-
	Capabilities: [80] Power Management version 2
		Flags: PMEClk- DSI+ D1+ D2- AuxCurrent=0mA PME(D0-,D1-,D2-,D3hot-,D3cold-)
		Status: D0 PME-Enable- DSel=0 DScale=0 PME-
00: 06 11 98 85 07 00 30 22 00 00 04 06 00 00 01 00
10: 00 00 00 00 00 00 00 00 00 01 01 00 d0 d0 00 00
20: 00 de d0 e1 f0 e1 f0 e3 00 00 00 00 00 00 00 00
30: 00 00 00 00 80 00 00 00 00 00 00 00 00 00 08 00
40: d8 cd 00 44 07 72 98 85 00 00 00 00 00 00 00 00
50: 00 00 00 00 00 00 00 00 00 00 00 00 00 00 00 00
60: 00 00 00 00 00 00 00 00 00 00 00 00 00 00 00 00
70: 00 00 00 00 00 00 00 00 00 00 00 00 00 00 00 00
80: 01 00 22 02 00 00 00 00 00 00 00 00 00 00 00 00
90: 00 00 00 00 00 00 00 00 00 00 00 00 00 00 00 00
a0: 00 00 00 00 00 00 00 00 00 00 00 00 00 00 00 00
b0: 00 00 00 00 00 00 00 00 00 00 00 00 00 00 00 00
c0: 00 00 00 00 00 00 00 00 00 00 00 00 00 00 00 00
d0: 00 00 00 00 00 00 00 00 00 00 00 00 00 00 00 00
e0: 00 00 00 00 00 00 00 00 00 00 00 00 00 00 00 00
f0: 00 00 00 00 00 00 00 00 00 00 00 00 00 00 00 00
00:04.0 ISA bridge: VIA Technologies, Inc. VT82C686 [Apollo Super] (rev 22)
	Subsystem: Asustek Computer, Inc.: Unknown device 8023
	Control: I/O+ Mem+ BusMaster+ SpecCycle- MemWINV- VGASnoop- ParErr- Stepping+ SERR- FastB2B-
	Status: Cap+ 66Mhz- UDF- FastB2B- ParErr- DEVSEL=medium >TAbort- <TAbort- <MAbort- >SERR- <PERR-
	Latency: 0
00: 06 11 86 06 87 00 10 02 22 00 01 06 00 00 80 00
10: 00 00 00 00 00 00 00 00 00 00 00 00 00 00 00 00
20: 00 00 00 00 00 00 00 00 00 00 00 00 43 10 23 80
30: 00 00 00 00 00 00 00 00 00 00 00 00 00 00 00 00
40: 00 01 00 00 00 80 60 ee 01 00 c4 00 00 00 00 f3
50: 0e 76 34 00 00 b0 5a 90 00 04 ff 08 80 00 00 00
60: 00 00 00 00 00 00 00 00 00 00 00 00 00 00 00 00
70: 00 00 00 00 6d 00 40 02 00 00 00 00 00 00 00 00
80: 00 00 00 00 00 0d 00 00 00 00 00 00 00 00 00 00
90: 00 00 00 00 00 00 00 00 00 00 00 00 00 00 00 00
a0: 00 00 00 00 00 00 00 00 00 00 00 00 00 00 00 00
b0: 00 00 00 00 00 00 00 00 00 00 00 00 00 00 00 00
c0: 01 00 02 00 00 00 00 00 00 00 00 00 00 00 00 00
d0: 00 00 00 00 00 00 00 00 00 00 00 00 00 00 00 00
e0: 00 00 00 00 00 00 00 00 00 00 00 00 00 00 00 00
f0: 00 00 00 00 00 00 00 00 00 00 00 00 00 00 00 00
00:04.1 IDE interface: VIA Technologies, Inc. VT82C586 IDE [Apollo] (rev 10) (prog-if 8a [Master SecP PriP])
	Control: I/O+ Mem+ BusMaster+ SpecCycle- MemWINV- VGASnoop- ParErr- Stepping+ SERR- FastB2B-
	Status: Cap+ 66Mhz- UDF- FastB2B+ ParErr- DEVSEL=medium >TAbort- <TAbort- <MAbort- >SERR- <PERR-
	Latency: 32
	Region 4: I/O ports at b800
	Capabilities: [c0] Power Management version 2
		Flags: PMEClk- DSI- D1- D2- AuxCurrent=0mA PME(D0-,D1-,D2-,D3hot-,D3cold-)
		Status: D0 PME-Enable- DSel=0 DScale=0 PME-
00: 06 11 71 05 87 00 90 02 10 8a 01 01 00 20 00 00
10: 00 00 00 00 00 00 00 00 00 00 00 00 00 00 00 00
20: 01 b8 00 00 00 00 00 00 00 00 00 00 00 00 00 00
30: 00 00 00 00 c0 00 00 00 00 00 00 00 00 00 00 00
40: 03 32 02 3a 08 1c c0 00 a8 20 31 20 ff 00 ff ff
50: 0f e0 0f e0 14 00 00 00 a8 a8 a8 a8 00 00 00 00
60: 00 02 00 00 00 00 00 00 00 02 00 00 00 00 00 00
70: 02 01 00 00 00 00 00 00 02 01 00 00 00 00 00 00
80: 00 20 fc 0f 00 00 00 00 00 28 fc 0f 00 00 00 00
90: 00 00 00 00 00 00 00 00 00 00 00 00 00 00 00 00
a0: 00 00 00 00 00 00 00 00 00 00 00 00 00 00 00 00
b0: 00 00 00 00 00 00 00 00 00 00 00 00 00 00 00 00
c0: 01 00 02 00 00 00 00 00 00 00 00 00 00 00 00 00
d0: 10 00 71 05 00 00 00 00 00 00 00 00 00 00 00 00
e0: 00 00 00 00 00 00 00 00 00 00 00 00 00 00 00 00
f0: 00 00 00 00 00 00 00 00 00 00 00 00 00 00 00 00
00:04.2 USB Controller: VIA Technologies, Inc. VT82C586B USB (rev 10) (prog-if 00 [UHCI])
	Subsystem: Unknown device 0925:1234
	Control: I/O+ Mem+ BusMaster+ SpecCycle- MemWINV+ VGASnoop- ParErr- Stepping- SERR- FastB2B-
	Status: Cap+ 66Mhz- UDF- FastB2B- ParErr- DEVSEL=medium >TAbort- <TAbort- <MAbort- >SERR- <PERR-
	Latency: 32, cache line size 08
	Interrupt: pin D routed to IRQ 9
	Region 4: I/O ports at b400
	Capabilities: [80] Power Management version 2
		Flags: PMEClk- DSI- D1- D2- AuxCurrent=0mA PME(D0-,D1-,D2-,D3hot-,D3cold-)
		Status: D0 PME-Enable- DSel=0 DScale=0 PME-
00: 06 11 38 30 17 00 10 02 10 00 03 0c 08 20 00 00
10: 00 00 00 00 00 00 00 00 00 00 00 00 00 00 00 00
20: 01 b4 00 00 00 00 00 00 00 00 00 00 25 09 34 12
30: 00 00 00 00 80 00 00 00 00 00 00 00 09 04 00 00
40: 00 12 03 00 c6 00 20 0c 00 00 00 00 00 00 00 00
50: 00 00 00 00 00 00 00 00 00 00 00 00 00 00 00 00
60: 10 00 00 00 00 00 00 00 00 00 00 00 00 00 00 00
70: 00 00 00 00 00 00 00 00 00 00 00 00 00 00 00 00
80: 01 00 02 00 00 00 00 00 00 00 00 00 00 00 00 00
90: 00 00 00 00 00 00 00 00 00 00 00 00 00 00 00 00
a0: 00 00 00 00 00 00 00 00 00 00 00 00 00 00 00 00
b0: 00 00 00 00 00 00 00 00 00 00 00 00 00 00 00 00
c0: 00 20 00 00 00 00 00 00 00 00 00 00 00 00 00 00
d0: 00 00 00 00 00 00 00 00 00 00 00 00 00 00 00 00
e0: 00 00 00 00 00 00 00 00 00 00 00 00 00 00 00 00
f0: 00 00 00 00 00 00 00 00 00 00 00 00 00 00 00 00
00:04.3 USB Controller: VIA Technologies, Inc. VT82C586B USB (rev 10) (prog-if 00 [UHCI])
	Subsystem: Unknown device 0925:1234
	Control: I/O+ Mem+ BusMaster+ SpecCycle- MemWINV+ VGASnoop- ParErr- Stepping- SERR- FastB2B-
	Status: Cap+ 66Mhz- UDF- FastB2B- ParErr- DEVSEL=medium >TAbort- <TAbort- <MAbort- >SERR- <PERR-
	Latency: 32, cache line size 08
	Interrupt: pin D routed to IRQ 9
	Region 4: I/O ports at b000
	Capabilities: [80] Power Management version 2
		Flags: PMEClk- DSI- D1- D2- AuxCurrent=0mA PME(D0-,D1-,D2-,D3hot-,D3cold-)
		Status: D0 PME-Enable- DSel=0 DScale=0 PME-
00: 06 11 38 30 17 00 10 02 10 00 03 0c 08 20 00 00
10: 00 00 00 00 00 00 00 00 00 00 00 00 00 00 00 00
20: 01 b0 00 00 00 00 00 00 00 00 00 00 25 09 34 12
30: 00 00 00 00 80 00 00 00 00 00 00 00 09 04 00 00
40: 00 12 01 00 c2 00 00 cc 00 00 00 00 00 00 00 00
50: 00 00 00 00 00 00 00 00 00 00 00 00 00 00 00 00
60: 10 00 00 00 00 00 00 00 00 00 00 00 00 00 00 00
70: 00 00 00 00 00 00 00 00 00 00 00 00 00 00 00 00
80: 01 00 02 00 00 00 00 00 00 00 00 00 00 00 00 00
90: 00 00 00 00 00 00 00 00 00 00 00 00 00 00 00 00
a0: 00 00 00 00 00 00 00 00 00 00 00 00 00 00 00 00
b0: 00 00 00 00 00 00 00 00 00 00 00 00 00 00 00 00
c0: 00 20 00 00 00 00 00 00 00 00 00 00 00 00 00 00
d0: 00 00 00 00 00 00 00 00 00 00 00 00 00 00 00 00
e0: 00 00 00 00 00 00 00 00 00 00 00 00 00 00 00 00
f0: 00 00 00 00 00 00 00 00 00 00 00 00 00 00 00 00
00:04.4 Host bridge: VIA Technologies, Inc. VT82C686 [Apollo Super ACPI] (rev 30)
	Control: I/O- Mem- BusMaster- SpecCycle- MemWINV- VGASnoop- ParErr- Stepping- SERR- FastB2B-
	Status: Cap+ 66Mhz- UDF- FastB2B+ ParErr- DEVSEL=medium >TAbort- <TAbort- <MAbort- >SERR- <PERR-
	Capabilities: [68] Power Management version 2
		Flags: PMEClk- DSI- D1- D2- AuxCurrent=0mA PME(D0-,D1-,D2-,D3hot-,D3cold-)
		Status: D0 PME-Enable- DSel=0 DScale=0 PME-
00: 06 11 57 30 00 00 90 02 30 00 00 06 00 00 00 00
10: 00 00 00 00 00 00 00 00 00 00 00 00 00 00 00 00
20: 00 00 00 00 00 00 00 00 00 00 00 00 00 00 00 00
30: 00 00 00 00 68 00 00 00 00 00 00 00 00 00 00 00
40: 20 80 49 00 1a 10 00 00 01 e4 00 00 00 10 00 00
50: 00 ff ff 04 10 04 00 00 00 fe ff 00 00 00 00 00
60: 00 00 00 00 00 00 00 00 01 00 02 00 00 00 00 00
70: 01 00 00 00 00 00 00 00 00 00 00 00 00 00 00 00
80: 00 00 00 00 00 00 00 00 00 00 00 00 00 00 00 00
90: 01 e8 00 00 00 00 00 00 00 00 00 00 00 00 00 00
a0: 00 00 00 00 00 00 00 00 00 00 00 00 00 00 00 00
b0: 00 00 00 00 00 00 00 00 00 00 00 00 00 00 00 00
c0: 00 00 00 00 00 00 00 00 00 00 00 00 00 00 00 00
d0: 00 00 01 00 00 00 00 00 00 00 00 00 00 00 00 00
e0: 00 00 00 00 00 00 00 00 00 00 00 00 00 00 00 00
f0: 00 00 00 00 00 00 00 00 00 00 00 00 00 00 00 00
00:09.0 Ethernet controller: Lite-On Communications Inc LNE100TX (rev 20)
	Subsystem: Netgear FA310TX
	Control: I/O+ Mem+ BusMaster+ SpecCycle- MemWINV- VGASnoop- ParErr- Stepping- SERR- FastB2B-
	Status: Cap- 66Mhz- UDF- FastB2B+ ParErr- DEVSEL=medium >TAbort- <TAbort- <MAbort- >SERR- <PERR-
	Latency: 32
	Interrupt: pin A routed to IRQ 9
	Region 0: I/O ports at 9400
	Region 1: Memory at dd800000 (32-bit, non-prefetchable)
00: ad 11 02 00 07 00 80 02 20 00 00 02 00 20 00 00
10: 01 94 00 00 00 00 80 dd 00 00 00 00 00 00 00 00
20: 00 00 00 00 00 00 00 00 00 00 00 00 85 13 04 f0
30: 00 00 00 00 00 00 00 00 00 00 00 00 09 01 00 00
40: 00 00 00 00 00 00 00 00 00 00 00 00 00 00 00 00
50: 00 00 00 00 00 00 00 00 00 00 00 00 00 00 00 00
60: 00 00 00 00 00 00 00 00 00 00 00 00 00 00 00 00
70: 00 00 00 00 00 00 00 00 00 00 00 00 00 00 00 00
80: 00 00 00 00 00 00 00 00 00 00 00 00 00 00 00 00
90: 00 00 00 00 00 00 00 00 00 00 00 00 00 00 00 00
a0: 00 00 00 00 00 00 00 00 00 00 00 00 00 00 00 00
b0: 00 00 00 00 00 00 00 00 00 00 00 00 00 00 00 00
c0: 00 00 00 00 00 00 00 00 00 00 00 00 00 00 00 00
d0: 00 00 00 00 00 00 00 00 00 00 00 00 00 00 00 00
e0: 00 00 00 00 00 00 00 00 00 00 00 00 00 00 00 00
f0: 00 00 00 00 00 00 00 00 00 00 00 00 00 00 00 00
00:0a.0 Ethernet controller: 3Com Corporation 3c900B-TPO [Etherlink XL TPO] (rev 04)
	Subsystem: 3Com Corporation 3C900B-TPO Etherlink XL TPO 10Mb
	Control: I/O+ Mem+ BusMaster+ SpecCycle- MemWINV+ VGASnoop- ParErr- Stepping- SERR- FastB2B-
	Status: Cap+ 66Mhz- UDF- FastB2B- ParErr- DEVSEL=medium >TAbort- <TAbort- <MAbort- >SERR- <PERR-
	Latency: 32 (2500ns min, 12000ns max), cache line size 08
	Interrupt: pin A routed to IRQ 5
	Region 0: I/O ports at 9000
	Region 1: Memory at dd000000 (32-bit, non-prefetchable)
	Capabilities: [dc] Power Management version 1
		Flags: PMEClk- DSI- D1+ D2+ AuxCurrent=0mA PME(D0-,D1+,D2+,D3hot+,D3cold-)
		Status: D0 PME-Enable- DSel=0 DScale=0 PME-
00: b7 10 04 90 17 00 10 02 04 00 00 02 08 20 00 00
10: 01 90 00 00 00 00 00 dd 00 00 00 00 00 00 00 00
20: 00 00 00 00 00 00 00 00 00 00 00 00 b7 10 04 90
30: 00 00 00 00 dc 00 00 00 00 00 00 00 05 01 0a 30
40: 00 00 00 00 00 00 00 00 00 00 00 00 00 00 00 00
50: 00 00 00 00 00 00 00 00 00 00 00 00 00 00 00 00
60: 00 00 00 00 00 00 00 00 00 00 00 00 00 00 00 00
70: 00 00 00 00 00 00 00 00 00 00 00 00 00 00 00 00
80: 00 00 00 00 00 00 00 00 00 00 00 00 00 00 00 00
90: 00 00 00 00 00 00 00 00 00 00 00 00 00 00 00 00
a0: 00 00 00 00 00 00 00 00 00 00 00 00 00 00 00 00
b0: 00 00 00 00 00 00 00 00 00 00 00 00 00 00 00 00
c0: 00 00 00 00 00 00 00 00 00 00 00 00 00 00 00 00
d0: 00 00 00 00 00 00 00 00 00 00 00 00 01 00 01 76
e0: 00 00 00 00 00 00 00 00 00 00 00 00 00 00 00 00
f0: 00 00 00 00 00 00 00 00 00 00 00 00 00 00 00 00
00:0b.0 Multimedia audio controller: Ensoniq ES1371 [AudioPCI-97] (rev 02)
	Subsystem: Ensoniq Creative Sound Blaster AudioPCI64V, AudioPCI128
	Control: I/O+ Mem- BusMaster+ SpecCycle- MemWINV- VGASnoop- ParErr- Stepping- SERR- FastB2B-
	Status: Cap+ 66Mhz- UDF- FastB2B- ParErr- DEVSEL=slow >TAbort- <TAbort+ <MAbort+ >SERR- <PERR-
	Latency: 32 (3000ns min, 32000ns max)
	Interrupt: pin A routed to IRQ 10
	Region 0: I/O ports at 8800
	Capabilities: [dc] Power Management version 1
		Flags: PMEClk- DSI+ D1- D2+ AuxCurrent=0mA PME(D0+,D1-,D2+,D3hot+,D3cold-)
		Status: D0 PME-Enable- DSel=0 DScale=0 PME-
00: 74 12 71 13 05 00 10 34 02 00 01 04 00 20 00 00
10: 01 88 00 00 00 00 00 00 00 00 00 00 00 00 00 00
20: 00 00 00 00 00 00 00 00 00 00 00 00 74 12 71 13
30: 00 00 00 00 dc 00 00 00 00 00 00 00 0a 01 0c 80
40: 00 00 00 00 00 00 00 00 00 00 00 00 00 00 00 00
50: 00 00 00 00 00 00 00 00 00 00 00 00 00 00 00 00
60: 00 00 00 00 00 00 00 00 00 00 00 00 00 00 00 00
70: 00 00 00 00 00 00 00 00 00 00 00 00 00 00 00 00
80: 00 00 00 00 00 00 00 00 00 00 00 00 00 00 00 00
90: 00 00 00 00 00 00 00 00 00 00 00 00 00 00 00 00
a0: 00 00 00 00 00 00 00 00 00 00 00 00 00 00 00 00
b0: 00 00 00 00 00 00 00 00 00 00 00 00 00 00 00 00
c0: 00 00 00 00 00 00 00 00 00 00 00 00 00 00 00 00
d0: 00 00 00 00 00 00 00 00 00 00 00 00 01 00 31 6c
e0: 00 00 00 00 00 00 00 00 00 00 00 00 00 00 00 00
f0: 00 00 00 00 00 00 00 00 00 00 00 00 00 00 00 00
01:00.0 VGA compatible controller: 3Dfx Interactive, Inc. Voodoo 3 (rev 01) (prog-if 00 [VGA])
	Subsystem: 3Dfx Interactive, Inc. Voodoo3 AGP
	Control: I/O+ Mem+ BusMaster- SpecCycle- MemWINV- VGASnoop- ParErr- Stepping- SERR- FastB2B-
	Status: Cap+ 66Mhz+ UDF- FastB2B+ ParErr- DEVSEL=fast >TAbort- <TAbort- <MAbort- >SERR- <PERR+
	Interrupt: pin A routed to IRQ 11
	Region 0: Memory at de000000 (32-bit, non-prefetchable)
	Region 1: Memory at e2000000 (32-bit, prefetchable)
	Region 2: I/O ports at d800
	Expansion ROM at e1ff0000 [disabled]
	Capabilities: [54] AGP version 1.0
		Status: RQ=7 SBA+ 64bit+ FW- Rate=x1,x2
		Command: RQ=0 SBA- AGP- 64bit- FW- Rate=<none>
	Capabilities: [60] Power Management version 1
		Flags: PMEClk- DSI+ D1- D2- AuxCurrent=0mA PME(D0-,D1-,D2-,D3hot-,D3cold-)
		Status: D0 PME-Enable- DSel=0 DScale=0 PME-
00: 1a 12 05 00 03 00 b0 80 01 00 00 03 00 00 00 00
10: 00 00 00 de 08 00 00 e2 01 d8 00 00 00 00 00 00
20: 00 00 00 00 00 00 00 00 00 00 00 00 1a 12 3a 00
30: 00 00 ff e1 54 00 00 00 00 00 00 00 0b 01 00 00
40: 01 00 00 00 00 00 00 00 00 00 00 00 1f 00 00 00
50: 00 00 00 00 02 60 10 00 23 02 00 07 00 00 00 00
60: 01 00 21 00 00 00 00 00 00 00 00 00 00 00 00 00
70: 00 00 00 00 00 00 00 00 00 00 00 00 00 00 00 00
80: 00 00 00 00 00 00 00 00 00 00 00 00 00 00 00 00
90: 00 00 00 00 00 00 00 00 00 00 00 00 00 00 00 00
a0: 00 00 00 00 00 00 00 00 00 00 00 00 00 00 00 00
b0: 00 00 00 00 00 00 00 00 00 00 00 00 00 00 00 00
c0: 00 00 00 00 00 00 00 00 00 00 00 00 00 00 00 00
d0: 00 00 00 00 00 00 00 00 00 00 00 00 00 00 00 00
e0: 00 00 00 00 00 00 00 00 00 00 00 00 00 00 00 00
f0: 00 00 00 00 00 00 00 00 00 00 00 00 00 00 00 00
-- 
"I may be a monkey,     Crutcher Dunnavant 
 but I'm a monkey       <crutcher@redhat.com>
 with ambition!"        Red Hat OS Development
-
To unsubscribe from this list: send the line "unsubscribe linux-kernel" in
the body of a message to majordomo@vger.kernel.org
Please read the FAQ at 
http://www.tux.org/lkml/