Date: Sun, 08 Oct 2006 20:31:36 +0200
From: Matthias Hentges <>
Subject: Re: sky2 (was Re: 2.6.18-mm2)
Sender: linux-kernel-owner@vger.kernel.org
Precedence: bulk
List-ID: <linux-kernel.vger.kernel.org>
X-Mailing-List: linux-kernel@vger.kernel.org
X-Lkml-Link: https://lkml.org/lkml/2006/10/8/144

Oops, I forgot the "x" in lspci -vvvx, new dumps are attached.
-- 
Matthias 'CoreDump' Hentges 
My OS: Debian SID. Geek by Nature, Linux by Choice
03:00.0 Ethernet controller: Marvell Technology Group Ltd. 88E8053 PCI-E Gigabit Ethernet Controller (rev 20)
	Subsystem: ASUSTeK Computer Inc. Marvell 88E8053 Gigabit Ethernet controller PCIe (Asus)
	Control: I/O+ Mem+ BusMaster+ SpecCycle- MemWINV- VGASnoop- ParErr- Stepping- SERR- FastB2B-
	Status: Cap+ 66MHz- UDF- FastB2B- ParErr- DEVSEL=fast >TAbort- <TAbort- <MAbort- >SERR- <PERR-
	Latency: 0, Cache Line Size: 16 bytes
	Interrupt: pin A routed to IRQ 216
	Region 0: Memory at fa8fc000 (64-bit, non-prefetchable) [size=16K]
	Region 2: I/O ports at a800 [size=256]
	Expansion ROM at fa8c0000 [disabled] [size=128K]
	Capabilities: [48] Power Management version 2
		Flags: PMEClk- DSI- D1+ D2+ AuxCurrent=0mA PME(D0+,D1+,D2+,D3hot+,D3cold+)
		Status: D0 PME-Enable- DSel=0 DScale=1 PME-
	Capabilities: [50] Vital Product Data
	Capabilities: [5c] Message Signalled Interrupts: Mask- 64bit+ Queue=0/1 Enable+
		Address: 00000000fee0200c  Data: 4152
	Capabilities: [e0] Express Legacy Endpoint IRQ 0
		Device: Supported: MaxPayload 128 bytes, PhantFunc 0, ExtTag-
		Device: Latency L0s unlimited, L1 unlimited
		Device: AtnBtn- AtnInd- PwrInd-
		Device: Errors: Correctable- Non-Fatal- Fatal- Unsupported-
		Device: RlxdOrd- ExtTag- PhantFunc- AuxPwr- NoSnoop-
		Device: MaxPayload 128 bytes, MaxReadReq 512 bytes
		Link: Supported Speed 2.5Gb/s, Width x1, ASPM L0s, Port 0
		Link: Latency L0s <256ns, L1 unlimited
		Link: ASPM Disabled RCB 128 bytes CommClk+ ExtSynch-
		Link: Speed 2.5Gb/s, Width x1
00: ab 11 62 43 07 04 10 00 20 00 00 02 04 00 00 00
10: 04 c0 8f fa 00 00 00 00 01 a8 00 00 00 00 00 00
20: 00 00 00 00 00 00 00 00 00 00 00 00 43 10 42 81
30: 00 00 8c fa 48 00 00 00 00 00 00 00 0b 01 00 00
04:00.0 Ethernet controller: Marvell Technology Group Ltd. 88E8053 PCI-E Gigabit Ethernet Controller (rev 20)
	Subsystem: ASUSTeK Computer Inc. Marvell 88E8053 Gigabit Ethernet controller PCIe (Asus)
	Control: I/O+ Mem+ BusMaster+ SpecCycle- MemWINV- VGASnoop- ParErr- Stepping- SERR- FastB2B-
	Status: Cap+ 66MHz- UDF- FastB2B- ParErr- DEVSEL=fast >TAbort- <TAbort- <MAbort- >SERR- <PERR-
	Latency: 0, Cache Line Size: 16 bytes
	Interrupt: pin A routed to IRQ 217
	Region 0: Memory at fa9fc000 (64-bit, non-prefetchable) [size=16K]
	Region 2: I/O ports at b800 [size=256]
	Expansion ROM at fa9c0000 [disabled] [size=128K]
	Capabilities: [48] Power Management version 2
		Flags: PMEClk- DSI- D1+ D2+ AuxCurrent=0mA PME(D0+,D1+,D2+,D3hot+,D3cold+)
		Status: D0 PME-Enable- DSel=0 DScale=1 PME-
	Capabilities: [50] Vital Product Data
	Capabilities: [5c] Message Signalled Interrupts: Mask- 64bit+ Queue=0/1 Enable+
		Address: 00000000fee0300c  Data: 414a
	Capabilities: [e0] Express Legacy Endpoint IRQ 0
		Device: Supported: MaxPayload 128 bytes, PhantFunc 0, ExtTag-
		Device: Latency L0s unlimited, L1 unlimited
		Device: AtnBtn- AtnInd- PwrInd-
		Device: Errors: Correctable- Non-Fatal- Fatal- Unsupported-
		Device: RlxdOrd- ExtTag- PhantFunc- AuxPwr- NoSnoop-
		Device: MaxPayload 128 bytes, MaxReadReq 512 bytes
		Link: Supported Speed 2.5Gb/s, Width x1, ASPM L0s, Port 0
		Link: Latency L0s <256ns, L1 unlimited
		Link: ASPM Disabled RCB 128 bytes CommClk+ ExtSynch-
		Link: Speed 2.5Gb/s, Width x1
00: ab 11 62 43 07 04 10 00 20 00 00 02 04 00 00 00
10: 04 c0 9f fa 00 00 00 00 01 b8 00 00 00 00 00 00
20: 00 00 00 00 00 00 00 00 00 00 00 00 43 10 42 81
30: 00 00 9c fa 48 00 00 00 00 00 00 00 05 01 00 00
[unhandled content-type:application/pgp-signature]