Date: Tue, 19 Nov 2002 23:09:44 +0100
From: (Pavel Janík)
Subject: PCI serial card with PCI 9052?
Sender: linux-kernel-owner@vger.kernel.org
Precedence: bulk
List-ID: <linux-kernel.vger.kernel.org>
X-Mailing-List: linux-kernel@vger.kernel.org
X-Lkml-Link: https://lkml.org/lkml/2002/11/19/329

Hi,
I have a PCI card with two serial ports on it. It has PLX Technology
PCI9052 and HOLTEK HT6552IR chips. Pictures of that card are at
http://www.janik.cz/tmp/pci9052/.
lspci:
00:08.0 Network controller: PLX Technology, Inc. PCI <-> IOBus Bridge (rev 02)
	Subsystem: Unknown device d841:0200
	Control: I/O+ Mem+ BusMaster- SpecCycle- MemWINV- VGASnoop- ParErr- Stepping- SERR- FastB2B-
	Status: Cap- 66Mhz- UDF- FastB2B+ ParErr- DEVSEL=medium >TAbort- <TAbort- <MAbort- >SERR- <PERR-
	Interrupt: pin A routed to IRQ 11
	Region 0: Memory at e400b000 (32-bit, non-prefetchable) [size=128]
	Region 1: I/O ports at d400 [size=128]
	Region 2: I/O ports at d800 [size=8]
	Region 3: I/O ports at dc00 [size=8]
00: b5 10 50 90 03 00 80 02 02 00 80 02 08 00 00 00
10: 00 b0 00 e4 01 d4 00 00 01 d8 00 00 01 dc 00 00
20: 00 00 00 00 00 00 00 00 00 00 00 00 41 d8 00 02
30: 00 00 00 00 00 00 00 00 00 00 00 00 0b 01 00 00
Is this card supported? Tim?
-- 
Pavel Janík
/* After several hours of tedious analysis, the following hash
 * function won.  Do not mess with it... -DaveM
 */
                  -- 2.2.16 fs/buffer.c
-
To unsubscribe from this list: send the line "unsubscribe linux-kernel" in
the body of a message to majordomo@vger.kernel.org
More majordomo info at  
http://vger.kernel.org/majordomo-info.html
Please read the FAQ at  
http://www.tux.org/lkml/