Date: Wed, 11 Jul 2001 15:01:13 +0200
From: Martin Knoblauch <>
Subject: Re: 2.4.6.-ac2: Problems with eepro100
Sender: linux-kernel-owner@vger.kernel.org
Precedence: bulk
List-ID: <linux-kernel.vger.kernel.org>
X-Mailing-List: linux-kernel@vger.kernel.org
X-Lkml-Link: https://lkml.org/lkml/2001/7/11/83

Kai Germaschewski wrote:
> 
> On Wed, 11 Jul 2001, Martin Knoblauch wrote:
> 
> > > Do a register dump of working and dead-after-PM-transition, including
> > > PCI config registers, and look for differences.  Also look for
> > > differences in your host and PCI-PCI bridge PCI config registers.
> >
> >  Instructions on how to do the dumps? Sorry, I have not been that deep
> > into these matters until now :-)
> 
> For the PCI things: Do a lspci -vvxxx at the various stages of working /
> not working and diff them. For the chip registers - well, I didn't look
> into this yet, but it'll be a bit harder, I suppose. (Maybe the maintainer
> has some hints?)
> 
> --Kai
 So, I tested  2.4.7pre6 with eepro100 build as a module and the problem
(network broken after ifconfig down/up cycle) persists.
 "lspci -vvxxx" output between the good "D0" state and the bad one is
identical. Output for the D2 state just differs in the "e0:" line, which
seems to be OK.
martink@laplin22:/boot > diff eep-D0-1 eep-D2-4
13c13
<               Status: D0 PME-Enable- DSel=0 DScale=0 PME-
---
>               Status: D2 PME-Enable- DSel=0 DScale=0 PME-
28c28
< e0: 00 00 00 00 00 00 00 00 00 00 00 00 00 00 00 00
---
> e0: 02 00 00 00 00 00 00 00 00 00 00 00 00 00 00 00
martink@laplin22:/boot > more eep-D2-4
02:01.0 Ethernet controller: Intel Corporation 82557 [Ethernet Pro 100]
(rev 05)
        Subsystem: IBM: Unknown device 00d8
        Control: I/O+ Mem+ BusMaster+ SpecCycle- MemWINV+ VGASnoop-
ParErr- Stepping- SERR- FastB2B-
        Status: Cap+ 66Mhz- UDF- FastB2B+ ParErr- DEVSEL=medium >TAbort-
<TAbort- <MAbort- >SERR- <PERR-
        Latency: 66 (2000ns min, 14000ns max), cache line size 08
        Interrupt: pin A routed to IRQ 11
        Region 0: Memory at fc000000 (32-bit, prefetchable) [size=4K]
        Region 1: I/O ports at 3000 [size=32]
        Region 2: Memory at dc600000 (32-bit, non-prefetchable)
[size=1M]
        Expansion ROM at <unassigned> [disabled] [size=1M]
        Capabilities: [dc] Power Management version 1
                Flags: PMEClk- DSI+ D1+ D2+ AuxCurrent=0mA
PME(D0+,D1+,D2+,D3hot+,D3cold+)
                Status: D2 PME-Enable- DSel=0 DScale=0 PME-
00: 86 80 29 12 17 00 90 02 05 00 00 02 08 42 00 00
10: 08 00 00 fc 01 30 00 00 00 00 60 dc 00 00 00 00
20: 00 00 00 00 00 00 00 00 00 00 00 00 14 10 d8 00
30: 00 00 00 00 dc 00 00 00 00 00 00 00 0b 01 08 38
40: 00 00 00 00 00 00 00 00 00 00 00 00 00 00 00 00
50: 00 00 00 00 00 00 00 00 00 00 00 00 00 00 00 00
60: 00 00 00 00 00 00 00 00 00 00 00 00 00 00 00 00
70: 00 00 00 00 00 00 00 00 00 00 00 00 00 00 00 00
80: 00 00 00 00 00 00 00 00 00 00 00 00 00 00 00 00
90: 00 00 00 00 00 00 00 00 00 00 00 00 00 00 00 00
a0: 00 00 00 00 00 00 00 00 00 00 00 00 00 00 00 00
b0: 00 00 00 00 00 00 00 00 00 00 00 00 00 00 00 00
c0: 00 00 00 00 00 00 00 00 00 00 00 00 00 00 00 00
d0: 00 00 00 00 00 00 00 00 00 00 00 00 01 00 31 fe
e0: 02 00 00 00 00 00 00 00 00 00 00 00 00 00 00 00
f0: 00 00 00 00 00 00 00 00 00 00 00 00 00 00 00 00
 I will see that I can make the "eepro-diag" working.
Martin
-- 
------------------------------------------------------------------
Martin Knoblauch         |    email:  Martin.Knoblauch@TeraPort.de
TeraPort GmbH            |    Phone:  +49-89-510857-309
C+ITS                    |    Fax:    +49-89-510857-111
http://www.teraport.de
   |    Mobile: +49-170-4904759
-
To unsubscribe from this list: send the line "unsubscribe linux-kernel" in
the body of a message to majordomo@vger.kernel.org
More majordomo info at  
http://vger.kernel.org/majordomo-info.html
Please read the FAQ at  
http://www.tux.org/lkml/