Date: Sat, 27 Sep 2003 14:40:12 +0800
From: Michael Frank <>
Subject: Re: [BUG?] SIS IDE DMA errors
Sender: linux-kernel-owner@vger.kernel.org
Precedence: bulk
List-ID: <linux-kernel.vger.kernel.org>
X-Mailing-List: linux-kernel@vger.kernel.org
X-Lkml-Link: https://lkml.org/lkml/2003/9/27/15

On Saturday 27 September 2003 14:13, Vojtech Pavlik wrote:
> On Sat, Sep 27, 2003 at 03:19:37AM +0800, Michael Frank wrote:
> 
> > > > 00:02.5 IDE interface: Silicon Integrated Systems [SiS] 5513 [IDE] (rev d0) (prog-if 80 [Master])
> > > >         Subsystem: Asustek Computer, Inc.: Unknown device 1688
> > > >         Control: I/O+ Mem+ BusMaster+ SpecCycle- MemWINV- VGASnoop- ParErr- Stepping- SERR- FastB2B-
> > > >         Status: Cap- 66Mhz- UDF- FastB2B- ParErr- DEVSEL=fast >TAbort- <TAbort- <MAbort- >SERR- <PERR-
> > > >         Latency: 128
> > > >         Region 4: I/O ports at b800 [size=16]
> > > > 00: 39 10 13 55 07 00 00 00 d0 80 01 01 00 80 80 00
> > > > 10: 00 00 00 00 00 00 00 00 00 00 00 00 00 00 00 00
> > > > 20: 01 b8 00 00 00 00 00 00 00 00 00 00 43 10 88 16
> > > > 30: 00 00 00 00 00 00 00 00 00 00 00 00 00 00 00 00
> > > > 40: 31 81 00 00 31 85 00 00 08 01 e6 51 00 02 00 02
> > > 
> > > Ok, this means:
> > > 
> > > 31 - hda: 90ns data active time, 30 ns data recovery time (PIO4)
> > > 41 - hda: UDMA enabled, UDMA mode 5 (UDMA100)
> > > 00 - hdb: 240ns/360ns (PIO0) - no drive present
> > > 00 - hdb: UDMA disabled
> > > 31 - hdc: 90ns/30ns PIO4
> > > 85 - hdc: UDMA enabled, UDMA mode 2 (UDMA33)
> > > 00 - hdd: 240ns/360ns (PIO0) - no drive present
> > > 00 - hdd: UDMA disabled
> >
> 1) You're looking at your ethernet controller config registers,
>    not at the IDE controller config registers.
Oooooooooops, pasted the wrong one - was 3am ;)
Here it is with 2.4.22:
00:02.5 IDE interface: Silicon Integrated Systems [SiS] 5513 [IDE] (prog-if 80 [Master])
        Subsystem: Micro-Star International Co., Ltd.: Unknown device 5332
        Control: I/O+ Mem- BusMaster+ SpecCycle- MemWINV- VGASnoop- ParErr- Stepping- SERR- FastB2B-
        Status: Cap+ 66Mhz- UDF- FastB2B- ParErr- DEVSEL=medium >TAbort- <TAbort- <MAbort- >SERR- <PERR-
        Latency: 128
        Interrupt: pin ? routed to IRQ 10
        Region 4: I/O ports at 4000 [size=16]
        Capabilities: [58] Power Management version 2
                Flags: PMEClk- DSI- D1+ D2+ AuxCurrent=0mA PME(D0-,D1-,D2-,D3hot-,D3cold+)
                Status: D0 PME-Enable- DSel=0 DScale=0 PME-
00: 39 10 13 55 05 00 10 02 00 80 01 01 00 80 00 00
10: 00 00 00 00 00 00 00 00 00 00 00 00 00 00 00 00
20: 01 40 00 00 00 00 00 00 00 00 00 00 62 14 32 53
30: 00 00 00 00 58 00 00 00 00 00 00 00 00 00 00 00
40: 00 00 00 00 00 00 00 00 00 00 06 00 00 00 00 00
50: f2 07 f2 07 ea 96 d5 d0 01 00 02 86 00 00 00 00
60: ff aa ff aa 00 00 00 00 00 00 00 00 00 00 00 00
70: 17 21 06 04 00 60 1c 1e 00 60 1c 1e 00 60 1c 1e
80: 00 00 00 00 00 00 00 00 00 00 00 00 00 00 00 00
90: 00 00 00 00 00 00 00 00 00 00 00 00 00 00 00 00
a0: 00 00 00 00 00 00 00 00 00 00 00 00 00 00 00 00
b0: 00 00 00 00 00 00 00 00 00 00 00 00 00 00 00 00
c0: 00 00 00 00 00 00 00 00 00 00 00 00 00 00 00 00
d0: 00 00 00 00 00 00 00 00 00 00 00 00 00 00 00 00
e0: 00 00 00 00 00 00 00 00 00 00 00 00 00 00 00 00
f0: 00 00 00 00 00 00 00 00 00 00 00 00 00 00 00 00
2.6.0-test5 is same
Regards
Michael
-
To unsubscribe from this list: send the line "unsubscribe linux-kernel" in
the body of a message to majordomo@vger.kernel.org
More majordomo info at  
http://vger.kernel.org/majordomo-info.html
Please read the FAQ at  
http://www.tux.org/lkml/