Date: Fri, 09 Mar 2007 15:09:08 +0100
From: "Uwe Bugla" <>
Subject: Bugs in kernels 2.6.20 plus 2.6.21 rc1 and 2
Sender: linux-kernel-owner@vger.kernel.org
Precedence: bulk
List-ID: <linux-kernel.vger.kernel.org>
X-Mailing-List: linux-kernel@vger.kernel.org
X-Lkml-Link: https://lkml.org/lkml/2007/3/9/185

Hello Bart, hello everybody,
As requested I applied the following patch with parameter -R against 2.6.20:
http://kernel.org/pub/linux/kernel/people/bart/ide-2.6.20.patch
Result: incompilable kernel! Reason is the following hunk:
99,113d98
< diff --git a/drivers/ide/ide-probe.c b/drivers/ide/ide-probe.c
< index dad9c47..5a5c565 100644
< --- a/drivers/ide/ide-probe.c
< +++ b/drivers/ide/ide-probe.c
< @@ -1000,10 +1000,6 @@ static int ide_init_queue(ide_drive_t *drive)
<  	/* needs drive->queue to be set */
<  	ide_toggle_bounce(drive, 1);
<  
< -	/* enable led activity for disk drives only */
< -	if (drive->media == ide_disk && hwif->led_act)
< -		blk_queue_activity_fn(q, hwif->led_act, drive);
< -
<  	return 0;
<  }
<  
Would you please care for proper patch sets in future, just for efficiency reasons?
Side note: One diode of my TEAC CDRW54 (/dev/hdd) flickers every 2 seconds.
That's normal and it does not do any harm.
I ripped out this hunk and applied the resulting patch
collection with parameter -R against 2.6.20.
Results:
a. compilable kernel 
b. SUCCESS after endless hours of testing!
3 conclusions from that:
1. The buggy code responsible for the horrible reinitialization
and drive seek errors with my TEAC CDRW54 as /dev/hdd
is proven to reside in the patch collection mentioned above.
In so far kernel 2.6.20 urgently needs another reversion (sigh)!
2. The crap code responsible for the terrible system hangups I
reported (no mouse, no keyboard, no screen - even more horrible
than a Windoze virus) definitely resides in kernel 2.6.21 rc1 or 2.
It needs 3 things to find that out:
a. lots of time
b. patience
c. a machine running about 10 hours as it does not happen immediately.
Fact is: This hangup does not happen working with 2.6.20.
3. Linus should slow down the kernel release speed for the following
3 reasons:
a. The speed is discouraging possible testers because things are going too fast
b. The output of that publishing speed is nothing but half mature crap
b. 2.6.20 has proven to be a never ending story as far as regressions
are concerned! Why? Almost every week a new release candidate - insane!
7 weeks for fixing regressions - and still no end in sight!
Proposal: 2 weeks per release candidate, 2,5 to 3 months for an official kernel.
To help you which hunks need to be reversed in official 2.6.20 please see
the 6 outline attachments: 2 dmesg, 2 lspci-vvvxxx, 2 diffs.
As the revised 2.6.20 kernel works without trouble I did not compile
2.6.19. The 6 texts should be helpful though to get this issue fixed.
And I hope that this is the definte last regression of that horrible kernel.
Thanks everybody
Uwe
P. S.: Andrew, if you want me to test 2.6.21-rc2-mm1 I have 2 questions:
1. When should I do this if I see myself running after endless regressions
in official kernel releases? All you can is demand!
2. Why aren't my linuxtv contributions at least part of the mm-tree?
Cooperation shouldn't be a one way street, should it?
And please stop telling me stories about some Mr. Chehab or anybody else,
as my two contributions are fine and I don't feel responsible for
some mismatch gatekeepers @ linuxtv.org! Fact is: I do my best to
contribute whatever I can and they simply ignore it, which is imbearable!
-- 
"Feel free" - 5 GB Mailbox, 50 FreeSMS/Monat ...
Jetzt GMX ProMail testen: www.gmx.net/de/go/mailfooter/promail-out
1c1
< Linux version 2.6.20.1 (root@brian) (gcc version 4.1.2 20061115 (prerelease) (Debian 4.1.1-21)) #1 PREEMPT Tue Mar 6 20:24:59 CET 2007
---
> Linux version 2.6.20 (root@brian) (gcc version 4.1.2 20061115 (prerelease) (Debian 4.1.1-21)) #1 PREEMPT Thu Mar 8 16:37:34 CET 2007
79,80c79,80
<       .data : 0xc024a612 - 0xc02c2b70   ( 481 kB)
<       .text : 0xc0100000 - 0xc024a612   (1321 kB)
---
>       .data : 0xc024a5aa - 0xc02c2b70   ( 481 kB)
>       .text : 0xc0100000 - 0xc024a5aa   (1321 kB)
82c82
< Calibrating delay using timer specific routine.. 3637.49 BogoMIPS (lpj=1818746)
---
> Calibrating delay using timer specific routine.. 3637.49 BogoMIPS (lpj=1818749)
201a202,203
> hdc: ATAPI 52X DVD-ROM drive, 256kB Cache, UDMA(33)
> Uniform CD-ROM driver Revision: 3.20
209a212,213
> hdd: ATAPI 32X CD-ROM CD-R/RW drive, 1280kB Cache, DMA
> Floppy drive(s): fd0 is 1.44M
217a222,229
> FDC 0 is a post-1991 82077
> parport: PnPBIOS parport detected.
> parport0: PC-style at 0x378, irq 7 [PCSPP(,...)]
> Linux video capture interface: v2.00
> b44.c:v1.01 (Jun 16, 2006)
> PCI: Enabling device 0000:02:05.0 (0004 -> 0006)
> ACPI: PCI Interrupt 0000:02:05.0[A] -> GSI 20 (level, low) -> IRQ 19
> eth0: Broadcom 4400 10/100BaseT Ethernet 00:0c:6e:19:46:cf
219c231
< ACPI: PCI Interrupt 0000:00:1d.7[D] -> GSI 23 (level, low) -> IRQ 19
---
> ACPI: PCI Interrupt 0000:00:1d.7[D] -> GSI 23 (level, low) -> IRQ 20
225c237
< ehci_hcd 0000:00:1d.7: irq 19, io mem 0xf1800000
---
> ehci_hcd 0000:00:1d.7: irq 20, io mem 0xf1800000
230,241d241
< Floppy drive(s): fd0 is 1.44M
< FDC 0 is a post-1991 82077
< parport: PnPBIOS parport detected.
< parport0: PC-style at 0x378, irq 7 [PCSPP(,...)]
< hdc: ATAPI 52X DVD-ROM drive, 256kB Cache, UDMA(33)
< Uniform CD-ROM driver Revision: 3.20
< b44.c:v1.01 (Jun 16, 2006)
< PCI: Enabling device 0000:02:05.0 (0004 -> 0006)
< ACPI: PCI Interrupt 0000:02:05.0[A] -> GSI 20 (level, low) -> IRQ 20
< eth0: Broadcom 4400 10/100BaseT Ethernet 00:0c:6e:19:46:cf
< hdd: ATAPI 32X CD-ROM CD-R/RW drive, 1280kB Cache, DMA
< Linux video capture interface: v2.00
248c248
< intel8x0_measure_ac97_clock: measured 50045 usecs
---
> intel8x0_measure_ac97_clock: measured 50060 usecs
252,253c252,253
< ACPI: PCI Interrupt 0000:02:0b.0[A] -> GSI 23 (level, low) -> IRQ 19
< bttv0: Bt878 (rev 17) at 0000:02:0b.0, irq: 19, latency: 32, mmio: 0xf3000000
---
> ACPI: PCI Interrupt 0000:02:0b.0[A] -> GSI 23 (level, low) -> IRQ 20
> bttv0: Bt878 (rev 17) at 0000:02:0b.0, irq: 20, latency: 32, mmio: 0xf3000000
265c265
< ACPI: PCI Interrupt 0000:02:0b.1[A] -> GSI 23 (level, low) -> IRQ 19
---
> ACPI: PCI Interrupt 0000:02:0b.1[A] -> GSI 23 (level, low) -> IRQ 20
267c267
< bt878(0): Bt878 (rev 17) at 02:0b.1, irq: 19, latency: 32, memory: 0xf2800000
---
> bt878(0): Bt878 (rev 17) at 02:0b.1, irq: 20, latency: 32, memory: 0xf2800000
287a288
> input: PS/2 Logitech Mouse as /class/input/input3
300d300
< input: PS/2 Logitech Mouse as /class/input/input3
16c16
< 50: 00 00 0a 00 00 00 00 01 40 34 00 00 39 34 35 34
---
> 50: 00 00 0a 00 00 00 00 01 40 34 02 00 39 34 37 34
132c132
< 	Interrupt: pin D routed to IRQ 19
---
> 	Interrupt: pin D routed to IRQ 20
323c323
< 	Interrupt: pin A routed to IRQ 20
---
> 	Interrupt: pin A routed to IRQ 19
350c350
< 	Interrupt: pin A routed to IRQ 19
---
> 	Interrupt: pin A routed to IRQ 20
378c378
< 	Interrupt: pin A routed to IRQ 19
---
> 	Interrupt: pin A routed to IRQ 20
Linux version 2.6.20 (root@brian) (gcc version 4.1.2 20061115 (prerelease) (Debian 4.1.1-21)) #1 PREEMPT Thu Mar 8 16:37:34 CET 2007
BIOS-provided physical RAM map:
sanitize start
sanitize end
copy_e820_map() start: 0000000000000000 size: 000000000009fc00 end: 000000000009fc00 type: 1
copy_e820_map() type is E820_RAM
copy_e820_map() start: 000000000009fc00 size: 0000000000000400 end: 00000000000a0000 type: 2
copy_e820_map() start: 00000000000f0000 size: 0000000000010000 end: 0000000000100000 type: 2
copy_e820_map() start: 0000000000100000 size: 000000001feec000 end: 000000001ffec000 type: 1
copy_e820_map() type is E820_RAM
copy_e820_map() start: 000000001ffec000 size: 0000000000003000 end: 000000001ffef000 type: 3
copy_e820_map() start: 000000001ffef000 size: 0000000000010000 end: 000000001ffff000 type: 2
copy_e820_map() start: 000000001ffff000 size: 0000000000001000 end: 0000000020000000 type: 4
copy_e820_map() start: 00000000fec00000 size: 0000000000001000 end: 00000000fec01000 type: 2
copy_e820_map() start: 00000000fee00000 size: 0000000000001000 end: 00000000fee01000 type: 2
copy_e820_map() start: 00000000ffff0000 size: 0000000000010000 end: 0000000100000000 type: 2
 BIOS-e820: 0000000000000000 - 000000000009fc00 (usable)
 BIOS-e820: 000000000009fc00 - 00000000000a0000 (reserved)
 BIOS-e820: 00000000000f0000 - 0000000000100000 (reserved)
 BIOS-e820: 0000000000100000 - 000000001ffec000 (usable)
 BIOS-e820: 000000001ffec000 - 000000001ffef000 (ACPI data)
 BIOS-e820: 000000001ffef000 - 000000001ffff000 (reserved)
 BIOS-e820: 000000001ffff000 - 0000000020000000 (ACPI NVS)
 BIOS-e820: 00000000fec00000 - 00000000fec01000 (reserved)
 BIOS-e820: 00000000fee00000 - 00000000fee01000 (reserved)
 BIOS-e820: 00000000ffff0000 - 0000000100000000 (reserved)
511MB LOWMEM available.
Entering add_active_range(0, 0, 131052) 0 entries of 256 used
Zone PFN ranges:
  DMA             0 ->     4096
  Normal       4096 ->   131052
early_node_map[1] active PFN ranges
    0:        0 ->   131052
On node 0 totalpages: 131052
  DMA zone: 32 pages used for memmap
  DMA zone: 0 pages reserved
  DMA zone: 4064 pages, LIFO batch:0
  Normal zone: 991 pages used for memmap
  Normal zone: 125965 pages, LIFO batch:31
DMI 2.3 present.
ACPI: RSDP (v000 ASUS                                  ) @ 0x000f5360
ACPI: RSDT (v001 ASUS   P4PE     0x42302e31 MSFT 0x31313031) @ 0x1ffec000
ACPI: FADT (v001 ASUS   P4PE     0x42302e31 MSFT 0x31313031) @ 0x1ffec0c0
ACPI: BOOT (v001 ASUS   P4PE     0x42302e31 MSFT 0x31313031) @ 0x1ffec030
ACPI: MADT (v001 ASUS   P4PE     0x42302e31 MSFT 0x31313031) @ 0x1ffec058
ACPI: DSDT (v001   ASUS P4PE     0x00001000 MSFT 0x0100000b) @ 0x00000000
ACPI: PM-Timer IO Port: 0xe408
ACPI: Local APIC address 0xfee00000
ACPI: LAPIC (acpi_id[0x00] lapic_id[0x00] enabled)
Processor #0 15:2 APIC version 20
ACPI: LAPIC_NMI (acpi_id[0x00] high edge lint[0x1])
ACPI: IOAPIC (id[0x02] address[0xfec00000] gsi_base[0])
IOAPIC[0]: apic_id 2, version 32, address 0xfec00000, GSI 0-23
ACPI: INT_SRC_OVR (bus 0 bus_irq 0 global_irq 2 dfl edge)
ACPI: INT_SRC_OVR (bus 0 bus_irq 9 global_irq 22 low level)
ACPI: IRQ0 used by override.
ACPI: IRQ2 used by override.
Enabling APIC mode:  Flat.  Using 1 I/O APICs
Using ACPI (MADT) for SMP configuration information
Allocating PCI resources starting at 30000000 (gap: 20000000:dec00000)
Detected 1818.044 MHz processor.
Built 1 zonelists.  Total pages: 130029
Kernel command line: root=/dev/hda1 ro vga=791
mapped APIC to ffffd000 (fee00000)
mapped IOAPIC to ffffc000 (fec00000)
Enabling fast FPU save and restore... done.
Enabling unmasked SIMD FPU exception support... done.
Initializing CPU#0
PID hash table entries: 2048 (order: 11, 8192 bytes)
Console: colour dummy device 80x25
Dentry cache hash table entries: 65536 (order: 6, 262144 bytes)
Inode-cache hash table entries: 32768 (order: 5, 131072 bytes)
Memory: 517064k/524208k available (1321k kernel code, 6608k reserved, 481k data, 140k init, 0k highmem)
virtual kernel memory layout:
    fixmap  : 0xfffb7000 - 0xfffff000   ( 288 kB)
    vmalloc : 0xe0800000 - 0xfffb5000   ( 503 MB)
    lowmem  : 0xc0000000 - 0xdffec000   ( 511 MB)
      .init : 0xc02c6000 - 0xc02e9000   ( 140 kB)
      .data : 0xc024a5aa - 0xc02c2b70   ( 481 kB)
      .text : 0xc0100000 - 0xc024a5aa   (1321 kB)
Checking if this processor honours the WP bit even in supervisor mode... Ok.
Calibrating delay using timer specific routine.. 3637.49 BogoMIPS (lpj=1818749)
Mount-cache hash table entries: 512
CPU: After generic identify, caps: 3febfbff 00000000 00000000 00000000 00000000 00000000 00000000
CPU: Trace cache: 12K uops, L1 D cache: 8K
CPU: L2 cache: 512K
CPU: After all inits, caps: 3febfbff 00000000 00000000 00003080 00000000 00000000 00000000
Intel machine check architecture supported.
Intel machine check reporting enabled on CPU#0.
CPU0: Intel P4/Xeon Extended MCE MSRs (12) available
CPU0: Thermal monitoring enabled
Compat vDSO mapped to ffffe000.
CPU: Intel(R) Pentium(R) 4 CPU 1.80GHz stepping 04
Checking 'hlt' instruction... OK.
ACPI: Core revision 20060707
ENABLING IO-APIC IRQs
..TIMER: vector=0x31 apic1=0 pin1=2 apic2=-1 pin2=-1
NET: Registered protocol family 16
ACPI: bus type pci registered
PCI: PCI BIOS revision 2.10 entry at 0xf1e60, last bus=2
PCI: Using configuration type 1
Setting up standard PCI resources
ACPI: Interpreter enabled
ACPI: Using IOAPIC for interrupt routing
ACPI: PCI Interrupt Link [LNKA] (IRQs 3 4 5 6 7 *9 10 11 12 14 15)
ACPI: PCI Interrupt Link [LNKB] (IRQs 3 4 5 6 7 9 10 11 12 14 15) *0, disabled.
ACPI: PCI Interrupt Link [LNKC] (IRQs 3 4 5 6 7 *9 10 11 12 14 15)
ACPI: PCI Interrupt Link [LNKD] (IRQs 3 4 5 6 7 *9 10 11 12 14 15)
ACPI: PCI Interrupt Link [LNKE] (IRQs 3 4 5 6 7 9 10 11 12 14 15) *0, disabled.
ACPI: PCI Interrupt Link [LNKF] (IRQs 3 4 5 6 7 9 10 11 12 14 15) *0, disabled.
ACPI: PCI Interrupt Link [LNKG] (IRQs 3 4 5 6 7 9 10 11 12 14 15) *0, disabled.
ACPI: PCI Interrupt Link [LNKH] (IRQs 3 4 5 6 7 9 10 11 12 14 15) *0, disabled.
ACPI: PCI Root Bridge [PCI0] (0000:00)
PCI: Probing PCI hardware (bus 00)
ACPI: Assume root bridge [\_SB_.PCI0] bus is 0
* The chipset may have PM-Timer Bug. Due to workarounds for a bug,
* this clock source is slow. If you are sure your timer does not have
* this bug, please use "acpi_pm_good" to disable the workaround
PCI quirk: region e400-e47f claimed by ICH4 ACPI/GPIO/TCO
PCI quirk: region ec00-ec3f claimed by ICH4 GPIO
PCI: Enabled i801 SMBus device
Boot video device is 0000:01:00.0
PCI: Transparent bridge - 0000:00:1e.0
ACPI: PCI Interrupt Routing Table [\_SB_.PCI0._PRT]
ACPI: PCI Interrupt Routing Table [\_SB_.PCI0.PCI1._PRT]
ACPI: PCI Interrupt Routing Table [\_SB_.PCI0.PCI2._PRT]
Linux Plug and Play Support v0.97 (c) Adam Belay
pnp: PnP ACPI init
pnp: PnP ACPI: found 17 devices
PCI: Using ACPI for IRQ routing
PCI: If a device doesn't work, try "pci=routeirq".  If it helps, post a report
pnp: 00:02: ioport range 0xe400-0xe47f could not be reserved
pnp: 00:02: ioport range 0xe800-0xe81f has been reserved
pnp: 00:02: ioport range 0xec00-0xec3f has been reserved
pnp: 00:02: ioport range 0x4d6-0x4d6 has been reserved
pnp: 00:10: ioport range 0x3f0-0x3f1 has been reserved
PCI: Bridge: 0000:00:01.0
  IO window: d000-dfff
  MEM window: f2000000-f27fffff
  PREFETCH window: f3f00000-f7ffffff
PCI: Bridge: 0000:00:1e.0
  IO window: disabled.
  MEM window: f1000000-f17fffff
  PREFETCH window: f2800000-f3efffff
PCI: Setting latency timer of device 0000:00:1e.0 to 64
NET: Registered protocol family 2
IP route cache hash table entries: 4096 (order: 2, 16384 bytes)
TCP established hash table entries: 16384 (order: 4, 65536 bytes)
TCP bind hash table entries: 8192 (order: 3, 32768 bytes)
TCP: Hash tables configured (established 16384 bind 8192)
TCP reno registered
Simple Boot Flag at 0x3a set to 0x1
io scheduler noop registered (default)
vesafb: framebuffer at 0xf4000000, mapped to 0xe0880000, using 3072k, total 32768k
vesafb: mode is 1024x768x16, linelength=2048, pages=20
vesafb: protected mode interface info at c000:441b
vesafb: pmi: set display start = c00c4489, set palette = c00c44c3
vesafb: pmi: ports = d810 d816 d854 d838 d83c d85c d800 d804 d8b0 d8b2 d8b4 
vesafb: scrolling: redraw
vesafb: Truecolor: size=0:5:6:5, shift=0:11:5:0
Console: switching to colour frame buffer device 128x48
fb0: VESA VGA frame buffer device
Uniform Multi-Platform E-IDE driver Revision: 7.00alpha2
ide: Assuming 33MHz system bus speed for PIO modes; override with idebus=xx
ICH4: IDE controller at PCI slot 0000:00:1f.1
ACPI: PCI Interrupt 0000:00:1f.1[A] -> GSI 18 (level, low) -> IRQ 16
ICH4: chipset revision 2
ICH4: not 100% native mode: will probe irqs later
    ide0: BM-DMA at 0xf000-0xf007, BIOS settings: hda:DMA, hdb:pio
    ide1: BM-DMA at 0xf008-0xf00f, BIOS settings: hdc:DMA, hdd:DMA
Probing IDE interface ide0...
hda: IC35L080AVVA07-0, ATA DISK drive
ide0 at 0x1f0-0x1f7,0x3f6 on irq 14
Probing IDE interface ide1...
hdc: HL-DT-STDVD-ROM GDR8163B, ATAPI CD/DVD-ROM drive
hdd: CD-W54E, ATAPI CD/DVD-ROM drive
ide1 at 0x170-0x177,0x376 on irq 15
hda: max request size: 128KiB
hda: 160836480 sectors (82348 MB) w/1863KiB Cache, CHS=65535/16/63, UDMA(100)
hda: cache flushes supported
 hda: hda1 hda2 hda3 hda4 < hda5 hda6 hda7 >
TCP cubic registered
Using IPI Shortcut mode
Time: tsc clocksource has been installed.
kjournald starting.  Commit interval 5 seconds
EXT3-fs: mounted filesystem with ordered data mode.
VFS: Mounted root (ext3 filesystem) readonly.
Freeing unused kernel memory: 140k freed
NET: Registered protocol family 1
usbcore: registered new interface driver usbfs
usbcore: registered new interface driver hub
usbcore: registered new device driver usb
USB Universal Host Controller Interface driver v3.0
ACPI: PCI Interrupt 0000:00:1d.0[A] -> GSI 16 (level, low) -> IRQ 17
PCI: Setting latency timer of device 0000:00:1d.0 to 64
uhci_hcd 0000:00:1d.0: UHCI Host Controller
uhci_hcd 0000:00:1d.0: new USB bus registered, assigned bus number 1
uhci_hcd 0000:00:1d.0: irq 17, io base 0x0000b800
usb usb1: configuration #1 chosen from 1 choice
hub 1-0:1.0: USB hub found
hub 1-0:1.0: 2 ports detected
hdc: ATAPI 52X DVD-ROM drive, 256kB Cache, UDMA(33)
Uniform CD-ROM driver Revision: 3.20
ACPI: PCI Interrupt 0000:00:1d.1[B] -> GSI 19 (level, low) -> IRQ 18
PCI: Setting latency timer of device 0000:00:1d.1 to 64
uhci_hcd 0000:00:1d.1: UHCI Host Controller
uhci_hcd 0000:00:1d.1: new USB bus registered, assigned bus number 2
uhci_hcd 0000:00:1d.1: irq 18, io base 0x0000b400
usb usb2: configuration #1 chosen from 1 choice
hub 2-0:1.0: USB hub found
hub 2-0:1.0: 2 ports detected
hdd: ATAPI 32X CD-ROM CD-R/RW drive, 1280kB Cache, DMA
Floppy drive(s): fd0 is 1.44M
ACPI: PCI Interrupt 0000:00:1d.2[C] -> GSI 18 (level, low) -> IRQ 16
PCI: Setting latency timer of device 0000:00:1d.2 to 64
uhci_hcd 0000:00:1d.2: UHCI Host Controller
uhci_hcd 0000:00:1d.2: new USB bus registered, assigned bus number 3
uhci_hcd 0000:00:1d.2: irq 16, io base 0x0000b000
usb usb3: configuration #1 chosen from 1 choice
hub 3-0:1.0: USB hub found
hub 3-0:1.0: 2 ports detected
FDC 0 is a post-1991 82077
parport: PnPBIOS parport detected.
parport0: PC-style at 0x378, irq 7 [PCSPP(,...)]
Linux video capture interface: v2.00
b44.c:v1.01 (Jun 16, 2006)
PCI: Enabling device 0000:02:05.0 (0004 -> 0006)
ACPI: PCI Interrupt 0000:02:05.0[A] -> GSI 20 (level, low) -> IRQ 19
eth0: Broadcom 4400 10/100BaseT Ethernet 00:0c:6e:19:46:cf
PCI: Enabling device 0000:00:1d.7 (0004 -> 0006)
ACPI: PCI Interrupt 0000:00:1d.7[D] -> GSI 23 (level, low) -> IRQ 20
PCI: Setting latency timer of device 0000:00:1d.7 to 64
ehci_hcd 0000:00:1d.7: EHCI Host Controller
ehci_hcd 0000:00:1d.7: new USB bus registered, assigned bus number 4
ehci_hcd 0000:00:1d.7: debug port 1
PCI: cache line size of 128 is not supported by device 0000:00:1d.7
ehci_hcd 0000:00:1d.7: irq 20, io mem 0xf1800000
ehci_hcd 0000:00:1d.7: USB 2.0 started, EHCI 1.00, driver 10 Dec 2004
usb usb4: configuration #1 chosen from 1 choice
hub 4-0:1.0: USB hub found
hub 4-0:1.0: 6 ports detected
ACPI: PCI Interrupt 0000:00:1f.3[B] -> GSI 17 (level, low) -> IRQ 21
PCI: Enabling device 0000:00:1f.5 (0004 -> 0007)
ACPI: PCI Interrupt 0000:00:1f.5[B] -> GSI 17 (level, low) -> IRQ 21
PCI: Setting latency timer of device 0000:00:1f.5 to 64
bttv: driver version 0.9.16 loaded
bttv: using 8 buffers with 2080k (520 pages) each for capture
intel8x0_measure_ac97_clock: measured 50060 usecs
intel8x0: clocking to 48000
bttv: Bt8xx card found (0).
PCI: Enabling device 0000:02:0b.0 (0004 -> 0006)
ACPI: PCI Interrupt 0000:02:0b.0[A] -> GSI 23 (level, low) -> IRQ 20
bttv0: Bt878 (rev 17) at 0000:02:0b.0, irq: 20, latency: 32, mmio: 0xf3000000
bttv0: detected: Pinnacle PCTV Sat [card=94], PCI subsystem ID is 11bd:001c
bttv0: using: Pinnacle PCTV Sat [card=94,autodetected]
bttv0: gpio: en=00000000, out=00000000 in=00df00fc [init]
bttv0: using tuner=-1
bttv0: registered device video0
bttv0: registered device vbi0
bttv0: PLL: 28636363 => 35468950 .. ok
bttv0: add subdevice "dvb0"
bt878: AUDIO driver version 0.0.0 loaded
bt878: Bt878 AUDIO function found (0).
PCI: Enabling device 0000:02:0b.1 (0004 -> 0006)
ACPI: PCI Interrupt 0000:02:0b.1[A] -> GSI 23 (level, low) -> IRQ 20
bt878_probe: card id=[0x1c11bd],[ Pinnacle PCTV Sat ] has DVB functions.
bt878(0): Bt878 (rev 17) at 02:0b.1, irq: 20, latency: 32, memory: 0xf2800000
Adding 1951856k swap on /dev/hda6.  Priority:-1 extents:1 across:1951856k
EXT3 FS on hda1, internal journal
input: Power Button (FF) as /class/input/input0
ACPI: Power Button (FF) [PWRF]
input: Power Button (CM) as /class/input/input1
ACPI: Power Button (CM) [PWRB]
ACPI: Invalid PBLK length [5]
Serial: 8250/16550 driver $Revision: 1.90 $ 4 ports, IRQ sharing disabled
serial8250: ttyS0 at I/O 0x3f8 (irq = 4) is a 16550A
serial8250: ttyS1 at I/O 0x2f8 (irq = 3) is a 16550A
NET: Registered protocol family 17
mice: PS/2 mouse device common for all mice
PNP: PS/2 Controller [PNP0303:PS2K,PNP0f13:PS2M] at 0x60,0x64 irq 1,12
serio: i8042 KBD port at 0x60,0x64 irq 1
serio: i8042 AUX port at 0x60,0x64 irq 12
input: AT Translated Set 2 keyboard as /class/input/input2
DVB: registering new adapter (bttv0).
DVB: registering frontend 0 (Conexant CX24110 DVB-S)...
loop: loaded (max 8 devices)
logips2pp: Detected unknown logitech mouse model 11
input: PS/2 Logitech Mouse as /class/input/input3
kjournald starting.  Commit interval 5 seconds
EXT3 FS on hda7, internal journal
EXT3-fs: mounted filesystem with ordered data mode.
kjournald starting.  Commit interval 5 seconds
EXT3 FS on hda3, internal journal
EXT3-fs: mounted filesystem with ordered data mode.
kjournald starting.  Commit interval 5 seconds
EXT3 FS on hda2, internal journal
EXT3-fs: mounted filesystem with ordered data mode.
kjournald starting.  Commit interval 5 seconds
EXT3 FS on hda5, internal journal
EXT3-fs: mounted filesystem with ordered data mode.
b44: eth0: Link is up at 100 Mbps, full duplex.
b44: eth0: Flow control is off for TX and off for RX.
mtrr: no MTRR for f4000000,2000000 found
Linux agpgart interface v0.101 (c) Dave Jones
[drm] Initialized drm 1.1.0 20060810
ACPI: PCI Interrupt 0000:01:00.0[A] -> GSI 16 (level, low) -> IRQ 17
[drm] Initialized r128 2.5.0 20030725 on minor 0
Linux version 2.6.20.1 (root@brian) (gcc version 4.1.2 20061115 (prerelease) (Debian 4.1.1-21)) #1 PREEMPT Tue Mar 6 20:24:59 CET 2007
BIOS-provided physical RAM map:
sanitize start
sanitize end
copy_e820_map() start: 0000000000000000 size: 000000000009fc00 end: 000000000009fc00 type: 1
copy_e820_map() type is E820_RAM
copy_e820_map() start: 000000000009fc00 size: 0000000000000400 end: 00000000000a0000 type: 2
copy_e820_map() start: 00000000000f0000 size: 0000000000010000 end: 0000000000100000 type: 2
copy_e820_map() start: 0000000000100000 size: 000000001feec000 end: 000000001ffec000 type: 1
copy_e820_map() type is E820_RAM
copy_e820_map() start: 000000001ffec000 size: 0000000000003000 end: 000000001ffef000 type: 3
copy_e820_map() start: 000000001ffef000 size: 0000000000010000 end: 000000001ffff000 type: 2
copy_e820_map() start: 000000001ffff000 size: 0000000000001000 end: 0000000020000000 type: 4
copy_e820_map() start: 00000000fec00000 size: 0000000000001000 end: 00000000fec01000 type: 2
copy_e820_map() start: 00000000fee00000 size: 0000000000001000 end: 00000000fee01000 type: 2
copy_e820_map() start: 00000000ffff0000 size: 0000000000010000 end: 0000000100000000 type: 2
 BIOS-e820: 0000000000000000 - 000000000009fc00 (usable)
 BIOS-e820: 000000000009fc00 - 00000000000a0000 (reserved)
 BIOS-e820: 00000000000f0000 - 0000000000100000 (reserved)
 BIOS-e820: 0000000000100000 - 000000001ffec000 (usable)
 BIOS-e820: 000000001ffec000 - 000000001ffef000 (ACPI data)
 BIOS-e820: 000000001ffef000 - 000000001ffff000 (reserved)
 BIOS-e820: 000000001ffff000 - 0000000020000000 (ACPI NVS)
 BIOS-e820: 00000000fec00000 - 00000000fec01000 (reserved)
 BIOS-e820: 00000000fee00000 - 00000000fee01000 (reserved)
 BIOS-e820: 00000000ffff0000 - 0000000100000000 (reserved)
511MB LOWMEM available.
Entering add_active_range(0, 0, 131052) 0 entries of 256 used
Zone PFN ranges:
  DMA             0 ->     4096
  Normal       4096 ->   131052
early_node_map[1] active PFN ranges
    0:        0 ->   131052
On node 0 totalpages: 131052
  DMA zone: 32 pages used for memmap
  DMA zone: 0 pages reserved
  DMA zone: 4064 pages, LIFO batch:0
  Normal zone: 991 pages used for memmap
  Normal zone: 125965 pages, LIFO batch:31
DMI 2.3 present.
ACPI: RSDP (v000 ASUS                                  ) @ 0x000f5360
ACPI: RSDT (v001 ASUS   P4PE     0x42302e31 MSFT 0x31313031) @ 0x1ffec000
ACPI: FADT (v001 ASUS   P4PE     0x42302e31 MSFT 0x31313031) @ 0x1ffec0c0
ACPI: BOOT (v001 ASUS   P4PE     0x42302e31 MSFT 0x31313031) @ 0x1ffec030
ACPI: MADT (v001 ASUS   P4PE     0x42302e31 MSFT 0x31313031) @ 0x1ffec058
ACPI: DSDT (v001   ASUS P4PE     0x00001000 MSFT 0x0100000b) @ 0x00000000
ACPI: PM-Timer IO Port: 0xe408
ACPI: Local APIC address 0xfee00000
ACPI: LAPIC (acpi_id[0x00] lapic_id[0x00] enabled)
Processor #0 15:2 APIC version 20
ACPI: LAPIC_NMI (acpi_id[0x00] high edge lint[0x1])
ACPI: IOAPIC (id[0x02] address[0xfec00000] gsi_base[0])
IOAPIC[0]: apic_id 2, version 32, address 0xfec00000, GSI 0-23
ACPI: INT_SRC_OVR (bus 0 bus_irq 0 global_irq 2 dfl edge)
ACPI: INT_SRC_OVR (bus 0 bus_irq 9 global_irq 22 low level)
ACPI: IRQ0 used by override.
ACPI: IRQ2 used by override.
Enabling APIC mode:  Flat.  Using 1 I/O APICs
Using ACPI (MADT) for SMP configuration information
Allocating PCI resources starting at 30000000 (gap: 20000000:dec00000)
Detected 1818.044 MHz processor.
Built 1 zonelists.  Total pages: 130029
Kernel command line: root=/dev/hda1 ro vga=791
mapped APIC to ffffd000 (fee00000)
mapped IOAPIC to ffffc000 (fec00000)
Enabling fast FPU save and restore... done.
Enabling unmasked SIMD FPU exception support... done.
Initializing CPU#0
PID hash table entries: 2048 (order: 11, 8192 bytes)
Console: colour dummy device 80x25
Dentry cache hash table entries: 65536 (order: 6, 262144 bytes)
Inode-cache hash table entries: 32768 (order: 5, 131072 bytes)
Memory: 517064k/524208k available (1321k kernel code, 6608k reserved, 481k data, 140k init, 0k highmem)
virtual kernel memory layout:
    fixmap  : 0xfffb7000 - 0xfffff000   ( 288 kB)
    vmalloc : 0xe0800000 - 0xfffb5000   ( 503 MB)
    lowmem  : 0xc0000000 - 0xdffec000   ( 511 MB)
      .init : 0xc02c6000 - 0xc02e9000   ( 140 kB)
      .data : 0xc024a612 - 0xc02c2b70   ( 481 kB)
      .text : 0xc0100000 - 0xc024a612   (1321 kB)
Checking if this processor honours the WP bit even in supervisor mode... Ok.
Calibrating delay using timer specific routine.. 3637.49 BogoMIPS (lpj=1818746)
Mount-cache hash table entries: 512
CPU: After generic identify, caps: 3febfbff 00000000 00000000 00000000 00000000 00000000 00000000
CPU: Trace cache: 12K uops, L1 D cache: 8K
CPU: L2 cache: 512K
CPU: After all inits, caps: 3febfbff 00000000 00000000 00003080 00000000 00000000 00000000
Intel machine check architecture supported.
Intel machine check reporting enabled on CPU#0.
CPU0: Intel P4/Xeon Extended MCE MSRs (12) available
CPU0: Thermal monitoring enabled
Compat vDSO mapped to ffffe000.
CPU: Intel(R) Pentium(R) 4 CPU 1.80GHz stepping 04
Checking 'hlt' instruction... OK.
ACPI: Core revision 20060707
ENABLING IO-APIC IRQs
..TIMER: vector=0x31 apic1=0 pin1=2 apic2=-1 pin2=-1
NET: Registered protocol family 16
ACPI: bus type pci registered
PCI: PCI BIOS revision 2.10 entry at 0xf1e60, last bus=2
PCI: Using configuration type 1
Setting up standard PCI resources
ACPI: Interpreter enabled
ACPI: Using IOAPIC for interrupt routing
ACPI: PCI Interrupt Link [LNKA] (IRQs 3 4 5 6 7 *9 10 11 12 14 15)
ACPI: PCI Interrupt Link [LNKB] (IRQs 3 4 5 6 7 9 10 11 12 14 15) *0, disabled.
ACPI: PCI Interrupt Link [LNKC] (IRQs 3 4 5 6 7 *9 10 11 12 14 15)
ACPI: PCI Interrupt Link [LNKD] (IRQs 3 4 5 6 7 *9 10 11 12 14 15)
ACPI: PCI Interrupt Link [LNKE] (IRQs 3 4 5 6 7 9 10 11 12 14 15) *0, disabled.
ACPI: PCI Interrupt Link [LNKF] (IRQs 3 4 5 6 7 9 10 11 12 14 15) *0, disabled.
ACPI: PCI Interrupt Link [LNKG] (IRQs 3 4 5 6 7 9 10 11 12 14 15) *0, disabled.
ACPI: PCI Interrupt Link [LNKH] (IRQs 3 4 5 6 7 9 10 11 12 14 15) *0, disabled.
ACPI: PCI Root Bridge [PCI0] (0000:00)
PCI: Probing PCI hardware (bus 00)
ACPI: Assume root bridge [\_SB_.PCI0] bus is 0
* The chipset may have PM-Timer Bug. Due to workarounds for a bug,
* this clock source is slow. If you are sure your timer does not have
* this bug, please use "acpi_pm_good" to disable the workaround
PCI quirk: region e400-e47f claimed by ICH4 ACPI/GPIO/TCO
PCI quirk: region ec00-ec3f claimed by ICH4 GPIO
PCI: Enabled i801 SMBus device
Boot video device is 0000:01:00.0
PCI: Transparent bridge - 0000:00:1e.0
ACPI: PCI Interrupt Routing Table [\_SB_.PCI0._PRT]
ACPI: PCI Interrupt Routing Table [\_SB_.PCI0.PCI1._PRT]
ACPI: PCI Interrupt Routing Table [\_SB_.PCI0.PCI2._PRT]
Linux Plug and Play Support v0.97 (c) Adam Belay
pnp: PnP ACPI init
pnp: PnP ACPI: found 17 devices
PCI: Using ACPI for IRQ routing
PCI: If a device doesn't work, try "pci=routeirq".  If it helps, post a report
pnp: 00:02: ioport range 0xe400-0xe47f could not be reserved
pnp: 00:02: ioport range 0xe800-0xe81f has been reserved
pnp: 00:02: ioport range 0xec00-0xec3f has been reserved
pnp: 00:02: ioport range 0x4d6-0x4d6 has been reserved
pnp: 00:10: ioport range 0x3f0-0x3f1 has been reserved
PCI: Bridge: 0000:00:01.0
  IO window: d000-dfff
  MEM window: f2000000-f27fffff
  PREFETCH window: f3f00000-f7ffffff
PCI: Bridge: 0000:00:1e.0
  IO window: disabled.
  MEM window: f1000000-f17fffff
  PREFETCH window: f2800000-f3efffff
PCI: Setting latency timer of device 0000:00:1e.0 to 64
NET: Registered protocol family 2
IP route cache hash table entries: 4096 (order: 2, 16384 bytes)
TCP established hash table entries: 16384 (order: 4, 65536 bytes)
TCP bind hash table entries: 8192 (order: 3, 32768 bytes)
TCP: Hash tables configured (established 16384 bind 8192)
TCP reno registered
Simple Boot Flag at 0x3a set to 0x1
io scheduler noop registered (default)
vesafb: framebuffer at 0xf4000000, mapped to 0xe0880000, using 3072k, total 32768k
vesafb: mode is 1024x768x16, linelength=2048, pages=20
vesafb: protected mode interface info at c000:441b
vesafb: pmi: set display start = c00c4489, set palette = c00c44c3
vesafb: pmi: ports = d810 d816 d854 d838 d83c d85c d800 d804 d8b0 d8b2 d8b4 
vesafb: scrolling: redraw
vesafb: Truecolor: size=0:5:6:5, shift=0:11:5:0
Console: switching to colour frame buffer device 128x48
fb0: VESA VGA frame buffer device
Uniform Multi-Platform E-IDE driver Revision: 7.00alpha2
ide: Assuming 33MHz system bus speed for PIO modes; override with idebus=xx
ICH4: IDE controller at PCI slot 0000:00:1f.1
ACPI: PCI Interrupt 0000:00:1f.1[A] -> GSI 18 (level, low) -> IRQ 16
ICH4: chipset revision 2
ICH4: not 100% native mode: will probe irqs later
    ide0: BM-DMA at 0xf000-0xf007, BIOS settings: hda:DMA, hdb:pio
    ide1: BM-DMA at 0xf008-0xf00f, BIOS settings: hdc:DMA, hdd:DMA
Probing IDE interface ide0...
hda: IC35L080AVVA07-0, ATA DISK drive
ide0 at 0x1f0-0x1f7,0x3f6 on irq 14
Probing IDE interface ide1...
hdc: HL-DT-STDVD-ROM GDR8163B, ATAPI CD/DVD-ROM drive
hdd: CD-W54E, ATAPI CD/DVD-ROM drive
ide1 at 0x170-0x177,0x376 on irq 15
hda: max request size: 128KiB
hda: 160836480 sectors (82348 MB) w/1863KiB Cache, CHS=65535/16/63, UDMA(100)
hda: cache flushes supported
 hda: hda1 hda2 hda3 hda4 < hda5 hda6 hda7 >
TCP cubic registered
Using IPI Shortcut mode
Time: tsc clocksource has been installed.
kjournald starting.  Commit interval 5 seconds
EXT3-fs: mounted filesystem with ordered data mode.
VFS: Mounted root (ext3 filesystem) readonly.
Freeing unused kernel memory: 140k freed
NET: Registered protocol family 1
usbcore: registered new interface driver usbfs
usbcore: registered new interface driver hub
usbcore: registered new device driver usb
USB Universal Host Controller Interface driver v3.0
ACPI: PCI Interrupt 0000:00:1d.0[A] -> GSI 16 (level, low) -> IRQ 17
PCI: Setting latency timer of device 0000:00:1d.0 to 64
uhci_hcd 0000:00:1d.0: UHCI Host Controller
uhci_hcd 0000:00:1d.0: new USB bus registered, assigned bus number 1
uhci_hcd 0000:00:1d.0: irq 17, io base 0x0000b800
usb usb1: configuration #1 chosen from 1 choice
hub 1-0:1.0: USB hub found
hub 1-0:1.0: 2 ports detected
ACPI: PCI Interrupt 0000:00:1d.1[B] -> GSI 19 (level, low) -> IRQ 18
PCI: Setting latency timer of device 0000:00:1d.1 to 64
uhci_hcd 0000:00:1d.1: UHCI Host Controller
uhci_hcd 0000:00:1d.1: new USB bus registered, assigned bus number 2
uhci_hcd 0000:00:1d.1: irq 18, io base 0x0000b400
usb usb2: configuration #1 chosen from 1 choice
hub 2-0:1.0: USB hub found
hub 2-0:1.0: 2 ports detected
ACPI: PCI Interrupt 0000:00:1d.2[C] -> GSI 18 (level, low) -> IRQ 16
PCI: Setting latency timer of device 0000:00:1d.2 to 64
uhci_hcd 0000:00:1d.2: UHCI Host Controller
uhci_hcd 0000:00:1d.2: new USB bus registered, assigned bus number 3
uhci_hcd 0000:00:1d.2: irq 16, io base 0x0000b000
usb usb3: configuration #1 chosen from 1 choice
hub 3-0:1.0: USB hub found
hub 3-0:1.0: 2 ports detected
PCI: Enabling device 0000:00:1d.7 (0004 -> 0006)
ACPI: PCI Interrupt 0000:00:1d.7[D] -> GSI 23 (level, low) -> IRQ 19
PCI: Setting latency timer of device 0000:00:1d.7 to 64
ehci_hcd 0000:00:1d.7: EHCI Host Controller
ehci_hcd 0000:00:1d.7: new USB bus registered, assigned bus number 4
ehci_hcd 0000:00:1d.7: debug port 1
PCI: cache line size of 128 is not supported by device 0000:00:1d.7
ehci_hcd 0000:00:1d.7: irq 19, io mem 0xf1800000
ehci_hcd 0000:00:1d.7: USB 2.0 started, EHCI 1.00, driver 10 Dec 2004
usb usb4: configuration #1 chosen from 1 choice
hub 4-0:1.0: USB hub found
hub 4-0:1.0: 6 ports detected
Floppy drive(s): fd0 is 1.44M
FDC 0 is a post-1991 82077
parport: PnPBIOS parport detected.
parport0: PC-style at 0x378, irq 7 [PCSPP(,...)]
hdc: ATAPI 52X DVD-ROM drive, 256kB Cache, UDMA(33)
Uniform CD-ROM driver Revision: 3.20
b44.c:v1.01 (Jun 16, 2006)
PCI: Enabling device 0000:02:05.0 (0004 -> 0006)
ACPI: PCI Interrupt 0000:02:05.0[A] -> GSI 20 (level, low) -> IRQ 20
eth0: Broadcom 4400 10/100BaseT Ethernet 00:0c:6e:19:46:cf
hdd: ATAPI 32X CD-ROM CD-R/RW drive, 1280kB Cache, DMA
Linux video capture interface: v2.00
ACPI: PCI Interrupt 0000:00:1f.3[B] -> GSI 17 (level, low) -> IRQ 21
PCI: Enabling device 0000:00:1f.5 (0004 -> 0007)
ACPI: PCI Interrupt 0000:00:1f.5[B] -> GSI 17 (level, low) -> IRQ 21
PCI: Setting latency timer of device 0000:00:1f.5 to 64
bttv: driver version 0.9.16 loaded
bttv: using 8 buffers with 2080k (520 pages) each for capture
intel8x0_measure_ac97_clock: measured 50045 usecs
intel8x0: clocking to 48000
bttv: Bt8xx card found (0).
PCI: Enabling device 0000:02:0b.0 (0004 -> 0006)
ACPI: PCI Interrupt 0000:02:0b.0[A] -> GSI 23 (level, low) -> IRQ 19
bttv0: Bt878 (rev 17) at 0000:02:0b.0, irq: 19, latency: 32, mmio: 0xf3000000
bttv0: detected: Pinnacle PCTV Sat [card=94], PCI subsystem ID is 11bd:001c
bttv0: using: Pinnacle PCTV Sat [card=94,autodetected]
bttv0: gpio: en=00000000, out=00000000 in=00df00fc [init]
bttv0: using tuner=-1
bttv0: registered device video0
bttv0: registered device vbi0
bttv0: PLL: 28636363 => 35468950 .. ok
bttv0: add subdevice "dvb0"
bt878: AUDIO driver version 0.0.0 loaded
bt878: Bt878 AUDIO function found (0).
PCI: Enabling device 0000:02:0b.1 (0004 -> 0006)
ACPI: PCI Interrupt 0000:02:0b.1[A] -> GSI 23 (level, low) -> IRQ 19
bt878_probe: card id=[0x1c11bd],[ Pinnacle PCTV Sat ] has DVB functions.
bt878(0): Bt878 (rev 17) at 02:0b.1, irq: 19, latency: 32, memory: 0xf2800000
Adding 1951856k swap on /dev/hda6.  Priority:-1 extents:1 across:1951856k
EXT3 FS on hda1, internal journal
input: Power Button (FF) as /class/input/input0
ACPI: Power Button (FF) [PWRF]
input: Power Button (CM) as /class/input/input1
ACPI: Power Button (CM) [PWRB]
ACPI: Invalid PBLK length [5]
Serial: 8250/16550 driver $Revision: 1.90 $ 4 ports, IRQ sharing disabled
serial8250: ttyS0 at I/O 0x3f8 (irq = 4) is a 16550A
serial8250: ttyS1 at I/O 0x2f8 (irq = 3) is a 16550A
NET: Registered protocol family 17
mice: PS/2 mouse device common for all mice
PNP: PS/2 Controller [PNP0303:PS2K,PNP0f13:PS2M] at 0x60,0x64 irq 1,12
serio: i8042 KBD port at 0x60,0x64 irq 1
serio: i8042 AUX port at 0x60,0x64 irq 12
input: AT Translated Set 2 keyboard as /class/input/input2
DVB: registering new adapter (bttv0).
DVB: registering frontend 0 (Conexant CX24110 DVB-S)...
loop: loaded (max 8 devices)
logips2pp: Detected unknown logitech mouse model 11
kjournald starting.  Commit interval 5 seconds
EXT3 FS on hda7, internal journal
EXT3-fs: mounted filesystem with ordered data mode.
kjournald starting.  Commit interval 5 seconds
EXT3 FS on hda3, internal journal
EXT3-fs: mounted filesystem with ordered data mode.
kjournald starting.  Commit interval 5 seconds
EXT3 FS on hda2, internal journal
EXT3-fs: mounted filesystem with ordered data mode.
kjournald starting.  Commit interval 5 seconds
EXT3 FS on hda5, internal journal
EXT3-fs: mounted filesystem with ordered data mode.
input: PS/2 Logitech Mouse as /class/input/input3
b44: eth0: Link is up at 100 Mbps, full duplex.
b44: eth0: Flow control is off for TX and off for RX.
mtrr: no MTRR for f4000000,2000000 found
Linux agpgart interface v0.101 (c) Dave Jones
[drm] Initialized drm 1.1.0 20060810
ACPI: PCI Interrupt 0000:01:00.0[A] -> GSI 16 (level, low) -> IRQ 17
[drm] Initialized r128 2.5.0 20030725 on minor 0
00:00.0 Host bridge: Intel Corporation 82845G/GL[Brookdale-G]/GE/PE DRAM Controller/Host-Hub Interface (rev 02)
	Subsystem: ASUSTeK Computer Inc. Unknown device 80b2
	Control: I/O- Mem+ BusMaster+ SpecCycle- MemWINV- VGASnoop- ParErr- Stepping- SERR- FastB2B-
	Status: Cap+ 66MHz- UDF- FastB2B+ ParErr- DEVSEL=fast >TAbort- <TAbort- <MAbort+ >SERR- <PERR-
	Latency: 0
	Region 0: Memory at f8000000 (32-bit, prefetchable) [size=64M]
	Capabilities: [e4] Vendor Specific Information
	Capabilities: [a0] AGP version 2.0
		Status: RQ=32 Iso- ArqSz=0 Cal=0 SBA+ ITACoh- GART64- HTrans- 64bit- FW+ AGP3- Rate=x1,x2,x4
		Command: RQ=1 ArqSz=0 Cal=0 SBA- AGP- GART64- 64bit- FW- Rate=<none>
00: 86 80 60 25 06 00 90 20 02 00 00 06 00 00 00 00
10: 08 00 00 f8 00 00 00 00 00 00 00 00 00 00 00 00
20: 00 00 00 00 00 00 00 00 00 00 00 00 43 10 b2 80
30: 00 00 00 00 e4 00 00 00 00 00 00 00 00 00 00 00
40: 3c 03 00 00 41 20 10 20 04 01 00 00 3b 08 10 00
50: 00 00 0a 00 00 00 00 01 40 34 02 00 39 34 37 34
60: 00 00 10 10 00 00 00 00 00 00 00 00 00 00 00 00
70: 00 03 00 00 00 00 00 00 2a 06 42 2b f1 c0 00 20
80: f1 00 af 00 ad 00 00 00 01 00 00 00 00 00 00 00
90: 10 11 01 03 00 11 11 00 45 04 00 00 00 0a 38 00
a0: 02 00 20 00 17 02 00 1f 00 00 00 00 00 00 00 00
b0: 00 00 00 00 30 00 00 00 00 00 00 00 20 10 00 00
c0: 44 40 30 11 00 00 0c 0a 00 00 00 00 00 00 00 00
d0: 02 28 04 0e 0b 0d 00 10 00 10 11 b3 00 00 20 00
e0: 00 00 00 00 09 a0 05 61 21 00 00 00 00 00 00 00
f0: 00 00 00 00 74 fc 00 00 40 0f 00 00 04 00 00 00
00:01.0 PCI bridge: Intel Corporation 82845G/GL[Brookdale-G]/GE/PE Host-to-AGP Bridge (rev 02) (prog-if 00 [Normal decode])
	Control: I/O+ Mem+ BusMaster+ SpecCycle- MemWINV- VGASnoop- ParErr- Stepping- SERR- FastB2B-
	Status: Cap- 66MHz+ UDF- FastB2B+ ParErr- DEVSEL=fast >TAbort- <TAbort- <MAbort- >SERR- <PERR-
	Latency: 64
	Bus: primary=00, secondary=01, subordinate=01, sec-latency=0
	I/O behind bridge: 0000d000-0000dfff
	Memory behind bridge: f2000000-f27fffff
	Prefetchable memory behind bridge: f3f00000-f7ffffff
	Secondary status: 66MHz+ FastB2B+ ParErr- DEVSEL=medium >TAbort- <TAbort- <MAbort- <SERR- <PERR-
	BridgeCtl: Parity- SERR- NoISA- VGA+ MAbort- >Reset- FastB2B-
00: 86 80 61 25 07 00 a0 00 02 00 04 06 00 40 01 00
10: 00 00 00 00 00 00 00 00 00 01 01 00 d0 d0 a0 02
20: 00 f2 70 f2 f0 f3 f0 f7 00 00 00 00 00 00 00 00
30: 00 00 00 00 00 00 00 00 00 00 00 00 00 00 08 00
40: 00 00 00 00 00 00 00 00 00 00 00 00 00 00 00 00
50: 00 00 00 00 00 00 00 00 00 00 00 00 00 00 00 00
60: 00 00 00 00 00 00 00 00 00 00 00 00 00 00 00 00
70: 00 00 00 00 00 00 00 00 00 00 00 00 00 00 00 00
80: 00 00 00 00 00 00 00 00 00 00 00 00 00 00 00 00
90: 00 00 00 00 00 00 00 00 00 00 00 00 00 00 00 00
a0: 00 00 00 00 00 00 00 00 00 00 00 00 00 00 00 00
b0: 00 00 00 00 00 00 00 00 00 00 00 00 00 00 00 00
c0: 00 00 00 00 00 00 00 00 00 00 00 00 00 00 00 00
d0: 00 00 00 00 00 00 00 00 00 00 00 00 00 00 00 00
e0: 00 00 00 00 00 00 00 00 00 00 00 00 00 00 00 00
f0: 00 00 00 00 00 00 00 00 00 00 00 00 00 00 00 00
00:1d.0 USB Controller: Intel Corporation 82801DB/DBL/DBM (ICH4/ICH4-L/ICH4-M) USB UHCI Controller #1 (rev 02) (prog-if 00 [UHCI])
	Subsystem: ASUSTeK Computer Inc. Unknown device 8089
	Control: I/O+ Mem- BusMaster+ SpecCycle- MemWINV- VGASnoop- ParErr- Stepping- SERR- FastB2B-
	Status: Cap- 66MHz- UDF- FastB2B+ ParErr- DEVSEL=medium >TAbort- <TAbort- <MAbort- >SERR- <PERR-
	Latency: 0
	Interrupt: pin A routed to IRQ 17
	Region 4: I/O ports at b800 [size=32]
00: 86 80 c2 24 05 00 80 02 02 00 03 0c 00 00 80 00
10: 00 00 00 00 00 00 00 00 00 00 00 00 00 00 00 00
20: 01 b8 00 00 00 00 00 00 00 00 00 00 43 10 89 80
30: 00 00 00 00 00 00 00 00 00 00 00 00 09 01 00 00
40: 00 00 00 00 00 00 00 00 00 00 00 00 00 00 00 00
50: 00 00 00 00 00 00 00 00 00 00 00 00 00 00 00 00
60: 10 00 00 00 00 00 00 00 00 00 00 00 00 00 00 00
70: 00 00 00 00 00 00 00 00 00 00 00 00 00 00 00 00
80: 00 00 00 00 00 00 00 00 00 00 00 00 00 00 00 00
90: 00 00 00 00 00 00 00 00 00 00 00 00 00 00 00 00
a0: 00 00 00 00 00 00 00 00 00 00 00 00 00 00 00 00
b0: 00 00 00 00 00 00 00 00 00 00 00 00 00 00 00 00
c0: 00 2f 00 00 00 00 00 00 00 00 00 00 00 00 00 00
d0: 00 00 00 00 00 00 00 00 00 00 00 00 00 00 00 00
e0: 00 00 00 00 00 00 00 00 00 00 00 00 00 00 00 00
f0: 00 00 00 00 00 00 00 00 60 0f 00 00 00 00 00 00
00:1d.1 USB Controller: Intel Corporation 82801DB/DBL/DBM (ICH4/ICH4-L/ICH4-M) USB UHCI Controller #2 (rev 02) (prog-if 00 [UHCI])
	Subsystem: ASUSTeK Computer Inc. Unknown device 8089
	Control: I/O+ Mem- BusMaster+ SpecCycle- MemWINV- VGASnoop- ParErr- Stepping- SERR- FastB2B-
	Status: Cap- 66MHz- UDF- FastB2B+ ParErr- DEVSEL=medium >TAbort- <TAbort- <MAbort- >SERR- <PERR-
	Latency: 0
	Interrupt: pin B routed to IRQ 18
	Region 4: I/O ports at b400 [size=32]
00: 86 80 c4 24 05 00 80 02 02 00 03 0c 00 00 00 00
10: 00 00 00 00 00 00 00 00 00 00 00 00 00 00 00 00
20: 01 b4 00 00 00 00 00 00 00 00 00 00 43 10 89 80
30: 00 00 00 00 00 00 00 00 00 00 00 00 09 02 00 00
40: 00 00 00 00 00 00 00 00 00 00 00 00 00 00 00 00
50: 00 00 00 00 00 00 00 00 00 00 00 00 00 00 00 00
60: 10 00 00 00 00 00 00 00 00 00 00 00 00 00 00 00
70: 00 00 00 00 00 00 00 00 00 00 00 00 00 00 00 00
80: 00 00 00 00 00 00 00 00 00 00 00 00 00 00 00 00
90: 00 00 00 00 00 00 00 00 00 00 00 00 00 00 00 00
a0: 00 00 00 00 00 00 00 00 00 00 00 00 00 00 00 00
b0: 00 00 00 00 00 00 00 00 00 00 00 00 00 00 00 00
c0: 00 2f 00 00 00 00 00 00 00 00 00 00 00 00 00 00
d0: 00 00 00 00 00 00 00 00 00 00 00 00 00 00 00 00
e0: 00 00 00 00 00 00 00 00 00 00 00 00 00 00 00 00
f0: 00 00 00 00 00 00 00 00 60 0f 00 00 00 00 00 00
00:1d.2 USB Controller: Intel Corporation 82801DB/DBL/DBM (ICH4/ICH4-L/ICH4-M) USB UHCI Controller #3 (rev 02) (prog-if 00 [UHCI])
	Subsystem: ASUSTeK Computer Inc. Unknown device 8089
	Control: I/O+ Mem- BusMaster+ SpecCycle- MemWINV- VGASnoop- ParErr- Stepping- SERR- FastB2B-
	Status: Cap- 66MHz- UDF- FastB2B+ ParErr- DEVSEL=medium >TAbort- <TAbort- <MAbort- >SERR- <PERR-
	Latency: 0
	Interrupt: pin C routed to IRQ 16
	Region 4: I/O ports at b000 [size=32]
00: 86 80 c7 24 05 00 80 02 02 00 03 0c 00 00 00 00
10: 00 00 00 00 00 00 00 00 00 00 00 00 00 00 00 00
20: 01 b0 00 00 00 00 00 00 00 00 00 00 43 10 89 80
30: 00 00 00 00 00 00 00 00 00 00 00 00 09 03 00 00
40: 00 00 00 00 00 00 00 00 00 00 00 00 00 00 00 00
50: 00 00 00 00 00 00 00 00 00 00 00 00 00 00 00 00
60: 10 00 00 00 00 00 00 00 00 00 00 00 00 00 00 00
70: 00 00 00 00 00 00 00 00 00 00 00 00 00 00 00 00
80: 00 00 00 00 00 00 00 00 00 00 00 00 00 00 00 00
90: 00 00 00 00 00 00 00 00 00 00 00 00 00 00 00 00
a0: 00 00 00 00 00 00 00 00 00 00 00 00 00 00 00 00
b0: 00 00 00 00 00 00 00 00 00 00 00 00 00 00 00 00
c0: 00 2f 00 00 00 00 00 00 00 00 00 00 00 00 00 00
d0: 00 00 00 00 00 00 00 00 00 00 00 00 00 00 00 00
e0: 00 00 00 00 00 00 00 00 00 00 00 00 00 00 00 00
f0: 00 00 00 00 00 00 00 00 60 0f 00 00 00 00 00 00
00:1d.7 USB Controller: Intel Corporation 82801DB/DBM (ICH4/ICH4-M) USB2 EHCI Controller (rev 02) (prog-if 20 [EHCI])
	Subsystem: ASUSTeK Computer Inc. Unknown device 8089
	Control: I/O- Mem+ BusMaster+ SpecCycle- MemWINV- VGASnoop- ParErr- Stepping- SERR- FastB2B-
	Status: Cap+ 66MHz- UDF- FastB2B+ ParErr- DEVSEL=medium >TAbort- <TAbort- <MAbort- >SERR- <PERR-
	Latency: 0
	Interrupt: pin D routed to IRQ 20
	Region 0: Memory at f1800000 (32-bit, non-prefetchable) [size=1K]
	Capabilities: [50] Power Management version 2
		Flags: PMEClk- DSI- D1- D2- AuxCurrent=375mA PME(D0+,D1-,D2-,D3hot+,D3cold+)
		Status: D0 PME-Enable- DSel=0 DScale=0 PME-
	Capabilities: [58] Debug port
00: 86 80 cd 24 06 00 90 02 02 20 03 0c 00 00 00 00
10: 00 00 80 f1 00 00 00 00 00 00 00 00 00 00 00 00
20: 00 00 00 00 00 00 00 00 00 00 00 00 43 10 89 80
30: 00 00 00 00 50 00 00 00 00 00 00 00 ff 04 00 00
40: 00 00 00 00 00 00 00 00 00 00 00 00 00 00 00 00
50: 01 58 c2 c9 00 00 00 00 0a 00 80 20 00 00 00 00
60: 20 20 7f 00 00 00 00 00 01 00 00 00 00 00 08 c0
70: 00 00 c5 0f 00 00 00 00 00 00 00 00 00 00 00 00
80: 00 00 00 00 01 00 00 00 00 00 00 00 00 00 00 00
90: 00 00 00 00 00 00 00 00 00 00 00 00 00 00 00 00
a0: 00 00 00 00 00 00 00 00 00 00 00 00 00 00 00 00
b0: 00 00 00 00 00 00 00 00 00 00 00 00 00 00 00 00
c0: 00 00 00 00 00 00 00 00 00 00 00 00 00 00 00 00
d0: 00 00 00 00 00 00 00 00 00 00 00 00 10 00 3f 00
e0: 00 00 00 00 00 00 00 00 00 00 00 00 00 00 00 00
f0: 78 bf 1f 00 88 83 00 00 60 0f 00 00 06 00 00 00
00:1e.0 PCI bridge: Intel Corporation 82801 PCI Bridge (rev 82) (prog-if 00 [Normal decode])
	Control: I/O+ Mem+ BusMaster+ SpecCycle- MemWINV- VGASnoop- ParErr- Stepping- SERR+ FastB2B-
	Status: Cap- 66MHz- UDF- FastB2B+ ParErr- DEVSEL=fast >TAbort- <TAbort- <MAbort- >SERR- <PERR+
	Latency: 0
	Bus: primary=00, secondary=02, subordinate=02, sec-latency=32
	I/O behind bridge: 0000f000-00000fff
	Memory behind bridge: f1000000-f17fffff
	Prefetchable memory behind bridge: f2800000-f3efffff
	Secondary status: 66MHz- FastB2B+ ParErr- DEVSEL=medium >TAbort- <TAbort- <MAbort+ <SERR- <PERR-
	BridgeCtl: Parity- SERR+ NoISA+ VGA- MAbort- >Reset- FastB2B-
00: 86 80 4e 24 07 01 80 80 82 00 04 06 00 00 01 00
10: 00 00 00 00 00 00 00 00 00 02 02 20 f0 00 80 22
20: 00 f1 70 f1 80 f2 e0 f3 00 00 00 00 00 00 00 00
30: 00 00 00 00 00 00 00 00 00 00 00 00 00 00 06 00
40: 02 28 20 00 00 00 00 00 00 00 00 00 00 00 00 00
50: 02 74 00 00 00 00 00 00 00 00 00 00 00 00 00 00
60: 00 00 00 00 00 00 00 00 00 00 00 00 00 00 00 00
70: 40 00 00 00 00 00 00 00 00 00 00 00 00 00 00 00
80: 00 00 90 00 00 00 00 00 00 00 00 00 00 00 00 00
90: 00 00 00 00 00 00 00 00 00 00 00 00 00 00 00 00
a0: 10 00 08 00 00 00 00 00 00 00 00 00 00 00 00 00
b0: 01 00 02 00 00 00 c0 00 00 00 00 00 00 00 00 00
c0: 00 00 00 00 00 00 00 00 00 00 00 00 00 00 00 00
d0: 00 00 00 00 00 00 00 00 00 00 00 00 00 00 00 00
e0: 00 00 00 00 00 00 00 00 00 00 00 00 00 00 00 00
f0: 00 00 00 00 00 00 00 00 60 0f 00 00 00 00 54 22
00:1f.0 ISA bridge: Intel Corporation 82801DB/DBL (ICH4/ICH4-L) LPC Interface Bridge (rev 02)
	Control: I/O+ Mem+ BusMaster+ SpecCycle+ MemWINV- VGASnoop- ParErr- Stepping- SERR+ FastB2B-
	Status: Cap- 66MHz- UDF- FastB2B+ ParErr- DEVSEL=medium >TAbort- <TAbort- <MAbort- >SERR- <PERR-
	Latency: 0
00: 86 80 c0 24 0f 01 80 02 02 00 01 06 00 00 80 00
10: 00 00 00 00 00 00 00 00 00 00 00 00 00 00 00 00
20: 00 00 00 00 00 00 00 00 00 00 00 00 00 00 00 00
30: 00 00 00 00 00 00 00 00 00 00 00 00 00 00 00 00
40: 01 e4 00 00 16 00 00 00 00 00 00 00 00 00 00 00
50: 00 00 00 00 00 00 00 00 01 ec 00 00 10 00 00 00
60: 80 80 80 80 90 00 00 00 80 80 80 80 00 00 00 00
70: 00 00 00 00 00 00 00 00 00 00 00 00 00 00 00 00
80: 00 00 00 00 00 00 00 00 00 00 00 00 00 00 00 00
90: 75 54 00 00 00 00 00 00 00 00 00 00 00 00 00 00
a0: 20 02 01 00 02 00 00 00 0d 00 00 00 00 00 00 00
b0: 00 00 00 00 00 00 00 00 00 00 00 02 00 00 00 00
c0: 00 00 00 00 00 00 00 00 00 00 00 00 00 00 00 00
d0: 84 21 00 00 02 0f 00 00 04 00 00 00 00 00 00 00
e0: 00 00 00 80 00 00 08 14 33 22 00 00 00 00 67 45
f0: 0f 00 41 00 00 00 00 00 60 0f 02 00 00 00 81 00
00:1f.1 IDE interface: Intel Corporation 82801DB (ICH4) IDE Controller (rev 02) (prog-if 8a [Master SecP PriP])
	Subsystem: ASUSTeK Computer Inc. Unknown device 8089
	Control: I/O+ Mem+ BusMaster+ SpecCycle- MemWINV- VGASnoop- ParErr- Stepping- SERR- FastB2B-
	Status: Cap- 66MHz- UDF- FastB2B+ ParErr- DEVSEL=medium >TAbort- <TAbort- <MAbort- >SERR- <PERR-
	Latency: 0
	Interrupt: pin A routed to IRQ 16
	Region 0: I/O ports at 01f0 [size=8]
	Region 1: I/O ports at 03f4 [size=1]
	Region 2: I/O ports at 0170 [size=8]
	Region 3: I/O ports at 0374 [size=1]
	Region 4: I/O ports at f000 [size=16]
	Region 5: Memory at 30000000 (32-bit, non-prefetchable) [size=1K]
00: 86 80 cb 24 07 00 80 02 02 8a 01 01 00 00 00 00
10: 01 00 00 00 01 00 00 00 01 00 00 00 01 00 00 00
20: 01 f0 00 00 00 00 00 30 00 00 00 00 43 10 89 80
30: 00 00 00 00 00 00 00 00 00 00 00 00 09 01 00 00
40: 07 a3 73 e3 b0 00 00 00 05 00 01 02 00 00 00 00
50: 00 00 00 00 d1 14 00 00 00 00 00 00 00 00 00 00
60: 08 00 00 00 00 00 00 00 08 00 00 00 00 00 00 00
70: 00 00 00 00 00 00 00 00 00 00 00 00 00 00 00 00
80: 00 00 00 00 00 00 00 00 00 00 00 00 00 00 00 00
90: 00 00 00 00 00 00 00 00 00 00 00 00 00 00 00 00
a0: 00 00 00 00 00 00 00 00 00 00 00 00 00 00 00 00
b0: 00 00 00 00 00 00 00 00 00 00 00 00 00 00 00 00
c0: 00 00 00 00 00 00 00 00 00 00 00 00 00 00 00 00
d0: 00 00 00 00 00 00 00 00 00 00 00 00 00 00 00 00
e0: 00 00 00 00 00 00 00 00 00 00 00 00 00 00 00 00
f0: 00 00 00 00 00 00 00 00 60 0f 00 00 00 00 00 00
00:1f.3 SMBus: Intel Corporation 82801DB/DBL/DBM (ICH4/ICH4-L/ICH4-M) SMBus Controller (rev 02)
	Subsystem: ASUSTeK Computer Inc. Unknown device 8089
	Control: I/O+ Mem- BusMaster- SpecCycle- MemWINV- VGASnoop- ParErr- Stepping- SERR- FastB2B-
	Status: Cap- 66MHz- UDF- FastB2B+ ParErr- DEVSEL=medium >TAbort- <TAbort- <MAbort- >SERR- <PERR-
	Interrupt: pin B routed to IRQ 21
	Region 4: I/O ports at e800 [size=32]
00: 86 80 c3 24 01 00 80 02 02 00 05 0c 00 00 00 00
10: 00 00 00 00 00 00 00 00 00 00 00 00 00 00 00 00
20: 01 e8 00 00 00 00 00 00 00 00 00 00 43 10 89 80
30: 00 00 00 00 00 00 00 00 00 00 00 00 00 02 00 00
40: 01 00 00 00 00 00 00 00 00 00 00 00 00 00 00 00
50: 00 00 00 00 00 00 00 00 00 00 00 00 00 00 00 00
60: 00 00 00 00 00 00 00 00 00 00 00 00 00 00 00 00
70: 00 00 00 00 00 00 00 00 00 00 00 00 00 00 00 00
80: 00 00 00 00 00 00 00 00 00 00 00 00 00 00 00 00
90: 00 00 00 00 00 00 00 00 00 00 00 00 00 00 00 00
a0: 00 00 00 00 00 00 00 00 00 00 00 00 00 00 00 00
b0: 00 00 00 00 00 00 00 00 00 00 00 00 00 00 00 00
c0: 00 00 00 00 00 00 00 00 00 00 00 00 00 00 00 00
d0: 00 00 00 00 00 00 00 00 00 00 00 00 00 00 00 00
e0: 00 00 00 00 00 00 00 00 00 00 00 00 00 00 00 00
f0: 00 00 00 00 00 00 00 00 60 0f 00 00 00 00 00 00
00:1f.5 Multimedia audio controller: Intel Corporation 82801DB/DBL/DBM (ICH4/ICH4-L/ICH4-M) AC'97 Audio Controller (rev 02)
	Subsystem: ASUSTeK Computer Inc. Unknown device 80b0
	Control: I/O+ Mem+ BusMaster+ SpecCycle- MemWINV- VGASnoop- ParErr- Stepping- SERR- FastB2B-
	Status: Cap+ 66MHz- UDF- FastB2B+ ParErr- DEVSEL=medium >TAbort- <TAbort- <MAbort- >SERR- <PERR-
	Latency: 0
	Interrupt: pin B routed to IRQ 21
	Region 0: I/O ports at a800 [size=256]
	Region 1: I/O ports at a400 [size=64]
	Region 2: Memory at f0800000 (32-bit, non-prefetchable) [size=512]
	Region 3: Memory at f0000000 (32-bit, non-prefetchable) [size=256]
	Capabilities: [50] Power Management version 2
		Flags: PMEClk- DSI- D1- D2- AuxCurrent=375mA PME(D0+,D1-,D2-,D3hot+,D3cold+)
		Status: D0 PME-Enable- DSel=0 DScale=0 PME-
00: 86 80 c5 24 07 00 90 02 02 00 01 04 00 00 00 00
10: 01 a8 00 00 01 a4 00 00 00 00 80 f0 00 00 00 f0
20: 00 00 00 00 00 00 00 00 00 00 00 00 43 10 b0 80
30: 00 00 00 00 50 00 00 00 00 00 00 00 ff 02 00 00
40: 09 01 00 00 00 00 00 00 00 00 00 00 00 00 00 00
50: 01 00 c2 c9 00 00 00 00 00 00 00 00 00 00 00 00
60: 00 00 00 00 00 00 00 00 00 00 00 00 00 00 00 00
70: 00 00 00 00 00 00 00 00 00 00 00 00 00 00 00 00
80: 00 00 00 00 00 00 00 00 00 00 00 00 00 00 00 00
90: 00 00 00 00 00 00 00 00 00 00 00 00 00 00 00 00
a0: 00 00 00 00 00 00 00 00 00 00 00 00 00 00 00 00
b0: 00 00 00 00 00 00 00 00 00 00 00 00 00 00 00 00
c0: 00 00 00 00 00 00 00 00 00 00 00 00 00 00 00 00
d0: 00 00 00 00 00 00 00 00 00 00 00 00 00 00 00 00
e0: 00 00 00 00 00 00 00 00 00 00 00 00 00 00 00 00
f0: 00 00 00 00 00 00 00 00 60 0f 00 00 00 00 00 00
01:00.0 VGA compatible controller: ATI Technologies Inc Rage 128 PF/PRO AGP 4x TMDS (prog-if 00 [VGA])
	Subsystem: ATI Technologies Inc Rage Fury Pro/Xpert 2000 Pro
	Control: I/O+ Mem+ BusMaster+ SpecCycle- MemWINV- VGASnoop- ParErr- Stepping+ SERR- FastB2B-
	Status: Cap+ 66MHz+ UDF- FastB2B+ ParErr- DEVSEL=medium >TAbort- <TAbort- <MAbort- >SERR- <PERR-
	Latency: 64 (2000ns min), Cache Line Size: 32 bytes
	Interrupt: pin A routed to IRQ 17
	Region 0: Memory at f4000000 (32-bit, prefetchable) [size=64M]
	Region 1: I/O ports at d800 [size=256]
	Region 2: Memory at f2000000 (32-bit, non-prefetchable) [size=16K]
	Expansion ROM at f3fe0000 [disabled] [size=128K]
	Capabilities: [50] AGP version 2.0
		Status: RQ=32 Iso- ArqSz=0 Cal=0 SBA+ ITACoh- GART64- HTrans- 64bit- FW- AGP3- Rate=x1,x2,x4
		Command: RQ=1 ArqSz=0 Cal=0 SBA+ AGP- GART64- 64bit- FW- Rate=<none>
	Capabilities: [5c] Power Management version 2
		Flags: PMEClk- DSI- D1+ D2- AuxCurrent=0mA PME(D0-,D1-,D2-,D3hot-,D3cold-)
		Status: D0 PME-Enable- DSel=0 DScale=0 PME-
00: 02 10 46 50 87 00 b0 02 00 00 00 03 08 40 00 00
10: 08 00 00 f4 01 d8 00 00 00 00 00 f2 00 00 00 00
20: 00 00 00 00 00 00 00 00 00 00 00 00 02 10 08 00
30: 00 00 fe f3 50 00 00 00 00 00 00 00 09 01 08 00
40: 00 00 00 00 00 00 00 00 00 00 00 00 00 00 00 00
50: 02 5c 20 00 07 02 00 1f 00 02 00 00 01 00 02 02
60: 00 00 00 00 00 00 00 00 00 00 00 00 00 00 00 00
70: 00 00 00 00 00 00 00 00 00 00 00 00 00 00 00 00
80: 00 00 00 00 00 00 00 00 00 00 00 00 00 00 00 00
90: 00 00 00 00 00 00 00 00 00 00 00 00 00 00 00 00
a0: 00 00 00 00 00 00 00 00 00 00 00 00 00 00 00 00
b0: 00 00 00 00 00 00 00 00 00 00 00 00 00 00 00 00
c0: 00 00 00 00 00 00 00 00 00 00 00 00 00 00 00 00
d0: 00 00 00 00 00 00 00 00 00 00 00 00 00 00 00 00
e0: 00 00 00 00 00 00 00 00 00 00 00 00 00 00 00 00
f0: 00 00 00 00 00 00 00 00 00 00 00 00 00 00 00 00
02:05.0 Ethernet controller: Broadcom Corporation BCM4401 100Base-T (rev 01)
	Subsystem: ASUSTeK Computer Inc. A7V8X motherboard
	Control: I/O- Mem+ BusMaster+ SpecCycle- MemWINV- VGASnoop- ParErr- Stepping- SERR- FastB2B-
	Status: Cap+ 66MHz- UDF- FastB2B- ParErr- DEVSEL=fast >TAbort- <TAbort- <MAbort- >SERR- <PERR-
	Latency: 32
	Interrupt: pin A routed to IRQ 19
	Region 0: Memory at f1000000 (32-bit, non-prefetchable) [size=8K]
	Capabilities: [40] Power Management version 2
		Flags: PMEClk- DSI- D1+ D2+ AuxCurrent=375mA PME(D0+,D1+,D2+,D3hot+,D3cold+)
		Status: D0 PME-Enable- DSel=0 DScale=2 PME-
00: e4 14 01 44 06 00 10 00 01 00 00 02 00 20 00 00
10: 00 00 00 f1 00 00 00 00 00 00 00 00 00 00 00 00
20: 00 00 00 00 00 00 00 00 00 00 00 00 43 10 a8 80
30: 00 00 00 00 40 00 00 00 00 00 00 00 ff 01 00 00
40: 01 00 c2 ff 00 40 00 00 00 00 00 00 00 00 00 00
50: 00 00 00 00 00 00 00 00 00 00 00 00 00 00 00 00
60: 00 00 00 00 00 00 00 00 00 00 00 00 00 00 00 00
70: 00 00 00 00 00 00 00 00 00 00 00 00 00 00 00 00
80: 00 00 00 18 00 00 00 00 00 00 00 00 00 00 00 00
90: 00 00 00 00 00 00 00 00 00 00 00 00 00 00 00 00
a0: 00 10 00 00 01 20 00 00 00 00 00 00 00 00 00 00
b0: 00 00 00 00 00 00 00 00 00 00 00 00 00 00 00 00
c0: 00 00 00 00 00 00 00 00 00 00 00 00 00 00 00 00
d0: 00 00 00 00 00 00 00 00 00 00 00 00 00 00 00 00
e0: 00 00 00 00 00 00 00 00 00 00 00 00 00 00 00 00
f0: 00 00 00 00 00 00 00 00 00 00 00 00 00 00 00 00
02:0b.0 Multimedia video controller: Brooktree Corporation Bt878 Video Capture (rev 11)
	Subsystem: Pinnacle Systems Inc. PCTV Sat (DBC receiver)
	Control: I/O- Mem+ BusMaster+ SpecCycle- MemWINV- VGASnoop- ParErr- Stepping- SERR- FastB2B-
	Status: Cap+ 66MHz- UDF- FastB2B+ ParErr- DEVSEL=medium >TAbort- <TAbort- <MAbort- >SERR- <PERR-
	Latency: 32 (4000ns min, 10000ns max)
	Interrupt: pin A routed to IRQ 20
	Region 0: Memory at f3000000 (32-bit, prefetchable) [size=4K]
	Capabilities: [44] Vital Product Data
	Capabilities: [4c] Power Management version 2
		Flags: PMEClk- DSI+ D1- D2- AuxCurrent=0mA PME(D0-,D1-,D2-,D3hot-,D3cold-)
		Status: D0 PME-Enable- DSel=0 DScale=0 PME-
00: 9e 10 6e 03 06 00 90 02 11 00 00 04 00 20 80 00
10: 08 00 00 f3 00 00 00 00 00 00 00 00 00 00 00 00
20: 00 00 00 00 00 00 00 00 00 00 00 00 bd 11 1c 00
30: 00 00 00 00 44 00 00 00 00 00 00 00 ff 01 10 28
40: 00 00 00 00 03 4c 00 00 00 00 00 00 01 00 22 00
50: 00 00 00 00 00 00 00 00 00 00 00 00 00 00 00 00
60: 00 00 00 00 00 00 00 00 00 00 00 00 00 00 00 00
70: 00 00 00 00 00 00 00 00 00 00 00 00 00 00 00 00
80: 00 00 00 00 00 00 00 00 00 00 00 00 00 00 00 00
90: 00 00 00 00 00 00 00 00 00 00 00 00 00 00 00 00
a0: 00 00 00 00 00 00 00 00 00 00 00 00 00 00 00 00
b0: 00 00 00 00 00 00 00 00 00 00 00 00 00 00 00 00
c0: 00 00 00 00 00 00 00 00 00 00 00 00 00 00 00 00
d0: 00 00 00 00 00 00 00 00 00 00 00 00 00 00 00 00
e0: 00 00 00 00 00 00 00 00 00 00 00 00 00 00 00 00
f0: 00 00 00 00 00 00 00 00 00 00 00 00 00 00 00 00
02:0b.1 Multimedia controller: Brooktree Corporation Bt878 Audio Capture (rev 11)
	Subsystem: Pinnacle Systems Inc. PCTV Sat (DBC receiver)
	Control: I/O- Mem+ BusMaster+ SpecCycle- MemWINV- VGASnoop- ParErr- Stepping- SERR- FastB2B-
	Status: Cap+ 66MHz- UDF- FastB2B+ ParErr- DEVSEL=medium >TAbort- <TAbort- <MAbort- >SERR- <PERR-
	Latency: 32 (1000ns min, 63750ns max)
	Interrupt: pin A routed to IRQ 20
	Region 0: Memory at f2800000 (32-bit, prefetchable) [size=4K]
	Capabilities: [44] Vital Product Data
	Capabilities: [4c] Power Management version 2
		Flags: PMEClk- DSI+ D1- D2- AuxCurrent=0mA PME(D0-,D1-,D2-,D3hot-,D3cold-)
		Status: D0 PME-Enable- DSel=0 DScale=0 PME-
00: 9e 10 78 08 06 00 90 02 11 00 80 04 00 20 80 00
10: 08 00 80 f2 00 00 00 00 00 00 00 00 00 00 00 00
20: 00 00 00 00 00 00 00 00 00 00 00 00 bd 11 1c 00
30: 00 00 00 00 44 00 00 00 00 00 00 00 ff 01 04 ff
40: 00 00 00 00 03 4c 00 00 00 00 00 00 01 00 22 00
50: 00 00 00 00 00 00 00 00 00 00 00 00 00 00 00 00
60: 00 00 00 00 00 00 00 00 00 00 00 00 00 00 00 00
70: 00 00 00 00 00 00 00 00 00 00 00 00 00 00 00 00
80: 00 00 00 00 00 00 00 00 00 00 00 00 00 00 00 00
90: 00 00 00 00 00 00 00 00 00 00 00 00 00 00 00 00
a0: 00 00 00 00 00 00 00 00 00 00 00 00 00 00 00 00
b0: 00 00 00 00 00 00 00 00 00 00 00 00 00 00 00 00
c0: 00 00 00 00 00 00 00 00 00 00 00 00 00 00 00 00
d0: 00 00 00 00 00 00 00 00 00 00 00 00 00 00 00 00
e0: 00 00 00 00 00 00 00 00 00 00 00 00 00 00 00 00
f0: 00 00 00 00 00 00 00 00 00 00 00 00 00 00 00 00
00:00.0 Host bridge: Intel Corporation 82845G/GL[Brookdale-G]/GE/PE DRAM Controller/Host-Hub Interface (rev 02)
	Subsystem: ASUSTeK Computer Inc. Unknown device 80b2
	Control: I/O- Mem+ BusMaster+ SpecCycle- MemWINV- VGASnoop- ParErr- Stepping- SERR- FastB2B-
	Status: Cap+ 66MHz- UDF- FastB2B+ ParErr- DEVSEL=fast >TAbort- <TAbort- <MAbort+ >SERR- <PERR-
	Latency: 0
	Region 0: Memory at f8000000 (32-bit, prefetchable) [size=64M]
	Capabilities: [e4] Vendor Specific Information
	Capabilities: [a0] AGP version 2.0
		Status: RQ=32 Iso- ArqSz=0 Cal=0 SBA+ ITACoh- GART64- HTrans- 64bit- FW+ AGP3- Rate=x1,x2,x4
		Command: RQ=1 ArqSz=0 Cal=0 SBA- AGP- GART64- 64bit- FW- Rate=<none>
00: 86 80 60 25 06 00 90 20 02 00 00 06 00 00 00 00
10: 08 00 00 f8 00 00 00 00 00 00 00 00 00 00 00 00
20: 00 00 00 00 00 00 00 00 00 00 00 00 43 10 b2 80
30: 00 00 00 00 e4 00 00 00 00 00 00 00 00 00 00 00
40: 3c 03 00 00 41 20 10 20 04 01 00 00 3b 08 10 00
50: 00 00 0a 00 00 00 00 01 40 34 00 00 39 34 35 34
60: 00 00 10 10 00 00 00 00 00 00 00 00 00 00 00 00
70: 00 03 00 00 00 00 00 00 2a 06 42 2b f1 c0 00 20
80: f1 00 af 00 ad 00 00 00 01 00 00 00 00 00 00 00
90: 10 11 01 03 00 11 11 00 45 04 00 00 00 0a 38 00
a0: 02 00 20 00 17 02 00 1f 00 00 00 00 00 00 00 00
b0: 00 00 00 00 30 00 00 00 00 00 00 00 20 10 00 00
c0: 44 40 30 11 00 00 0c 0a 00 00 00 00 00 00 00 00
d0: 02 28 04 0e 0b 0d 00 10 00 10 11 b3 00 00 20 00
e0: 00 00 00 00 09 a0 05 61 21 00 00 00 00 00 00 00
f0: 00 00 00 00 74 fc 00 00 40 0f 00 00 04 00 00 00
00:01.0 PCI bridge: Intel Corporation 82845G/GL[Brookdale-G]/GE/PE Host-to-AGP Bridge (rev 02) (prog-if 00 [Normal decode])
	Control: I/O+ Mem+ BusMaster+ SpecCycle- MemWINV- VGASnoop- ParErr- Stepping- SERR- FastB2B-
	Status: Cap- 66MHz+ UDF- FastB2B+ ParErr- DEVSEL=fast >TAbort- <TAbort- <MAbort- >SERR- <PERR-
	Latency: 64
	Bus: primary=00, secondary=01, subordinate=01, sec-latency=0
	I/O behind bridge: 0000d000-0000dfff
	Memory behind bridge: f2000000-f27fffff
	Prefetchable memory behind bridge: f3f00000-f7ffffff
	Secondary status: 66MHz+ FastB2B+ ParErr- DEVSEL=medium >TAbort- <TAbort- <MAbort- <SERR- <PERR-
	BridgeCtl: Parity- SERR- NoISA- VGA+ MAbort- >Reset- FastB2B-
00: 86 80 61 25 07 00 a0 00 02 00 04 06 00 40 01 00
10: 00 00 00 00 00 00 00 00 00 01 01 00 d0 d0 a0 02
20: 00 f2 70 f2 f0 f3 f0 f7 00 00 00 00 00 00 00 00
30: 00 00 00 00 00 00 00 00 00 00 00 00 00 00 08 00
40: 00 00 00 00 00 00 00 00 00 00 00 00 00 00 00 00
50: 00 00 00 00 00 00 00 00 00 00 00 00 00 00 00 00
60: 00 00 00 00 00 00 00 00 00 00 00 00 00 00 00 00
70: 00 00 00 00 00 00 00 00 00 00 00 00 00 00 00 00
80: 00 00 00 00 00 00 00 00 00 00 00 00 00 00 00 00
90: 00 00 00 00 00 00 00 00 00 00 00 00 00 00 00 00
a0: 00 00 00 00 00 00 00 00 00 00 00 00 00 00 00 00
b0: 00 00 00 00 00 00 00 00 00 00 00 00 00 00 00 00
c0: 00 00 00 00 00 00 00 00 00 00 00 00 00 00 00 00
d0: 00 00 00 00 00 00 00 00 00 00 00 00 00 00 00 00
e0: 00 00 00 00 00 00 00 00 00 00 00 00 00 00 00 00
f0: 00 00 00 00 00 00 00 00 00 00 00 00 00 00 00 00
00:1d.0 USB Controller: Intel Corporation 82801DB/DBL/DBM (ICH4/ICH4-L/ICH4-M) USB UHCI Controller #1 (rev 02) (prog-if 00 [UHCI])
	Subsystem: ASUSTeK Computer Inc. Unknown device 8089
	Control: I/O+ Mem- BusMaster+ SpecCycle- MemWINV- VGASnoop- ParErr- Stepping- SERR- FastB2B-
	Status: Cap- 66MHz- UDF- FastB2B+ ParErr- DEVSEL=medium >TAbort- <TAbort- <MAbort- >SERR- <PERR-
	Latency: 0
	Interrupt: pin A routed to IRQ 17
	Region 4: I/O ports at b800 [size=32]
00: 86 80 c2 24 05 00 80 02 02 00 03 0c 00 00 80 00
10: 00 00 00 00 00 00 00 00 00 00 00 00 00 00 00 00
20: 01 b8 00 00 00 00 00 00 00 00 00 00 43 10 89 80
30: 00 00 00 00 00 00 00 00 00 00 00 00 09 01 00 00
40: 00 00 00 00 00 00 00 00 00 00 00 00 00 00 00 00
50: 00 00 00 00 00 00 00 00 00 00 00 00 00 00 00 00
60: 10 00 00 00 00 00 00 00 00 00 00 00 00 00 00 00
70: 00 00 00 00 00 00 00 00 00 00 00 00 00 00 00 00
80: 00 00 00 00 00 00 00 00 00 00 00 00 00 00 00 00
90: 00 00 00 00 00 00 00 00 00 00 00 00 00 00 00 00
a0: 00 00 00 00 00 00 00 00 00 00 00 00 00 00 00 00
b0: 00 00 00 00 00 00 00 00 00 00 00 00 00 00 00 00
c0: 00 2f 00 00 00 00 00 00 00 00 00 00 00 00 00 00
d0: 00 00 00 00 00 00 00 00 00 00 00 00 00 00 00 00
e0: 00 00 00 00 00 00 00 00 00 00 00 00 00 00 00 00
f0: 00 00 00 00 00 00 00 00 60 0f 00 00 00 00 00 00
00:1d.1 USB Controller: Intel Corporation 82801DB/DBL/DBM (ICH4/ICH4-L/ICH4-M) USB UHCI Controller #2 (rev 02) (prog-if 00 [UHCI])
	Subsystem: ASUSTeK Computer Inc. Unknown device 8089
	Control: I/O+ Mem- BusMaster+ SpecCycle- MemWINV- VGASnoop- ParErr- Stepping- SERR- FastB2B-
	Status: Cap- 66MHz- UDF- FastB2B+ ParErr- DEVSEL=medium >TAbort- <TAbort- <MAbort- >SERR- <PERR-
	Latency: 0
	Interrupt: pin B routed to IRQ 18
	Region 4: I/O ports at b400 [size=32]
00: 86 80 c4 24 05 00 80 02 02 00 03 0c 00 00 00 00
10: 00 00 00 00 00 00 00 00 00 00 00 00 00 00 00 00
20: 01 b4 00 00 00 00 00 00 00 00 00 00 43 10 89 80
30: 00 00 00 00 00 00 00 00 00 00 00 00 09 02 00 00
40: 00 00 00 00 00 00 00 00 00 00 00 00 00 00 00 00
50: 00 00 00 00 00 00 00 00 00 00 00 00 00 00 00 00
60: 10 00 00 00 00 00 00 00 00 00 00 00 00 00 00 00
70: 00 00 00 00 00 00 00 00 00 00 00 00 00 00 00 00
80: 00 00 00 00 00 00 00 00 00 00 00 00 00 00 00 00
90: 00 00 00 00 00 00 00 00 00 00 00 00 00 00 00 00
a0: 00 00 00 00 00 00 00 00 00 00 00 00 00 00 00 00
b0: 00 00 00 00 00 00 00 00 00 00 00 00 00 00 00 00
c0: 00 2f 00 00 00 00 00 00 00 00 00 00 00 00 00 00
d0: 00 00 00 00 00 00 00 00 00 00 00 00 00 00 00 00
e0: 00 00 00 00 00 00 00 00 00 00 00 00 00 00 00 00
f0: 00 00 00 00 00 00 00 00 60 0f 00 00 00 00 00 00
00:1d.2 USB Controller: Intel Corporation 82801DB/DBL/DBM (ICH4/ICH4-L/ICH4-M) USB UHCI Controller #3 (rev 02) (prog-if 00 [UHCI])
	Subsystem: ASUSTeK Computer Inc. Unknown device 8089
	Control: I/O+ Mem- BusMaster+ SpecCycle- MemWINV- VGASnoop- ParErr- Stepping- SERR- FastB2B-
	Status: Cap- 66MHz- UDF- FastB2B+ ParErr- DEVSEL=medium >TAbort- <TAbort- <MAbort- >SERR- <PERR-
	Latency: 0
	Interrupt: pin C routed to IRQ 16
	Region 4: I/O ports at b000 [size=32]
00: 86 80 c7 24 05 00 80 02 02 00 03 0c 00 00 00 00
10: 00 00 00 00 00 00 00 00 00 00 00 00 00 00 00 00
20: 01 b0 00 00 00 00 00 00 00 00 00 00 43 10 89 80
30: 00 00 00 00 00 00 00 00 00 00 00 00 09 03 00 00
40: 00 00 00 00 00 00 00 00 00 00 00 00 00 00 00 00
50: 00 00 00 00 00 00 00 00 00 00 00 00 00 00 00 00
60: 10 00 00 00 00 00 00 00 00 00 00 00 00 00 00 00
70: 00 00 00 00 00 00 00 00 00 00 00 00 00 00 00 00
80: 00 00 00 00 00 00 00 00 00 00 00 00 00 00 00 00
90: 00 00 00 00 00 00 00 00 00 00 00 00 00 00 00 00
a0: 00 00 00 00 00 00 00 00 00 00 00 00 00 00 00 00
b0: 00 00 00 00 00 00 00 00 00 00 00 00 00 00 00 00
c0: 00 2f 00 00 00 00 00 00 00 00 00 00 00 00 00 00
d0: 00 00 00 00 00 00 00 00 00 00 00 00 00 00 00 00
e0: 00 00 00 00 00 00 00 00 00 00 00 00 00 00 00 00
f0: 00 00 00 00 00 00 00 00 60 0f 00 00 00 00 00 00
00:1d.7 USB Controller: Intel Corporation 82801DB/DBM (ICH4/ICH4-M) USB2 EHCI Controller (rev 02) (prog-if 20 [EHCI])
	Subsystem: ASUSTeK Computer Inc. Unknown device 8089
	Control: I/O- Mem+ BusMaster+ SpecCycle- MemWINV- VGASnoop- ParErr- Stepping- SERR- FastB2B-
	Status: Cap+ 66MHz- UDF- FastB2B+ ParErr- DEVSEL=medium >TAbort- <TAbort- <MAbort- >SERR- <PERR-
	Latency: 0
	Interrupt: pin D routed to IRQ 19
	Region 0: Memory at f1800000 (32-bit, non-prefetchable) [size=1K]
	Capabilities: [50] Power Management version 2
		Flags: PMEClk- DSI- D1- D2- AuxCurrent=375mA PME(D0+,D1-,D2-,D3hot+,D3cold+)
		Status: D0 PME-Enable- DSel=0 DScale=0 PME-
	Capabilities: [58] Debug port
00: 86 80 cd 24 06 00 90 02 02 20 03 0c 00 00 00 00
10: 00 00 80 f1 00 00 00 00 00 00 00 00 00 00 00 00
20: 00 00 00 00 00 00 00 00 00 00 00 00 43 10 89 80
30: 00 00 00 00 50 00 00 00 00 00 00 00 ff 04 00 00
40: 00 00 00 00 00 00 00 00 00 00 00 00 00 00 00 00
50: 01 58 c2 c9 00 00 00 00 0a 00 80 20 00 00 00 00
60: 20 20 7f 00 00 00 00 00 01 00 00 00 00 00 08 c0
70: 00 00 c5 0f 00 00 00 00 00 00 00 00 00 00 00 00
80: 00 00 00 00 01 00 00 00 00 00 00 00 00 00 00 00
90: 00 00 00 00 00 00 00 00 00 00 00 00 00 00 00 00
a0: 00 00 00 00 00 00 00 00 00 00 00 00 00 00 00 00
b0: 00 00 00 00 00 00 00 00 00 00 00 00 00 00 00 00
c0: 00 00 00 00 00 00 00 00 00 00 00 00 00 00 00 00
d0: 00 00 00 00 00 00 00 00 00 00 00 00 10 00 3f 00
e0: 00 00 00 00 00 00 00 00 00 00 00 00 00 00 00 00
f0: 78 bf 1f 00 88 83 00 00 60 0f 00 00 06 00 00 00
00:1e.0 PCI bridge: Intel Corporation 82801 PCI Bridge (rev 82) (prog-if 00 [Normal decode])
	Control: I/O+ Mem+ BusMaster+ SpecCycle- MemWINV- VGASnoop- ParErr- Stepping- SERR+ FastB2B-
	Status: Cap- 66MHz- UDF- FastB2B+ ParErr- DEVSEL=fast >TAbort- <TAbort- <MAbort- >SERR- <PERR+
	Latency: 0
	Bus: primary=00, secondary=02, subordinate=02, sec-latency=32
	I/O behind bridge: 0000f000-00000fff
	Memory behind bridge: f1000000-f17fffff
	Prefetchable memory behind bridge: f2800000-f3efffff
	Secondary status: 66MHz- FastB2B+ ParErr- DEVSEL=medium >TAbort- <TAbort- <MAbort+ <SERR- <PERR-
	BridgeCtl: Parity- SERR+ NoISA+ VGA- MAbort- >Reset- FastB2B-
00: 86 80 4e 24 07 01 80 80 82 00 04 06 00 00 01 00
10: 00 00 00 00 00 00 00 00 00 02 02 20 f0 00 80 22
20: 00 f1 70 f1 80 f2 e0 f3 00 00 00 00 00 00 00 00
30: 00 00 00 00 00 00 00 00 00 00 00 00 00 00 06 00
40: 02 28 20 00 00 00 00 00 00 00 00 00 00 00 00 00
50: 02 74 00 00 00 00 00 00 00 00 00 00 00 00 00 00
60: 00 00 00 00 00 00 00 00 00 00 00 00 00 00 00 00
70: 40 00 00 00 00 00 00 00 00 00 00 00 00 00 00 00
80: 00 00 90 00 00 00 00 00 00 00 00 00 00 00 00 00
90: 00 00 00 00 00 00 00 00 00 00 00 00 00 00 00 00
a0: 10 00 08 00 00 00 00 00 00 00 00 00 00 00 00 00
b0: 01 00 02 00 00 00 c0 00 00 00 00 00 00 00 00 00
c0: 00 00 00 00 00 00 00 00 00 00 00 00 00 00 00 00
d0: 00 00 00 00 00 00 00 00 00 00 00 00 00 00 00 00
e0: 00 00 00 00 00 00 00 00 00 00 00 00 00 00 00 00
f0: 00 00 00 00 00 00 00 00 60 0f 00 00 00 00 54 22
00:1f.0 ISA bridge: Intel Corporation 82801DB/DBL (ICH4/ICH4-L) LPC Interface Bridge (rev 02)
	Control: I/O+ Mem+ BusMaster+ SpecCycle+ MemWINV- VGASnoop- ParErr- Stepping- SERR+ FastB2B-
	Status: Cap- 66MHz- UDF- FastB2B+ ParErr- DEVSEL=medium >TAbort- <TAbort- <MAbort- >SERR- <PERR-
	Latency: 0
00: 86 80 c0 24 0f 01 80 02 02 00 01 06 00 00 80 00
10: 00 00 00 00 00 00 00 00 00 00 00 00 00 00 00 00
20: 00 00 00 00 00 00 00 00 00 00 00 00 00 00 00 00
30: 00 00 00 00 00 00 00 00 00 00 00 00 00 00 00 00
40: 01 e4 00 00 16 00 00 00 00 00 00 00 00 00 00 00
50: 00 00 00 00 00 00 00 00 01 ec 00 00 10 00 00 00
60: 80 80 80 80 90 00 00 00 80 80 80 80 00 00 00 00
70: 00 00 00 00 00 00 00 00 00 00 00 00 00 00 00 00
80: 00 00 00 00 00 00 00 00 00 00 00 00 00 00 00 00
90: 75 54 00 00 00 00 00 00 00 00 00 00 00 00 00 00
a0: 20 02 01 00 02 00 00 00 0d 00 00 00 00 00 00 00
b0: 00 00 00 00 00 00 00 00 00 00 00 02 00 00 00 00
c0: 00 00 00 00 00 00 00 00 00 00 00 00 00 00 00 00
d0: 84 21 00 00 02 0f 00 00 04 00 00 00 00 00 00 00
e0: 00 00 00 80 00 00 08 14 33 22 00 00 00 00 67 45
f0: 0f 00 41 00 00 00 00 00 60 0f 02 00 00 00 81 00
00:1f.1 IDE interface: Intel Corporation 82801DB (ICH4) IDE Controller (rev 02) (prog-if 8a [Master SecP PriP])
	Subsystem: ASUSTeK Computer Inc. Unknown device 8089
	Control: I/O+ Mem+ BusMaster+ SpecCycle- MemWINV- VGASnoop- ParErr- Stepping- SERR- FastB2B-
	Status: Cap- 66MHz- UDF- FastB2B+ ParErr- DEVSEL=medium >TAbort- <TAbort- <MAbort- >SERR- <PERR-
	Latency: 0
	Interrupt: pin A routed to IRQ 16
	Region 0: I/O ports at 01f0 [size=8]
	Region 1: I/O ports at 03f4 [size=1]
	Region 2: I/O ports at 0170 [size=8]
	Region 3: I/O ports at 0374 [size=1]
	Region 4: I/O ports at f000 [size=16]
	Region 5: Memory at 30000000 (32-bit, non-prefetchable) [size=1K]
00: 86 80 cb 24 07 00 80 02 02 8a 01 01 00 00 00 00
10: 01 00 00 00 01 00 00 00 01 00 00 00 01 00 00 00
20: 01 f0 00 00 00 00 00 30 00 00 00 00 43 10 89 80
30: 00 00 00 00 00 00 00 00 00 00 00 00 09 01 00 00
40: 07 a3 73 e3 b0 00 00 00 05 00 01 02 00 00 00 00
50: 00 00 00 00 d1 14 00 00 00 00 00 00 00 00 00 00
60: 08 00 00 00 00 00 00 00 08 00 00 00 00 00 00 00
70: 00 00 00 00 00 00 00 00 00 00 00 00 00 00 00 00
80: 00 00 00 00 00 00 00 00 00 00 00 00 00 00 00 00
90: 00 00 00 00 00 00 00 00 00 00 00 00 00 00 00 00
a0: 00 00 00 00 00 00 00 00 00 00 00 00 00 00 00 00
b0: 00 00 00 00 00 00 00 00 00 00 00 00 00 00 00 00
c0: 00 00 00 00 00 00 00 00 00 00 00 00 00 00 00 00
d0: 00 00 00 00 00 00 00 00 00 00 00 00 00 00 00 00
e0: 00 00 00 00 00 00 00 00 00 00 00 00 00 00 00 00
f0: 00 00 00 00 00 00 00 00 60 0f 00 00 00 00 00 00
00:1f.3 SMBus: Intel Corporation 82801DB/DBL/DBM (ICH4/ICH4-L/ICH4-M) SMBus Controller (rev 02)
	Subsystem: ASUSTeK Computer Inc. Unknown device 8089
	Control: I/O+ Mem- BusMaster- SpecCycle- MemWINV- VGASnoop- ParErr- Stepping- SERR- FastB2B-
	Status: Cap- 66MHz- UDF- FastB2B+ ParErr- DEVSEL=medium >TAbort- <TAbort- <MAbort- >SERR- <PERR-
	Interrupt: pin B routed to IRQ 21
	Region 4: I/O ports at e800 [size=32]
00: 86 80 c3 24 01 00 80 02 02 00 05 0c 00 00 00 00
10: 00 00 00 00 00 00 00 00 00 00 00 00 00 00 00 00
20: 01 e8 00 00 00 00 00 00 00 00 00 00 43 10 89 80
30: 00 00 00 00 00 00 00 00 00 00 00 00 00 02 00 00
40: 01 00 00 00 00 00 00 00 00 00 00 00 00 00 00 00
50: 00 00 00 00 00 00 00 00 00 00 00 00 00 00 00 00
60: 00 00 00 00 00 00 00 00 00 00 00 00 00 00 00 00
70: 00 00 00 00 00 00 00 00 00 00 00 00 00 00 00 00
80: 00 00 00 00 00 00 00 00 00 00 00 00 00 00 00 00
90: 00 00 00 00 00 00 00 00 00 00 00 00 00 00 00 00
a0: 00 00 00 00 00 00 00 00 00 00 00 00 00 00 00 00
b0: 00 00 00 00 00 00 00 00 00 00 00 00 00 00 00 00
c0: 00 00 00 00 00 00 00 00 00 00 00 00 00 00 00 00
d0: 00 00 00 00 00 00 00 00 00 00 00 00 00 00 00 00
e0: 00 00 00 00 00 00 00 00 00 00 00 00 00 00 00 00
f0: 00 00 00 00 00 00 00 00 60 0f 00 00 00 00 00 00
00:1f.5 Multimedia audio controller: Intel Corporation 82801DB/DBL/DBM (ICH4/ICH4-L/ICH4-M) AC'97 Audio Controller (rev 02)
	Subsystem: ASUSTeK Computer Inc. Unknown device 80b0
	Control: I/O+ Mem+ BusMaster+ SpecCycle- MemWINV- VGASnoop- ParErr- Stepping- SERR- FastB2B-
	Status: Cap+ 66MHz- UDF- FastB2B+ ParErr- DEVSEL=medium >TAbort- <TAbort- <MAbort- >SERR- <PERR-
	Latency: 0
	Interrupt: pin B routed to IRQ 21
	Region 0: I/O ports at a800 [size=256]
	Region 1: I/O ports at a400 [size=64]
	Region 2: Memory at f0800000 (32-bit, non-prefetchable) [size=512]
	Region 3: Memory at f0000000 (32-bit, non-prefetchable) [size=256]
	Capabilities: [50] Power Management version 2
		Flags: PMEClk- DSI- D1- D2- AuxCurrent=375mA PME(D0+,D1-,D2-,D3hot+,D3cold+)
		Status: D0 PME-Enable- DSel=0 DScale=0 PME-
00: 86 80 c5 24 07 00 90 02 02 00 01 04 00 00 00 00
10: 01 a8 00 00 01 a4 00 00 00 00 80 f0 00 00 00 f0
20: 00 00 00 00 00 00 00 00 00 00 00 00 43 10 b0 80
30: 00 00 00 00 50 00 00 00 00 00 00 00 ff 02 00 00
40: 09 01 00 00 00 00 00 00 00 00 00 00 00 00 00 00
50: 01 00 c2 c9 00 00 00 00 00 00 00 00 00 00 00 00
60: 00 00 00 00 00 00 00 00 00 00 00 00 00 00 00 00
70: 00 00 00 00 00 00 00 00 00 00 00 00 00 00 00 00
80: 00 00 00 00 00 00 00 00 00 00 00 00 00 00 00 00
90: 00 00 00 00 00 00 00 00 00 00 00 00 00 00 00 00
a0: 00 00 00 00 00 00 00 00 00 00 00 00 00 00 00 00
b0: 00 00 00 00 00 00 00 00 00 00 00 00 00 00 00 00
c0: 00 00 00 00 00 00 00 00 00 00 00 00 00 00 00 00
d0: 00 00 00 00 00 00 00 00 00 00 00 00 00 00 00 00
e0: 00 00 00 00 00 00 00 00 00 00 00 00 00 00 00 00
f0: 00 00 00 00 00 00 00 00 60 0f 00 00 00 00 00 00
01:00.0 VGA compatible controller: ATI Technologies Inc Rage 128 PF/PRO AGP 4x TMDS (prog-if 00 [VGA])
	Subsystem: ATI Technologies Inc Rage Fury Pro/Xpert 2000 Pro
	Control: I/O+ Mem+ BusMaster+ SpecCycle- MemWINV- VGASnoop- ParErr- Stepping+ SERR- FastB2B-
	Status: Cap+ 66MHz+ UDF- FastB2B+ ParErr- DEVSEL=medium >TAbort- <TAbort- <MAbort- >SERR- <PERR-
	Latency: 64 (2000ns min), Cache Line Size: 32 bytes
	Interrupt: pin A routed to IRQ 17
	Region 0: Memory at f4000000 (32-bit, prefetchable) [size=64M]
	Region 1: I/O ports at d800 [size=256]
	Region 2: Memory at f2000000 (32-bit, non-prefetchable) [size=16K]
	Expansion ROM at f3fe0000 [disabled] [size=128K]
	Capabilities: [50] AGP version 2.0
		Status: RQ=32 Iso- ArqSz=0 Cal=0 SBA+ ITACoh- GART64- HTrans- 64bit- FW- AGP3- Rate=x1,x2,x4
		Command: RQ=1 ArqSz=0 Cal=0 SBA+ AGP- GART64- 64bit- FW- Rate=<none>
	Capabilities: [5c] Power Management version 2
		Flags: PMEClk- DSI- D1+ D2- AuxCurrent=0mA PME(D0-,D1-,D2-,D3hot-,D3cold-)
		Status: D0 PME-Enable- DSel=0 DScale=0 PME-
00: 02 10 46 50 87 00 b0 02 00 00 00 03 08 40 00 00
10: 08 00 00 f4 01 d8 00 00 00 00 00 f2 00 00 00 00
20: 00 00 00 00 00 00 00 00 00 00 00 00 02 10 08 00
30: 00 00 fe f3 50 00 00 00 00 00 00 00 09 01 08 00
40: 00 00 00 00 00 00 00 00 00 00 00 00 00 00 00 00
50: 02 5c 20 00 07 02 00 1f 00 02 00 00 01 00 02 02
60: 00 00 00 00 00 00 00 00 00 00 00 00 00 00 00 00
70: 00 00 00 00 00 00 00 00 00 00 00 00 00 00 00 00
80: 00 00 00 00 00 00 00 00 00 00 00 00 00 00 00 00
90: 00 00 00 00 00 00 00 00 00 00 00 00 00 00 00 00
a0: 00 00 00 00 00 00 00 00 00 00 00 00 00 00 00 00
b0: 00 00 00 00 00 00 00 00 00 00 00 00 00 00 00 00
c0: 00 00 00 00 00 00 00 00 00 00 00 00 00 00 00 00
d0: 00 00 00 00 00 00 00 00 00 00 00 00 00 00 00 00
e0: 00 00 00 00 00 00 00 00 00 00 00 00 00 00 00 00
f0: 00 00 00 00 00 00 00 00 00 00 00 00 00 00 00 00
02:05.0 Ethernet controller: Broadcom Corporation BCM4401 100Base-T (rev 01)
	Subsystem: ASUSTeK Computer Inc. A7V8X motherboard
	Control: I/O- Mem+ BusMaster+ SpecCycle- MemWINV- VGASnoop- ParErr- Stepping- SERR- FastB2B-
	Status: Cap+ 66MHz- UDF- FastB2B- ParErr- DEVSEL=fast >TAbort- <TAbort- <MAbort- >SERR- <PERR-
	Latency: 32
	Interrupt: pin A routed to IRQ 20
	Region 0: Memory at f1000000 (32-bit, non-prefetchable) [size=8K]
	Capabilities: [40] Power Management version 2
		Flags: PMEClk- DSI- D1+ D2+ AuxCurrent=375mA PME(D0+,D1+,D2+,D3hot+,D3cold+)
		Status: D0 PME-Enable- DSel=0 DScale=2 PME-
00: e4 14 01 44 06 00 10 00 01 00 00 02 00 20 00 00
10: 00 00 00 f1 00 00 00 00 00 00 00 00 00 00 00 00
20: 00 00 00 00 00 00 00 00 00 00 00 00 43 10 a8 80
30: 00 00 00 00 40 00 00 00 00 00 00 00 ff 01 00 00
40: 01 00 c2 ff 00 40 00 00 00 00 00 00 00 00 00 00
50: 00 00 00 00 00 00 00 00 00 00 00 00 00 00 00 00
60: 00 00 00 00 00 00 00 00 00 00 00 00 00 00 00 00
70: 00 00 00 00 00 00 00 00 00 00 00 00 00 00 00 00
80: 00 00 00 18 00 00 00 00 00 00 00 00 00 00 00 00
90: 00 00 00 00 00 00 00 00 00 00 00 00 00 00 00 00
a0: 00 10 00 00 01 20 00 00 00 00 00 00 00 00 00 00
b0: 00 00 00 00 00 00 00 00 00 00 00 00 00 00 00 00
c0: 00 00 00 00 00 00 00 00 00 00 00 00 00 00 00 00
d0: 00 00 00 00 00 00 00 00 00 00 00 00 00 00 00 00
e0: 00 00 00 00 00 00 00 00 00 00 00 00 00 00 00 00
f0: 00 00 00 00 00 00 00 00 00 00 00 00 00 00 00 00
02:0b.0 Multimedia video controller: Brooktree Corporation Bt878 Video Capture (rev 11)
	Subsystem: Pinnacle Systems Inc. PCTV Sat (DBC receiver)
	Control: I/O- Mem+ BusMaster+ SpecCycle- MemWINV- VGASnoop- ParErr- Stepping- SERR- FastB2B-
	Status: Cap+ 66MHz- UDF- FastB2B+ ParErr- DEVSEL=medium >TAbort- <TAbort- <MAbort- >SERR- <PERR-
	Latency: 32 (4000ns min, 10000ns max)
	Interrupt: pin A routed to IRQ 19
	Region 0: Memory at f3000000 (32-bit, prefetchable) [size=4K]
	Capabilities: [44] Vital Product Data
	Capabilities: [4c] Power Management version 2
		Flags: PMEClk- DSI+ D1- D2- AuxCurrent=0mA PME(D0-,D1-,D2-,D3hot-,D3cold-)
		Status: D0 PME-Enable- DSel=0 DScale=0 PME-
00: 9e 10 6e 03 06 00 90 02 11 00 00 04 00 20 80 00
10: 08 00 00 f3 00 00 00 00 00 00 00 00 00 00 00 00
20: 00 00 00 00 00 00 00 00 00 00 00 00 bd 11 1c 00
30: 00 00 00 00 44 00 00 00 00 00 00 00 ff 01 10 28
40: 00 00 00 00 03 4c 00 00 00 00 00 00 01 00 22 00
50: 00 00 00 00 00 00 00 00 00 00 00 00 00 00 00 00
60: 00 00 00 00 00 00 00 00 00 00 00 00 00 00 00 00
70: 00 00 00 00 00 00 00 00 00 00 00 00 00 00 00 00
80: 00 00 00 00 00 00 00 00 00 00 00 00 00 00 00 00
90: 00 00 00 00 00 00 00 00 00 00 00 00 00 00 00 00
a0: 00 00 00 00 00 00 00 00 00 00 00 00 00 00 00 00
b0: 00 00 00 00 00 00 00 00 00 00 00 00 00 00 00 00
c0: 00 00 00 00 00 00 00 00 00 00 00 00 00 00 00 00
d0: 00 00 00 00 00 00 00 00 00 00 00 00 00 00 00 00
e0: 00 00 00 00 00 00 00 00 00 00 00 00 00 00 00 00
f0: 00 00 00 00 00 00 00 00 00 00 00 00 00 00 00 00
02:0b.1 Multimedia controller: Brooktree Corporation Bt878 Audio Capture (rev 11)
	Subsystem: Pinnacle Systems Inc. PCTV Sat (DBC receiver)
	Control: I/O- Mem+ BusMaster+ SpecCycle- MemWINV- VGASnoop- ParErr- Stepping- SERR- FastB2B-
	Status: Cap+ 66MHz- UDF- FastB2B+ ParErr- DEVSEL=medium >TAbort- <TAbort- <MAbort- >SERR- <PERR-
	Latency: 32 (1000ns min, 63750ns max)
	Interrupt: pin A routed to IRQ 19
	Region 0: Memory at f2800000 (32-bit, prefetchable) [size=4K]
	Capabilities: [44] Vital Product Data
	Capabilities: [4c] Power Management version 2
		Flags: PMEClk- DSI+ D1- D2- AuxCurrent=0mA PME(D0-,D1-,D2-,D3hot-,D3cold-)
		Status: D0 PME-Enable- DSel=0 DScale=0 PME-
00: 9e 10 78 08 06 00 90 02 11 00 80 04 00 20 80 00
10: 08 00 80 f2 00 00 00 00 00 00 00 00 00 00 00 00
20: 00 00 00 00 00 00 00 00 00 00 00 00 bd 11 1c 00
30: 00 00 00 00 44 00 00 00 00 00 00 00 ff 01 04 ff
40: 00 00 00 00 03 4c 00 00 00 00 00 00 01 00 22 00
50: 00 00 00 00 00 00 00 00 00 00 00 00 00 00 00 00
60: 00 00 00 00 00 00 00 00 00 00 00 00 00 00 00 00
70: 00 00 00 00 00 00 00 00 00 00 00 00 00 00 00 00
80: 00 00 00 00 00 00 00 00 00 00 00 00 00 00 00 00
90: 00 00 00 00 00 00 00 00 00 00 00 00 00 00 00 00
a0: 00 00 00 00 00 00 00 00 00 00 00 00 00 00 00 00
b0: 00 00 00 00 00 00 00 00 00 00 00 00 00 00 00 00
c0: 00 00 00 00 00 00 00 00 00 00 00 00 00 00 00 00
d0: 00 00 00 00 00 00 00 00 00 00 00 00 00 00 00 00
e0: 00 00 00 00 00 00 00 00 00 00 00 00 00 00 00 00
f0: 00 00 00 00 00 00 00 00 00 00 00 00 00 00 00 00