Date: Tue, 1 Aug 2000 20:29:49 +0100 (BST)
From: Simon Trimmer <>
Subject: Re: PCI bridging broken?
Sender: linux-kernel-owner@vger.kernel.org
Precedence: bulk
List-ID: <linux-kernel.vger.kernel.org>
X-Mailing-List: linux-kernel@vger.kernel.org
X-Lkml-Link: https://lkml.org/lkml/2000/8/1/121

On Mon, 31 Jul 2000, Martin Mares wrote:
> Hello!
> 
> > I looked back through the archives and noticed this had been raised before,
> > but the problem is certainly not fixed in the 2.4 testX kernels.
> > 
> > Where 2.2 kernels work fine, v2.4 kernels won't find any devices when
> > scanning behind DECchip 21150 PCI bridges. In more detail, the initial
> > pci_read_config_dword() in pci_scan_device() returns 0xffffffff (the case
> > when a slot is empty).
> > 
> > I have experimented with the different kernel pci options, off and conf2 list
> > the devices but the messages sent to the log don't inspire confidence in the
> > system stability.
> > 
> > These bridges are quite common, my test example is a dell latitude notebook
> > which uses the bridge to handle the docking station. I contacted a few of the
> > people originally involved who basically gave up and went back to 2.2
> > kernels.
> 
> I'll take a look at it.
> 
> Can you send me 'lspci -vvx' output for both 2.2 and 2.4 kernels?
Hi Martin,
find attached three files, lspci -vvx for the two kernels (2.2.16 and
2.4.test5 pre1) and the .config file for the 2.4 kernel. I didn't use any pci
boot options for those ones and I included the config for the broken kernel
just in case I missed an option for something.
I'd really like to get this working so I can go back to using 2.4 from day to
day, are there any other tests I can try out?
cheers,
-Simon
00:00.0 Host bridge: Intel Corporation 440BX/ZX - 82443BX/ZX Host bridge (rev 03)
	Control: I/O- Mem+ BusMaster+ SpecCycle- MemWINV- VGASnoop- ParErr- Stepping- SERR+ FastB2B-
	Status: Cap+ 66Mhz- UDF- FastB2B- ParErr- DEVSEL=medium >TAbort- <TAbort- <MAbort+ >SERR- <PERR-
	Latency: 32 set
	Region 0: Memory at f0000000 (32-bit, prefetchable)
	Capabilities: [a0] AGP version 1.0
		Status: RQ=31 SBA+ 64bit- FW- Rate=x1,x2
		Command: RQ=0 SBA- AGP- 64bit- FW- Rate=<none>
00: 86 80 90 71 06 01 10 22 03 00 00 06 00 20 00 00
10: 08 00 00 f0 00 00 00 00 00 00 00 00 00 00 00 00
20: 00 00 00 00 00 00 00 00 00 00 00 00 00 00 00 00
30: 00 00 00 00 a0 00 00 00 00 00 00 00 00 00 00 00
00:01.0 PCI bridge: Intel Corporation 440BX/ZX - 82443BX/ZX AGP bridge (rev 03) (prog-if 00 [Normal decode])
	Control: I/O+ Mem+ BusMaster+ SpecCycle+ MemWINV+ VGASnoop- ParErr- Stepping- SERR+ FastB2B-
	Status: Cap- 66Mhz+ UDF- FastB2B- ParErr- DEVSEL=medium >TAbort- <TAbort- <MAbort- >SERR- <PERR-
	Latency: 32 set
	Bus: primary=00, secondary=01, subordinate=01, sec-latency=32
	I/O behind bridge: 0000e000-0000efff
	Memory behind bridge: fc000000-feffffff
	Prefetchable memory behind bridge: f6000000-f6ffffff
	BridgeCtl: Parity- SERR- NoISA+ VGA+ MAbort- >Reset- FastB2B+
00: 86 80 91 71 1f 01 20 02 03 00 04 06 00 20 01 00
10: 00 00 00 00 00 00 00 00 00 01 01 20 e0 e0 a0 22
20: 00 fc f0 fe 00 f6 f0 f6 00 00 00 00 00 00 00 00
30: 00 00 00 00 00 00 00 00 00 00 00 00 00 00 8c 00
00:03.0 CardBus bridge: Texas Instruments PCI1225 (rev 01)
	Subsystem: Dell Computer Corporation: Unknown device 00bb
	Control: I/O+ Mem+ BusMaster+ SpecCycle- MemWINV- VGASnoop- ParErr- Stepping- SERR- FastB2B-
	Status: Cap+ 66Mhz- UDF- FastB2B- ParErr- DEVSEL=medium >TAbort- <TAbort- <MAbort- >SERR- <PERR-
	Latency: 32 set, cache line size 08
	Interrupt: pin A routed to IRQ 11
	Region 0: Memory at <ignored> (32-bit, non-prefetchable)
	Bus: primary=00, secondary=20, subordinate=22, sec-latency=32
	Memory window 0: 60008000-60013000 (prefetchable)
	I/O window 0: 00000200-00000287
	I/O window 1: 00000000-00000003
	BridgeCtl: Parity- SERR- ISA- VGA- MAbort- >Reset- 16bInt- PostWrite+
	16-bit legacy interface ports at 0001
00: 4c 10 1c ac 07 00 10 02 01 00 07 06 08 20 82 00
10: 00 00 00 68 a0 00 00 22 00 20 22 20 00 80 00 60
20: 00 30 01 60 00 00 00 00 00 00 00 00 00 02 00 00
30: 84 02 00 00 00 00 00 00 00 00 00 00 0b 01 00 07
40: 28 10 bb 00 01 00 00 00 00 00 00 00 00 00 00 00
50: 00 00 00 00 00 00 00 00 00 00 00 00 00 00 00 00
60: 00 00 00 00 00 00 00 00 00 00 00 00 00 00 00 00
70: 00 00 00 00 00 00 00 00 00 00 00 00 00 00 00 00
00:03.1 CardBus bridge: Texas Instruments PCI1225 (rev 01)
	Subsystem: Dell Computer Corporation: Unknown device 00bb
	Control: I/O+ Mem+ BusMaster+ SpecCycle- MemWINV- VGASnoop- ParErr- Stepping- SERR- FastB2B-
	Status: Cap+ 66Mhz- UDF- FastB2B- ParErr- DEVSEL=medium >TAbort- <TAbort- <MAbort- >SERR- <PERR-
	Latency: 32 set, cache line size 08
	Interrupt: pin A routed to IRQ 11
	Region 0: Memory at <ignored> (32-bit, non-prefetchable)
	Bus: primary=00, secondary=23, subordinate=25, sec-latency=32
	I/O window 0: 00000000-00000003
	I/O window 1: 00000000-00000003
	BridgeCtl: Parity- SERR- ISA- VGA- MAbort- >Reset+ 16bInt+ PostWrite+
	16-bit legacy interface ports at 0001
00: 4c 10 1c ac 07 00 10 02 01 00 07 06 08 20 82 00
10: 00 10 00 68 a0 00 00 02 00 23 25 20 00 00 00 00
20: 00 00 00 00 00 00 00 00 00 00 00 00 00 00 00 00
30: 00 00 00 00 00 00 00 00 00 00 00 00 0b 01 c0 07
40: 28 10 bb 00 01 00 00 00 00 00 00 00 00 00 00 00
50: 00 00 00 00 00 00 00 00 00 00 00 00 00 00 00 00
60: 00 00 00 00 00 00 00 00 00 00 00 00 00 00 00 00
70: 00 00 00 00 00 00 00 00 00 00 00 00 00 00 00 00
00:07.0 Bridge: Intel Corporation 82371AB PIIX4 ISA (rev 02)
	Control: I/O+ Mem+ BusMaster+ SpecCycle+ MemWINV- VGASnoop- ParErr- Stepping- SERR+ FastB2B-
	Status: Cap- 66Mhz- UDF- FastB2B+ ParErr- DEVSEL=medium >TAbort- <TAbort- <MAbort- >SERR- <PERR-
	Latency: 0 set
00: 86 80 10 71 0f 01 80 02 02 00 80 06 00 00 80 00
10: 00 00 00 00 00 00 00 00 00 00 00 00 00 00 00 00
20: 00 00 00 00 00 00 00 00 00 00 00 00 00 00 00 00
30: 00 00 00 00 00 00 00 00 00 00 00 00 00 00 00 00
00:07.1 IDE interface: Intel Corporation 82371AB PIIX4 IDE (rev 01) (prog-if 80 [Master])
	Control: I/O+ Mem- BusMaster+ SpecCycle- MemWINV- VGASnoop- ParErr- Stepping- SERR- FastB2B-
	Status: Cap- 66Mhz- UDF- FastB2B+ ParErr- DEVSEL=medium >TAbort- <TAbort- <MAbort- >SERR- <PERR-
	Latency: 32 set
	Region 4: I/O ports at 0860
00: 86 80 11 71 05 00 80 02 01 80 01 01 00 20 00 00
10: 00 00 00 00 00 00 00 00 00 00 00 00 00 00 00 00
20: 61 08 00 00 00 00 00 00 00 00 00 00 00 00 00 00
30: 00 00 00 00 00 00 00 00 00 00 00 00 00 00 00 00
00:07.2 USB Controller: Intel Corporation 82371AB PIIX4 USB (rev 01) (prog-if 00 [UHCI])
	Control: I/O+ Mem- BusMaster+ SpecCycle- MemWINV- VGASnoop- ParErr- Stepping- SERR- FastB2B-
	Status: Cap- 66Mhz- UDF- FastB2B+ ParErr- DEVSEL=medium >TAbort- <TAbort- <MAbort- >SERR- <PERR-
	Latency: 32 set
	Interrupt: pin D routed to IRQ 11
	Region 4: I/O ports at dce0
00: 86 80 12 71 05 00 80 02 01 00 03 0c 00 20 00 00
10: 00 00 00 00 00 00 00 00 00 00 00 00 00 00 00 00
20: e1 dc 00 00 00 00 00 00 00 00 00 00 00 00 00 00
30: 00 00 00 00 00 00 00 00 00 00 00 00 0b 04 00 00
00:07.3 Bridge: Intel Corporation 82371AB PIIX4 ACPI (rev 02)
	Control: I/O+ Mem+ BusMaster- SpecCycle- MemWINV- VGASnoop- ParErr- Stepping- SERR- FastB2B-
	Status: Cap- 66Mhz- UDF- FastB2B+ ParErr- DEVSEL=medium >TAbort- <TAbort- <MAbort- >SERR- <PERR-
00: 86 80 13 71 03 00 80 02 02 00 80 06 00 00 00 00
10: 00 00 00 00 00 00 00 00 00 00 00 00 00 00 00 00
20: 00 00 00 00 00 00 00 00 00 00 00 00 00 00 00 00
30: 00 00 00 00 00 00 00 00 00 00 00 00 00 00 00 00
00:08.0 Multimedia audio controller: ESS Technology: Unknown device 1998 (rev 10)
	Subsystem: Dell Computer Corporation: Unknown device 00bb
	Control: I/O+ Mem+ BusMaster+ SpecCycle- MemWINV- VGASnoop- ParErr- Stepping- SERR- FastB2B-
	Status: Cap+ 66Mhz- UDF- FastB2B+ ParErr- DEVSEL=medium >TAbort- <TAbort- <MAbort- >SERR- <PERR-
	Latency: 2 min, 24 max, 32 set
	Interrupt: pin A routed to IRQ 5
	Region 0: I/O ports at d800
	Region 1: Memory at f8ffe000 (32-bit, non-prefetchable)
	Capabilities: [c0] Power Management version 2
		Flags: PMEClk- AuxPwr- DSI+ D1+ D2+ PME-
		Status: D0 PME-Enable+ DSel=0 DScale=0 PME-
00: 5d 12 98 19 07 00 90 02 10 00 01 04 00 20 00 00
10: 01 d8 00 00 00 e0 ff f8 00 00 00 00 00 00 00 00
20: 00 00 00 00 00 00 00 00 00 00 00 00 28 10 bb 00
30: 00 00 00 00 c0 00 00 00 00 00 00 00 05 01 02 18
00:11.0 PCI bridge: Digital Equipment Corporation DECchip 21150 (rev 04) (prog-if 00 [Normal decode])
	Control: I/O+ Mem+ BusMaster+ SpecCycle- MemWINV- VGASnoop- ParErr- Stepping- SERR+ FastB2B-
	Status: Cap+ 66Mhz- UDF- FastB2B+ ParErr- DEVSEL=medium >TAbort- <TAbort- <MAbort- >SERR- <PERR-
	Latency: 32 set, cache line size 08
	Bus: primary=00, secondary=02, subordinate=02, sec-latency=32
	I/O behind bridge: 0000f000-0000ffff
	Memory behind bridge: fa000000-fbffffff
	Prefetchable memory behind bridge: 00000000f5000000-00000000f5f00000
	BridgeCtl: Parity- SERR+ NoISA+ VGA- MAbort- >Reset- FastB2B-
	Capabilities: [dc] Power Management version 1
		Flags: PMEClk- AuxPwr- DSI- D1- D2- PME-
		Status: D0 PME-Enable- DSel=0 DScale=0 PME-
00: 11 10 22 00 07 01 90 02 04 00 04 06 08 20 01 00
10: 00 00 00 00 00 00 00 00 00 02 02 20 f1 f1 80 22
20: 00 fa f0 fb 01 f5 f1 f5 00 00 00 00 00 00 00 00
30: 00 00 00 00 dc 00 00 00 00 00 00 00 00 00 06 06
01:00.0 VGA compatible controller: ATI Technologies Inc 3D Rage P/M Mobility AGP 2x (rev 64) (prog-if 00 [VGA])
	Subsystem: Dell Computer Corporation: Unknown device 00bb
	Control: I/O+ Mem+ BusMaster+ SpecCycle- MemWINV- VGASnoop- ParErr- Stepping+ SERR- FastB2B-
	Status: Cap+ 66Mhz- UDF- FastB2B+ ParErr- DEVSEL=medium >TAbort- <TAbort- <MAbort- >SERR- <PERR-
	Latency: 8 min, 32 set, cache line size 08
	Interrupt: pin A routed to IRQ 11
	Region 0: Memory at fd000000 (32-bit, non-prefetchable)
	Region 1: I/O ports at ec00
	Region 2: Memory at fcfff000 (32-bit, non-prefetchable)
	Capabilities: [50] AGP version 1.0
		Status: RQ=255 SBA+ 64bit- FW- Rate=x1,x2
		Command: RQ=0 SBA- AGP- 64bit- FW- Rate=<none>
	Capabilities: [5c] Power Management version 1
		Flags: PMEClk- AuxPwr- DSI- D1+ D2+ PME-
		Status: D0 PME-Enable- DSel=0 DScale=0 PME-
00: 02 10 4d 4c 87 00 90 02 64 00 00 03 08 20 00 00
10: 00 00 00 fd 01 ec 00 00 00 f0 ff fc 00 00 00 00
20: 00 00 00 00 00 00 00 00 00 00 00 00 28 10 bb 00
30: 00 00 00 00 50 00 00 00 00 00 00 00 0b 01 08 00
02:05.0 IDE interface: CMD Technology Inc PCI0646 (rev 07) (prog-if 8f [Master SecP SecO PriP PriO])
	Subsystem: CMD Technology Inc: Unknown device 0646
	Control: I/O+ Mem- BusMaster+ SpecCycle- MemWINV- VGASnoop- ParErr- Stepping- SERR- FastB2B-
	Status: Cap+ 66Mhz- UDF- FastB2B+ ParErr- DEVSEL=medium >TAbort- <TAbort- <MAbort- >SERR- <PERR-
	Latency: 2 min, 4 max, 32 set
	Interrupt: pin A routed to IRQ 10
	Region 0: I/O ports at fcf8
	Region 1: I/O ports at fcf0
	Region 2: I/O ports at fce0
	Region 3: I/O ports at fcd8
	Region 4: I/O ports at fcc0
	Capabilities: [60] Power Management version 1
		Flags: PMEClk- AuxPwr- DSI+ D1+ D2+ PME-
		Status: D0 PME-Enable- DSel=0 DScale=3 PME-
00: 95 10 46 06 05 00 90 02 07 8f 01 01 00 20 00 00
10: f9 fc 00 00 f1 fc 00 00 e1 fc 00 00 d9 fc 00 00
20: c1 fc 00 00 00 00 00 00 00 00 00 00 95 10 46 06
30: 00 00 00 00 60 00 00 00 00 00 00 00 0a 01 02 04
02:07.0 SCSI storage controller: Adaptec AIC-7880U (rev 01)
	Subsystem: Adaptec: Unknown device 7880
	Control: I/O+ Mem+ BusMaster+ SpecCycle- MemWINV+ VGASnoop- ParErr- Stepping- SERR+ FastB2B-
	Status: Cap+ 66Mhz- UDF- FastB2B+ ParErr- DEVSEL=medium >TAbort- <TAbort- <MAbort- >SERR- <PERR-
	Latency: 8 min, 8 max, 32 set, cache line size 08
	Interrupt: pin A routed to IRQ 10
	Region 0: I/O ports at f800
	Region 1: Memory at fafff000 (32-bit, non-prefetchable)
	Expansion ROM at fb000000 [disabled]
	Capabilities: [dc] Power Management version 1
		Flags: PMEClk- AuxPwr- DSI+ D1- D2- PME-
		Status: D0 PME-Enable- DSel=0 DScale=0 PME-
00: 04 90 78 80 17 01 90 02 01 00 00 01 08 20 00 00
10: 01 f8 00 00 00 f0 ff fa 00 00 00 00 00 00 00 00
20: 00 00 00 00 00 00 00 00 00 00 00 00 04 90 80 78
30: 00 00 00 fb dc 00 00 00 00 00 00 00 0a 01 08 08
02:08.0 Ethernet controller: 3Com Corporation 3c905C-TX [Fast Etherlink] (rev 6c)
	Subsystem: Dell Computer Corporation: Unknown device 00a8
	Control: I/O+ Mem+ BusMaster+ SpecCycle- MemWINV+ VGASnoop- ParErr- Stepping- SERR+ FastB2B-
	Status: Cap+ 66Mhz- UDF- FastB2B- ParErr- DEVSEL=medium >TAbort- <TAbort- <MAbort- >SERR- <PERR-
	Latency: 10 min, 10 max, 32 set, cache line size 08
	Interrupt: pin A routed to IRQ 10
	Region 0: I/O ports at fc00
	Region 1: Memory at faffec00 (32-bit, non-prefetchable)
	Expansion ROM at fb000000 [disabled]
	Capabilities: [dc] Power Management version 2
		Flags: PMEClk- AuxPwr- DSI- D1+ D2+ PME+
		Status: D0 PME-Enable+ DSel=0 DScale=2 PME-
00: b7 10 00 92 17 01 10 02 6c 00 00 02 08 20 00 00
10: 01 fc 00 00 00 ec ff fa 00 00 00 00 00 00 00 00
20: 00 00 00 00 00 00 00 00 00 00 00 00 28 10 a8 00
30: 00 00 00 fb dc 00 00 00 00 00 00 00 0a 01 0a 0a
20:00.0 Ethernet controller: Xircom Cardbus Ethernet 10/100 (rev 03)
	Subsystem: Xircom Cardbus Ethernet 10/100
	Control: I/O+ Mem+ BusMaster+ SpecCycle- MemWINV- VGASnoop- ParErr- Stepping- SERR- FastB2B-
	Status: Cap+ 66Mhz- UDF- FastB2B- ParErr- DEVSEL=medium >TAbort- <TAbort- <MAbort- >SERR- <PERR-
	Latency: 20 min, 40 max, 64 set, cache line size 08
	Interrupt: pin A routed to IRQ 11
	Region 0: I/O ports at 0200
	Region 1: Memory at 60013000 (32-bit, non-prefetchable)
	Region 2: Memory at 60012000 (32-bit, non-prefetchable)
	Expansion ROM at 6000c000 [disabled]
	Capabilities: [dc] Power Management version 1
		Flags: PMEClk- AuxPwr+ DSI- D1+ D2+ PME+
		Status: D0 PME-Enable- DSel=0 DScale=2 PME-
00: 5d 11 03 00 07 00 10 02 03 00 00 02 08 40 80 00
10: 01 02 00 00 00 30 01 60 00 20 01 60 00 00 00 00
20: 00 00 00 00 00 00 00 00 07 01 00 00 5d 11 81 11
30: 01 c0 00 60 dc 00 00 00 00 00 00 00 0b 01 14 28
20:00.1 Serial controller: Xircom Cardbus Ethernet + 56k Modem (rev 03) (prog-if 02 [16550])
	Subsystem: Xircom CBEM56G-100 Ethernet + 56k Modem
	Control: I/O+ Mem+ BusMaster- SpecCycle- MemWINV- VGASnoop- ParErr- Stepping- SERR- FastB2B-
	Status: Cap+ 66Mhz- UDF- FastB2B- ParErr- DEVSEL=medium >TAbort- <TAbort- <MAbort- >SERR- <PERR-
	Interrupt: pin A routed to IRQ 11
	Region 0: I/O ports at 0280
	Region 1: Memory at 60011000 (32-bit, non-prefetchable)
	Region 2: Memory at 60010000 (32-bit, non-prefetchable)
	Expansion ROM at 60008000 [disabled]
	Capabilities: [dc] Power Management version 1
		Flags: PMEClk- AuxPwr+ DSI- D1+ D2+ PME+
		Status: D0 PME-Enable- DSel=0 DScale=2 PME-
00: 5d 11 03 01 03 00 10 02 03 02 00 07 00 00 80 00
10: 81 02 00 00 00 10 01 60 00 00 01 60 00 00 00 00
20: 00 00 00 00 00 00 00 00 07 02 00 00 5d 11 81 11
30: 01 80 00 60 dc 00 00 00 00 00 00 00 0b 01 00 00
00:00.0 Host bridge: Intel Corporation 440BX/ZX - 82443BX/ZX Host bridge (rev 03)
	Control: I/O- Mem+ BusMaster+ SpecCycle- MemWINV- VGASnoop- ParErr- Stepping- SERR+ FastB2B-
	Status: Cap+ 66Mhz- UDF- FastB2B- ParErr- DEVSEL=medium >TAbort- <TAbort- <MAbort+ >SERR- <PERR+
	Latency: 32 set
	Region 0: Memory at f0000000 (32-bit, prefetchable) [size=64M]
	Capabilities: [a0] AGP version 1.0
		Status: RQ=31 SBA+ 64bit- FW- Rate=x1,x2
		Command: RQ=0 SBA- AGP- 64bit- FW- Rate=<none>
00: 86 80 90 71 06 01 10 a2 03 00 00 06 00 20 00 00
10: 08 00 00 f0 00 00 00 00 00 00 00 00 00 00 00 00
20: 00 00 00 00 00 00 00 00 00 00 00 00 00 00 00 00
30: 00 00 00 00 a0 00 00 00 00 00 00 00 00 00 00 00
00:01.0 PCI bridge: Intel Corporation 440BX/ZX - 82443BX/ZX AGP bridge (rev 03) (prog-if 00 [Normal decode])
	Control: I/O+ Mem+ BusMaster+ SpecCycle+ MemWINV+ VGASnoop- ParErr- Stepping- SERR+ FastB2B-
	Status: Cap- 66Mhz+ UDF- FastB2B- ParErr- DEVSEL=medium >TAbort- <TAbort- <MAbort- >SERR- <PERR-
	Latency: 32 set
	Bus: primary=00, secondary=01, subordinate=01, sec-latency=32
	I/O behind bridge: 0000e000-0000efff
	Memory behind bridge: fc000000-feffffff
	Prefetchable memory behind bridge: f6000000-f6ffffff
	BridgeCtl: Parity- SERR- NoISA+ VGA+ MAbort- >Reset- FastB2B+
00: 86 80 91 71 1f 01 20 02 03 00 04 06 00 20 01 00
10: 00 00 00 00 00 00 00 00 00 01 01 20 e0 e0 a0 22
20: 00 fc f0 fe 00 f6 f0 f6 00 00 00 00 00 00 00 00
30: 00 00 00 00 00 00 00 00 00 00 00 00 00 00 8c 00
00:03.0 CardBus bridge: Texas Instruments PCI1225 (rev 01)
	Subsystem: Dell Computer Corporation: Unknown device 00bb
	Control: I/O+ Mem+ BusMaster+ SpecCycle- MemWINV- VGASnoop- ParErr- Stepping- SERR- FastB2B-
	Status: Cap+ 66Mhz- UDF- FastB2B- ParErr- DEVSEL=medium >TAbort- <TAbort- <MAbort- >SERR- <PERR+
	Latency: 168 set, cache line size 20
	Interrupt: pin A routed to IRQ 11
	Region 0: Memory at 10000000 (32-bit, non-prefetchable) [size=4K]
	Bus: primary=00, secondary=02, subordinate=02, sec-latency=176
	Memory window 0: 10400000-107ff000 (prefetchable)
	Memory window 1: 10800000-10bff000
	I/O window 0: 00001000-000010ff
	I/O window 1: 00000000-00000003
	BridgeCtl: Parity- SERR- ISA- VGA- MAbort- >Reset- 16bInt- PostWrite+
	16-bit legacy interface ports at 0001
00: 4c 10 1c ac 07 00 10 82 01 00 07 06 20 a8 82 00
10: 00 00 00 10 a0 00 00 22 00 02 02 b0 00 00 40 10
20: 00 f0 7f 10 00 00 80 10 00 f0 bf 10 00 10 00 00
30: fc 10 00 00 00 00 00 00 00 00 00 00 0b 01 00 05
40: 28 10 bb 00 01 00 00 00 00 00 00 00 00 00 00 00
50: 00 00 00 00 00 00 00 00 00 00 00 00 00 00 00 00
60: 00 00 00 00 00 00 00 00 00 00 00 00 00 00 00 00
70: 00 00 00 00 00 00 00 00 00 00 00 00 00 00 00 00
00:03.1 CardBus bridge: Texas Instruments PCI1225 (rev 01)
	Subsystem: Dell Computer Corporation: Unknown device 00bb
	Control: I/O+ Mem+ BusMaster+ SpecCycle- MemWINV- VGASnoop- ParErr- Stepping- SERR- FastB2B-
	Status: Cap+ 66Mhz- UDF- FastB2B- ParErr- DEVSEL=medium >TAbort- <TAbort- <MAbort- >SERR- <PERR-
	Latency: 168 set, cache line size 20
	Interrupt: pin A routed to IRQ 11
	Region 0: Memory at 10001000 (32-bit, non-prefetchable) [size=4K]
	Bus: primary=00, secondary=04, subordinate=04, sec-latency=176
	Memory window 0: 10c00000-10fff000 (prefetchable)
	Memory window 1: 11000000-113ff000
	I/O window 0: 00001400-000014ff
	I/O window 1: 00000000-00000003
	BridgeCtl: Parity- SERR- ISA- VGA- MAbort- >Reset+ 16bInt+ PostWrite+
	16-bit legacy interface ports at 0001
00: 4c 10 1c ac 07 00 10 02 01 00 07 06 20 a8 82 00
10: 00 10 00 10 a0 00 00 02 00 04 04 b0 00 00 c0 10
20: 00 f0 ff 10 00 00 00 11 00 f0 3f 11 00 14 00 00
30: fc 14 00 00 00 00 00 00 00 00 00 00 0b 01 c0 05
40: 28 10 bb 00 01 00 00 00 00 00 00 00 00 00 00 00
50: 00 00 00 00 00 00 00 00 00 00 00 00 00 00 00 00
60: 00 00 00 00 00 00 00 00 00 00 00 00 00 00 00 00
70: 00 00 00 00 00 00 00 00 00 00 00 00 00 00 00 00
00:07.0 Bridge: Intel Corporation 82371AB PIIX4 ISA (rev 02)
	Control: I/O+ Mem+ BusMaster+ SpecCycle+ MemWINV- VGASnoop- ParErr- Stepping- SERR+ FastB2B-
	Status: Cap- 66Mhz- UDF- FastB2B+ ParErr- DEVSEL=medium >TAbort- <TAbort- <MAbort- >SERR- <PERR-
	Latency: 0 set
00: 86 80 10 71 0f 01 80 02 02 00 80 06 00 00 80 00
10: 00 00 00 00 00 00 00 00 00 00 00 00 00 00 00 00
20: 00 00 00 00 00 00 00 00 00 00 00 00 00 00 00 00
30: 00 00 00 00 00 00 00 00 00 00 00 00 00 00 00 00
00:07.1 IDE interface: Intel Corporation 82371AB PIIX4 IDE (rev 01) (prog-if 80 [Master])
	Control: I/O+ Mem- BusMaster+ SpecCycle- MemWINV- VGASnoop- ParErr- Stepping- SERR- FastB2B-
	Status: Cap- 66Mhz- UDF- FastB2B+ ParErr- DEVSEL=medium >TAbort- <TAbort- <MAbort- >SERR- <PERR-
	Latency: 32 set
	Region 4: I/O ports at 0860 [size=16]
00: 86 80 11 71 05 00 80 02 01 80 01 01 00 20 00 00
10: 00 00 00 00 00 00 00 00 00 00 00 00 00 00 00 00
20: 61 08 00 00 00 00 00 00 00 00 00 00 00 00 00 00
30: 00 00 00 00 00 00 00 00 00 00 00 00 00 00 00 00
00:07.2 USB Controller: Intel Corporation 82371AB PIIX4 USB (rev 01) (prog-if 00 [UHCI])
	Control: I/O+ Mem- BusMaster+ SpecCycle- MemWINV- VGASnoop- ParErr- Stepping- SERR- FastB2B-
	Status: Cap- 66Mhz- UDF- FastB2B+ ParErr- DEVSEL=medium >TAbort- <TAbort- <MAbort- >SERR- <PERR-
	Latency: 32 set
	Interrupt: pin D routed to IRQ 11
	Region 4: I/O ports at dce0 [size=32]
00: 86 80 12 71 05 00 80 02 01 00 03 0c 00 20 00 00
10: 00 00 00 00 00 00 00 00 00 00 00 00 00 00 00 00
20: e1 dc 00 00 00 00 00 00 00 00 00 00 00 00 00 00
30: 00 00 00 00 00 00 00 00 00 00 00 00 0b 04 00 00
00:07.3 Bridge: Intel Corporation 82371AB PIIX4 ACPI (rev 02)
	Control: I/O+ Mem+ BusMaster- SpecCycle- MemWINV- VGASnoop- ParErr- Stepping- SERR- FastB2B-
	Status: Cap- 66Mhz- UDF- FastB2B+ ParErr- DEVSEL=medium >TAbort- <TAbort- <MAbort- >SERR- <PERR-
00: 86 80 13 71 03 00 80 02 02 00 80 06 00 00 00 00
10: 00 00 00 00 00 00 00 00 00 00 00 00 00 00 00 00
20: 00 00 00 00 00 00 00 00 00 00 00 00 00 00 00 00
30: 00 00 00 00 00 00 00 00 00 00 00 00 00 00 00 00
00:08.0 Multimedia audio controller: ESS Technology: Unknown device 1998 (rev 10)
	Subsystem: Dell Computer Corporation: Unknown device 00bb
	Control: I/O+ Mem+ BusMaster+ SpecCycle- MemWINV- VGASnoop- ParErr- Stepping- SERR- FastB2B-
	Status: Cap+ 66Mhz- UDF- FastB2B+ ParErr- DEVSEL=medium >TAbort- <TAbort- <MAbort- >SERR- <PERR-
	Latency: 2 min, 24 max, 32 set
	Interrupt: pin A routed to IRQ 5
	Region 0: I/O ports at d800 [size=256]
	Region 1: Memory at f8ffe000 (32-bit, non-prefetchable) [size=8K]
	Capabilities: [c0] Power Management version 2
		Flags: PMEClk- AuxPwr- DSI+ D1+ D2+ PME-
		Status: D0 PME-Enable+ DSel=0 DScale=0 PME-
00: 5d 12 98 19 07 00 90 02 10 00 01 04 00 20 00 00
10: 01 d8 00 00 00 e0 ff f8 00 00 00 00 00 00 00 00
20: 00 00 00 00 00 00 00 00 00 00 00 00 28 10 bb 00
30: 00 00 00 00 c0 00 00 00 00 00 00 00 05 01 02 18
00:11.0 PCI bridge: Digital Equipment Corporation DECchip 21150 (rev 04) (prog-if 00 [Normal decode])
	Control: I/O+ Mem+ BusMaster+ SpecCycle- MemWINV- VGASnoop- ParErr- Stepping- SERR+ FastB2B-
	Status: Cap+ 66Mhz- UDF- FastB2B+ ParErr- DEVSEL=medium >TAbort- <TAbort- <MAbort- >SERR- <PERR+
	Latency: 32 set, cache line size 08
	Bus: primary=00, secondary=02, subordinate=02, sec-latency=32
	I/O behind bridge: 0000f000-0000ffff
	Memory behind bridge: fa000000-fbffffff
	Prefetchable memory behind bridge: 00000000f5000000-00000000f5f00000
	BridgeCtl: Parity- SERR+ NoISA+ VGA- MAbort- >Reset- FastB2B-
	Capabilities: [dc] Power Management version 1
		Flags: PMEClk- AuxPwr- DSI- D1- D2- PME-
		Status: D0 PME-Enable- DSel=0 DScale=0 PME-
00: 11 10 22 00 07 01 90 82 04 00 04 06 08 20 01 00
10: 00 00 00 00 00 00 00 00 00 02 02 20 f1 f1 80 22
20: 00 fa f0 fb 01 f5 f1 f5 00 00 00 00 00 00 00 00
30: 00 00 00 00 dc 00 00 00 00 00 00 00 00 00 06 06
01:00.0 VGA compatible controller: ATI Technologies Inc 3D Rage P/M Mobility AGP 2x (rev 64) (prog-if 00 [VGA])
	Subsystem: Dell Computer Corporation: Unknown device 00bb
	Control: I/O+ Mem+ BusMaster+ SpecCycle- MemWINV- VGASnoop- ParErr- Stepping+ SERR- FastB2B-
	Status: Cap+ 66Mhz- UDF- FastB2B+ ParErr- DEVSEL=medium >TAbort- <TAbort- <MAbort- >SERR- <PERR-
	Latency: 8 min, 32 set, cache line size 08
	Interrupt: pin A routed to IRQ 11
	Region 0: Memory at fd000000 (32-bit, non-prefetchable) [size=16M]
	Region 1: I/O ports at ec00 [size=256]
	Region 2: Memory at fcfff000 (32-bit, non-prefetchable) [size=4K]
	Expansion ROM at <unassigned> [disabled] [size=128K]
	Capabilities: [50] AGP version 1.0
		Status: RQ=255 SBA+ 64bit- FW- Rate=x1,x2
		Command: RQ=0 SBA- AGP- 64bit- FW- Rate=<none>
	Capabilities: [5c] Power Management version 1
		Flags: PMEClk- AuxPwr- DSI- D1+ D2+ PME-
		Status: D0 PME-Enable- DSel=0 DScale=0 PME-
00: 02 10 4d 4c 87 00 90 02 64 00 00 03 08 20 00 00
10: 00 00 00 fd 01 ec 00 00 00 f0 ff fc 00 00 00 00
20: 00 00 00 00 00 00 00 00 00 00 00 00 28 10 bb 00
30: 00 00 00 00 50 00 00 00 00 00 00 00 0b 01 08 00
02:00.0 Ethernet controller: Xircom Cardbus Ethernet 10/100 (rev 03)
	Subsystem: Xircom Cardbus Ethernet 10/100
	Control: I/O+ Mem+ BusMaster- SpecCycle- MemWINV- VGASnoop- ParErr- Stepping- SERR- FastB2B-
	Status: Cap+ 66Mhz- UDF- FastB2B- ParErr- DEVSEL=medium >TAbort- <TAbort- <MAbort- >SERR- <PERR-
	Interrupt: pin A routed to IRQ 11
	Region 0: I/O ports at 1000 [size=128]
	Region 1: Memory at 10800000 (32-bit, non-prefetchable) [size=2K]
	Region 2: Memory at 10800800 (32-bit, non-prefetchable) [size=2K]
	Expansion ROM at 10400000 [size=16K]
	Capabilities: [dc] Power Management version 1
		Flags: PMEClk- AuxPwr+ DSI- D1+ D2+ PME+
		Status: D0 PME-Enable- DSel=0 DScale=2 PME-
00: 5d 11 03 00 03 00 10 02 03 00 00 02 00 00 80 00
10: 01 10 00 00 00 00 80 10 00 08 80 10 00 00 00 00
20: 00 00 00 00 00 00 00 00 07 01 00 00 5d 11 81 11
30: 01 00 40 10 dc 00 00 00 00 00 00 00 0b 01 14 28
02:00.1 Serial controller: Xircom Cardbus Ethernet + 56k Modem (rev 03) (prog-if 02 [16550])
	Subsystem: Xircom CBEM56G-100 Ethernet + 56k Modem
	Control: I/O+ Mem+ BusMaster- SpecCycle- MemWINV- VGASnoop- ParErr- Stepping- SERR- FastB2B-
	Status: Cap+ 66Mhz- UDF- FastB2B- ParErr- DEVSEL=medium >TAbort- <TAbort- <MAbort- >SERR- <PERR-
	Interrupt: pin A routed to IRQ 11
	Region 0: I/O ports at 1080 [size=8]
	Region 1: Memory at 10801000 (32-bit, non-prefetchable) [size=2K]
	Region 2: Memory at 10801800 (32-bit, non-prefetchable) [size=2K]
	Expansion ROM at 10404000 [size=16K]
	Capabilities: [dc] Power Management version 1
		Flags: PMEClk- AuxPwr+ DSI- D1+ D2+ PME+
		Status: D0 PME-Enable- DSel=0 DScale=2 PME-
00: 5d 11 03 01 03 00 10 02 03 02 00 07 00 00 80 00
10: 81 10 00 00 00 10 80 10 00 18 80 10 00 00 00 00
20: 00 00 00 00 00 00 00 00 07 02 00 00 5d 11 81 11
30: 01 40 40 10 dc 00 00 00 00 00 00 00 0b 01 00 00
#
# Automatically generated by make menuconfig: don't edit
#
CONFIG_X86=y
CONFIG_ISA=y
# CONFIG_SBUS is not set
CONFIG_UID16=y
#
# Code maturity level options
#
CONFIG_EXPERIMENTAL=y
#
# Loadable module support
#
CONFIG_MODULES=y
CONFIG_MODVERSIONS=y
CONFIG_KMOD=y
#
# Processor type and features
#
# CONFIG_M386 is not set
# CONFIG_M486 is not set
# CONFIG_M586 is not set
# CONFIG_M586TSC is not set
# CONFIG_M686 is not set
CONFIG_M686FXSR=y
# CONFIG_MK6 is not set
# CONFIG_MK7 is not set
# CONFIG_MCRUSOE is not set
# CONFIG_MWINCHIPC6 is not set
# CONFIG_MWINCHIP2 is not set
# CONFIG_MWINCHIP3D is not set
CONFIG_X86_WP_WORKS_OK=y
CONFIG_X86_INVLPG=y
CONFIG_X86_CMPXCHG=y
CONFIG_X86_BSWAP=y
CONFIG_X86_POPAD_OK=y
CONFIG_X86_L1_CACHE_BYTES=32
CONFIG_X86_TSC=y
CONFIG_X86_GOOD_APIC=y
CONFIG_X86_PGE=y
CONFIG_X86_USE_PPRO_CHECKSUM=y
CONFIG_X86_FXSR=y
CONFIG_X86_XMM=y
CONFIG_MICROCODE=y
# CONFIG_X86_MSR is not set
# CONFIG_X86_CPUID is not set
CONFIG_NOHIGHMEM=y
# CONFIG_HIGHMEM4G is not set
# CONFIG_HIGHMEM64G is not set
CONFIG_MTRR=y
# CONFIG_SMP is not set
CONFIG_X86_UP_IOAPIC=y
CONFIG_X86_IO_APIC=y
CONFIG_X86_LOCAL_APIC=y
#
# General setup
#
CONFIG_NET=y
# CONFIG_VISWS is not set
CONFIG_PCI=y
# CONFIG_PCI_GOBIOS is not set
CONFIG_PCI_GODIRECT=y
# CONFIG_PCI_GOANY is not set
CONFIG_PCI_DIRECT=y
CONFIG_PCI_NAMES=y
# CONFIG_MCA is not set
CONFIG_HOTPLUG=y
#
# PCMCIA/CardBus support
#
CONFIG_PCMCIA=y
CONFIG_CARDBUS=y
CONFIG_I82365=y
# CONFIG_TCIC is not set
CONFIG_SYSVIPC=y
# CONFIG_BSD_PROCESS_ACCT is not set
CONFIG_SYSCTL=y
CONFIG_KCORE_ELF=y
# CONFIG_KCORE_AOUT is not set
# CONFIG_BINFMT_AOUT is not set
CONFIG_BINFMT_ELF=y
CONFIG_BINFMT_MISC=y
CONFIG_PM=y
# CONFIG_ACPI is not set
CONFIG_APM=y
# CONFIG_APM_IGNORE_USER_SUSPEND is not set
CONFIG_APM_DO_ENABLE=y
CONFIG_APM_CPU_IDLE=y
CONFIG_APM_DISPLAY_BLANK=y
CONFIG_APM_RTC_IS_GMT=y
# CONFIG_APM_ALLOW_INTS is not set
CONFIG_APM_REAL_MODE_POWER_OFF=y
#
# Memory Technology Devices (MTD)
#
# CONFIG_MTD is not set
#
# Parallel port support
#
CONFIG_PARPORT=y
CONFIG_PARPORT_PC=y
CONFIG_PARPORT_PC_FIFO=y
# CONFIG_PARPORT_PC_SUPERIO is not set
# CONFIG_PARPORT_PC_PCMCIA is not set
# CONFIG_PARPORT_AMIGA is not set
# CONFIG_PARPORT_MFC3 is not set
# CONFIG_PARPORT_ATARI is not set
# CONFIG_PARPORT_SUNBPP is not set
# CONFIG_PARPORT_OTHER is not set
CONFIG_PARPORT_1284=y
#
# Plug and Play configuration
#
CONFIG_PNP=y
CONFIG_ISAPNP=y
#
# Block devices
#
CONFIG_BLK_DEV_FD=y
# CONFIG_BLK_DEV_XD is not set
# CONFIG_PARIDE is not set
# CONFIG_BLK_CPQ_DA is not set
# CONFIG_BLK_DEV_DAC960 is not set
CONFIG_BLK_DEV_LOOP=y
# CONFIG_BLK_DEV_NBD is not set
# CONFIG_BLK_DEV_LVM is not set
# CONFIG_BLK_DEV_MD is not set
# CONFIG_MD_LINEAR is not set
# CONFIG_MD_RAID0 is not set
# CONFIG_MD_RAID1 is not set
# CONFIG_MD_RAID5 is not set
# CONFIG_BLK_DEV_RAM is not set
# CONFIG_BLK_DEV_INITRD is not set
#
# Networking options
#
CONFIG_PACKET=y
# CONFIG_PACKET_MMAP is not set
# CONFIG_NETLINK is not set
# CONFIG_NETFILTER is not set
# CONFIG_FILTER is not set
CONFIG_UNIX=y
CONFIG_INET=y
# CONFIG_IP_MULTICAST is not set
# CONFIG_IP_ADVANCED_ROUTER is not set
# CONFIG_IP_PNP is not set
# CONFIG_IP_ROUTER is not set
CONFIG_NET_IPIP=m
CONFIG_NET_IPGRE=m
# CONFIG_IP_ALIAS is not set
# CONFIG_INET_ECN is not set
# CONFIG_SYN_COOKIES is not set
# CONFIG_IPV6 is not set
# CONFIG_KHTTPD is not set
# CONFIG_ATM is not set
# CONFIG_IPX is not set
# CONFIG_ATALK is not set
# CONFIG_DECNET is not set
# CONFIG_BRIDGE is not set
# CONFIG_X25 is not set
# CONFIG_LAPB is not set
# CONFIG_LLC is not set
# CONFIG_ECONET is not set
# CONFIG_WAN_ROUTER is not set
# CONFIG_NET_FASTROUTE is not set
# CONFIG_NET_HW_FLOWCONTROL is not set
#
# QoS and/or fair queueing
#
# CONFIG_NET_SCHED is not set
#
# Telephony Support
#
# CONFIG_PHONE is not set
# CONFIG_PHONE_IXJ is not set
#
# ATA/IDE/MFM/RLL support
#
CONFIG_IDE=y
#
# IDE, ATA and ATAPI Block devices
#
CONFIG_BLK_DEV_IDE=y
# CONFIG_BLK_DEV_HD_IDE is not set
# CONFIG_BLK_DEV_HD is not set
CONFIG_BLK_DEV_IDEDISK=y
# CONFIG_IDEDISK_MULTI_MODE is not set
# CONFIG_BLK_DEV_IDEDISK_VENDOR is not set
# CONFIG_BLK_DEV_IDEDISK_FUJITSU is not set
# CONFIG_BLK_DEV_IDEDISK_IBM is not set
# CONFIG_BLK_DEV_IDEDISK_MAXTOR is not set
# CONFIG_BLK_DEV_IDEDISK_QUANTUM is not set
# CONFIG_BLK_DEV_IDEDISK_SEAGATE is not set
# CONFIG_BLK_DEV_IDEDISK_WD is not set
# CONFIG_BLK_DEV_COMMERIAL is not set
# CONFIG_BLK_DEV_TIVO is not set
# CONFIG_BLK_DEV_IDECS is not set
CONFIG_BLK_DEV_IDECD=y
# CONFIG_BLK_DEV_IDETAPE is not set
# CONFIG_BLK_DEV_IDEFLOPPY is not set
# CONFIG_BLK_DEV_IDESCSI is not set
# CONFIG_BLK_DEV_CMD640 is not set
# CONFIG_BLK_DEV_CMD640_ENHANCED is not set
# CONFIG_BLK_DEV_ISAPNP is not set
# CONFIG_BLK_DEV_RZ1000 is not set
CONFIG_BLK_DEV_IDEPCI=y
CONFIG_IDEPCI_SHARE_IRQ=y
CONFIG_BLK_DEV_IDEDMA_PCI=y
# CONFIG_BLK_DEV_OFFBOARD is not set
CONFIG_IDEDMA_PCI_AUTO=y
CONFIG_BLK_DEV_IDEDMA=y
# CONFIG_IDEDMA_PCI_WIP is not set
# CONFIG_IDEDMA_NEW_DRIVE_LISTINGS is not set
# CONFIG_BLK_DEV_AEC62XX is not set
# CONFIG_AEC62XX_TUNING is not set
# CONFIG_BLK_DEV_ALI15X3 is not set
# CONFIG_WDC_ALI15X3 is not set
# CONFIG_BLK_DEV_AMD7409 is not set
# CONFIG_AMD7409_OVERRIDE is not set
# CONFIG_BLK_DEV_CMD64X is not set
# CONFIG_BLK_DEV_CY82C693 is not set
# CONFIG_BLK_DEV_CS5530 is not set
# CONFIG_BLK_DEV_HPT34X is not set
# CONFIG_HPT34X_AUTODMA is not set
# CONFIG_BLK_DEV_HPT366 is not set
CONFIG_BLK_DEV_PIIX=y
# CONFIG_PIIX_TUNING is not set
# CONFIG_BLK_DEV_NS87415 is not set
# CONFIG_BLK_DEV_OPTI621 is not set
# CONFIG_BLK_DEV_PDC202XX is not set
# CONFIG_PDC202XX_BURST is not set
# CONFIG_BLK_DEV_SIS5513 is not set
# CONFIG_BLK_DEV_TRM290 is not set
# CONFIG_BLK_DEV_VIA82CXXX is not set
# CONFIG_VIA82CXXX_TUNING is not set
# CONFIG_IDE_CHIPSETS is not set
CONFIG_IDEDMA_AUTO=y
# CONFIG_IDEDMA_IVB is not set
# CONFIG_DMA_NONPCI is not set
CONFIG_BLK_DEV_IDE_MODES=y
#
# SCSI support
#
# CONFIG_SCSI is not set
#
# IEEE 1394 (FireWire) support
#
# CONFIG_IEEE1394 is not set
#
# I2O device support
#
# CONFIG_I2O is not set
# CONFIG_I2O_PCI is not set
# CONFIG_I2O_BLOCK is not set
# CONFIG_I2O_LAN is not set
# CONFIG_I2O_SCSI is not set
# CONFIG_I2O_PROC is not set
#
# Network device support
#
CONFIG_NETDEVICES=y
#
# ARCnet devices
#
# CONFIG_ARCNET is not set
CONFIG_DUMMY=m
# CONFIG_BONDING is not set
# CONFIG_EQUALIZER is not set
# CONFIG_NET_SB1000 is not set
#
# Ethernet (10 or 100Mbit)
#
CONFIG_NET_ETHERNET=y
CONFIG_NET_VENDOR_3COM=y
# CONFIG_EL1 is not set
# CONFIG_EL2 is not set
# CONFIG_ELPLUS is not set
# CONFIG_EL16 is not set
# CONFIG_EL3 is not set
# CONFIG_3C515 is not set
CONFIG_VORTEX=m
# CONFIG_LANCE is not set
# CONFIG_NET_VENDOR_SMC is not set
# CONFIG_NET_VENDOR_RACAL is not set
# CONFIG_AT1700 is not set
# CONFIG_DEPCA is not set
# CONFIG_NET_ISA is not set
# CONFIG_NET_PCI is not set
# CONFIG_NET_POCKET is not set
#
# Ethernet (1000 Mbit)
#
# CONFIG_YELLOWFIN is not set
# CONFIG_ACENIC is not set
# CONFIG_SK98LIN is not set
# CONFIG_FDDI is not set
# CONFIG_HIPPI is not set
# CONFIG_PLIP is not set
CONFIG_PPP=y
# CONFIG_PPP_MULTILINK is not set
CONFIG_PPP_ASYNC=y
CONFIG_PPP_SYNC_TTY=m
CONFIG_PPP_DEFLATE=y
CONFIG_PPP_BSDCOMP=y
# CONFIG_PPPOE is not set
# CONFIG_SLIP is not set
#
# Wireless LAN (non-hamradio)
#
# CONFIG_NET_RADIO is not set
#
# Token Ring devices
#
# CONFIG_TR is not set
# CONFIG_NET_FC is not set
# CONFIG_RCPCI is not set
# CONFIG_SHAPER is not set
#
# Wan interfaces
#
# CONFIG_WAN is not set
#
# PCMCIA network device support
#
CONFIG_NET_PCMCIA=y
# CONFIG_PCMCIA_3C589 is not set
CONFIG_PCMCIA_3C574=m
# CONFIG_PCMCIA_FMVJ18X is not set
CONFIG_PCMCIA_PCNET=m
# CONFIG_PCMCIA_NMCLAN is not set
# CONFIG_PCMCIA_SMC91C92 is not set
CONFIG_PCMCIA_XIRC2PS=m
# CONFIG_ARCNET_COM20020_CS is not set
# CONFIG_PCMCIA_IBMTR is not set
CONFIG_PCMCIA_XIRTULIP=m
# CONFIG_NET_PCMCIA_RADIO is not set
#
# Amateur Radio support
#
# CONFIG_HAMRADIO is not set
#
# IrDA (infrared) support
#
# CONFIG_IRDA is not set
#
# ISDN subsystem
#
# CONFIG_ISDN is not set
#
# Old CD-ROM drivers (not SCSI, not IDE)
#
# CONFIG_CD_NO_IDESCSI is not set
#
# Character devices
#
CONFIG_VT=y
CONFIG_VT_CONSOLE=y
CONFIG_SERIAL=y
# CONFIG_SERIAL_CONSOLE is not set
# CONFIG_SERIAL_EXTENDED is not set
# CONFIG_SERIAL_NONSTANDARD is not set
CONFIG_UNIX98_PTYS=y
CONFIG_UNIX98_PTY_COUNT=256
CONFIG_PRINTER=y
# CONFIG_LP_CONSOLE is not set
# CONFIG_PPDEV is not set
#
# I2C support
#
# CONFIG_I2C is not set
#
# Mice
#
# CONFIG_BUSMOUSE is not set
CONFIG_MOUSE=y
CONFIG_PSMOUSE=y
# CONFIG_82C710_MOUSE is not set
# CONFIG_PC110_PAD is not set
#
# Joysticks
#
# CONFIG_JOYSTICK is not set
# CONFIG_QIC02_TAPE is not set
#
# Watchdog Cards
#
# CONFIG_WATCHDOG is not set
# CONFIG_INTEL_RNG is not set
# CONFIG_NVRAM is not set
CONFIG_RTC=y
#
# Video For Linux
#
# CONFIG_VIDEO_DEV is not set
# CONFIG_DTLK is not set
# CONFIG_R3964 is not set
# CONFIG_APPLICOM is not set
#
# Ftape, the floppy tape device driver
#
# CONFIG_FTAPE is not set
# CONFIG_DRM is not set
# CONFIG_DRM_TDFX is not set
CONFIG_PCMCIA_SERIAL=y
#
# PCMCIA character device support
#
CONFIG_PCMCIA_SERIAL_CS=m
CONFIG_PCMCIA_SERIAL_CB=m
# CONFIG_AGP is not set
#
# File systems
#
# CONFIG_QUOTA is not set
# CONFIG_AUTOFS_FS is not set
CONFIG_AUTOFS4_FS=y
# CONFIG_ADFS_FS is not set
# CONFIG_ADFS_FS_RW is not set
# CONFIG_AFFS_FS is not set
# CONFIG_HFS_FS is not set
# CONFIG_BFS_FS is not set
CONFIG_FAT_FS=y
CONFIG_MSDOS_FS=y
# CONFIG_UMSDOS_FS is not set
CONFIG_VFAT_FS=y
# CONFIG_EFS_FS is not set
# CONFIG_JFFS_FS is not set
# CONFIG_CRAMFS is not set
# CONFIG_RAMFS is not set
CONFIG_ISO9660_FS=y
CONFIG_JOLIET=y
# CONFIG_MINIX_FS is not set
# CONFIG_NTFS_FS is not set
# CONFIG_NTFS_RW is not set
# CONFIG_HPFS_FS is not set
CONFIG_PROC_FS=y
CONFIG_DEVFS_FS=y
# CONFIG_DEVFS_MOUNT is not set
# CONFIG_DEVFS_DEBUG is not set
CONFIG_DEVPTS_FS=y
# CONFIG_QNX4FS_FS is not set
# CONFIG_QNX4FS_RW is not set
# CONFIG_ROMFS_FS is not set
CONFIG_EXT2_FS=y
# CONFIG_SYSV_FS is not set
# CONFIG_SYSV_FS_WRITE is not set
CONFIG_UDF_FS=y
# CONFIG_UDF_RW is not set
# CONFIG_UFS_FS is not set
# CONFIG_UFS_FS_WRITE is not set
#
# Network File Systems
#
# CONFIG_CODA_FS is not set
CONFIG_NFS_FS=y
CONFIG_NFS_V3=y
# CONFIG_ROOT_NFS is not set
# CONFIG_NFSD is not set
# CONFIG_NFSD_V3 is not set
CONFIG_SUNRPC=y
CONFIG_LOCKD=y
CONFIG_LOCKD_V4=y
CONFIG_SMB_FS=m
# CONFIG_NCP_FS is not set
# CONFIG_NCPFS_PACKET_SIGNING is not set
# CONFIG_NCPFS_IOCTL_LOCKING is not set
# CONFIG_NCPFS_STRONG is not set
# CONFIG_NCPFS_NFS_NS is not set
# CONFIG_NCPFS_OS2_NS is not set
# CONFIG_NCPFS_SMALLDOS is not set
# CONFIG_NCPFS_MOUNT_SUBDIR is not set
# CONFIG_NCPFS_NDS_DOMAINS is not set
# CONFIG_NCPFS_NLS is not set
# CONFIG_NCPFS_EXTRAS is not set
#
# Partition Types
#
# CONFIG_PARTITION_ADVANCED is not set
CONFIG_MSDOS_PARTITION=y
CONFIG_NLS=y
#
# Native Language Support
#
# CONFIG_NLS_CODEPAGE_437 is not set
# CONFIG_NLS_CODEPAGE_737 is not set
# CONFIG_NLS_CODEPAGE_775 is not set
CONFIG_NLS_CODEPAGE_850=y
# CONFIG_NLS_CODEPAGE_852 is not set
# CONFIG_NLS_CODEPAGE_855 is not set
# CONFIG_NLS_CODEPAGE_857 is not set
# CONFIG_NLS_CODEPAGE_860 is not set
# CONFIG_NLS_CODEPAGE_861 is not set
# CONFIG_NLS_CODEPAGE_862 is not set
# CONFIG_NLS_CODEPAGE_863 is not set
# CONFIG_NLS_CODEPAGE_864 is not set
# CONFIG_NLS_CODEPAGE_865 is not set
# CONFIG_NLS_CODEPAGE_866 is not set
# CONFIG_NLS_CODEPAGE_869 is not set
# CONFIG_NLS_CODEPAGE_874 is not set
CONFIG_NLS_ISO8859_1=y
# CONFIG_NLS_ISO8859_2 is not set
# CONFIG_NLS_ISO8859_3 is not set
# CONFIG_NLS_ISO8859_4 is not set
# CONFIG_NLS_ISO8859_5 is not set
# CONFIG_NLS_ISO8859_6 is not set
# CONFIG_NLS_ISO8859_7 is not set
# CONFIG_NLS_ISO8859_8 is not set
# CONFIG_NLS_ISO8859_9 is not set
# CONFIG_NLS_ISO8859_14 is not set
# CONFIG_NLS_ISO8859_15 is not set
# CONFIG_NLS_KOI8_R is not set
#
# Console drivers
#
CONFIG_VGA_CONSOLE=y
CONFIG_VIDEO_SELECT=y
# CONFIG_MDA_CONSOLE is not set
#
# Frame-buffer support
#
CONFIG_FB=y
CONFIG_DUMMY_CONSOLE=y
# CONFIG_FB_RIVA is not set
# CONFIG_FB_CLGEN is not set
# CONFIG_FB_PM2 is not set
# CONFIG_FB_VESA is not set
# CONFIG_FB_VGA16 is not set
# CONFIG_FB_HGA is not set
CONFIG_VIDEO_SELECT=y
# CONFIG_FB_MATROX is not set
CONFIG_FB_ATY=m
CONFIG_FB_ATY128=m
# CONFIG_FB_3DFX is not set
# CONFIG_FB_SIS is not set
# CONFIG_FB_VIRTUAL is not set
# CONFIG_FBCON_ADVANCED is not set
CONFIG_FBCON_CFB8=m
CONFIG_FBCON_CFB16=m
CONFIG_FBCON_CFB24=m
CONFIG_FBCON_CFB32=m
# CONFIG_FBCON_FONTWIDTH8_ONLY is not set
# CONFIG_FBCON_FONTS is not set
CONFIG_FONT_8x8=y
CONFIG_FONT_8x16=y
#
# Sound
#
# CONFIG_SOUND is not set
#
# USB support
#
# CONFIG_USB is not set
#
# Kernel hacking
#
CONFIG_MAGIC_SYSRQ=y