Date: Mon, 9 Oct 2000 19:14:56 +0200
From: Lars Callenbach <>
Subject: crash 2.2.17 2.4.0-test9
Sender: linux-kernel-owner@vger.kernel.org
Precedence: bulk
List-ID: <linux-kernel.vger.kernel.org>
X-Mailing-List: linux-kernel@vger.kernel.org
X-Lkml-Link: https://lkml.org/lkml/2000/10/9/16

Hallo,
I only want to make a few remarks concerning crashes under 2.2.17 and 2.4.0-test9. My smp-system sometimes hangs - even the NMI under 2.4 doesnŽt work, no response to magic sysrq-key. So thatŽs not so interesting - there are a lot of messages of this type. More interesting (for me): the same motherboard (Gigabyte-6BXDS) in another smp-box !!without!! a PCI-Adaptec controller and a PCI-graphic card (an AGP-card instead) works fine under 2.2.12..2.2.16. No freezing during the last 2 years using the linux kernels 2.2.x!
So I did a Žlspci -xvvŽ under 2.2.17 and 2.2.6 - under this kernel release I havenŽt had this freezing problem - on my broken computer. And the result: the outputs from both kernels are not identical, a flag for the Adaptec controllers changes from MemWINV+ (2.2.6) to MemWINV- (2.2.17) and some cryptic numbers also. DonŽt ask me what it means, but perhaps someone can explain it - this would be interesting for me; Žman lspciŽ didnŽt help.
Now IŽv bought an AGP-card and, good luck, everything works fine. I can use X for more than 8 hours under 2.2.18pre15 - impossible before. Up to now I havenŽt had any crash. I append the lspci-output for the different computer configurations at the end. You can find the lspci-output for the ever working smp-box also. 
Perhaps this helps somebody debugging the kernel. 
Lars
****************************************************************
lspci-2.2.6 pci-graphic
00:00.0 Host bridge: Intel Corporation 440BX/ZX - 82443BX/ZX Host bridge (rev 03)
	Control: I/O- Mem+ BusMaster+ SpecCycle- MemWINV- VGASnoop- ParErr- Stepping- SERR- FastB2B-
	Status: Cap+ 66Mhz- UDF- FastB2B- ParErr- DEVSEL=medium >TAbort- <TAbort- <MAbort+ >SERR- <PERR-
	Latency: 64 set
	Region 0: Memory at d8000000 (32-bit, prefetchable)
	Capabilities: [a0] AGP version 1.0
		Status: RQ=31 SBA+ 64bit- FW- Rate=21
		Command: RQ=0 SBA- AGP- 64bit- FW- Rate=
00: 86 80 90 71 06 00 10 22 03 00 00 06 00 40 00 00
10: 08 00 00 d8 00 00 00 00 00 00 00 00 00 00 00 00
20: 00 00 00 00 00 00 00 00 00 00 00 00 00 00 00 00
30: 00 00 00 00 a0 00 00 00 00 00 00 00 00 00 00 00
00:01.0 PCI bridge: Intel Corporation 440BX/ZX - 82443BX/ZX AGP bridge (rev 03)
	Control: I/O+ Mem+ BusMaster+ SpecCycle- MemWINV- VGASnoop- ParErr- Stepping- SERR+ FastB2B-
	Status: Cap- 66Mhz+ UDF- FastB2B- ParErr- DEVSEL=medium >TAbort- <TAbort- <MAbort- >SERR- <PERR-
	Latency: 64 set
	Bus: primary=00, secondary=01, subordinate=01, sec-latency=64
	I/O behind bridge: 0000d000-0000dfff
	BridgeCtl: Parity- SERR- NoISA- VGA- MAbort- >Reset- FastB2B+
00: 86 80 91 71 07 01 20 02 03 00 04 06 00 40 01 00
10: 00 00 00 00 00 00 00 00 00 01 01 40 d0 d0 a0 22
20: f0 ff 00 00 f0 ff 00 00 00 00 00 00 00 00 00 00
30: 00 00 00 00 00 00 00 00 00 00 00 00 00 00 80 00
00:07.0 ISA bridge: Intel Corporation 82371AB PIIX4 ISA (rev 02)
	Control: I/O+ Mem+ BusMaster+ SpecCycle+ MemWINV- VGASnoop- ParErr- Stepping- SERR- FastB2B-
	Status: Cap- 66Mhz- UDF- FastB2B+ ParErr- DEVSEL=medium >TAbort- <TAbort- <MAbort- >SERR- <PERR-
	Latency: 0 set
00: 86 80 10 71 0f 00 80 02 02 00 01 06 00 00 80 00
10: 00 00 00 00 00 00 00 00 00 00 00 00 00 00 00 00
20: 00 00 00 00 00 00 00 00 00 00 00 00 00 00 00 00
30: 00 00 00 00 00 00 00 00 00 00 00 00 00 00 00 00
00:07.1 IDE interface: Intel Corporation 82371AB PIIX4 IDE (rev 01) (prog-if 80 [Master])
	Control: I/O- Mem- BusMaster- SpecCycle- MemWINV- VGASnoop- ParErr- Stepping- SERR- FastB2B-
	Status: Cap- 66Mhz- UDF- FastB2B+ ParErr- DEVSEL=medium >TAbort- <TAbort- <MAbort- >SERR- <PERR-
	Region 4: I/O ports at f000 [disabled]
00: 86 80 11 71 00 00 80 02 01 80 01 01 00 40 00 00
10: 00 00 00 00 00 00 00 00 00 00 00 00 00 00 00 00
20: 01 f0 00 00 00 00 00 00 00 00 00 00 00 00 00 00
30: 00 00 00 00 00 00 00 00 00 00 00 00 00 00 00 00
00:07.2 USB Controller: Intel Corporation 82371AB PIIX4 USB (rev 01)
	Control: I/O+ Mem- BusMaster+ SpecCycle- MemWINV- VGASnoop- ParErr- Stepping- SERR- FastB2B-
	Status: Cap- 66Mhz- UDF- FastB2B+ ParErr- DEVSEL=medium >TAbort- <TAbort- <MAbort- >SERR- <PERR-
	Latency: 64 set
	Interrupt: pin D routed to IRQ 15
	Region 4: I/O ports at e000
00: 86 80 12 71 05 00 80 02 01 00 03 0c 00 40 00 00
10: 00 00 00 00 00 00 00 00 00 00 00 00 00 00 00 00
20: 01 e0 00 00 00 00 00 00 00 00 00 00 00 00 00 00
30: 00 00 00 00 00 00 00 00 00 00 00 00 0f 04 00 00
00:07.3 Bridge: Intel Corporation 82371AB PIIX4 ACPI (rev 02)
	Control: I/O+ Mem+ BusMaster- SpecCycle- MemWINV- VGASnoop- ParErr- Stepping- SERR- FastB2B-
	Status: Cap- 66Mhz- UDF- FastB2B+ ParErr- DEVSEL=medium >TAbort- <TAbort- <MAbort- >SERR- <PERR-
00: 86 80 13 71 03 00 80 02 02 00 80 06 00 00 00 00
10: 00 00 00 00 00 00 00 00 00 00 00 00 00 00 00 00
20: 00 00 00 00 00 00 00 00 00 00 00 00 00 00 00 00
30: 00 00 00 00 00 00 00 00 00 00 00 00 00 00 00 00
00:09.0 SCSI storage controller: Adaptec AHA-294x / AIC-7871
	Control: I/O+ Mem+ BusMaster+ SpecCycle- MemWINV+ VGASnoop- ParErr- Stepping- SERR- FastB2B-
	Status: Cap- 66Mhz- UDF- FastB2B+ ParErr- DEVSEL=medium >TAbort- <TAbort- <MAbort- >SERR- <PERR-
	Latency: 8 min, 8 max, 64 set, cache line size 08
	Interrupt: pin A routed to IRQ 17
	Region 0: I/O ports at e400
	Region 1: Memory at df801000 (32-bit, non-prefetchable)
	Expansion ROM at dc000000 [disabled]
00: 04 90 78 71 17 00 80 02 00 00 00 01 08 40 00 00
10: 01 e4 00 00 00 10 80 df 00 00 00 00 00 00 00 00
20: 00 00 00 00 00 00 00 00 00 00 00 00 00 00 00 00
30: 00 00 00 dc 00 00 00 00 00 00 00 00 0b 01 08 08
00:0b.0 VGA compatible controller: S3 Inc. 86c764/765 [Trio32/64/64V+]
	Control: I/O+ Mem+ BusMaster- SpecCycle- MemWINV- VGASnoop+ ParErr- Stepping- SERR- FastB2B-
	Status: Cap- 66Mhz- UDF- FastB2B- ParErr- DEVSEL=medium >TAbort- <TAbort- <MAbort- >SERR- <PERR-
	Interrupt: pin A routed to IRQ 19
	Region 0: Memory at df000000 (32-bit, non-prefetchable)
	Expansion ROM at dd000000 [disabled]
00: 33 53 11 88 23 00 00 02 00 00 00 03 00 00 00 00
10: 00 00 00 df 00 00 00 00 00 00 00 00 00 00 00 00
20: 00 00 00 00 00 00 00 00 00 00 00 00 00 00 00 00
30: 00 00 00 dd 00 00 00 00 00 00 00 00 0f 01 00 00
00:0c.0 SCSI storage controller: Adaptec AHA-2940U/UW / AHA-39xx / AIC-7895 (rev 04)
	Subsystem: Adaptec: Unknown device 7895
	Control: I/O+ Mem+ BusMaster+ SpecCycle- MemWINV+ VGASnoop- ParErr- Stepping- SERR- FastB2B-
	Status: Cap+ 66Mhz- UDF- FastB2B+ ParErr- DEVSEL=medium >TAbort- <TAbort- <MAbort- >SERR- <PERR-
	Latency: 8 min, 8 max, 64 set
	Interrupt: pin A routed to IRQ 16
	Region 0: I/O ports at e800
	Region 1: Memory at df800000 (32-bit, non-prefetchable)
	Expansion ROM at de000000 [disabled]
	Capabilities: [dc] Power Management version 1
		Flags: PMEClk- AuxPwr- DSI- D1- D2- PME-
		Status: D0 PME-Enable- DSel=0 DScale=0 PME-
00: 04 90 95 78 17 00 90 02 04 00 00 01 00 40 80 00
10: 01 e8 00 00 00 00 80 df 00 00 00 00 00 00 00 00
20: 00 00 00 00 00 00 00 00 00 00 00 00 04 90 95 78
30: 00 00 00 de dc 00 00 00 00 00 00 00 0a 01 08 08
00:0c.1 SCSI storage controller: Adaptec AHA-2940U/UW / AHA-39xx / AIC-7895 (rev 04)
	Subsystem: Adaptec: Unknown device 7895
	Control: I/O+ Mem+ BusMaster+ SpecCycle- MemWINV+ VGASnoop- ParErr- Stepping- SERR- FastB2B-
	Status: Cap+ 66Mhz- UDF- FastB2B+ ParErr- DEVSEL=medium >TAbort- <TAbort- <MAbort- >SERR- <PERR-
	Latency: 8 min, 8 max, 64 set
	Interrupt: pin B routed to IRQ 16
	Region 0: I/O ports at ec00
	Region 1: Memory at df802000 (32-bit, non-prefetchable)
	Capabilities: [dc] Power Management version 1
		Flags: PMEClk- AuxPwr- DSI- D1- D2- PME-
		Status: D0 PME-Enable- DSel=0 DScale=0 PME-
00: 04 90 95 78 17 00 90 02 04 00 00 01 00 40 80 00
10: 01 ec 00 00 00 20 80 df 00 00 00 00 00 00 00 00
20: 00 00 00 00 00 00 00 00 00 00 00 00 04 90 95 78
30: 00 00 00 00 dc 00 00 00 00 00 00 00 0a 02 08 08
****************************************************************
lspci-2.2.17 pci-graphic
00:00.0 Host bridge: Intel Corporation 440BX/ZX - 82443BX/ZX Host bridge (rev 03)
	Control: I/O- Mem+ BusMaster+ SpecCycle- MemWINV- VGASnoop- ParErr- Stepping- SERR- FastB2B-
	Status: Cap+ 66Mhz- UDF- FastB2B- ParErr- DEVSEL=medium >TAbort- <TAbort- <MAbort+ >SERR- <PERR-
	Latency: 64 set
	Region 0: Memory at d8000000 (32-bit, prefetchable)
	Capabilities: [a0] AGP version 1.0
		Status: RQ=31 SBA+ 64bit- FW- Rate=21
		Command: RQ=0 SBA- AGP- 64bit- FW- Rate=
00: 86 80 90 71 06 00 10 22 03 00 00 06 00 40 00 00
10: 08 00 00 d8 00 00 00 00 00 00 00 00 00 00 00 00
20: 00 00 00 00 00 00 00 00 00 00 00 00 00 00 00 00
30: 00 00 00 00 a0 00 00 00 00 00 00 00 00 00 00 00
00:01.0 PCI bridge: Intel Corporation 440BX/ZX - 82443BX/ZX AGP bridge (rev 03)
	Control: I/O+ Mem+ BusMaster+ SpecCycle- MemWINV- VGASnoop- ParErr- Stepping- SERR+ FastB2B-
	Status: Cap- 66Mhz+ UDF- FastB2B- ParErr- DEVSEL=medium >TAbort- <TAbort- <MAbort- >SERR- <PERR-
	Latency: 64 set
	Bus: primary=00, secondary=01, subordinate=01, sec-latency=64
	I/O behind bridge: 0000d000-0000dfff
	BridgeCtl: Parity- SERR- NoISA- VGA- MAbort- >Reset- FastB2B+
00: 86 80 91 71 07 01 20 02 03 00 04 06 00 40 01 00
10: 00 00 00 00 00 00 00 00 00 01 01 40 d0 d0 a0 22
20: f0 ff 00 00 f0 ff 00 00 00 00 00 00 00 00 00 00
30: 00 00 00 00 00 00 00 00 00 00 00 00 00 00 80 00
00:07.0 ISA bridge: Intel Corporation 82371AB PIIX4 ISA (rev 02)
	Control: I/O+ Mem+ BusMaster+ SpecCycle+ MemWINV- VGASnoop- ParErr- Stepping- SERR- FastB2B-
	Status: Cap- 66Mhz- UDF- FastB2B+ ParErr- DEVSEL=medium >TAbort- <TAbort- <MAbort- >SERR- <PERR-
	Latency: 0 set
00: 86 80 10 71 0f 00 80 02 02 00 01 06 00 00 80 00
10: 00 00 00 00 00 00 00 00 00 00 00 00 00 00 00 00
20: 00 00 00 00 00 00 00 00 00 00 00 00 00 00 00 00
30: 00 00 00 00 00 00 00 00 00 00 00 00 00 00 00 00
00:07.1 IDE interface: Intel Corporation 82371AB PIIX4 IDE (rev 01) (prog-if 80 [Master])
	Control: I/O- Mem- BusMaster- SpecCycle- MemWINV- VGASnoop- ParErr- Stepping- SERR- FastB2B-
	Status: Cap- 66Mhz- UDF- FastB2B+ ParErr- DEVSEL=medium >TAbort- <TAbort- <MAbort- >SERR- <PERR-
	Region 4: I/O ports at f000 [disabled]
00: 86 80 11 71 00 00 80 02 01 80 01 01 00 40 00 00
10: 00 00 00 00 00 00 00 00 00 00 00 00 00 00 00 00
20: 01 f0 00 00 00 00 00 00 00 00 00 00 00 00 00 00
30: 00 00 00 00 00 00 00 00 00 00 00 00 00 00 00 00
00:07.2 USB Controller: Intel Corporation 82371AB PIIX4 USB (rev 01)
	Control: I/O+ Mem- BusMaster+ SpecCycle- MemWINV- VGASnoop- ParErr- Stepping- SERR- FastB2B-
	Status: Cap- 66Mhz- UDF- FastB2B+ ParErr- DEVSEL=medium >TAbort- <TAbort- <MAbort- >SERR- <PERR-
	Latency: 64 set
	Interrupt: pin D routed to IRQ 15
	Region 4: I/O ports at e000
00: 86 80 12 71 05 00 80 02 01 00 03 0c 00 40 00 00
10: 00 00 00 00 00 00 00 00 00 00 00 00 00 00 00 00
20: 01 e0 00 00 00 00 00 00 00 00 00 00 00 00 00 00
30: 00 00 00 00 00 00 00 00 00 00 00 00 0f 04 00 00
00:07.3 Bridge: Intel Corporation 82371AB PIIX4 ACPI (rev 02)
	Control: I/O+ Mem+ BusMaster- SpecCycle- MemWINV- VGASnoop- ParErr- Stepping- SERR- FastB2B-
	Status: Cap- 66Mhz- UDF- FastB2B+ ParErr- DEVSEL=medium >TAbort- <TAbort- <MAbort- >SERR- <PERR-
00: 86 80 13 71 03 00 80 02 02 00 80 06 00 00 00 00
10: 00 00 00 00 00 00 00 00 00 00 00 00 00 00 00 00
20: 00 00 00 00 00 00 00 00 00 00 00 00 00 00 00 00
30: 00 00 00 00 00 00 00 00 00 00 00 00 00 00 00 00
00:09.0 SCSI storage controller: Adaptec AHA-294x / AIC-7871
	Control: I/O+ Mem+ BusMaster+ SpecCycle- MemWINV- VGASnoop- ParErr- Stepping- SERR- FastB2B-
	Status: Cap- 66Mhz- UDF- FastB2B+ ParErr- DEVSEL=medium >TAbort- <TAbort- <MAbort- >SERR- <PERR-
	Latency: 8 min, 8 max, 64 set, cache line size 08
	Interrupt: pin A routed to IRQ 17
	Region 0: I/O ports at e400
	Region 1: Memory at df801000 (32-bit, non-prefetchable)
	Expansion ROM at dc000000 [disabled]
00: 04 90 78 71 07 00 80 02 00 00 00 01 08 40 00 00
10: 01 e4 00 00 00 10 80 df 00 00 00 00 00 00 00 00
20: 00 00 00 00 00 00 00 00 00 00 00 00 00 00 00 00
30: 00 00 00 dc 00 00 00 00 00 00 00 00 0b 01 08 08
00:0b.0 VGA compatible controller: S3 Inc. 86c764/765 [Trio32/64/64V+]
	Control: I/O+ Mem+ BusMaster- SpecCycle- MemWINV- VGASnoop+ ParErr- Stepping- SERR- FastB2B-
	Status: Cap- 66Mhz- UDF- FastB2B- ParErr- DEVSEL=medium >TAbort- <TAbort- <MAbort- >SERR- <PERR-
	Interrupt: pin A routed to IRQ 19
	Region 0: Memory at df000000 (32-bit, non-prefetchable)
	Expansion ROM at dd000000 [disabled]
00: 33 53 11 88 23 00 00 02 00 00 00 03 00 00 00 00
10: 00 00 00 df 00 00 00 00 00 00 00 00 00 00 00 00
20: 00 00 00 00 00 00 00 00 00 00 00 00 00 00 00 00
30: 00 00 00 dd 00 00 00 00 00 00 00 00 0f 01 00 00
00:0c.0 SCSI storage controller: Adaptec AHA-2940U/UW / AHA-39xx / AIC-7895 (rev 04)
	Subsystem: Adaptec: Unknown device 7895
	Control: I/O+ Mem+ BusMaster+ SpecCycle- MemWINV- VGASnoop- ParErr- Stepping- SERR- FastB2B-
	Status: Cap+ 66Mhz- UDF- FastB2B+ ParErr- DEVSEL=medium >TAbort- <TAbort- <MAbort- >SERR- <PERR-
	Latency: 8 min, 8 max, 64 set
	Interrupt: pin A routed to IRQ 16
	Region 0: I/O ports at e800
	Region 1: Memory at df800000 (32-bit, non-prefetchable)
	Expansion ROM at de000000 [disabled]
	Capabilities: [dc] Power Management version 1
		Flags: PMEClk- AuxPwr- DSI- D1- D2- PME-
		Status: D0 PME-Enable- DSel=0 DScale=0 PME-
00: 04 90 95 78 07 00 90 02 04 00 00 01 00 40 80 00
10: 01 e8 00 00 00 00 80 df 00 00 00 00 00 00 00 00
20: 00 00 00 00 00 00 00 00 00 00 00 00 04 90 95 78
30: 00 00 00 de dc 00 00 00 00 00 00 00 0a 01 08 08
00:0c.1 SCSI storage controller: Adaptec AHA-2940U/UW / AHA-39xx / AIC-7895 (rev 04)
	Subsystem: Adaptec: Unknown device 7895
	Control: I/O+ Mem+ BusMaster+ SpecCycle- MemWINV- VGASnoop- ParErr- Stepping- SERR- FastB2B-
	Status: Cap+ 66Mhz- UDF- FastB2B+ ParErr- DEVSEL=medium >TAbort- <TAbort- <MAbort- >SERR- <PERR-
	Latency: 8 min, 8 max, 64 set
	Interrupt: pin B routed to IRQ 16
	Region 0: I/O ports at ec00
	Region 1: Memory at df802000 (32-bit, non-prefetchable)
	Capabilities: [dc] Power Management version 1
		Flags: PMEClk- AuxPwr- DSI- D1- D2- PME-
		Status: D0 PME-Enable- DSel=0 DScale=0 PME-
00: 04 90 95 78 07 00 90 02 04 00 00 01 00 40 80 00
10: 01 ec 00 00 00 20 80 df 00 00 00 00 00 00 00 00
20: 00 00 00 00 00 00 00 00 00 00 00 00 04 90 95 78
30: 00 00 00 00 dc 00 00 00 00 00 00 00 0a 02 08 08
****************************************************************
lspci-2.2.18pre15 agp-graphic
00:00.0 Host bridge: Intel Corporation 440BX/ZX - 82443BX/ZX Host bridge (rev 03)
	Control: I/O- Mem+ BusMaster+ SpecCycle- MemWINV- VGASnoop- ParErr- Stepping- SERR- FastB2B-
	Status: Cap+ 66Mhz- UDF- FastB2B- ParErr- DEVSEL=medium >TAbort- <TAbort- <MAbort+ >SERR- <PERR-
	Latency: 64 set
	Region 0: Memory at e0000000 (32-bit, prefetchable)
	Capabilities: [a0] AGP version 1.0
		Status: RQ=31 SBA+ 64bit- FW- Rate=21
		Command: RQ=0 SBA- AGP- 64bit- FW- Rate=
00: 86 80 90 71 06 00 10 22 03 00 00 06 00 40 00 00
10: 08 00 00 e0 00 00 00 00 00 00 00 00 00 00 00 00
20: 00 00 00 00 00 00 00 00 00 00 00 00 00 00 00 00
30: 00 00 00 00 a0 00 00 00 00 00 00 00 00 00 00 00
00:01.0 PCI bridge: Intel Corporation 440BX/ZX - 82443BX/ZX AGP bridge (rev 03)
	Control: I/O+ Mem+ BusMaster+ SpecCycle- MemWINV- VGASnoop- ParErr- Stepping- SERR+ FastB2B-
	Status: Cap- 66Mhz+ UDF- FastB2B- ParErr- DEVSEL=medium >TAbort- <TAbort- <MAbort- >SERR- <PERR-
	Latency: 64 set
	Bus: primary=00, secondary=01, subordinate=01, sec-latency=64
	I/O behind bridge: 0000d000-0000dfff
	Memory behind bridge: e4000000-e5ffffff
	Prefetchable memory behind bridge: d8000000-dfffffff
	BridgeCtl: Parity- SERR- NoISA- VGA+ MAbort- >Reset- FastB2B+
00: 86 80 91 71 07 01 20 02 03 00 04 06 00 40 01 00
10: 00 00 00 00 00 00 00 00 00 01 01 40 d0 d0 a0 22
20: 00 e4 f0 e5 00 d8 f0 df 00 00 00 00 00 00 00 00
30: 00 00 00 00 00 00 00 00 00 00 00 00 00 00 88 00
00:07.0 ISA bridge: Intel Corporation 82371AB PIIX4 ISA (rev 02)
	Control: I/O+ Mem+ BusMaster+ SpecCycle+ MemWINV- VGASnoop- ParErr- Stepping- SERR- FastB2B-
	Status: Cap- 66Mhz- UDF- FastB2B+ ParErr- DEVSEL=medium >TAbort- <TAbort- <MAbort- >SERR- <PERR-
	Latency: 0 set
00: 86 80 10 71 0f 00 80 02 02 00 01 06 00 00 80 00
10: 00 00 00 00 00 00 00 00 00 00 00 00 00 00 00 00
20: 00 00 00 00 00 00 00 00 00 00 00 00 00 00 00 00
30: 00 00 00 00 00 00 00 00 00 00 00 00 00 00 00 00
00:07.1 IDE interface: Intel Corporation 82371AB PIIX4 IDE (rev 01) (prog-if 80 [Master])
	Control: I/O- Mem- BusMaster- SpecCycle- MemWINV- VGASnoop- ParErr- Stepping- SERR- FastB2B-
	Status: Cap- 66Mhz- UDF- FastB2B+ ParErr- DEVSEL=medium >TAbort- <TAbort- <MAbort- >SERR- <PERR-
	Region 4: I/O ports at f000 [disabled]
00: 86 80 11 71 00 00 80 02 01 80 01 01 00 40 00 00
10: 00 00 00 00 00 00 00 00 00 00 00 00 00 00 00 00
20: 01 f0 00 00 00 00 00 00 00 00 00 00 00 00 00 00
30: 00 00 00 00 00 00 00 00 00 00 00 00 00 00 00 00
00:07.2 USB Controller: Intel Corporation 82371AB PIIX4 USB (rev 01)
	Control: I/O+ Mem- BusMaster+ SpecCycle- MemWINV- VGASnoop- ParErr- Stepping- SERR- FastB2B-
	Status: Cap- 66Mhz- UDF- FastB2B+ ParErr- DEVSEL=medium >TAbort- <TAbort- <MAbort- >SERR- <PERR-
	Latency: 64 set
	Interrupt: pin D routed to IRQ 11
	Region 4: I/O ports at e000
00: 86 80 12 71 05 00 80 02 01 00 03 0c 00 40 00 00
10: 00 00 00 00 00 00 00 00 00 00 00 00 00 00 00 00
20: 01 e0 00 00 00 00 00 00 00 00 00 00 00 00 00 00
30: 00 00 00 00 00 00 00 00 00 00 00 00 0b 04 00 00
00:07.3 Bridge: Intel Corporation 82371AB PIIX4 ACPI (rev 02)
	Control: I/O+ Mem+ BusMaster- SpecCycle- MemWINV- VGASnoop- ParErr- Stepping- SERR- FastB2B-
	Status: Cap- 66Mhz- UDF- FastB2B+ ParErr- DEVSEL=medium >TAbort- <TAbort- <MAbort- >SERR- <PERR-
00: 86 80 13 71 03 00 80 02 02 00 80 06 00 00 00 00
10: 00 00 00 00 00 00 00 00 00 00 00 00 00 00 00 00
20: 00 00 00 00 00 00 00 00 00 00 00 00 00 00 00 00
30: 00 00 00 00 00 00 00 00 00 00 00 00 00 00 00 00
00:09.0 SCSI storage controller: Adaptec AHA-294x / AIC-7871
	Control: I/O+ Mem+ BusMaster+ SpecCycle- MemWINV- VGASnoop- ParErr- Stepping- SERR- FastB2B-
	Status: Cap- 66Mhz- UDF- FastB2B+ ParErr- DEVSEL=medium >TAbort- <TAbort- <MAbort- >SERR- <PERR-
	Latency: 8 min, 8 max, 64 set, cache line size 08
	Interrupt: pin A routed to IRQ 17
	Region 0: I/O ports at e400
	Region 1: Memory at e8001000 (32-bit, non-prefetchable)
	Expansion ROM at e6000000 [disabled]
00: 04 90 78 71 07 00 80 02 00 00 00 01 08 40 00 00
10: 01 e4 00 00 00 10 00 e8 00 00 00 00 00 00 00 00
20: 00 00 00 00 00 00 00 00 00 00 00 00 00 00 00 00
30: 00 00 00 e6 00 00 00 00 00 00 00 00 0a 01 08 08
00:0c.0 SCSI storage controller: Adaptec AHA-2940U/UW / AHA-39xx / AIC-7895 (rev 04)
	Subsystem: Adaptec: Unknown device 7895
	Control: I/O+ Mem+ BusMaster+ SpecCycle- MemWINV- VGASnoop- ParErr- Stepping- SERR- FastB2B-
	Status: Cap+ 66Mhz- UDF- FastB2B+ ParErr- DEVSEL=medium >TAbort- <TAbort- <MAbort- >SERR- <PERR-
	Latency: 8 min, 8 max, 64 set
	Interrupt: pin A routed to IRQ 16
	Region 0: I/O ports at e800
	Region 1: Memory at e8000000 (32-bit, non-prefetchable)
	Expansion ROM at e7000000 [disabled]
	Capabilities: [dc] Power Management version 1
		Flags: PMEClk- AuxPwr- DSI- D1- D2- PME-
		Status: D0 PME-Enable- DSel=0 DScale=0 PME-
00: 04 90 95 78 07 00 90 02 04 00 00 01 00 40 80 00
10: 01 e8 00 00 00 00 00 e8 00 00 00 00 00 00 00 00
20: 00 00 00 00 00 00 00 00 00 00 00 00 04 90 95 78
30: 00 00 00 e7 dc 00 00 00 00 00 00 00 0f 01 08 08
00:0c.1 SCSI storage controller: Adaptec AHA-2940U/UW / AHA-39xx / AIC-7895 (rev 04)
	Subsystem: Adaptec: Unknown device 7895
	Control: I/O+ Mem+ BusMaster+ SpecCycle- MemWINV- VGASnoop- ParErr- Stepping- SERR- FastB2B-
	Status: Cap+ 66Mhz- UDF- FastB2B+ ParErr- DEVSEL=medium >TAbort- <TAbort- <MAbort- >SERR- <PERR-
	Latency: 8 min, 8 max, 64 set
	Interrupt: pin B routed to IRQ 16
	Region 0: I/O ports at ec00
	Region 1: Memory at e8002000 (32-bit, non-prefetchable)
	Capabilities: [dc] Power Management version 1
		Flags: PMEClk- AuxPwr- DSI- D1- D2- PME-
		Status: D0 PME-Enable- DSel=0 DScale=0 PME-
00: 04 90 95 78 07 00 90 02 04 00 00 01 00 40 80 00
10: 01 ec 00 00 00 20 00 e8 00 00 00 00 00 00 00 00
20: 00 00 00 00 00 00 00 00 00 00 00 00 04 90 95 78
30: 00 00 00 00 dc 00 00 00 00 00 00 00 0f 02 08 08
01:00.0 VGA compatible controller: nVidia Corporation: Unknown device 0100 (rev 10)
	Subsystem: Elsa AG: Unknown device 0100
	Control: I/O+ Mem+ BusMaster+ SpecCycle- MemWINV- VGASnoop+ ParErr- Stepping- SERR- FastB2B-
	Status: Cap+ 66Mhz+ UDF- FastB2B+ ParErr- DEVSEL=medium >TAbort- <TAbort- <MAbort- >SERR- <PERR-
	Latency: 5 min, 1 max, 64 set
	Interrupt: pin A routed to IRQ 16
	Region 0: Memory at e4000000 (32-bit, non-prefetchable)
	Region 1: Memory at d8000000 (32-bit, prefetchable)
	Expansion ROM at e5000000 [disabled]
	Capabilities: [60] Power Management version 1
		Flags: PMEClk- AuxPwr- DSI- D1- D2- PME-
		Status: D0 PME-Enable- DSel=0 DScale=0 PME-
	Capabilities: [44] AGP version 2.0
		Status: RQ=31 SBA+ 64bit- FW+ Rate=421
		Command: RQ=0 SBA- AGP- 64bit- FW- Rate=
00: de 10 00 01 27 00 b0 02 10 00 00 03 00 40 00 00
10: 00 00 00 e4 08 00 00 d8 00 00 00 00 00 00 00 00
20: 00 00 00 00 00 00 00 00 00 00 00 00 48 10 41 0c
30: 00 00 00 e5 60 00 00 00 00 00 00 00 0f 01 05 01
*************************************************
lspci-2.2.16 always working maching with agp-card:
00:00.0 Host bridge: Intel Corporation 440BX/ZX - 82443BX/ZX Host bridge (rev 03)
	Control: I/O- Mem+ BusMaster+ SpecCycle- MemWINV- VGASnoop- ParErr- Stepping- SERR- FastB2B-
	Status: Cap+ 66Mhz- UDF- FastB2B- ParErr- DEVSEL=medium >TAbort- <TAbort- <MAbort+ >SERR- <PERR-
	Latency: 64 set
	Region 0: Memory at e0000000 (32-bit, prefetchable)
	Capabilities: [a0] AGP version 1.0
		Status: RQ=31 SBA+ 64bit- FW- Rate=x1,x2
		Command: RQ=0 SBA- AGP- 64bit- FW- Rate=<none>
00: 86 80 90 71 06 00 10 22 03 00 00 06 00 40 00 00
10: 08 00 00 e0 00 00 00 00 00 00 00 00 00 00 00 00
20: 00 00 00 00 00 00 00 00 00 00 00 00 00 00 00 00
30: 00 00 00 00 a0 00 00 00 00 00 00 00 00 00 00 00
00:01.0 PCI bridge: Intel Corporation 440BX/ZX - 82443BX/ZX AGP bridge (rev 03) (prog-if 00 [Normal decode])
	Control: I/O+ Mem+ BusMaster+ SpecCycle- MemWINV- VGASnoop- ParErr- Stepping- SERR+ FastB2B-
	Status: Cap- 66Mhz+ UDF- FastB2B- ParErr- DEVSEL=medium >TAbort- <TAbort- <MAbort- >SERR- <PERR-
	Latency: 64 set
	Bus: primary=00, secondary=01, subordinate=01, sec-latency=64
	I/O behind bridge: 0000c000-0000cfff
	Memory behind bridge: e4000000-e7ffffff
	Prefetchable memory behind bridge: e8000000-e8ffffff
	BridgeCtl: Parity- SERR- NoISA- VGA+ MAbort- >Reset- FastB2B+
00: 86 80 91 71 07 01 20 02 03 00 04 06 00 40 01 00
10: 00 00 00 00 00 00 00 00 00 01 01 40 c0 c0 a0 22
20: 00 e4 f0 e7 00 e8 f0 e8 00 00 00 00 00 00 00 00
30: 00 00 00 00 00 00 00 00 00 00 00 00 00 00 88 00
00:07.0 ISA bridge: Intel Corporation 82371AB PIIX4 ISA (rev 02)
	Control: I/O+ Mem+ BusMaster+ SpecCycle+ MemWINV- VGASnoop- ParErr- Stepping- SERR- FastB2B-
	Status: Cap- 66Mhz- UDF- FastB2B+ ParErr- DEVSEL=medium >TAbort- <TAbort- <MAbort- >SERR- <PERR-
	Latency: 0 set
00: 86 80 10 71 0f 00 80 02 02 00 01 06 00 00 80 00
10: 00 00 00 00 00 00 00 00 00 00 00 00 00 00 00 00
20: 00 00 00 00 00 00 00 00 00 00 00 00 00 00 00 00
30: 00 00 00 00 00 00 00 00 00 00 00 00 00 00 00 00
00:07.1 IDE interface: Intel Corporation 82371AB PIIX4 IDE (rev 01) (prog-if 80 [Master])
	Control: I/O- Mem- BusMaster- SpecCycle- MemWINV- VGASnoop- ParErr- Stepping- SERR- FastB2B-
	Status: Cap- 66Mhz- UDF- FastB2B+ ParErr- DEVSEL=medium >TAbort- <TAbort- <MAbort- >SERR- <PERR-
	Region 4: I/O ports at f000 [disabled]
00: 86 80 11 71 00 00 80 02 01 80 01 01 00 40 00 00
10: 00 00 00 00 00 00 00 00 00 00 00 00 00 00 00 00
20: 01 f0 00 00 00 00 00 00 00 00 00 00 00 00 00 00
30: 00 00 00 00 00 00 00 00 00 00 00 00 00 00 00 00
00:07.2 USB Controller: Intel Corporation 82371AB PIIX4 USB (rev 01) (prog-if 00 [UHCI])
	Control: I/O+ Mem- BusMaster+ SpecCycle- MemWINV- VGASnoop- ParErr- Stepping- SERR- FastB2B-
	Status: Cap- 66Mhz- UDF- FastB2B+ ParErr- DEVSEL=medium >TAbort- <TAbort- <MAbort- >SERR- <PERR-
	Latency: 64 set
	Interrupt: pin D routed to IRQ 0
	Region 4: I/O ports at d000
00: 86 80 12 71 05 00 80 02 01 00 03 0c 00 40 00 00
10: 00 00 00 00 00 00 00 00 00 00 00 00 00 00 00 00
20: 01 d0 00 00 00 00 00 00 00 00 00 00 00 00 00 00
30: 00 00 00 00 00 00 00 00 00 00 00 00 ff 04 00 00
00:07.3 Bridge: Intel Corporation 82371AB PIIX4 ACPI (rev 02)
	Control: I/O+ Mem+ BusMaster- SpecCycle- MemWINV- VGASnoop- ParErr- Stepping- SERR- FastB2B-
	Status: Cap- 66Mhz- UDF- FastB2B+ ParErr- DEVSEL=medium >TAbort- <TAbort- <MAbort- >SERR- <PERR-
00: 86 80 13 71 03 00 80 02 02 00 80 06 00 00 00 00
10: 00 00 00 00 00 00 00 00 00 00 00 00 00 00 00 00
20: 00 00 00 00 00 00 00 00 00 00 00 00 00 00 00 00
30: 00 00 00 00 00 00 00 00 00 00 00 00 00 00 00 00
00:0a.0 Ethernet controller: 3Com Corporation 3c905B 100BaseTX [Cyclone] (rev 24)
	Subsystem: 3Com Corporation: Unknown device 9055
	Control: I/O+ Mem+ BusMaster+ SpecCycle- MemWINV- VGASnoop- ParErr- Stepping- SERR- FastB2B-
	Status: Cap+ 66Mhz- UDF- FastB2B- ParErr- DEVSEL=medium >TAbort- <TAbort- <MAbort- >SERR- <PERR-
	Latency: 10 min, 10 max, 64 set, cache line size 08
	Interrupt: pin A routed to IRQ 18
	Region 0: I/O ports at d400
	Region 1: Memory at eb002000 (32-bit, non-prefetchable)
	Expansion ROM at e9000000 [disabled]
	Capabilities: [dc] Power Management version 1
		Flags: PMEClk- AuxPwr- DSI- D1+ D2+ PME-
		Status: D0 PME-Enable- DSel=0 DScale=0 PME-
00: b7 10 55 90 07 00 10 02 24 00 00 02 08 40 00 00
10: 01 d4 00 00 00 20 00 eb 00 00 00 00 00 00 00 00
20: 00 00 00 00 00 00 00 00 00 00 00 00 b7 10 55 90
30: 00 00 00 e9 dc 00 00 00 00 00 00 00 0b 01 0a 0a
00:0b.0 SCSI storage controller: Symbios Logic Inc. (formerly NCR) 53c810 (rev 23)
	Subsystem: Symbios Logic Inc. (formerly NCR) 8100S
	Control: I/O+ Mem+ BusMaster+ SpecCycle- MemWINV- VGASnoop- ParErr- Stepping- SERR- FastB2B-
	Status: Cap+ 66Mhz- UDF- FastB2B- ParErr- DEVSEL=medium >TAbort- <TAbort- <MAbort- >SERR- <PERR-
	Latency: 8 min, 64 max, 64 set, cache line size 08
	Interrupt: pin A routed to IRQ 19
	Region 0: I/O ports at d800
	Region 1: Memory at eb000000 (32-bit, non-prefetchable)
	Capabilities: [40] Power Management version 1
		Flags: PMEClk- AuxPwr- DSI- D1- D2- PME-
		Status: D0 PME-Enable- DSel=0 DScale=0 PME-
00: 00 10 01 00 07 00 10 02 23 00 00 01 08 40 00 00
10: 01 d8 00 00 00 00 00 eb 00 00 00 00 00 00 00 00
20: 00 00 00 00 00 00 00 00 00 00 00 00 00 10 00 10
30: 00 00 00 00 40 00 00 00 00 00 00 00 0a 01 08 40
00:0c.0 SCSI storage controller: Adaptec AHA-2940U/UW / AHA-39xx / AIC-7895 (rev 04)
	Subsystem: Adaptec: Unknown device 7895
	Control: I/O+ Mem+ BusMaster+ SpecCycle- MemWINV- VGASnoop- ParErr- Stepping- SERR- FastB2B-
	Status: Cap+ 66Mhz- UDF- FastB2B+ ParErr- DEVSEL=medium >TAbort- <TAbort- <MAbort- >SERR- <PERR-
	Latency: 8 min, 8 max, 64 set, cache line size 08
	Interrupt: pin A routed to IRQ 16
	Region 0: I/O ports at dc00
	Region 1: Memory at eb001000 (32-bit, non-prefetchable)
	Expansion ROM at ea000000 [disabled]
	Capabilities: [dc] Power Management version 1
		Flags: PMEClk- AuxPwr- DSI- D1- D2- PME-
		Status: D0 PME-Enable- DSel=0 DScale=0 PME-
00: 04 90 95 78 07 00 90 02 04 00 00 01 08 40 80 00
10: 01 dc 00 00 00 10 00 eb 00 00 00 00 00 00 00 00
20: 00 00 00 00 00 00 00 00 00 00 00 00 04 90 95 78
30: 00 00 00 ea dc 00 00 00 00 00 00 00 0f 01 08 08
00:0c.1 SCSI storage controller: Adaptec AHA-2940U/UW / AHA-39xx / AIC-7895 (rev 04)
	Subsystem: Adaptec: Unknown device 7895
	Control: I/O+ Mem+ BusMaster+ SpecCycle- MemWINV- VGASnoop- ParErr- Stepping- SERR- FastB2B-
	Status: Cap+ 66Mhz- UDF- FastB2B+ ParErr- DEVSEL=medium >TAbort- <TAbort- <MAbort- >SERR- <PERR-
	Latency: 8 min, 8 max, 64 set, cache line size 08
	Interrupt: pin B routed to IRQ 16
	Region 0: I/O ports at e000
	Region 1: Memory at eb003000 (32-bit, non-prefetchable)
	Capabilities: [dc] Power Management version 1
		Flags: PMEClk- AuxPwr- DSI- D1- D2- PME-
		Status: D0 PME-Enable- DSel=0 DScale=0 PME-
00: 04 90 95 78 07 00 90 02 04 00 00 01 08 40 80 00
10: 01 e0 00 00 00 30 00 eb 00 00 00 00 00 00 00 00
20: 00 00 00 00 00 00 00 00 00 00 00 00 04 90 95 78
30: 00 00 00 00 dc 00 00 00 00 00 00 00 0f 02 08 08
01:00.0 VGA compatible controller: Matrox Graphics, Inc. MGA G200 AGP (rev 01) (prog-if 00 [VGA])
	Subsystem: Matrox Graphics, Inc. Millennium G200 AGP
	Control: I/O+ Mem+ BusMaster+ SpecCycle- MemWINV- VGASnoop- ParErr- Stepping- SERR- FastB2B-
	Status: Cap+ 66Mhz- UDF- FastB2B+ ParErr- DEVSEL=medium >TAbort- <TAbort- <MAbort- >SERR- <PERR-
	Latency: 16 min, 32 max, 64 set, cache line size 08
	Interrupt: pin A routed to IRQ 16
	Region 0: Memory at e8000000 (32-bit, prefetchable)
	Region 1: Memory at e4000000 (32-bit, non-prefetchable)
	Region 2: Memory at e5000000 (32-bit, non-prefetchable)
	Capabilities: [dc] Power Management version 1
		Flags: PMEClk- AuxPwr- DSI+ D1- D2- PME-
		Status: D0 PME-Enable- DSel=0 DScale=0 PME-
	Capabilities: [f0] AGP version 1.0
		Status: RQ=31 SBA+ 64bit- FW- Rate=x1,x2
		Command: RQ=31 SBA+ AGP+ 64bit- FW- Rate=x2
00: 2b 10 21 05 07 00 90 02 01 00 00 03 08 40 00 00
10: 08 00 00 e8 00 00 00 e4 00 00 00 e5 00 00 00 00
20: 00 00 00 00 00 00 00 00 00 00 00 00 2b 10 03 ff
30: 00 00 00 00 dc 00 00 00 00 00 00 00 0f 01 10 20
-
To unsubscribe from this list: send the line "unsubscribe linux-kernel" in
the body of a message to majordomo@vger.kernel.org
Please read the FAQ at 
http://www.tux.org/lkml/