Date: Mon, 21 Aug 2000 15:39:31 +0200 (MDT)
From: (Ulf Jaenicke-Roessler)
Subject: atyfb: unknown mach64...
Sender: linux-kernel-owner@vger.kernel.org
Precedence: bulk
List-ID: <linux-kernel.vger.kernel.org>
X-Mailing-List: linux-kernel@vger.kernel.org
X-Lkml-Link: https://lkml.org/lkml/2000/8/21/43

(Please Cc: me for replies, as I'm currently not subscribed. Thanks.)
Hi,
 with 2.4.0-test6 the ATI mach64 card in my computer at home is not
 recognized. insmod atyfb.o causes:
atyfb: Unknown mach64 0xffff
atyfb.o: init_module: Device not configured
 The output of lspci -xxxvv -s c.0 follows:
00:0c.0 VGA compatible controller: ATI Technologies Inc 210888GX [Mach64 GX] (rev 01) (prog-if 00 [VGA])
	Control: I/O+ Mem+ BusMaster- SpecCycle- MemWINV- VGASnoop- ParErr- Stepping+ SERR- FastB2B-
	Status: Cap- 66Mhz- UDF- FastB2B- ParErr- DEVSEL=medium >TAbort- <TAbort- <MAbort- >SERR- <PERR-
	Region 0: Memory at a0000000 (32-bit, non-prefetchable) [size=8M]
	Expansion ROM at fe000000 [disabled] [size=64K]
00: 02 10 58 47 83 00 00 02 01 00 00 03 00 00 00 00
10: 00 00 00 a0 00 00 00 00 00 00 00 00 00 00 00 00
20: 00 00 00 00 00 00 00 00 00 00 00 00 00 00 00 00
30: 00 00 00 fe 00 00 00 00 00 00 00 00 02 00 00 00
40: 00 00 00 00 00 00 00 00 00 00 00 00 00 00 00 00
50: 00 00 00 00 00 00 00 00 00 00 00 00 00 00 00 00
60: 00 00 00 00 00 00 00 00 00 00 00 00 00 00 00 00
70: 00 00 00 00 00 00 00 00 00 00 00 00 00 00 00 00
80: 00 00 00 00 00 00 00 00 00 00 00 00 00 00 00 00
90: 00 00 00 00 00 00 00 00 00 00 00 00 00 00 00 00
a0: 00 00 00 00 00 00 00 00 00 00 00 00 00 00 00 00
b0: 00 00 00 00 00 00 00 00 00 00 00 00 00 00 00 00
c0: 00 00 00 00 00 00 00 00 00 00 00 00 00 00 00 00
d0: 00 00 00 00 00 00 00 00 00 00 00 00 00 00 00 00
e0: 00 00 00 00 00 00 00 00 00 00 00 00 00 00 00 00
f0: 00 00 00 00 00 00 00 00 00 00 00 00 00 00 00 00
 Please ask if you need to know more.
 Best regards,
  Ulf
-
To unsubscribe from this list: send the line "unsubscribe linux-kernel" in
the body of a message to majordomo@vger.kernel.org
Please read the FAQ at 
http://www.tux.org/lkml/