Date: Mon, 12 Feb 2007 03:58:43 +0100
From: Markus Trippelsdorf <>
Subject: Re: [git patches] libata updates 1 of 3
Sender: linux-kernel-owner@vger.kernel.org
Precedence: bulk
List-ID: <linux-kernel.vger.kernel.org>
X-Mailing-List: linux-kernel@vger.kernel.org
X-Lkml-Link: https://lkml.org/lkml/2007/2/11/240

On Sun, Feb 11, 2007 at 05:08:17PM -0500, Tejun Heo wrote:
> Markus Trippelsdorf wrote:
> >This update breaks sata_via on my VIA K8T800Pro machine:
> > 
> > sata_via 0000:00:0f.0 : failed to iomap PCI BAR 0
> > sata_via 0000:00:0f.0 : out of memory
> > sata_via probe of 0000:00:0f.0 failed with error -12
> 
> Please post full dmesg and the result of 'lspci -nnvvvxxx'.
> 
I attach the output of both commands from the last working kernel.
Because my root directory lies on the sata drive I get a kernel panic
otherwise. I have no possibility to do remote debugging at the
moment.
-- 
Markus
00:00.0 Host bridge [0600]: VIA Technologies, Inc. K8T800Pro Host Bridge [1106:0282]
	Subsystem: ASUSTeK Computer Inc. A8V Deluxe [1043:80a3]
	Control: I/O- Mem+ BusMaster+ SpecCycle- MemWINV- VGASnoop- ParErr- Stepping- SERR+ FastB2B-
	Status: Cap+ 66MHz+ UDF- FastB2B- ParErr- DEVSEL=medium >TAbort- <TAbort- <MAbort+ >SERR- <PERR-
	Latency: 64
	Region 0: Memory at <ignored> (32-bit, prefetchable)
	Capabilities: [80] AGP version 3.0
		Status: RQ=32 Iso- ArqSz=0 Cal=2 SBA+ ITACoh- GART64- HTrans- 64bit- FW- AGP3+ Rate=x4,x8
		Command: RQ=1 ArqSz=0 Cal=0 SBA+ AGP+ GART64- 64bit- FW- Rate=x8
	Capabilities: [50] Power Management version 2
		Flags: PMEClk- DSI- D1- D2- AuxCurrent=0mA PME(D0-,D1-,D2-,D3hot-,D3cold-)
		Status: D0 PME-Enable- DSel=0 DScale=0 PME-
	Capabilities: [60] HyperTransport: Slave or Primary Interface
		!!! Possibly incomplete decoding
		Command: BaseUnitID=0 UnitCnt=3 MastHost- DefDir-
		Link Control 0: CFlE- CST- CFE- <LkFail- Init+ EOC- TXO- <CRCErr=0
		Link Config 0: MLWI=16bit MLWO=16bit LWI=16bit LWO=16bit
		Link Control 1: CFlE- CST- CFE- <LkFail+ Init- EOC+ TXO+ <CRCErr=0
		Link Config 1: MLWI=8bit MLWO=8bit LWI=8bit LWO=8bit
		Revision ID: 1.02
	Capabilities: [58] HyperTransport: Interrupt Discovery and Configuration
00: 06 11 82 02 06 01 30 22 00 00 00 06 00 40 80 00
10: 08 00 00 d8 00 00 00 00 00 00 00 00 00 00 00 00
20: 00 00 00 00 00 00 00 00 00 00 00 00 43 10 a3 80
30: 00 00 00 00 80 00 00 00 00 00 00 00 00 00 00 00
40: 7f 11 21 00 00 00 00 00 00 00 1f c4 00 04 00 01
50: 01 60 02 00 00 00 00 00 08 00 01 80 00 00 00 00
60: 08 58 60 00 20 00 11 11 d0 00 00 00 22 05 75 00
70: 02 00 00 00 00 00 00 00 00 00 00 00 08 00 00 00
80: 02 50 30 00 0b 0a 00 1f 02 03 00 00 28 00 00 00
90: 80 03 00 00 20 0f 01 00 00 00 00 00 00 00 00 00
a0: 00 00 00 00 00 00 00 00 00 00 00 00 00 00 00 00
b0: 00 00 00 00 00 00 00 00 00 40 00 00 06 08 00 88
c0: 51 00 00 00 00 00 00 00 00 00 00 00 00 00 00 00
d0: 00 00 00 00 00 00 00 00 00 00 00 00 00 00 00 00
e0: 00 00 00 00 00 00 00 00 00 00 00 00 00 00 00 00
f0: 00 00 00 00 00 00 00 00 00 00 00 00 00 00 00 00
00:00.1 Host bridge [0600]: VIA Technologies, Inc. K8T800Pro Host Bridge [1106:1282]
	Control: I/O- Mem+ BusMaster+ SpecCycle- MemWINV- VGASnoop- ParErr- Stepping- SERR- FastB2B-
	Status: Cap- 66MHz- UDF- FastB2B- ParErr- DEVSEL=medium >TAbort- <TAbort- <MAbort- >SERR- <PERR-
	Latency: 0
00: 06 11 82 12 06 00 00 02 00 00 00 06 00 00 00 00
10: 00 00 00 00 00 00 00 00 00 00 00 00 00 00 00 00
20: 00 00 00 00 00 00 00 00 00 00 00 00 00 00 00 00
30: 00 00 00 00 00 00 00 00 00 00 00 00 00 00 00 00
40: 00 00 00 00 00 00 00 00 00 00 00 00 00 00 00 00
50: 00 00 00 00 00 00 00 00 00 00 00 00 00 00 00 00
60: 00 00 00 00 00 00 00 00 00 00 00 00 00 00 00 00
70: 00 00 00 00 00 00 00 00 00 00 00 00 00 00 00 00
80: 00 00 00 00 00 00 00 00 00 00 00 00 00 00 00 00
90: 00 00 00 00 00 00 00 00 00 00 00 00 00 00 00 00
a0: 00 00 00 00 00 00 00 00 00 00 00 00 00 00 00 00
b0: 00 00 00 00 00 00 00 00 00 00 00 00 00 00 00 00
c0: 00 00 00 00 00 00 00 00 00 00 00 00 00 00 00 00
d0: 00 00 00 00 00 00 00 00 00 00 00 00 00 00 00 00
e0: 00 00 00 00 00 00 00 00 00 00 00 00 00 00 00 00
f0: 00 00 00 00 00 00 00 00 00 00 00 00 00 00 00 00
00:00.2 Host bridge [0600]: VIA Technologies, Inc. K8T800Pro Host Bridge [1106:2282]
	Control: I/O- Mem+ BusMaster+ SpecCycle- MemWINV- VGASnoop- ParErr- Stepping- SERR- FastB2B-
	Status: Cap- 66MHz- UDF- FastB2B- ParErr- DEVSEL=medium >TAbort- <TAbort- <MAbort- >SERR- <PERR-
	Latency: 0
00: 06 11 82 22 06 00 00 02 00 00 00 06 00 00 00 00
10: 00 00 00 00 00 00 00 00 00 00 00 00 00 00 00 00
20: 00 00 00 00 00 00 00 00 00 00 00 00 00 00 00 00
30: 00 00 00 00 00 00 00 00 00 00 00 00 00 00 00 00
40: 00 00 00 00 00 00 00 00 00 00 00 00 00 00 00 00
50: 00 00 00 00 00 00 00 00 00 00 00 00 00 00 00 00
60: 00 00 00 00 00 00 00 00 00 00 00 00 00 00 00 00
70: 00 00 00 00 00 00 00 00 00 00 00 00 00 00 00 00
80: 00 00 00 00 00 00 00 00 00 00 00 00 00 00 00 00
90: 00 00 00 00 00 00 00 00 00 00 00 00 00 00 00 00
a0: 13 87 20 31 30 2c 80 86 7f 8f 44 22 45 00 22 40
b0: 1f 13 00 00 03 00 00 00 00 00 00 00 00 00 00 00
c0: 20 00 00 00 50 50 00 00 00 00 00 00 00 00 00 00
d0: 00 00 00 00 00 00 00 00 00 00 00 00 00 00 00 00
e0: 00 00 00 00 00 00 00 00 00 00 00 00 00 00 00 00
f0: 00 00 00 00 00 00 00 00 00 00 00 00 00 00 00 00
00:00.3 Host bridge [0600]: VIA Technologies, Inc. K8T800Pro Host Bridge [1106:3282]
	Control: I/O- Mem+ BusMaster+ SpecCycle- MemWINV- VGASnoop- ParErr- Stepping- SERR- FastB2B-
	Status: Cap- 66MHz- UDF- FastB2B- ParErr- DEVSEL=medium >TAbort- <TAbort- <MAbort- >SERR- <PERR-
	Latency: 0
00: 06 11 82 32 06 00 00 02 00 00 00 06 00 00 00 00
10: 00 00 00 00 00 00 00 00 00 00 00 00 00 00 00 00
20: 00 00 00 00 00 00 00 00 00 00 00 00 00 00 00 00
30: 00 00 00 00 00 00 00 00 00 00 00 00 00 00 00 00
40: 00 00 00 00 00 00 00 80 00 00 00 00 00 00 00 00
50: 22 22 00 00 00 00 e4 00 00 00 00 00 00 00 00 00
60: 00 00 00 00 00 00 00 00 00 00 00 10 00 00 00 00
70: 00 00 00 00 00 00 00 00 00 00 00 00 00 00 00 00
80: 00 00 c0 00 00 ff 19 00 00 00 00 00 00 00 00 00
90: 00 00 00 00 00 00 00 00 00 00 00 00 00 00 00 00
a0: 00 00 00 00 00 20 00 00 00 00 00 00 00 00 00 00
b0: 00 00 00 00 00 00 00 00 00 00 00 00 00 00 00 00
c0: 00 00 00 00 00 00 00 00 00 00 00 00 00 00 00 00
d0: 00 00 00 00 00 00 00 00 00 00 00 00 00 00 00 00
e0: 00 00 00 00 00 00 00 00 00 00 00 00 00 00 00 00
f0: 00 00 00 00 00 00 00 00 00 00 00 00 00 00 00 00
00:00.4 Host bridge [0600]: VIA Technologies, Inc. K8T800Pro Host Bridge [1106:4282]
	Control: I/O- Mem+ BusMaster+ SpecCycle- MemWINV- VGASnoop- ParErr- Stepping- SERR- FastB2B-
	Status: Cap- 66MHz- UDF- FastB2B- ParErr- DEVSEL=medium >TAbort- <TAbort- <MAbort- >SERR- <PERR-
	Latency: 0
00: 06 11 82 42 06 00 00 02 00 00 00 06 00 00 00 00
10: 00 00 00 00 00 00 00 00 00 00 00 00 00 00 00 00
20: 00 00 00 00 00 00 00 00 00 00 00 00 00 00 00 00
30: 00 00 00 00 00 00 00 00 00 00 00 00 00 00 00 00
40: 00 00 00 00 00 00 00 00 00 00 00 00 00 00 00 00
50: 00 00 00 00 00 00 00 00 00 00 00 00 00 00 00 00
60: 00 00 00 00 00 00 00 00 00 00 00 00 00 00 00 00
70: 00 00 00 00 00 00 00 00 00 00 00 00 00 00 00 00
80: 00 00 00 00 00 00 00 00 00 00 00 00 00 00 00 00
90: 00 00 00 00 00 00 00 00 00 00 00 00 00 00 00 00
a0: 80 00 ff 00 00 00 00 00 00 00 00 00 00 00 00 00
b0: 00 00 00 00 00 00 00 00 00 00 00 00 00 00 00 00
c0: 00 00 00 00 00 00 00 00 00 00 00 00 00 00 00 00
d0: 00 00 00 00 00 00 00 00 00 00 00 00 00 00 00 00
e0: 00 00 00 00 00 00 00 00 00 00 00 00 00 00 00 00
f0: 00 00 00 00 00 00 00 00 00 00 00 00 00 00 00 00
00:00.7 Host bridge [0600]: VIA Technologies, Inc. K8T800Pro Host Bridge [1106:7282]
	Control: I/O- Mem+ BusMaster+ SpecCycle- MemWINV- VGASnoop- ParErr- Stepping- SERR- FastB2B-
	Status: Cap- 66MHz- UDF- FastB2B- ParErr- DEVSEL=medium >TAbort- <TAbort- <MAbort- >SERR- <PERR-
	Latency: 0
00: 06 11 82 72 06 00 00 02 00 00 00 06 00 00 00 00
10: 00 00 00 00 00 00 00 00 00 00 00 00 00 00 00 00
20: 00 00 00 00 00 00 00 00 00 00 00 00 00 00 00 00
30: 00 00 00 00 a0 00 00 00 00 00 00 00 00 00 00 00
40: 00 19 88 80 82 44 00 22 1b 39 88 80 82 44 00 00
50: 00 00 00 00 00 00 01 80 08 00 01 80 00 00 00 00
60: 00 00 00 c0 00 00 00 00 00 00 00 00 00 00 00 00
70: c0 c8 ee 01 24 07 50 00 01 00 00 00 7f 00 00 0a
80: 00 00 00 00 00 00 00 00 00 00 00 00 00 00 00 00
90: 00 00 00 00 00 00 00 00 00 00 00 00 00 00 00 00
a0: 00 00 00 00 00 00 00 00 00 00 00 00 00 00 00 00
b0: 05 00 00 f2 25 46 46 02 89 a4 aa 01 00 00 00 00
c0: 01 00 02 00 00 00 00 00 00 00 00 00 00 00 00 00
d0: 00 00 00 00 00 00 00 00 00 00 00 00 00 00 00 00
e0: 00 00 00 00 00 00 19 00 00 00 00 00 00 00 00 00
f0: 00 00 00 00 00 00 00 00 00 00 00 00 00 00 00 00
00:01.0 PCI bridge [0604]: VIA Technologies, Inc. VT8237 PCI bridge [K8T800/K8T890 South] [1106:b188] (prog-if 00 [Normal decode])
	Control: I/O+ Mem+ BusMaster+ SpecCycle- MemWINV- VGASnoop- ParErr- Stepping- SERR+ FastB2B-
	Status: Cap+ 66MHz+ UDF- FastB2B- ParErr- DEVSEL=medium >TAbort- <TAbort- <MAbort- >SERR- <PERR-
	Latency: 0
	Bus: primary=00, secondary=01, subordinate=01, sec-latency=0
	I/O behind bridge: 0000e000-0000efff
	Memory behind bridge: fbd00000-fbffffff
	Prefetchable memory behind bridge: e8000000-faffffff
	Secondary status: 66MHz+ FastB2B- ParErr- DEVSEL=medium >TAbort- <TAbort- <MAbort- <SERR- <PERR-
	BridgeCtl: Parity- SERR+ NoISA- VGA+ MAbort- >Reset- FastB2B-
	Capabilities: [80] Power Management version 2
		Flags: PMEClk- DSI- D1+ D2- AuxCurrent=0mA PME(D0-,D1-,D2-,D3hot-,D3cold-)
		Status: D0 PME-Enable- DSel=0 DScale=0 PME-
00: 06 11 88 b1 07 01 30 02 00 00 04 06 00 00 01 00
10: 00 00 00 00 00 00 00 00 00 01 01 00 e0 e0 20 02
20: d0 fb f0 fb 00 e8 f0 fa 00 00 00 00 00 00 00 00
30: 00 00 00 00 80 00 00 00 00 00 00 00 00 00 0a 00
40: 91 40 80 44 35 3a 88 b1 00 00 00 00 00 00 00 00
50: 00 00 00 00 00 00 00 00 00 00 00 00 00 00 00 00
60: 00 00 00 00 00 00 00 00 00 00 00 00 00 00 00 00
70: 00 00 00 00 00 00 00 00 00 00 00 00 00 00 00 00
80: 01 00 02 02 00 00 00 00 00 00 00 00 00 00 00 00
90: 00 00 00 00 00 00 00 00 00 00 00 00 00 00 00 00
a0: 00 00 00 00 00 00 00 00 00 00 00 00 00 00 00 00
b0: 00 00 00 00 00 00 00 00 00 00 00 00 00 00 00 00
c0: 00 00 00 00 00 00 00 00 00 00 00 00 00 00 00 00
d0: 00 00 00 00 00 00 00 00 00 00 00 00 00 00 00 00
e0: 00 00 00 00 00 00 00 00 00 00 00 00 00 00 00 00
f0: 00 00 00 00 00 00 00 00 00 00 00 00 00 00 00 00
00:0c.0 Multimedia video controller [0400]: Brooktree Corporation Bt878 Video Capture [109e:036e] (rev 11)
	Subsystem: Pinnacle Systems Inc. PCTV pro (TV + FM stereo receiver) [11bd:0012]
	Control: I/O- Mem+ BusMaster+ SpecCycle- MemWINV- VGASnoop- ParErr- Stepping- SERR+ FastB2B-
	Status: Cap+ 66MHz- UDF- FastB2B+ ParErr- DEVSEL=medium >TAbort- <TAbort- <MAbort- >SERR- <PERR-
	Latency: 64 (4000ns min, 10000ns max)
	Interrupt: pin A routed to IRQ 17
	Region 0: Memory at e7e00000 (32-bit, prefetchable) [size=4K]
	Capabilities: [44] Vital Product Data
	Capabilities: [4c] Power Management version 2
		Flags: PMEClk- DSI+ D1- D2- AuxCurrent=0mA PME(D0-,D1-,D2-,D3hot-,D3cold-)
		Status: D0 PME-Enable- DSel=0 DScale=0 PME-
00: 9e 10 6e 03 06 01 90 02 11 00 00 04 00 40 80 00
10: 08 00 e0 e7 00 00 00 00 00 00 00 00 00 00 00 00
20: 00 00 00 00 00 00 00 00 00 00 00 00 bd 11 12 00
30: 00 00 00 00 44 00 00 00 00 00 00 00 0a 01 10 28
40: 00 00 00 00 03 4c 00 00 00 00 00 00 01 00 22 00
50: 00 00 00 00 00 00 00 00 00 00 00 00 00 00 00 00
60: 00 00 00 00 00 00 00 00 00 00 00 00 00 00 00 00
70: 00 00 00 00 00 00 00 00 00 00 00 00 00 00 00 00
80: 00 00 00 00 00 00 00 00 00 00 00 00 00 00 00 00
90: 00 00 00 00 00 00 00 00 00 00 00 00 00 00 00 00
a0: 00 00 00 00 00 00 00 00 00 00 00 00 00 00 00 00
b0: 00 00 00 00 00 00 00 00 00 00 00 00 00 00 00 00
c0: 00 00 00 00 00 00 00 00 00 00 00 00 00 00 00 00
d0: 00 00 00 00 00 00 00 00 00 00 00 00 00 00 00 00
e0: 00 00 00 00 00 00 00 00 00 00 00 00 00 00 00 00
f0: 00 00 00 00 00 00 00 00 00 00 00 00 00 00 00 00
00:0c.1 Multimedia controller [0480]: Brooktree Corporation Bt878 Audio Capture [109e:0878] (rev 11)
	Subsystem: Pinnacle Systems Inc. PCTV pro (TV + FM stereo receiver, audio section) [11bd:0012]
	Control: I/O- Mem+ BusMaster+ SpecCycle- MemWINV- VGASnoop- ParErr- Stepping- SERR+ FastB2B-
	Status: Cap+ 66MHz- UDF- FastB2B+ ParErr- DEVSEL=medium >TAbort- <TAbort- <MAbort- >SERR- <PERR-
	Latency: 64 (1000ns min, 63750ns max)
	Interrupt: pin A routed to IRQ 10
	Region 0: Memory at e7f00000 (32-bit, prefetchable) [size=4K]
	Capabilities: [44] Vital Product Data
	Capabilities: [4c] Power Management version 2
		Flags: PMEClk- DSI+ D1- D2- AuxCurrent=0mA PME(D0-,D1-,D2-,D3hot-,D3cold-)
		Status: D0 PME-Enable- DSel=0 DScale=0 PME-
00: 9e 10 78 08 06 01 90 02 11 00 80 04 00 40 80 00
10: 08 00 f0 e7 00 00 00 00 00 00 00 00 00 00 00 00
20: 00 00 00 00 00 00 00 00 00 00 00 00 bd 11 12 00
30: 00 00 00 00 44 00 00 00 00 00 00 00 0a 01 04 ff
40: 00 00 00 00 03 4c 00 00 00 00 00 00 01 00 22 00
50: 00 00 00 00 00 00 00 00 00 00 00 00 00 00 00 00
60: 00 00 00 00 00 00 00 00 00 00 00 00 00 00 00 00
70: 00 00 00 00 00 00 00 00 00 00 00 00 00 00 00 00
80: 00 00 00 00 00 00 00 00 00 00 00 00 00 00 00 00
90: 00 00 00 00 00 00 00 00 00 00 00 00 00 00 00 00
a0: 00 00 00 00 00 00 00 00 00 00 00 00 00 00 00 00
b0: 00 00 00 00 00 00 00 00 00 00 00 00 00 00 00 00
c0: 00 00 00 00 00 00 00 00 00 00 00 00 00 00 00 00
d0: 00 00 00 00 00 00 00 00 00 00 00 00 00 00 00 00
e0: 00 00 00 00 00 00 00 00 00 00 00 00 00 00 00 00
f0: 00 00 00 00 00 00 00 00 00 00 00 00 00 00 00 00
00:0e.0 Ethernet controller [0200]: Realtek Semiconductor Co., Ltd. RTL-8169 Gigabit Ethernet [10ec:8169] (rev 10)
	Subsystem: Realtek Semiconductor Co., Ltd. RTL-8169 Gigabit Ethernet [10ec:8169]
	Control: I/O+ Mem+ BusMaster+ SpecCycle- MemWINV+ VGASnoop- ParErr- Stepping- SERR+ FastB2B-
	Status: Cap+ 66MHz+ UDF- FastB2B+ ParErr- DEVSEL=medium >TAbort- <TAbort- <MAbort- >SERR- <PERR-
	Latency: 64 (8000ns min, 16000ns max), Cache Line Size: 64 bytes
	Interrupt: pin A routed to IRQ 19
	Region 0: I/O ports at a800 [size=256]
	Region 1: Memory at fba00000 (32-bit, non-prefetchable) [size=256]
	Expansion ROM at fb900000 [disabled] [size=128K]
	Capabilities: [dc] Power Management version 2
		Flags: PMEClk- DSI- D1+ D2+ AuxCurrent=375mA PME(D0-,D1+,D2+,D3hot+,D3cold+)
		Status: D0 PME-Enable- DSel=0 DScale=0 PME-
00: ec 10 69 81 17 01 b0 02 10 00 00 02 10 40 00 00
10: 01 a8 00 00 00 00 a0 fb 00 00 00 00 00 00 00 00
20: 00 00 00 00 00 00 00 00 00 00 00 00 ec 10 69 81
30: 00 00 90 fb dc 00 00 00 00 00 00 00 03 01 20 40
40: 00 00 00 00 00 00 00 00 00 00 00 00 00 00 00 00
50: 00 00 00 00 00 00 00 00 00 00 00 00 00 00 00 00
60: 00 00 00 00 00 00 00 00 00 00 00 00 00 00 00 00
70: 00 00 00 00 00 00 00 00 00 00 00 00 00 00 00 00
80: 00 00 00 00 00 00 00 00 00 00 00 00 00 00 00 00
90: 00 00 00 00 00 00 00 00 00 00 00 00 00 00 00 00
a0: 00 00 00 00 00 00 00 00 00 00 00 00 00 00 00 00
b0: 00 00 00 00 00 00 00 00 00 00 00 00 00 00 00 00
c0: 00 00 00 00 00 00 00 00 00 00 00 00 00 00 00 00
d0: 00 00 00 00 00 00 00 00 00 00 00 00 01 00 c2 f7
e0: 00 00 00 00 00 00 00 00 00 00 00 00 00 00 00 00
f0: 00 00 00 00 00 00 00 00 00 00 00 00 00 00 00 00
00:0f.0 RAID bus controller [0104]: VIA Technologies, Inc. VIA VT6420 SATA RAID Controller [1106:3149] (rev 80)
	Subsystem: ASUSTeK Computer Inc. A7V600/K8V Deluxe/K8V-X/A8V Deluxe motherboard [1043:80ed]
	Control: I/O+ Mem+ BusMaster+ SpecCycle- MemWINV- VGASnoop- ParErr- Stepping- SERR- FastB2B-
	Status: Cap+ 66MHz- UDF- FastB2B+ ParErr- DEVSEL=medium >TAbort- <TAbort- <MAbort- >SERR- <PERR-
	Latency: 64
	Interrupt: pin B routed to IRQ 20
	Region 0: I/O ports at c800 [size=8]
	Region 1: I/O ports at c400 [size=4]
	Region 2: I/O ports at c000 [size=8]
	Region 3: I/O ports at b800 [size=4]
	Region 4: I/O ports at b400 [size=16]
	Region 5: I/O ports at b000 [size=256]
	Capabilities: [c0] Power Management version 2
		Flags: PMEClk- DSI- D1- D2- AuxCurrent=0mA PME(D0-,D1-,D2-,D3hot-,D3cold-)
		Status: D0 PME-Enable- DSel=0 DScale=0 PME-
00: 06 11 49 31 07 00 90 02 80 00 04 01 00 40 80 00
10: 01 c8 00 00 01 c4 00 00 01 c0 00 00 01 b8 00 00
20: 01 b4 00 00 01 b0 00 00 00 00 00 00 43 10 ed 80
30: 00 00 00 00 c0 00 00 00 00 00 00 00 0a 02 00 00
40: 33 03 f1 44 06 af 00 00 10 82 65 03 00 00 00 00
50: 00 00 00 00 00 00 04 04 00 10 10 00 05 00 10 00
60: 01 00 00 00 00 00 00 00 00 00 00 00 00 00 00 00
70: 00 00 00 00 00 00 00 00 01 00 01 10 10 00 00 00
80: 00 00 00 00 00 00 00 00 00 e0 73 7f 00 00 00 00
90: 00 00 00 00 00 00 00 00 00 00 00 00 00 00 00 00
a0: 00 00 00 00 00 00 00 00 00 00 00 00 00 00 00 00
b0: 00 00 00 00 00 00 00 00 00 00 00 00 00 00 00 00
c0: 01 00 02 00 00 00 00 00 00 00 00 00 00 00 00 00
d0: 80 02 49 31 43 10 ed 80 00 00 00 00 00 00 00 00
e0: 00 00 00 00 00 00 00 00 00 00 00 00 00 00 00 00
f0: 00 00 00 00 00 00 00 00 00 00 00 00 00 00 00 00
00:0f.1 IDE interface [0101]: VIA Technologies, Inc. VT82C586A/B/VT82C686/A/B/VT823x/A/C PIPC Bus Master IDE [1106:0571] (rev 06) (prog-if 8a [Master SecP PriP])
	Subsystem: ASUSTeK Computer Inc. A7V600/K8V-X/A8V Deluxe motherboard [1043:80ed]
	Control: I/O+ Mem+ BusMaster+ SpecCycle- MemWINV- VGASnoop- ParErr- Stepping- SERR- FastB2B-
	Status: Cap+ 66MHz- UDF- FastB2B+ ParErr- DEVSEL=medium >TAbort- <TAbort- <MAbort- >SERR- <PERR-
	Latency: 32
	Interrupt: pin A routed to IRQ 20
	Region 0: [virtual] Memory at 000001f0 (32-bit, non-prefetchable) [size=8]
	Region 1: [virtual] Memory at 000003f0 (type 3, non-prefetchable) [size=1]
	Region 2: [virtual] Memory at 00000170 (32-bit, non-prefetchable) [size=8]
	Region 3: [virtual] Memory at 00000370 (type 3, non-prefetchable) [size=1]
	Region 4: I/O ports at fc00 [size=16]
	Capabilities: [c0] Power Management version 2
		Flags: PMEClk- DSI- D1- D2- AuxCurrent=0mA PME(D0-,D1-,D2-,D3hot-,D3cold-)
		Status: D0 PME-Enable- DSel=0 DScale=0 PME-
00: 06 11 71 05 07 00 90 02 06 8a 01 01 00 20 00 00
10: 00 00 00 00 00 00 00 00 00 00 00 00 00 00 00 00
20: 01 fc 00 00 00 00 00 00 00 00 00 00 43 10 ed 80
30: 00 00 00 00 c0 00 00 00 00 00 00 00 ff 01 00 00
40: 3b f2 09 05 18 8c c0 00 a8 20 a8 a8 ff 00 20 b6
50: 17 e2 07 07 0c 00 00 00 a8 a8 a8 a8 00 00 00 00
60: 00 02 00 00 00 00 00 00 00 02 00 00 00 00 00 00
70: 82 01 00 00 00 00 00 00 02 01 00 00 00 00 00 00
80: 00 00 00 00 00 00 00 00 00 40 74 7f 00 00 00 00
90: 00 00 00 00 00 00 00 00 00 00 00 00 00 00 00 00
a0: 00 00 00 00 00 00 00 00 00 00 00 00 00 00 00 00
b0: 00 00 00 00 00 00 00 00 00 00 00 00 00 00 00 00
c0: 01 00 02 00 00 00 00 00 00 00 00 00 00 00 00 00
d0: 06 00 71 05 43 10 ed 80 00 00 00 00 00 00 00 00
e0: 00 00 00 00 00 00 00 00 00 00 00 00 00 00 00 00
f0: 00 00 00 00 00 00 09 00 00 00 00 00 00 00 00 00
00:10.0 USB Controller [0c03]: VIA Technologies, Inc. VT82xxxxx UHCI USB 1.1 Controller [1106:3038] (rev 81) (prog-if 00 [UHCI])
	Subsystem: ASUSTeK Computer Inc. A7V600/K8V-X/A8V Deluxe motherboard [1043:80ed]
	Control: I/O+ Mem+ BusMaster+ SpecCycle- MemWINV+ VGASnoop- ParErr- Stepping- SERR- FastB2B-
	Status: Cap+ 66MHz- UDF- FastB2B- ParErr- DEVSEL=medium >TAbort- <TAbort- <MAbort- >SERR- <PERR-
	Latency: 64, Cache Line Size: 64 bytes
	Interrupt: pin A routed to IRQ 21
	Region 4: I/O ports at d000 [size=32]
	Capabilities: [80] Power Management version 2
		Flags: PMEClk- DSI- D1+ D2+ AuxCurrent=375mA PME(D0+,D1+,D2+,D3hot+,D3cold+)
		Status: D0 PME-Enable- DSel=0 DScale=0 PME-
00: 06 11 38 30 17 00 10 02 81 00 03 0c 10 40 80 00
10: 00 00 00 00 00 00 00 00 00 00 00 00 00 00 00 00
20: 01 d0 00 00 00 00 00 00 00 00 00 00 43 10 ed 80
30: 00 00 00 00 80 00 00 00 00 00 00 00 0b 01 00 00
40: 40 12 03 00 00 00 00 00 a0 0b a0 00 00 00 00 00
50: 00 00 00 00 00 00 00 00 00 00 00 00 00 00 00 00
60: 10 00 00 00 00 00 00 00 00 00 00 00 00 00 00 00
70: 00 00 00 00 00 00 00 00 00 00 00 00 00 00 00 00
80: 01 00 c2 ff 00 00 00 00 00 00 00 00 00 00 00 00
90: 00 00 00 00 00 00 00 00 00 00 00 00 00 00 00 00
a0: 00 00 00 00 00 00 00 00 00 00 00 00 00 00 00 00
b0: 00 00 00 00 00 00 00 00 00 00 00 00 00 00 00 00
c0: 00 20 00 00 00 00 00 00 00 00 00 00 00 00 00 00
d0: 00 00 00 00 00 00 00 00 00 00 00 00 00 00 00 00
e0: 00 00 00 00 00 00 00 00 00 00 00 00 00 00 00 00
f0: 00 00 00 00 00 00 00 03 00 00 00 00 00 00 00 00
00:10.1 USB Controller [0c03]: VIA Technologies, Inc. VT82xxxxx UHCI USB 1.1 Controller [1106:3038] (rev 81) (prog-if 00 [UHCI])
	Subsystem: ASUSTeK Computer Inc. A7V600/K8V-X/A8V Deluxe motherboard [1043:80ed]
	Control: I/O+ Mem+ BusMaster+ SpecCycle- MemWINV+ VGASnoop- ParErr- Stepping- SERR- FastB2B-
	Status: Cap+ 66MHz- UDF- FastB2B- ParErr- DEVSEL=medium >TAbort- <TAbort- <MAbort- >SERR- <PERR-
	Latency: 64, Cache Line Size: 64 bytes
	Interrupt: pin A routed to IRQ 21
	Region 4: I/O ports at d400 [size=32]
	Capabilities: [80] Power Management version 2
		Flags: PMEClk- DSI- D1+ D2+ AuxCurrent=375mA PME(D0+,D1+,D2+,D3hot+,D3cold+)
		Status: D0 PME-Enable- DSel=0 DScale=0 PME-
00: 06 11 38 30 17 00 10 02 81 00 03 0c 10 40 80 00
10: 00 00 00 00 00 00 00 00 00 00 00 00 00 00 00 00
20: 01 d4 00 00 00 00 00 00 00 00 00 00 43 10 ed 80
30: 00 00 00 00 80 00 00 00 00 00 00 00 0b 01 00 00
40: 40 12 03 00 00 00 00 00 a0 0b a0 00 00 00 00 00
50: 00 00 00 00 00 00 00 00 00 00 00 00 00 00 00 00
60: 10 00 00 00 00 00 00 00 00 00 00 00 00 00 00 00
70: 00 00 00 00 00 00 00 00 00 00 00 00 00 00 00 00
80: 01 00 c2 ff 00 00 00 00 00 00 00 00 00 00 00 00
90: 00 00 00 00 00 00 00 00 00 00 00 00 00 00 00 00
a0: 00 00 00 00 00 00 00 00 00 00 00 00 00 00 00 00
b0: 00 00 00 00 00 00 00 00 00 00 00 00 00 00 00 00
c0: 00 20 00 00 00 00 00 00 00 00 00 00 00 00 00 00
d0: 00 00 00 00 00 00 00 00 00 00 00 00 00 00 00 00
e0: 00 00 00 00 00 00 00 00 00 00 00 00 00 00 00 00
f0: 00 00 00 00 00 00 00 03 00 00 00 00 00 00 00 00
00:10.4 USB Controller [0c03]: VIA Technologies, Inc. USB 2.0 [1106:3104] (rev 86) (prog-if 20 [EHCI])
	Subsystem: ASUSTeK Computer Inc. A7V600/K8V-X/A8V Deluxe motherboard [1043:80ed]
	Control: I/O+ Mem+ BusMaster+ SpecCycle- MemWINV+ VGASnoop- ParErr- Stepping- SERR- FastB2B-
	Status: Cap+ 66MHz- UDF- FastB2B- ParErr- DEVSEL=medium >TAbort- <TAbort- <MAbort- >SERR- <PERR-
	Latency: 64, Cache Line Size: 64 bytes
	Interrupt: pin C routed to IRQ 21
	Region 0: Memory at fbc00000 (32-bit, non-prefetchable) [size=256]
	Capabilities: [80] Power Management version 2
		Flags: PMEClk- DSI- D1+ D2+ AuxCurrent=375mA PME(D0+,D1+,D2+,D3hot+,D3cold+)
		Status: D0 PME-Enable- DSel=0 DScale=0 PME-
00: 06 11 04 31 17 00 10 02 86 20 03 0c 10 40 80 00
10: 00 00 c0 fb 00 00 00 00 00 00 00 00 00 00 00 00
20: 00 00 00 00 00 00 00 00 00 00 00 00 43 10 ed 80
30: 00 00 00 00 80 00 00 00 00 00 00 00 05 03 00 00
40: 00 00 03 00 00 00 00 00 80 10 00 09 00 00 00 00
50: 00 5a 00 80 00 00 00 00 04 0b 88 88 33 88 88 00
60: 20 20 01 00 00 00 00 00 01 00 00 01 00 00 08 00
70: 00 00 00 00 00 00 00 00 00 00 00 00 00 00 00 00
80: 01 00 c2 ff 00 00 00 00 00 00 00 00 00 00 00 00
90: 00 00 00 00 00 00 00 00 00 00 00 00 00 00 00 00
a0: 00 00 00 00 00 00 00 00 00 00 00 00 00 00 00 00
b0: 00 00 00 00 00 00 00 00 00 00 00 00 00 00 00 00
c0: 00 00 00 00 00 00 00 00 00 00 00 00 00 00 00 00
d0: 00 00 00 00 00 00 00 00 00 00 00 00 00 00 00 00
e0: 00 00 00 00 00 00 00 00 00 00 00 00 00 00 00 00
f0: 00 00 00 00 00 00 88 00 00 00 00 00 00 00 00 00
00:11.0 ISA bridge [0601]: VIA Technologies, Inc. VT8237 ISA bridge [KT600/K8T800/K8T890 South] [1106:3227]
	Subsystem: ASUSTeK Computer Inc. A7V600/K8V-X/A8V Deluxe motherboard [1043:80ed]
	Control: I/O+ Mem+ BusMaster+ SpecCycle- MemWINV- VGASnoop- ParErr- Stepping+ SERR- FastB2B-
	Status: Cap+ 66MHz- UDF- FastB2B- ParErr- DEVSEL=medium >TAbort- <TAbort- <MAbort- >SERR- <PERR-
	Latency: 0
	Capabilities: [c0] Power Management version 2
		Flags: PMEClk- DSI- D1- D2- AuxCurrent=0mA PME(D0-,D1-,D2-,D3hot-,D3cold-)
		Status: D0 PME-Enable- DSel=0 DScale=0 PME-
00: 06 11 27 32 87 00 10 02 00 00 01 06 00 00 80 00
10: 00 00 00 00 00 00 00 00 00 00 00 00 00 00 00 00
20: 00 00 00 00 00 00 00 00 00 00 00 00 43 10 ed 80
30: 00 00 00 00 c0 00 00 00 00 00 00 00 00 00 00 00
40: 44 00 f8 00 00 00 00 00 0c 20 00 00 44 00 08 08
50: 05 8d 09 00 00 00 00 00 43 80 00 09 00 00 04 08
60: 00 00 00 00 10 00 02 04 00 00 00 00 00 00 00 00
70: 43 10 ed 80 00 00 00 00 00 00 00 00 20 00 00 00
80: 20 84 49 00 02 00 00 00 01 08 00 00 00 18 00 00
90: 00 00 b3 00 b0 c1 07 00 10 1f 00 00 00 00 00 00
a0: 00 00 00 00 00 00 00 00 00 00 00 00 00 00 00 00
b0: 00 00 00 00 00 00 00 00 00 00 00 00 00 00 00 00
c0: 01 00 02 00 00 00 00 00 00 00 00 00 00 00 00 00
d0: 01 04 01 00 00 00 00 00 00 00 00 00 00 00 00 00
e0: 00 00 00 00 55 09 00 00 00 00 00 00 00 00 00 00
f0: 00 00 00 00 00 00 05 00 00 00 00 00 00 00 00 00
00:11.5 Multimedia audio controller [0401]: VIA Technologies, Inc. VT8233/A/8235/8237 AC97 Audio Controller [1106:3059] (rev 60)
	Subsystem: ASUSTeK Computer Inc. A8V Deluxe motherboard (Realtek ALC850 codec) [1043:812a]
	Control: I/O+ Mem- BusMaster- SpecCycle- MemWINV- VGASnoop- ParErr- Stepping- SERR- FastB2B-
	Status: Cap+ 66MHz- UDF- FastB2B- ParErr- DEVSEL=medium >TAbort- <TAbort- <MAbort- >SERR- <PERR-
	Interrupt: pin C routed to IRQ 22
	Region 0: I/O ports at d800 [size=256]
	Capabilities: [c0] Power Management version 2
		Flags: PMEClk- DSI- D1+ D2+ AuxCurrent=0mA PME(D0-,D1-,D2-,D3hot-,D3cold-)
		Status: D0 PME-Enable- DSel=0 DScale=0 PME-
00: 06 11 59 30 01 00 10 02 60 00 01 04 00 00 00 00
10: 01 d8 00 00 00 00 00 00 00 00 00 00 00 00 00 00
20: 00 00 00 00 00 00 00 00 00 00 00 00 43 10 2a 81
30: 00 00 00 00 c0 00 00 00 00 00 00 00 05 03 00 00
40: 01 cc 00 00 50 00 00 00 00 00 00 00 00 00 00 00
50: 00 00 00 00 00 00 00 00 00 00 00 00 00 00 00 00
60: 00 00 00 00 00 00 00 00 00 00 00 00 00 00 00 00
70: 00 00 00 00 00 00 00 00 00 00 00 00 00 00 00 00
80: 00 00 00 00 00 00 00 00 00 00 00 00 00 00 00 00
90: 00 00 00 00 00 00 00 00 00 00 00 00 00 00 00 00
a0: 00 00 00 00 00 00 00 00 00 00 00 00 00 00 00 00
b0: 00 00 00 00 00 00 00 00 00 00 00 00 00 00 00 00
c0: 01 00 02 06 00 00 00 00 00 00 00 00 00 00 00 00
d0: 01 00 02 00 00 00 00 00 00 00 00 00 00 00 00 00
e0: 00 00 00 00 00 00 00 00 00 00 00 00 00 00 00 00
f0: 00 00 00 00 00 00 00 00 00 00 00 00 00 00 00 00
00:11.6 Communication controller [0780]: VIA Technologies, Inc. AC'97 Modem Controller [1106:3068] (rev 80)
	Control: I/O- Mem- BusMaster- SpecCycle- MemWINV- VGASnoop- ParErr- Stepping- SERR- FastB2B-
	Status: Cap+ 66MHz- UDF- FastB2B- ParErr- DEVSEL=medium >TAbort- <TAbort- <MAbort- >SERR- <PERR-
	Interrupt: pin C routed to IRQ 0
	Region 0: I/O ports at 1000 [disabled] [size=256]
	Capabilities: [d0] Power Management version 2
		Flags: PMEClk- DSI- D1- D2- AuxCurrent=0mA PME(D0-,D1-,D2-,D3hot-,D3cold-)
		Status: D0 PME-Enable- DSel=0 DScale=0 PME-
00: 06 11 68 30 00 00 10 02 80 00 80 07 00 00 00 00
10: 01 10 00 00 00 00 00 00 00 00 00 00 00 00 00 00
20: 00 00 00 00 00 00 00 00 00 00 00 00 00 00 00 00
30: 00 00 00 00 d0 00 00 00 00 00 00 00 00 03 00 00
40: 01 cc 00 00 50 00 00 00 00 00 00 00 00 00 00 00
50: 00 00 00 00 00 00 00 00 00 00 00 00 00 00 00 00
60: 00 00 00 00 00 00 00 00 00 00 00 00 00 00 00 00
70: 00 00 00 00 00 00 00 00 00 00 00 00 00 00 00 00
80: 00 00 00 00 00 00 00 00 00 00 00 00 00 00 00 00
90: 00 00 00 00 00 00 00 00 00 00 00 00 00 00 00 00
a0: 00 00 00 00 00 00 00 00 00 00 00 00 00 00 00 00
b0: 00 00 00 00 00 00 00 00 00 00 00 00 00 00 00 00
c0: 01 00 02 06 00 00 00 00 00 00 00 00 00 00 00 00
d0: 01 00 02 00 00 00 00 00 00 00 00 00 00 00 00 00
e0: 00 00 00 00 00 00 00 00 00 00 00 00 00 00 00 00
f0: 00 00 00 00 00 00 00 00 00 00 00 00 00 00 00 00
00:18.0 Host bridge [0600]: Advanced Micro Devices [AMD] K8 [Athlon64/Opteron] HyperTransport Technology Configuration [1022:1100]
	Control: I/O- Mem- BusMaster- SpecCycle- MemWINV- VGASnoop- ParErr- Stepping- SERR- FastB2B-
	Status: Cap+ 66MHz- UDF- FastB2B- ParErr- DEVSEL=fast >TAbort- <TAbort- <MAbort- >SERR- <PERR-
	Capabilities: [80] HyperTransport: Host or Secondary Interface
		!!! Possibly incomplete decoding
		Command: WarmRst+ DblEnd-
		Link Control: CFlE- CST- CFE- <LkFail- Init+ EOC- TXO- <CRCErr=0
		Link Config: MLWI=16bit MLWO=16bit LWI=16bit LWO=16bit
		Revision ID: 1.02
00: 22 10 00 11 00 00 10 00 00 00 00 06 00 00 80 00
10: 00 00 00 00 00 00 00 00 00 00 00 00 00 00 00 00
20: 00 00 00 00 00 00 00 00 00 00 00 00 00 00 00 00
30: 00 00 00 00 80 00 00 00 00 00 00 00 00 00 00 00
40: 01 01 01 00 01 01 01 00 01 01 01 00 01 01 01 00
50: 01 01 01 00 01 01 01 00 01 01 01 00 01 01 01 00
60: 00 00 00 00 e4 00 00 00 20 c8 0e 0f 1c 00 00 00
70: 00 00 00 00 00 00 00 00 00 00 00 00 00 00 00 00
80: 08 00 01 21 20 00 11 11 22 05 75 80 02 00 00 00
90: 56 04 51 02 00 00 ff 00 07 00 00 00 00 00 00 00
a0: 00 00 00 00 00 00 00 00 00 00 00 00 00 00 00 00
b0: 00 00 00 00 00 00 00 00 00 00 00 00 00 00 00 00
c0: 00 00 00 00 00 00 00 00 00 00 00 00 00 00 00 00
d0: 00 00 00 00 00 00 00 00 00 00 00 00 00 00 00 00
e0: 00 00 00 00 00 00 00 00 00 00 00 00 00 00 00 00
f0: 00 00 00 00 00 00 00 00 00 00 00 00 00 00 00 00
00:18.1 Host bridge [0600]: Advanced Micro Devices [AMD] K8 [Athlon64/Opteron] Address Map [1022:1101]
	Control: I/O- Mem- BusMaster- SpecCycle- MemWINV- VGASnoop- ParErr- Stepping- SERR- FastB2B-
	Status: Cap- 66MHz- UDF- FastB2B- ParErr- DEVSEL=fast >TAbort- <TAbort- <MAbort- >SERR- <PERR-
00: 22 10 01 11 00 00 00 00 00 00 00 06 00 00 80 00
10: 00 00 00 00 00 00 00 00 00 00 00 00 00 00 00 00
20: 00 00 00 00 00 00 00 00 00 00 00 00 00 00 00 00
30: 00 00 00 00 00 00 00 00 00 00 00 00 00 00 00 00
40: 03 00 00 00 00 00 7f 00 00 00 00 00 01 00 00 00
50: 00 00 00 00 02 00 00 00 00 00 00 00 03 00 00 00
60: 00 00 00 00 04 00 00 00 00 00 00 00 05 00 00 00
70: 00 00 00 00 06 00 00 00 00 00 00 00 07 00 00 00
80: 00 00 00 00 00 00 00 00 00 00 00 00 00 00 00 00
90: 00 00 00 00 00 00 00 00 00 00 00 00 00 00 00 00
a0: 00 00 00 00 00 00 00 00 00 00 00 00 00 00 00 00
b0: 03 0a 00 00 00 0b 00 00 03 00 80 00 00 ff ff 00
c0: 13 10 00 00 00 f0 ff 00 00 00 00 00 00 00 00 00
d0: 00 00 00 00 00 00 00 00 00 00 00 00 00 00 00 00
e0: 03 00 00 ff 00 00 00 00 00 00 00 00 00 00 00 00
f0: 00 00 00 00 00 00 00 00 00 00 00 00 00 00 00 00
00:18.2 Host bridge [0600]: Advanced Micro Devices [AMD] K8 [Athlon64/Opteron] DRAM Controller [1022:1102]
	Control: I/O- Mem- BusMaster- SpecCycle- MemWINV- VGASnoop- ParErr- Stepping- SERR- FastB2B-
	Status: Cap- 66MHz- UDF- FastB2B- ParErr- DEVSEL=fast >TAbort- <TAbort- <MAbort- >SERR- <PERR-
00: 22 10 02 11 00 00 00 00 00 00 00 06 00 00 80 00
10: 00 00 00 00 00 00 00 00 00 00 00 00 00 00 00 00
20: 00 00 00 00 00 00 00 00 00 00 00 00 00 00 00 00
30: 00 00 00 00 00 00 00 00 00 00 00 00 00 00 00 00
40: 01 00 00 00 00 00 00 00 01 00 00 04 01 00 00 06
50: 00 00 00 00 00 00 00 00 00 00 00 00 00 00 00 00
60: 00 fe e0 03 00 00 00 00 00 fe e0 01 00 fe e0 01
70: 00 00 00 00 00 00 00 00 00 00 00 00 00 00 00 00
80: 47 00 00 00 00 00 00 00 35 33 72 13 30 0a 00 00
90: 80 8c 05 38 07 08 5b 3e 00 00 00 00 0b 02 00 00
a0: 00 00 00 00 00 00 00 00 00 00 00 00 00 00 00 00
b0: 55 6b 1a 98 81 00 00 00 c2 d8 16 b7 bd 6e cb 5f
c0: 00 00 01 00 00 00 00 00 00 00 00 00 00 00 00 00
d0: a6 9a bb f5 6c 3a bd d7 af be fd 6d b3 2e 13 5e
e0: 8d ca 9a fa f2 55 2d aa e5 af fa 73 a9 26 ce 9a
f0: 00 00 00 00 00 00 00 00 00 00 00 00 00 00 00 00
00:18.3 Host bridge [0600]: Advanced Micro Devices [AMD] K8 [Athlon64/Opteron] Miscellaneous Control [1022:1103]
	Control: I/O- Mem- BusMaster- SpecCycle- MemWINV- VGASnoop- ParErr- Stepping- SERR- FastB2B-
	Status: Cap- 66MHz- UDF- FastB2B- ParErr- DEVSEL=fast >TAbort- <TAbort- <MAbort- >SERR- <PERR-
00: 22 10 03 11 00 00 00 00 00 00 00 06 00 00 80 00
10: 00 00 00 00 00 00 00 00 00 00 00 00 00 00 00 00
20: 00 00 00 00 00 00 00 00 00 00 00 00 00 00 00 00
30: 00 00 00 00 00 00 00 00 00 00 00 00 00 00 00 00
40: ff 3b 00 00 40 00 40 08 00 00 00 00 00 00 00 00
50: 00 00 00 00 00 00 00 00 00 00 02 00 00 48 a1 ef
60: 90 00 00 00 00 00 00 00 00 00 00 00 00 00 00 00
70: 11 01 02 51 11 80 00 50 00 38 00 08 1a 22 00 00
80: 00 00 07 23 13 21 13 21 00 00 00 00 00 00 00 00
90: 05 00 00 00 6c 00 00 00 00 fc 02 00 00 00 00 00
a0: 00 00 00 00 00 00 00 00 00 00 00 00 00 00 00 00
b0: 00 00 00 00 00 00 00 00 37 00 00 00 01 70 20 58
c0: 00 00 00 00 00 00 00 00 00 00 00 00 00 00 00 00
d0: 00 00 00 00 01 a7 0d 00 00 00 60 00 00 00 00 00
e0: 00 00 00 00 24 0c 54 10 19 11 00 00 00 00 00 00
f0: 00 00 00 00 00 00 00 00 00 00 00 00 00 00 00 00
01:00.0 VGA compatible controller [0300]: ATI Technologies Inc RV280 [Radeon 9200 PRO] [1002:5960] (rev 01) (prog-if 00 [VGA])
	Subsystem: Hightech Information System Ltd. Unknown device [17af:2020]
	Control: I/O+ Mem+ BusMaster+ SpecCycle- MemWINV- VGASnoop- ParErr- Stepping- SERR+ FastB2B-
	Status: Cap+ 66MHz+ UDF- FastB2B+ ParErr- DEVSEL=medium >TAbort- <TAbort- <MAbort- >SERR- <PERR-
	Latency: 64 (2000ns min), Cache Line Size: 64 bytes
	Interrupt: pin A routed to IRQ 16
	Region 0: Memory at e8000000 (32-bit, prefetchable) [size=128M]
	Region 1: I/O ports at e000 [size=256]
	Region 2: Memory at fbe00000 (32-bit, non-prefetchable) [size=64K]
	Expansion ROM at fbd00000 [disabled] [size=128K]
	Capabilities: [58] AGP version 3.0
		Status: RQ=256 Iso- ArqSz=0 Cal=0 SBA+ ITACoh- GART64- HTrans- 64bit- FW+ AGP3+ Rate=x4,x8
		Command: RQ=32 ArqSz=0 Cal=0 SBA+ AGP+ GART64- 64bit- FW- Rate=x8
	Capabilities: [50] Power Management version 2
		Flags: PMEClk- DSI- D1+ D2+ AuxCurrent=0mA PME(D0-,D1-,D2-,D3hot-,D3cold-)
		Status: D0 PME-Enable- DSel=0 DScale=0 PME-
00: 02 10 60 59 07 01 b0 02 01 00 00 03 10 40 80 00
10: 08 00 00 e8 01 e0 00 00 00 00 e0 fb 00 00 00 00
20: 00 00 00 00 00 00 00 00 00 00 00 00 af 17 20 20
30: 00 00 d0 fb 58 00 00 00 00 00 00 00 0b 01 08 00
40: 00 00 00 00 00 00 00 00 00 00 00 00 af 17 20 20
50: 01 00 02 06 00 00 00 00 02 50 30 00 1b 02 00 ff
60: 02 03 00 1f 00 00 00 00 00 00 00 00 00 00 00 00
70: 00 00 00 00 00 00 00 00 00 00 00 00 00 00 00 00
80: 05 00 00 00 00 00 00 00 00 00 00 00 00 00 00 00
90: 00 00 00 00 00 00 00 00 00 00 00 00 00 00 00 00
a0: 00 00 00 00 00 00 00 00 00 00 00 00 00 00 00 00
b0: 00 00 00 00 00 00 00 00 00 00 00 00 00 00 00 00
c0: 00 00 00 00 00 00 00 00 00 00 00 00 00 00 00 00
d0: 00 00 00 00 00 00 00 00 00 00 00 00 00 00 00 00
e0: 00 00 00 00 00 00 00 00 00 00 00 00 00 00 00 00
f0: 00 00 00 00 00 00 00 00 00 00 00 00 00 00 00 00
01:00.1 Display controller [0380]: ATI Technologies Inc RV280 [Radeon 9200 PRO] (Secondary) [1002:5940] (rev 01)
	Subsystem: Hightech Information System Ltd. Unknown device [17af:2021]
	Control: I/O+ Mem+ BusMaster+ SpecCycle- MemWINV- VGASnoop- ParErr- Stepping- SERR- FastB2B-
	Status: Cap+ 66MHz+ UDF- FastB2B+ ParErr- DEVSEL=medium >TAbort- <TAbort- <MAbort- >SERR- <PERR-
	Latency: 64 (2000ns min), Cache Line Size: 64 bytes
	Region 0: Memory at f0000000 (32-bit, prefetchable) [size=128M]
	Region 1: Memory at fbf00000 (32-bit, non-prefetchable) [size=64K]
	Capabilities: [50] Power Management version 2
		Flags: PMEClk- DSI- D1+ D2+ AuxCurrent=0mA PME(D0-,D1-,D2-,D3hot-,D3cold-)
		Status: D0 PME-Enable- DSel=0 DScale=0 PME-
00: 02 10 40 59 07 00 b0 02 01 00 80 03 10 40 00 00
10: 08 00 00 f0 00 00 f0 fb 00 00 00 00 00 00 00 00
20: 00 00 00 00 00 00 00 00 00 00 00 00 af 17 21 20
30: 00 00 00 00 50 00 00 00 00 00 00 00 ff 00 08 00
40: 00 00 00 00 00 00 00 00 00 00 00 00 00 00 00 00
50: 01 00 02 06 00 00 00 00 02 50 30 00 1b 02 00 ff
60: 00 02 00 00 00 00 00 00 00 00 00 00 00 00 00 00
70: 00 00 00 00 00 00 00 00 00 00 00 00 00 00 00 00
80: 00 00 00 00 00 00 00 00 00 00 00 00 00 00 00 00
90: 00 00 00 00 00 00 00 00 00 00 00 00 00 00 00 00
a0: 00 00 00 00 00 00 00 00 00 00 00 00 00 00 00 00
b0: 00 00 00 00 00 00 00 00 00 00 00 00 00 00 00 00
c0: 00 00 00 00 00 00 00 00 00 00 00 00 00 00 00 00
d0: 00 00 00 00 00 00 00 00 00 00 00 00 00 00 00 00
e0: 00 00 00 00 00 00 00 00 00 00 00 00 00 00 00 00
f0: 00 00 00 00 00 00 00 00 00 00 00 00 00 00 00 00
Linux version 2.6.20-g0670afdf (root@gentoox2.trippelsdorf.de) (gcc version 4.1.1 (Gentoo 4.1.1-r3)) #56 SMP Wed Feb 7 15:10:00 CET 2007
Command line: root=/dev/sda1
BIOS-provided physical RAM map:
 BIOS-e820: 0000000000000000 - 000000000009fc00 (usable)
 BIOS-e820: 000000000009fc00 - 00000000000a0000 (reserved)
 BIOS-e820: 00000000000e4000 - 0000000000100000 (reserved)
 BIOS-e820: 0000000000100000 - 000000007ffb0000 (usable)
 BIOS-e820: 000000007ffb0000 - 000000007ffc0000 (ACPI data)
 BIOS-e820: 000000007ffc0000 - 000000007fff0000 (ACPI NVS)
 BIOS-e820: 000000007fff0000 - 0000000080000000 (reserved)
 BIOS-e820: 00000000ff780000 - 0000000100000000 (reserved)
Entering add_active_range(0, 0, 159) 0 entries of 256 used
Entering add_active_range(0, 256, 524208) 1 entries of 256 used
end_pfn_map = 1048576
DMI 2.3 present.
ACPI: RSDP (v002 ACPIAM                                ) @ 0x00000000000fa7c0
ACPI: XSDT (v001 A M I  OEMXSDT  0x11000514 MSFT 0x00000097) @ 0x000000007ffb0100
ACPI: FADT (v003 A M I  OEMFACP  0x11000514 MSFT 0x00000097) @ 0x000000007ffb0290
ACPI: MADT (v001 A M I  OEMAPIC  0x11000514 MSFT 0x00000097) @ 0x000000007ffb0390
ACPI: OEMB (v001 A M I  OEMBIOS  0x11000514 MSFT 0x00000097) @ 0x000000007ffc0040
ACPI: DSDT (v001  A0036 A0036001 0x00000001 MSFT 0x0100000d) @ 0x0000000000000000
Entering add_active_range(0, 0, 159) 0 entries of 256 used
Entering add_active_range(0, 256, 524208) 1 entries of 256 used
Zone PFN ranges:
  DMA             0 ->     4096
  DMA32        4096 ->  1048576
  Normal    1048576 ->  1048576
early_node_map[2] active PFN ranges
    0:        0 ->      159
    0:      256 ->   524208
On node 0 totalpages: 524111
  DMA zone: 56 pages used for memmap
  DMA zone: 1123 pages reserved
  DMA zone: 2820 pages, LIFO batch:0
  DMA32 zone: 7110 pages used for memmap
  DMA32 zone: 513002 pages, LIFO batch:31
  Normal zone: 0 pages used for memmap
ACPI: PM-Timer IO Port: 0x808
ACPI: Local APIC address 0xfee00000
ACPI: LAPIC (acpi_id[0x01] lapic_id[0x00] enabled)
Processor #0 (Bootup-CPU)
ACPI: LAPIC (acpi_id[0x02] lapic_id[0x01] enabled)
Processor #1
ACPI: IOAPIC (id[0x02] address[0xfec00000] gsi_base[0])
IOAPIC[0]: apic_id 2, address 0xfec00000, GSI 0-23
ACPI: INT_SRC_OVR (bus 0 bus_irq 0 global_irq 2 dfl dfl)
ACPI: IRQ0 used by override.
ACPI: IRQ2 used by override.
ACPI: IRQ9 used by override.
Setting APIC routing to flat
Using ACPI (MADT) for SMP configuration information
Nosave address range: 000000000009f000 - 00000000000a0000
Nosave address range: 00000000000a0000 - 00000000000e4000
Nosave address range: 00000000000e4000 - 0000000000100000
Allocating PCI resources starting at 88000000 (gap: 80000000:7f780000)
PERCPU: Allocating 23488 bytes of per cpu data
Built 1 zonelists.  Total pages: 515822
Kernel command line: root=/dev/sda1
Initializing CPU#0
PID hash table entries: 4096 (order: 12, 32768 bytes)
Console: colour VGA+ 80x25
Dentry cache hash table entries: 262144 (order: 9, 2097152 bytes)
Inode-cache hash table entries: 131072 (order: 8, 1048576 bytes)
Checking aperture...
CPU 0: aperture @ d8000000 size 128 MB
Memory: 2059760k/2096832k available (2786k kernel code, 36384k reserved, 1066k data, 220k init)
Calibrating delay using timer specific routine.. 4805.05 BogoMIPS (lpj=2402528)
Mount-cache hash table entries: 256
CPU: L1 I Cache: 64K (64 bytes/line), D cache 64K (64 bytes/line)
CPU: L2 Cache: 512K (64 bytes/line)
CPU: Physical Processor ID: 0
CPU: Processor Core ID: 0
Freeing SMP alternatives: 28k freed
ACPI: Core revision 20060707
Using local APIC timer interrupts.
result 15004525
Detected 15.004 MHz APIC timer.
Booting processor 1/2 APIC 0x1
Initializing CPU#1
Calibrating delay using timer specific routine.. 4800.60 BogoMIPS (lpj=2400303)
CPU: L1 I Cache: 64K (64 bytes/line), D cache 64K (64 bytes/line)
CPU: L2 Cache: 512K (64 bytes/line)
CPU: Physical Processor ID: 0
CPU: Processor Core ID: 1
AMD Athlon(tm) 64 X2 Dual Core Processor 3800+ stepping 01
CPU 1: Syncing TSC to CPU 0.
CPU 1: synchronized TSC with CPU 0 (last diff 80 cycles, maxerr 411 cycles)
Brought up 2 CPUs
testing NMI watchdog ... OK.
Disabling vsyscall due to use of PM timer
time.c: Using 3.579545 MHz WALL PM GTOD PM timer.
time.c: Detected 2400.721 MHz processor.
migration_cost=199
NET: Registered protocol family 16
ACPI: bus type pci registered
PCI: Using configuration type 1
ACPI: Interpreter enabled
ACPI: Using IOAPIC for interrupt routing
ACPI: PCI Root Bridge [PCI0] (0000:00)
PCI: Probing PCI hardware (bus 00)
PCI: enabled onboard AC97/MC97 devices
Boot video device is 0000:01:00.0
ACPI: PCI Interrupt Routing Table [\_SB_.PCI0._PRT]
ACPI: PCI Interrupt Link [LNKA] (IRQs 3 4 5 7 10 *11 14 15)
ACPI: PCI Interrupt Link [LNKB] (IRQs 3 4 5 7 *10 11 14 15)
ACPI: PCI Interrupt Link [LNKC] (IRQs 3 4 *5 7 10 11 14 15)
ACPI: PCI Interrupt Link [LNKD] (IRQs *3 4 5 7 10 11 14 15)
ACPI: PCI Interrupt Link [LNKE] (IRQs 3 4 5 7 10 11 14 15) *0, disabled.
ACPI: PCI Interrupt Link [LNKF] (IRQs 3 4 5 7 10 11 14 15) *0, disabled.
ACPI: PCI Interrupt Link [LNKG] (IRQs 3 4 5 7 10 11 14 15) *0, disabled.
ACPI: PCI Interrupt Link [LNKH] (IRQs 3 4 5 7 10 11 14 15) *0, disabled.
SCSI subsystem initialized
libata version 2.00 loaded.
usbcore: registered new interface driver usbfs
usbcore: registered new interface driver hub
usbcore: registered new device driver usb
PCI: Using ACPI for IRQ routing
PCI: If a device doesn't work, try "pci=routeirq".  If it helps, post a report
PCI: Cannot allocate resource region 0 of device 0000:00:00.0
agpgart: Detected AGP bridge 0
agpgart: AGP aperture is 128M @ 0xd8000000
PCI: Bridge: 0000:00:01.0
  IO window: e000-efff
  MEM window: fbd00000-fbffffff
  PREFETCH window: e8000000-faffffff
PCI: Setting latency timer of device 0000:00:01.0 to 64
NET: Registered protocol family 2
IP route cache hash table entries: 65536 (order: 7, 524288 bytes)
TCP established hash table entries: 262144 (order: 10, 4194304 bytes)
TCP bind hash table entries: 65536 (order: 8, 1048576 bytes)
TCP: Hash tables configured (established 262144 bind 65536)
TCP reno registered
io scheduler noop registered
io scheduler anticipatory registered
io scheduler deadline registered
io scheduler cfq registered (default)
ACPI: PCI Interrupt 0000:01:00.0[A] -> GSI 16 (level, low) -> IRQ 16
radeonfb: Found Intel x86 BIOS ROM Image
radeonfb: Retrieved PLL infos from BIOS
radeonfb: Reference=27.00 MHz (RefDiv=12) Memory=240.00 Mhz, System=166.00 MHz
radeonfb: PLL min 20000 max 40000
i2c_adapter i2c-2: unable to read EDID block.
i2c_adapter i2c-2: unable to read EDID block.
i2c_adapter i2c-2: unable to read EDID block.
i2c_adapter i2c-3: unable to read EDID block.
i2c_adapter i2c-3: unable to read EDID block.
i2c_adapter i2c-3: unable to read EDID block.
radeonfb: Monitor 1 type DFP found
radeonfb: EDID probed
radeonfb: Monitor 2 type no found
Console: switching to colour frame buffer device 210x65
radeonfb (0000:01:00.0): ATI Radeon Y` 
input: Power Button (FF) as /class/input/input0
ACPI: Power Button (FF) [PWRF]
input: Power Button (CM) as /class/input/input1
ACPI: Power Button (CM) [PWRB]
input: Sleep Button (CM) as /class/input/input2
ACPI: Sleep Button (CM) [SLPB]
Real Time Clock Driver v1.12ac
Software Watchdog Timer: 0.07 initialized. soft_noboot=0 soft_margin=60 sec (nowayout= 0)
Linux agpgart interface v0.101 (c) Dave Jones
[drm] Initialized drm 1.1.0 20060810
[drm] Initialized radeon 1.25.0 20060524 on minor 0
Serial: 8250/16550 driver $Revision: 1.90 $ 4 ports, IRQ sharing disabled
serial8250: ttyS0 at I/O 0x3f8 (irq = 4) is a 16550A
loop: loaded (max 8 devices)
r8169 Gigabit Ethernet driver 2.2LK loaded
ACPI: PCI Interrupt 0000:00:0e.0[A] -> GSI 19 (level, low) -> IRQ 19
eth0: RTL8169s/8110s at 0xffffc20000004000, 00:08:54:36:f2:2f, IRQ 19
Linux video capture interface: v2.00
bttv: driver version 0.9.16 loaded
bttv: using 8 buffers with 2080k (520 pages) each for capture
bttv: Bt8xx card found (0).
ACPI: PCI Interrupt 0000:00:0c.0[A] -> GSI 17 (level, low) -> IRQ 17
bttv0: Bt878 (rev 17) at 0000:00:0c.0, irq: 17, latency: 64, mmio: 0xe7e00000
bttv0: detected: Pinnacle PCTV [card=39], PCI subsystem ID is 11bd:0012
bttv0: using: Pinnacle PCTV Studio/Rave [card=39,autodetected]
bttv0: gpio: en=00000000, out=00000000 in=00ffffff [init]
bttv0: i2c: checking for MSP34xx @ 0x80... not found
bttv0: pinnacle/mt: id=1 info="PAL / mono" radio=no
bttv0: using tuner=33
bttv0: registered device video0
bttv0: registered device vbi0
bttv0: PLL: 28636363 => 35468950 .. ok
tuner 4-0043: chip found @ 0x86 (bt878 #0 [sw])
tda9887 4-0043: tda988[5/6/7] found @ 0x43 (tuner)
tuner 4-0060: Chip ID is not zero. It is not a TEA5767
tuner 4-0060: chip found @ 0xc0 (bt878 #0 [sw])
tuner 4-0060: microtune: companycode=4d54 part=04 rev=04
tuner 4-0060: microtune MT2032 found, OK
tuner 4-0060: microtune: companycode=4d54 part=04 rev=04
tuner 4-0060: microtune MT2032 found, OK
sata_via 0000:00:0f.0: version 2.0
ACPI: PCI Interrupt 0000:00:0f.0[B] -> GSI 20 (level, low) -> IRQ 20
sata_via 0000:00:0f.0: routed to hard irq line 10
ata1: SATA max UDMA/133 cmd 0xC800 ctl 0xC402 bmdma 0xB400 irq 20
ata2: SATA max UDMA/133 cmd 0xC000 ctl 0xB802 bmdma 0xB408 irq 20
scsi0 : sata_via
ata1: SATA link up 1.5 Gbps (SStatus 113 SControl 300)
ATA: abnormal status 0x7F on port 0xC807
ATA: abnormal status 0x7F on port 0xC807
ata1.00: ATA-7, max UDMA7, 781422768 sectors: LBA48 NCQ (depth 0/32)
ata1.00: ata1: dev 0 multi count 16
ata1.00: configured for UDMA/133
scsi1 : sata_via
ata2: SATA link down 1.5 Gbps (SStatus 0 SControl 300)
ATA: abnormal status 0x7F on port 0xC007
scsi 0:0:0:0: Direct-Access     ATA      SAMSUNG HD401LJ  ZZ10 PQ: 0 ANSI: 5
SCSI device sda: 781422768 512-byte hdwr sectors (400088 MB)
sda: Write Protect is off
sda: Mode Sense: 00 3a 00 00
SCSI device sda: write cache: enabled, read cache: enabled, doesn't support DPO or FUA
SCSI device sda: 781422768 512-byte hdwr sectors (400088 MB)
sda: Write Protect is off
sda: Mode Sense: 00 3a 00 00
SCSI device sda: write cache: enabled, read cache: enabled, doesn't support DPO or FUA
 sda: sda1 sda2 sda3 sda4
sd 0:0:0:0: Attached scsi disk sda
sd 0:0:0:0: Attached scsi generic sg0 type 0
pata_via 0000:00:0f.1: version 0.2.1
ACPI: PCI Interrupt 0000:00:0f.1[A] -> GSI 20 (level, low) -> IRQ 20
ata3: PATA max UDMA/133 cmd 0x1F0 ctl 0x3F6 bmdma 0xFC00 irq 14
ata4: PATA max UDMA/133 cmd 0x170 ctl 0x376 bmdma 0xFC08 irq 15
scsi2 : pata_via
ATA: abnormal status 0x8 on port 0x1F7
scsi3 : pata_via
ata4.00: ATAPI, max UDMA/66
ata4.00: configured for UDMA/66
scsi 3:0:0:0: CD-ROM            LITE-ON  DVDRW SHW-16H5S  LS0R PQ: 0 ANSI: 5
sr0: scsi3-mmc drive: 48x/48x writer cd/rw xa/form2 cdda tray
Uniform CD-ROM driver Revision: 3.20
sr 3:0:0:0: Attached scsi CD-ROM sr0
sr 3:0:0:0: Attached scsi generic sg1 type 5
ACPI: PCI Interrupt 0000:00:10.4[C] -> GSI 21 (level, low) -> IRQ 21
ehci_hcd 0000:00:10.4: EHCI Host Controller
ehci_hcd 0000:00:10.4: new USB bus registered, assigned bus number 1
ehci_hcd 0000:00:10.4: irq 21, io mem 0xfbc00000
ehci_hcd 0000:00:10.4: USB 2.0 started, EHCI 1.00, driver 10 Dec 2004
usb usb1: configuration #1 chosen from 1 choice
hub 1-0:1.0: USB hub found
hub 1-0:1.0: 4 ports detected
ohci_hcd: 2006 August 04 USB 1.1 'Open' Host Controller (OHCI) Driver (PCI)
USB Universal Host Controller Interface driver v3.0
ACPI: PCI Interrupt 0000:00:10.0[A] -> GSI 21 (level, low) -> IRQ 21
uhci_hcd 0000:00:10.0: UHCI Host Controller
uhci_hcd 0000:00:10.0: new USB bus registered, assigned bus number 2
uhci_hcd 0000:00:10.0: irq 21, io base 0x0000d000
usb usb2: configuration #1 chosen from 1 choice
hub 2-0:1.0: USB hub found
hub 2-0:1.0: 2 ports detected
ACPI: PCI Interrupt 0000:00:10.1[A] -> GSI 21 (level, low) -> IRQ 21
uhci_hcd 0000:00:10.1: UHCI Host Controller
uhci_hcd 0000:00:10.1: new USB bus registered, assigned bus number 3
uhci_hcd 0000:00:10.1: irq 21, io base 0x0000d400
usb usb3: configuration #1 chosen from 1 choice
hub 3-0:1.0: USB hub found
hub 3-0:1.0: 2 ports detected
usb 2-1: new low speed USB device using uhci_hcd and address 2
usb 2-1: configuration #1 chosen from 1 choice
usb 3-1: new low speed USB device using uhci_hcd and address 2
usb 3-1: configuration #1 chosen from 1 choice
usbcore: registered new interface driver usblp
drivers/usb/class/usblp.c: v0.13: USB Printer Device Class driver
input: HID 046a:0021 as /class/input/input3
input: USB HID v1.11 Keyboard [HID 046a:0021] on usb-0000:00:10.0-1
input: HID 046a:0021 as /class/input/input4
input: USB HID v1.11 Device [HID 046a:0021] on usb-0000:00:10.0-1
input: Logitech USB-PS/2 Optical Mouse as /class/input/input5
input: USB HID v1.10 Mouse [Logitech USB-PS/2 Optical Mouse] on usb-0000:00:10.1-1
usbcore: registered new interface driver usbhid
drivers/usb/input/hid-core.c: v2.6:USB HID core driver
serio: i8042 KBD port at 0x60,0x64 irq 1
serio: i8042 AUX port at 0x60,0x64 irq 12
mice: PS/2 mouse device common for all mice
i2c /dev entries driver
w83627hf 9191-0290: Reading VID from GPIO5
Advanced Linux Sound Architecture Driver Version 1.0.14rc1 (Tue Jan 09 09:56:17 2007 UTC).
ACPI: PCI Interrupt 0000:00:11.5[C] -> GSI 22 (level, low) -> IRQ 22
PCI: Setting latency timer of device 0000:00:11.5 to 64
ALSA device list:
  #0: VIA 8237 with ALC850 at 0xd800, irq 22
TCP cubic registered
NET: Registered protocol family 1
NET: Registered protocol family 17
kjournald starting.  Commit interval 5 seconds
EXT3-fs: mounted filesystem with ordered data mode.
VFS: Mounted root (ext3 filesystem) readonly.
Freeing unused kernel memory: 220k freed
EXT3 FS on sda1, internal journal
kjournald starting.  Commit interval 5 seconds
EXT3 FS on sda4, internal journal
EXT3-fs: mounted filesystem with ordered data mode.
Adding 1959920k swap on /dev/sda2.  Priority:-1 extents:1 across:1959920k
r8169: eth0: link up
agpgart: Found an AGP 3.0 compliant device at 0000:00:00.0.
agpgart: Putting AGP V3 device at 0000:00:00.0 into 8x mode
agpgart: Putting AGP V3 device at 0000:01:00.0 into 8x mode
[drm] Setting GART location based on new memory map
[drm] Loading R200 Microcode
[drm] writeback test succeeded in 1 usecs
agpgart: Found an AGP 3.0 compliant device at 0000:00:00.0.
agpgart: Putting AGP V3 device at 0000:00:00.0 into 8x mode
agpgart: Putting AGP V3 device at 0000:01:00.0 into 8x mode
[drm] Setting GART location based on new memory map
[drm] Loading R200 Microcode
[drm] writeback test succeeded in 1 usecs