Date: Mon, 20 Mar 2000 14:59:39 +1200
From: Andrew McMillan <>
Subject: pcilib: Bus 01 seen twice (firmware bug). Ignored.
Sender: linux-kernel-owner@vger.kernel.org
Precedence: bulk
List-ID: <linux-kernel.vger.kernel.org>
X-Mailing-List: linux-kernel@vger.kernel.org
X-Lkml-Link: https://lkml.org/lkml/2000/3/19/271

Hi,
Since around 2.3.29 or so not all PCI buses in my system are being
traversed properly.  Looks like there's a buggy BIOS in the system, but
the devices on all the buses are being found by 2.2.x kernels
nevertheless, as you can see from the output of lspci under 2.2.14
below.
Here's an "lspci --version; lspci -t; lspci -vvvx -H1" for 2.3.52:
---------------------------------------------------------------
lspci version 2.1.5
-[00]-+-00.0
      +-01.0
      +-01.1
      +-01.2
      +-01.3
      +-02.0
      +-03.0
      +-03.1
      \-0f.0-[01]--
pcilib: Bus 01 seen twice (firmware bug). Ignored.
00:00.0 Host bridge: Intel Corporation 430TX - 82439TX MTXC (rev 01)
	Control: I/O- Mem+ BusMaster+ SpecCycle- MemWINV- VGASnoop- ParErr-
Stepping- SERR- FastB2B-
	Status: Cap- 66Mhz- UDF- FastB2B- ParErr- DEVSEL=medium >TAbort-
<TAbort- <MAbort+ >SERR- <PERR-
	Latency: 32 set
00: 86 80 00 71 06 00 00 22 01 00 00 06 00 20 00 00
10: 00 00 00 00 00 00 00 00 00 00 00 00 00 00 00 00
20: 00 00 00 00 00 00 00 00 00 00 00 00 00 00 00 00
30: 00 00 00 00 00 00 00 00 00 00 00 00 00 00 00 00
00:01.0 ISA bridge: Intel Corporation 82371AB PIIX4 ISA (rev 01)
	Control: I/O+ Mem+ BusMaster+ SpecCycle+ MemWINV- VGASnoop- ParErr-
Stepping- SERR- FastB2B-
	Status: Cap- 66Mhz- UDF- FastB2B+ ParErr- DEVSEL=medium >TAbort-
<TAbort- <MAbort- >SERR- <PERR-
	Latency: 0 set
00: 86 80 10 71 0f 00 80 02 01 00 01 06 00 00 80 00
10: 00 00 00 00 00 00 00 00 00 00 00 00 00 00 00 00
20: 00 00 00 00 00 00 00 00 00 00 00 00 00 00 00 00
30: 00 00 00 00 00 00 00 00 00 00 00 00 00 00 00 00
00:01.1 IDE interface: Intel Corporation 82371AB PIIX4 IDE (rev 01)
(prog-if 80 [Master])
	Control: I/O+ Mem- BusMaster+ SpecCycle- MemWINV- VGASnoop- ParErr-
Stepping- SERR- FastB2B-
	Status: Cap- 66Mhz- UDF- FastB2B+ ParErr- DEVSEL=medium >TAbort-
<TAbort- <MAbort- >SERR- <PERR-
	Latency: 64 set
	Region 4: I/O ports at fcd0
00: 86 80 11 71 05 00 80 02 01 80 01 01 00 40 00 00
10: 00 00 00 00 00 00 00 00 00 00 00 00 00 00 00 00
20: d1 fc 00 00 00 00 00 00 00 00 00 00 00 00 00 00
30: 00 00 00 00 00 00 00 00 00 00 00 00 00 00 00 00
00:01.2 USB Controller: Intel Corporation 82371AB PIIX4 USB (rev 01)
(prog-if 00 [UHCI])
	Control: I/O- Mem- BusMaster+ SpecCycle- MemWINV- VGASnoop- ParErr-
Stepping- SERR- FastB2B-
	Status: Cap- 66Mhz- UDF- FastB2B+ ParErr- DEVSEL=medium >TAbort-
<TAbort- <MAbort- >SERR- <PERR-
	Latency: 64 set
	Interrupt: pin D routed to IRQ 255
	Region 4: I/O ports at <ignored> [disabled]
00: 86 80 12 71 04 00 80 02 01 00 03 0c 00 40 00 00
10: 00 00 00 00 00 00 00 00 00 00 00 00 00 00 00 00
20: e1 fc 00 00 00 00 00 00 00 00 00 00 00 00 00 00
30: 00 00 00 00 00 00 00 00 00 00 00 00 ff 04 00 00
00:01.3 Bridge: Intel Corporation 82371AB PIIX4 ACPI (rev 01)
	Control: I/O+ Mem- BusMaster- SpecCycle- MemWINV- VGASnoop- ParErr-
Stepping- SERR- FastB2B-
	Status: Cap- 66Mhz- UDF- FastB2B+ ParErr- DEVSEL=medium >TAbort-
<TAbort- <MAbort- >SERR- <PERR-
00: 86 80 13 71 01 00 80 02 01 00 80 06 00 00 00 00
10: 00 00 00 00 00 00 00 00 00 00 00 00 00 00 00 00
20: 00 00 00 00 00 00 00 00 00 00 00 00 00 00 00 00
30: 00 00 00 00 00 00 00 00 00 00 00 00 00 00 00 00
00:02.0 VGA compatible controller: Cirrus Logic GD 7556 Video/Graphics
LCD/CRT Ctrlr (prog-if 00 [VGA])
	Control: I/O+ Mem+ BusMaster- SpecCycle- MemWINV- VGASnoop- ParErr-
Stepping- SERR- FastB2B-
	Status: Cap- 66Mhz- UDF- FastB2B- ParErr- DEVSEL=medium >TAbort-
<TAbort- <MAbort- >SERR- <PERR-
	Interrupt: pin A routed to IRQ 11
	Region 0: Memory at fd000000 (32-bit, non-prefetchable)
00: 13 10 4c 00 03 00 00 02 00 00 00 03 00 00 00 00
10: 00 00 00 fd 00 00 00 00 00 00 00 00 00 00 00 00
20: 00 00 00 00 00 00 00 00 00 00 00 00 00 00 00 00
30: 00 00 00 00 00 00 00 00 00 00 00 00 0b 01 00 00
00:03.0 CardBus bridge: Texas Instruments PCI1131 (rev 01)
	Control: I/O- Mem- BusMaster- SpecCycle- MemWINV- VGASnoop- ParErr-
Stepping- SERR- FastB2B-
	Status: Cap- 66Mhz- UDF- FastB2B- ParErr- DEVSEL=medium >TAbort-
<TAbort- <MAbort- >SERR- <PERR-
	Interrupt: pin A routed to IRQ 11
	Region 0: Memory at <ignored> (32-bit, non-prefetchable) [disabled]
	Bus: primary=00, secondary=01, subordinate=02, sec-latency=0
	Memory window 0: 00000000-00000000 [disabled] (prefetchable)
	Memory window 1: 00000000-00000000 [disabled] (prefetchable)
	I/O window 0: 00000000-00000003 [disabled]
	I/O window 1: 00000000-00000003 [disabled]
	BridgeCtl: Parity- SERR- ISA- VGA- MAbort- >Reset+ 16bInt- PostWrite-
	16-bit legacy interface ports at 0001
00: 4c 10 15 ac 00 00 00 02 01 00 07 06 00 00 82 00
10: 00 00 00 10 00 00 00 02 00 01 02 00 00 00 00 00
20: 00 00 00 00 00 00 00 00 00 00 00 00 00 00 00 00
30: 00 00 00 00 00 00 00 00 00 00 00 00 0b 01 40 03
40: 00 00 00 00 01 00 00 00 00 00 00 00 00 00 00 00
50: 00 00 00 00 00 00 00 00 00 00 00 00 00 00 00 00
60: 00 00 00 00 00 00 00 00 00 00 00 00 00 00 00 00
70: 00 00 00 00 00 00 00 00 00 00 00 00 00 00 00 00
00:03.1 CardBus bridge: Texas Instruments PCI1131 (rev 01)
	Control: I/O- Mem- BusMaster- SpecCycle- MemWINV- VGASnoop- ParErr-
Stepping- SERR- FastB2B-
	Status: Cap- 66Mhz- UDF- FastB2B- ParErr- DEVSEL=medium >TAbort-
<TAbort- <MAbort- >SERR- <PERR-
	Interrupt: pin B routed to IRQ 11
	Region 0: Memory at <ignored> (32-bit, non-prefetchable) [disabled]
	Bus: primary=00, secondary=03, subordinate=04, sec-latency=0
	Memory window 0: 00000000-00000000 [disabled] (prefetchable)
	Memory window 1: 00000000-00000000 [disabled] (prefetchable)
	I/O window 0: 00000000-00000003 [disabled]
	I/O window 1: 00000000-00000003 [disabled]
	BridgeCtl: Parity- SERR- ISA- VGA- MAbort- >Reset+ 16bInt- PostWrite-
	16-bit legacy interface ports at 0001
00: 4c 10 15 ac 00 00 00 02 01 00 07 06 00 00 82 00
10: 00 10 00 10 00 00 00 02 00 03 04 00 00 00 00 00
20: 00 00 00 00 00 00 00 00 00 00 00 00 00 00 00 00
30: 00 00 00 00 00 00 00 00 00 00 00 00 0b 02 40 03
40: 00 00 00 00 01 00 00 00 00 00 00 00 00 00 00 00
50: 00 00 00 00 00 00 00 00 00 00 00 00 00 00 00 00
60: 00 00 00 00 00 00 00 00 00 00 00 00 00 00 00 00
70: 00 00 00 00 00 00 00 00 00 00 00 00 00 00 00 00
00:0f.0 PCI bridge: Digital Equipment Corporation DECchip 21152 (rev 02)
(prog-if 00 [Normal decode])
	Control: I/O+ Mem- BusMaster- SpecCycle- MemWINV- VGASnoop- ParErr-
Stepping- SERR- FastB2B-
	Status: Cap- 66Mhz- UDF- FastB2B+ ParErr- DEVSEL=medium >TAbort-
<TAbort- <MAbort- >SERR- <PERR-
	Bus: primary=00, secondary=01, subordinate=01, sec-latency=68
	I/O behind bridge: 0000e000-0000efff
	Memory behind bridge: fcf00000-fcffffff
	Prefetchable memory behind bridge: 00000000fff00000-0000000000000000
	BridgeCtl: Parity- SERR- NoISA+ VGA- MAbort- >Reset- FastB2B-
00: 11 10 24 00 01 00 80 02 02 00 04 06 08 40 01 00
10: 00 00 00 00 00 00 00 00 00 01 01 44 e1 e1 80 22
20: f0 fc f0 fc f1 ff 01 00 00 00 00 00 00 00 00 00
30: 00 00 00 00 00 00 00 00 00 00 00 00 00 00 04 04
---------------------------------------------------------------
And here's one for 2.2.14:
---------------------------------------------------------------
lspci version 2.1.5
-[00]-+-00.0
      +-01.0
      +-01.1
      +-01.2
      +-01.3
      +-02.0
      +-03.0
      +-03.1
      \-0f.0-[01]--+-0c.0
                   +-0e.0
                   +-0f.0
                   \-0f.1
pcilib: Bus 00 seen twice (firmware bug). Ignored.
pcilib: Bus 00 seen twice (firmware bug). Ignored.
00:00.0 Host bridge: Intel Corporation 430TX - 82439TX MTXC (rev 01)
	Control: I/O- Mem+ BusMaster+ SpecCycle- MemWINV- VGASnoop- ParErr-
Stepping- SERR- FastB2B-
	Status: Cap- 66Mhz- UDF- FastB2B- ParErr- DEVSEL=medium >TAbort-
<TAbort- <MAbort+ >SERR- <PERR-
	Latency: 32 set
00: 86 80 00 71 06 00 00 22 01 00 00 06 00 20 00 00
10: 00 00 00 00 00 00 00 00 00 00 00 00 00 00 00 00
20: 00 00 00 00 00 00 00 00 00 00 00 00 00 00 00 00
30: 00 00 00 00 00 00 00 00 00 00 00 00 00 00 00 00
00:01.0 ISA bridge: Intel Corporation 82371AB PIIX4 ISA (rev 01)
	Control: I/O+ Mem+ BusMaster+ SpecCycle+ MemWINV- VGASnoop- ParErr-
Stepping- SERR- FastB2B-
	Status: Cap- 66Mhz- UDF- FastB2B+ ParErr- DEVSEL=medium >TAbort-
<TAbort- <MAbort- >SERR- <PERR-
	Latency: 0 set
00: 86 80 10 71 0f 00 80 02 01 00 01 06 00 00 80 00
10: 00 00 00 00 00 00 00 00 00 00 00 00 00 00 00 00
20: 00 00 00 00 00 00 00 00 00 00 00 00 00 00 00 00
30: 00 00 00 00 00 00 00 00 00 00 00 00 00 00 00 00
00:01.1 IDE interface: Intel Corporation 82371AB PIIX4 IDE (rev 01)
(prog-if 80 [Master])
	Control: I/O+ Mem- BusMaster+ SpecCycle- MemWINV- VGASnoop- ParErr-
Stepping- SERR- FastB2B-
	Status: Cap- 66Mhz- UDF- FastB2B+ ParErr- DEVSEL=medium >TAbort-
<TAbort- <MAbort- >SERR- <PERR-
	Latency: 64 set
	Region 4: I/O ports at fcd0
00: 86 80 11 71 05 00 80 02 01 80 01 01 00 40 00 00
10: 00 00 00 00 00 00 00 00 00 00 00 00 00 00 00 00
20: d1 fc 00 00 00 00 00 00 00 00 00 00 00 00 00 00
30: 00 00 00 00 00 00 00 00 00 00 00 00 00 00 00 00
00:01.2 USB Controller: Intel Corporation 82371AB PIIX4 USB (rev 01)
(prog-if 00 [UHCI])
	Control: I/O+ Mem- BusMaster+ SpecCycle- MemWINV- VGASnoop- ParErr-
Stepping- SERR- FastB2B-
	Status: Cap- 66Mhz- UDF- FastB2B+ ParErr- DEVSEL=medium >TAbort-
<TAbort- <MAbort- >SERR- <PERR-
	Latency: 64 set
	Interrupt: pin D routed to IRQ 255
	Region 4: I/O ports at fce0
00: 86 80 12 71 05 00 80 02 01 00 03 0c 00 40 00 00
10: 00 00 00 00 00 00 00 00 00 00 00 00 00 00 00 00
20: e1 fc 00 00 00 00 00 00 00 00 00 00 00 00 00 00
30: 00 00 00 00 00 00 00 00 00 00 00 00 ff 04 00 00
00:01.3 Bridge: Intel Corporation 82371AB PIIX4 ACPI (rev 01)
	Control: I/O+ Mem- BusMaster- SpecCycle- MemWINV- VGASnoop- ParErr-
Stepping- SERR- FastB2B-
	Status: Cap- 66Mhz- UDF- FastB2B+ ParErr- DEVSEL=medium >TAbort-
<TAbort- <MAbort- >SERR- <PERR-
00: 86 80 13 71 01 00 80 02 01 00 80 06 00 00 00 00
10: 00 00 00 00 00 00 00 00 00 00 00 00 00 00 00 00
20: 00 00 00 00 00 00 00 00 00 00 00 00 00 00 00 00
30: 00 00 00 00 00 00 00 00 00 00 00 00 00 00 00 00
00:02.0 VGA compatible controller: Cirrus Logic GD 7556 Video/Graphics
LCD/CRT Ctrlr (prog-if 00 [VGA])
	Control: I/O+ Mem+ BusMaster- SpecCycle- MemWINV- VGASnoop- ParErr-
Stepping- SERR- FastB2B-
	Status: Cap- 66Mhz- UDF- FastB2B- ParErr- DEVSEL=medium >TAbort-
<TAbort- <MAbort- >SERR- <PERR-
	Interrupt: pin A routed to IRQ 11
	Region 0: Memory at fd000000 (32-bit, non-prefetchable)
00: 13 10 4c 00 03 00 00 02 00 00 00 03 00 00 00 00
10: 00 00 00 fd 00 00 00 00 00 00 00 00 00 00 00 00
20: 00 00 00 00 00 00 00 00 00 00 00 00 00 00 00 00
30: 00 00 00 00 00 00 00 00 00 00 00 00 0b 01 00 00
00:03.0 CardBus bridge: Texas Instruments PCI1131 (rev 01)
	Control: I/O+ Mem+ BusMaster+ SpecCycle- MemWINV- VGASnoop- ParErr-
Stepping- SERR- FastB2B-
	Status: Cap- 66Mhz- UDF- FastB2B- ParErr- DEVSEL=medium >TAbort-
<TAbort- <MAbort- >SERR- <PERR-
	Latency: 168 set, cache line size 08
	Interrupt: pin A routed to IRQ 11
	Region 0: Memory at 10000000 (32-bit, non-prefetchable)
	Bus: primary=00, secondary=20, subordinate=22, sec-latency=176
	Memory window 0: 00000000-00000000 (prefetchable)
	Memory window 1: 00000000-00000000 (prefetchable)
	I/O window 0: 00000000-00000003
	I/O window 1: 00000000-00000003
	BridgeCtl: Parity- SERR- ISA- VGA- MAbort- >Reset+ 16bInt+ PostWrite+
	16-bit legacy interface ports at 0001
00: 4c 10 15 ac 07 00 00 02 01 00 07 06 08 a8 82 00
10: 00 00 00 10 00 00 00 02 00 20 22 b0 00 00 00 00
20: 00 00 00 00 00 00 00 00 00 00 00 00 00 00 00 00
30: 00 00 00 00 00 00 00 00 00 00 00 00 0b 01 c0 07
40: 00 00 00 00 01 00 00 00 00 00 00 00 00 00 00 00
50: 00 00 00 00 00 00 00 00 00 00 00 00 00 00 00 00
60: 00 00 00 00 00 00 00 00 00 00 00 00 00 00 00 00
70: 00 00 00 00 00 00 00 00 00 00 00 00 00 00 00 00
00:03.1 CardBus bridge: Texas Instruments PCI1131 (rev 01)
	Control: I/O+ Mem+ BusMaster+ SpecCycle- MemWINV- VGASnoop- ParErr-
Stepping- SERR- FastB2B-
	Status: Cap- 66Mhz- UDF- FastB2B- ParErr- DEVSEL=medium >TAbort-
<TAbort- <MAbort- >SERR- <PERR-
	Latency: 168 set, cache line size 08
	Interrupt: pin B routed to IRQ 11
	Region 0: Memory at 10001000 (32-bit, non-prefetchable)
	Bus: primary=00, secondary=23, subordinate=25, sec-latency=176
	Memory window 0: 00000000-00000000 (prefetchable)
	Memory window 1: 00000000-00000000 (prefetchable)
	I/O window 0: 00000000-00000003
	I/O window 1: 00000000-00000003
	BridgeCtl: Parity- SERR- ISA- VGA- MAbort- >Reset+ 16bInt+ PostWrite+
	16-bit legacy interface ports at 0001
00: 4c 10 15 ac 07 00 00 02 01 00 07 06 08 a8 82 00
10: 00 10 00 10 00 00 00 02 00 23 25 b0 00 00 00 00
20: 00 00 00 00 00 00 00 00 00 00 00 00 00 00 00 00
30: 00 00 00 00 00 00 00 00 00 00 00 00 0b 02 c0 07
40: 00 00 00 00 01 00 00 00 00 00 00 00 00 00 00 00
50: 00 00 00 00 00 00 00 00 00 00 00 00 00 00 00 00
60: 00 00 00 00 00 00 00 00 00 00 00 00 00 00 00 00
70: 00 00 00 00 00 00 00 00 00 00 00 00 00 00 00 00
00:0f.0 PCI bridge: Digital Equipment Corporation DECchip 21152 (rev 02)
(prog-if 00 [Normal decode])
	Control: I/O+ Mem- BusMaster- SpecCycle- MemWINV- VGASnoop- ParErr-
Stepping- SERR- FastB2B-
	Status: Cap- 66Mhz- UDF- FastB2B+ ParErr- DEVSEL=medium >TAbort-
<TAbort- <MAbort- >SERR- <PERR-
	Bus: primary=00, secondary=01, subordinate=01, sec-latency=68
	I/O behind bridge: 0000e000-0000efff
	Memory behind bridge: fcf00000-fcffffff
	Prefetchable memory behind bridge: 00000000fff00000-0000000000000000
	BridgeCtl: Parity- SERR- NoISA+ VGA- MAbort- >Reset- FastB2B-
00: 11 10 24 00 01 00 80 02 02 00 04 06 08 40 01 00
10: 00 00 00 00 00 00 00 00 00 01 01 44 e1 e1 80 22
20: f0 fc f0 fc f1 ff 01 00 00 00 00 00 00 00 00 00
30: 00 00 00 00 00 00 00 00 00 00 00 00 00 00 04 04
01:0c.0 Network controller: Compaq Computer Corporation Netelligent
10/100 (rev 10)
	Control: I/O+ Mem+ BusMaster- SpecCycle- MemWINV- VGASnoop- ParErr-
Stepping- SERR- FastB2B-
	Status: Cap- 66Mhz- UDF- FastB2B+ ParErr- DEVSEL=medium >TAbort-
<TAbort- <MAbort- >SERR- <PERR-
	Interrupt: pin A routed to IRQ 11
	Region 0: I/O ports at e800
	Region 1: Memory at fcfff800 (32-bit, non-prefetchable)
00: 11 0e 32 ae 03 00 80 02 10 00 80 02 08 40 00 00
10: 01 e8 00 00 00 f8 ff fc 00 00 00 00 00 00 00 00
20: 00 00 00 00 00 00 00 00 07 01 00 10 00 00 00 00
30: 00 00 00 00 00 00 00 00 00 00 00 00 0b 01 00 00
01:0e.0 IDE interface: CMD Technology Inc PCI0646 (rev 01) (prog-if 8f
[Master SecP SecO PriP PriO])
	Control: I/O+ Mem- BusMaster- SpecCycle- MemWINV- VGASnoop- ParErr-
Stepping- SERR- FastB2B-
	Status: Cap- 66Mhz- UDF- FastB2B+ ParErr- DEVSEL=medium >TAbort-
<TAbort- <MAbort- >SERR- <PERR-
	Interrupt: pin A routed to IRQ 11
	Region 0: I/O ports at e4d0
	Region 1: I/O ports at e4d8
	Region 2: I/O ports at e4e0
	Region 3: I/O ports at e4e8
	Region 4: I/O ports at e400
00: 95 10 46 06 01 00 80 02 01 8f 01 01 00 40 00 00
10: d1 e4 00 00 d9 e4 00 00 e1 e4 00 00 e9 e4 00 00
20: 01 e4 00 00 00 00 00 00 00 00 00 00 00 00 00 00
30: 00 00 00 00 00 00 00 00 00 00 00 00 0b 01 02 04
01:0f.0 CardBus bridge: Texas Instruments PCI1131 (rev 01)
	Control: I/O+ Mem+ BusMaster+ SpecCycle- MemWINV- VGASnoop- ParErr-
Stepping- SERR- FastB2B-
	Status: Cap- 66Mhz- UDF- FastB2B- ParErr- DEVSEL=medium >TAbort-
<TAbort- <MAbort- >SERR- <PERR-
	Latency: 0 set
	Interrupt: pin A routed to IRQ 11
	Bus: primary=00, secondary=00, subordinate=00, sec-latency=0
	Memory window 0: 00000000-00000000 (prefetchable)
	Memory window 1: 00000000-00000000 (prefetchable)
	I/O window 0: 00000000-00000003
	I/O window 1: 00000000-00000003
	BridgeCtl: Parity- SERR- ISA- VGA- MAbort- >Reset+ 16bInt- PostWrite-
	16-bit legacy interface ports at 0001
00: 4c 10 15 ac 07 00 00 02 01 00 07 06 00 00 82 00
10: 00 00 00 00 00 00 00 02 00 00 00 00 00 00 00 00
20: 00 00 00 00 00 00 00 00 00 00 00 00 00 00 00 00
30: 00 00 00 00 00 00 00 00 00 00 00 00 0b 01 40 03
40: 00 00 00 00 01 00 00 00 00 00 00 00 00 00 00 00
50: 00 00 00 00 00 00 00 00 00 00 00 00 00 00 00 00
60: 00 00 00 00 00 00 00 00 00 00 00 00 00 00 00 00
70: 00 00 00 00 00 00 00 00 00 00 00 00 00 00 00 00
01:0f.1 CardBus bridge: Texas Instruments PCI1131 (rev 01)
	Control: I/O- Mem- BusMaster- SpecCycle- MemWINV- VGASnoop- ParErr-
Stepping- SERR- FastB2B-
	Status: Cap- 66Mhz- UDF- FastB2B- ParErr- DEVSEL=medium >TAbort-
<TAbort- <MAbort- >SERR- <PERR-
	Interrupt: pin B routed to IRQ 11
	Bus: primary=00, secondary=00, subordinate=00, sec-latency=0
	Memory window 0: 00000000-00000000 [disabled] (prefetchable)
	Memory window 1: 00000000-00000000 [disabled] (prefetchable)
	I/O window 0: 00000000-00000003 [disabled]
	I/O window 1: 00000000-00000003 [disabled]
	BridgeCtl: Parity- SERR- ISA- VGA- MAbort- >Reset+ 16bInt- PostWrite-
	16-bit legacy interface ports at 0001
00: 4c 10 15 ac 00 00 00 02 01 00 07 06 00 00 82 00
10: 00 00 00 00 00 00 00 02 00 00 00 00 00 00 00 00
20: 00 00 00 00 00 00 00 00 00 00 00 00 00 00 00 00
30: 00 00 00 00 00 00 00 00 00 00 00 00 0b 02 40 03
40: 00 00 00 00 01 00 00 00 00 00 00 00 00 00 00 00
50: 00 00 00 00 00 00 00 00 00 00 00 00 00 00 00 00
60: 00 00 00 00 00 00 00 00 00 00 00 00 00 00 00 00
70: 00 00 00 00 00 00 00 00 00 00 00 00 00 00 00 00
Any help greatly appreciated,
					Andrew McMillan.
-- 
_____________________________________________________________________
            Andrew McMillan, e-mail: Andrew@cat-it.co.nz
Catalyst IT Ltd, PO Box 10-225, Level 22, 105 The Terrace, Wellington
Me: +64 (21) 635 694, Fax: +64 (4) 499 5596, Office: +64 (4) 499 2267
-
To unsubscribe from this list: send the line "unsubscribe linux-kernel" in
the body of a message to majordomo@vger.rutgers.edu
Please read the FAQ at 
http://www.tux.org/lkml/