Date: Tue, 19 Feb 2008 23:28:50 +0100
From: Andre Tomt <>
Subject: Re: USB OOPS 2.6.25-rc2-git1
Sender: linux-kernel-owner@vger.kernel.org
Precedence: bulk
List-ID: <linux-kernel.vger.kernel.org>
X-Mailing-List: linux-kernel@vger.kernel.org
X-Lkml-Link: https://lkml.org/lkml/2008/2/19/470

Some more information, lspci and config.
> pelle:~# lspci -vvvxxxnn
> 00:00.0 Host bridge [0600]: Intel Corporation 82P965/G965 Memory Controller Hub [8086:29a0] (rev 02)
>         Subsystem: Elitegroup Computer Systems Unknown device [1019:2165]
>         Control: I/O- Mem+ BusMaster+ SpecCycle- MemWINV- VGASnoop- ParErr- Stepping- SERR- FastB2B- DisINTx-
>         Status: Cap+ 66MHz- UDF- FastB2B+ ParErr- DEVSEL=fast >TAbort- <TAbort- <MAbort+ >SERR- <PERR- INTx-
>         Latency: 0
>         Capabilities: [e0] Vendor Specific Information <?>
>         Kernel modules: intel-agp
> 00: 86 80 a0 29 06 00 90 20 02 00 00 06 00 00 00 00
> 10: 00 00 00 00 00 00 00 00 00 00 00 00 00 00 00 00
> 20: 00 00 00 00 00 00 00 00 00 00 00 00 19 10 65 21
> 30: 00 00 00 00 e0 00 00 00 00 00 00 00 00 00 00 00
> 40: 01 90 d1 fe 00 00 00 00 00 40 d1 fe 00 00 00 00
> 50: 00 00 00 00 03 00 00 00 00 00 00 00 00 00 00 00
> 60: 01 00 00 e0 00 00 00 00 01 80 d1 fe 00 00 00 00
> 70: 00 00 00 00 00 00 00 00 00 00 00 00 00 00 00 00
> 80: 00 00 00 00 00 00 00 00 00 00 00 00 00 00 00 00
> 90: 30 11 11 11 00 00 00 00 ff 03 00 00 00 1a 79 00
> a0: 20 00 00 08 00 00 00 80 00 00 00 00 00 00 f0 7f
> b0: 00 80 00 00 00 00 00 00 00 00 00 00 00 00 00 00
> c0: 00 00 00 00 00 00 00 00 00 02 00 00 00 00 00 00
> d0: 00 00 00 00 00 00 00 00 49 00 00 00 00 00 00 13
> e0: 09 00 09 01 6e c3 ff 89 86 0c 00 00 00 00 00 00
> f0: 02 00 00 00 00 00 00 00 90 0f 04 00 00 00 00 00
> 
> 00:01.0 PCI bridge [0604]: Intel Corporation 82P965/G965 PCI Express Root Port [8086:29a1] (rev 02) (prog-if 00 [Normal decode])
>         Control: I/O+ Mem+ BusMaster+ SpecCycle- MemWINV- VGASnoop- ParErr- Stepping- SERR- FastB2B- DisINTx+
>         Status: Cap+ 66MHz- UDF- FastB2B- ParErr- DEVSEL=fast >TAbort- <TAbort- <MAbort- >SERR- <PERR- INTx-
>         Latency: 0, Cache Line Size: 64 bytes
>         Bus: primary=00, secondary=01, subordinate=01, sec-latency=0
>         I/O behind bridge: 0000b000-0000bfff
>         Memory behind bridge: fa000000-fcffffff
>         Prefetchable memory behind bridge: 00000000d0000000-00000000dfffffff
>         Secondary status: 66MHz- FastB2B- ParErr- DEVSEL=fast >TAbort- <TAbort- <MAbort- <SERR- <PERR-
>         BridgeCtl: Parity- SERR- NoISA- VGA+ MAbort- >Reset- FastB2B-
>                 PriDiscTmr- SecDiscTmr- DiscTmrStat- DiscTmrSERREn-
>         Capabilities: [88] Subsystem: Intel Corporation 82P965/G965 PCI Express Root Port [8086:29a1]
>         Capabilities: [80] Power Management version 3
>                 Flags: PMEClk- DSI- D1- D2- AuxCurrent=0mA PME(D0+,D1-,D2-,D3hot+,D3cold+)
>                 Status: D0 PME-Enable- DSel=0 DScale=0 PME-
>         Capabilities: [90] Message Signalled Interrupts: Mask- 64bit- Queue=0/0 Enable+
>                 Address: fee0300c  Data: 4161
>         Capabilities: [a0] Express (v1) Root Port (Slot+), MSI 00
>                 DevCap: MaxPayload 128 bytes, PhantFunc 0, Latency L0s <64ns, L1 <1us
>                         ExtTag- RBE+ FLReset-
>                 DevCtl: Report errors: Correctable+ Non-Fatal+ Fatal+ Unsupported+
>                         RlxdOrd- ExtTag- PhantFunc- AuxPwr- NoSnoop-
>                         MaxPayload 128 bytes, MaxReadReq 128 bytes
>                 DevSta: CorrErr- UncorrErr- FatalErr- UnsuppReq- AuxPwr- TransPend-
>                 LnkCap: Port #2, Speed 2.5GT/s, Width x16, ASPM L0s, Latency L0 <256ns, L1 <4us
>                         ClockPM- Suprise- LLActRep- BwNot-
>                 LnkCtl: ASPM Disabled; RCB 64 bytes Disabled- Retrain- CommClk+
>                         ExtSynch- ClockPM- AutWidDis- BWInt- AutBWInt-
>                 LnkSta: Speed 2.5GT/s, Width x16, TrErr- Train- SlotClk+ DLActive- BWMgmt- ABWMgmt-
>                 SltCap: AttnBtn- PwrCtrl- MRL- AttnInd- PwrInd- HotPlug- Surpise-
>                         Slot #  0, PowerLimit 0.000000; Interlock- NoCompl+
>                 SltCtl: Enable: AttnBtn- PwrFlt- MRL- PresDet- CmdCplt- HPIrq- LinkChg-
>                         Control: AttnInd Off, PwrInd On, Power- Interlock-
>                 SltSta: Status: AttnBtn- PowerFlt- MRL- CmdCplt- PresDet+ Interlock-
>                         Changed: MRL- PresDet+ LinkState-
>                 RootCtl: ErrCorrectable- ErrNon-Fatal- ErrFatal- PMEIntEna- CRSVisible-
>                 RootCap: CRSVisible-
>                 RootSta: PME ReqID 0000, PMEStatus- PMEPending-
>         Capabilities: [100] Virtual Channel <?>
>         Capabilities: [140] Root Complex Link <?>
>         Kernel driver in use: pcieport-driver
>         Kernel modules: shpchp
> 00: 86 80 a1 29 07 04 10 00 02 00 04 06 10 00 01 00
> 10: 00 00 00 00 00 00 00 00 00 01 01 00 b0 b0 00 00
> 20: 00 fa f0 fc 01 d0 f1 df 00 00 00 00 00 00 00 00
> 30: 00 00 00 00 88 00 00 00 00 00 00 00 07 01 08 00
> 40: 00 00 00 00 00 00 00 00 00 00 00 00 00 00 00 00
> 50: 00 00 00 00 00 00 00 00 00 00 00 00 00 00 00 00
> 60: 00 00 00 00 00 00 00 00 00 00 00 00 00 00 00 00
> 70: 00 00 00 00 00 00 00 00 00 00 00 00 00 00 00 02
> 80: 01 90 03 c8 08 00 00 00 0d 80 00 00 86 80 a1 29
> 90: 05 a0 01 00 0c 30 e0 fe 61 41 00 00 00 00 00 00
> a0: 10 00 41 01 00 80 00 00 0f 00 00 00 01 25 01 02
> b0: 40 00 01 11 00 00 04 00 c0 01 48 00 00 00 00 00
> c0: 00 00 00 00 00 00 00 00 00 00 00 00 00 00 00 00
> d0: 00 00 00 00 00 00 00 00 00 00 00 00 00 00 00 00
> e0: 00 00 00 00 00 00 00 00 00 00 00 00 01 00 00 00
> f0: 00 00 01 00 03 e1 3f 00 90 0f 04 00 00 00 00 00
> 
> 00:19.0 Ethernet controller [0200]: Intel Corporation 82566DC Gigabit Network Connection [8086:104b] (rev 02)
>         Subsystem: Elitegroup Computer Systems Unknown device [1019:2165]
>         Control: I/O+ Mem+ BusMaster+ SpecCycle- MemWINV- VGASnoop- ParErr- Stepping- SERR- FastB2B- DisINTx+
>         Status: Cap+ 66MHz- UDF- FastB2B- ParErr- DEVSEL=fast >TAbort- <TAbort- <MAbort- >SERR- <PERR- INTx-
>         Latency: 0
>         Interrupt: pin A routed to IRQ 505
>         Region 0: Memory at fdfc0000 (32-bit, non-prefetchable) [size=128K]
>         Region 1: Memory at fdfff000 (32-bit, non-prefetchable) [size=4K]
>         Region 2: I/O ports at ff00 [size=32]
>         Capabilities: [c8] Power Management version 2
>                 Flags: PMEClk- DSI+ D1- D2- AuxCurrent=0mA PME(D0+,D1-,D2-,D3hot+,D3cold+)
>                 Status: D0 PME-Enable- DSel=0 DScale=1 PME-
>         Capabilities: [d0] Message Signalled Interrupts: Mask- 64bit+ Queue=0/0 Enable+
>                 Address: 00000000fee0300c  Data: 41b1
>         Kernel driver in use: e1000e
>         Kernel modules: e1000e
> 00: 86 80 4b 10 07 04 10 00 02 00 00 02 00 00 00 00
> 10: 00 00 fc fd 00 f0 ff fd 01 ff 00 00 00 00 00 00
> 20: 00 00 00 00 00 00 00 00 00 00 00 00 19 10 65 21
> 30: 00 00 00 00 c8 00 00 00 00 00 00 00 03 01 00 00
> 40: 00 00 00 00 00 00 00 00 00 00 00 00 00 00 00 00
> 50: 00 00 00 00 00 00 00 00 00 00 00 00 00 00 00 00
> 60: 00 00 00 00 00 00 00 00 00 00 00 00 00 00 00 00
> 70: 00 00 00 00 00 00 00 00 00 00 00 00 00 00 00 00
> 80: 00 00 00 00 00 00 00 00 00 00 00 00 00 00 00 00
> 90: 00 00 00 00 00 00 00 00 00 00 00 00 00 00 00 00
> a0: 00 00 00 00 00 00 00 00 00 00 00 00 00 00 00 00
> b0: 00 00 00 00 00 00 00 00 00 00 00 00 00 00 00 00
> c0: 00 00 00 00 00 00 00 00 01 d0 22 c8 00 20 00 0d
> d0: 05 00 81 00 0c 30 e0 fe 00 00 00 00 b1 41 00 00
> e0: 00 00 00 00 00 00 00 00 00 00 00 00 00 00 00 00
> f0: 00 00 00 00 00 00 00 00 00 00 00 00 00 00 00 00
> 
> 00:1a.0 USB Controller [0c03]: Intel Corporation 82801H (ICH8 Family) USB UHCI Contoller #4 [8086:2834] (rev 02) (prog-if 00 [UHCI])
>         Subsystem: Elitegroup Computer Systems Unknown device [1019:2165]
>         Control: I/O+ Mem- BusMaster+ SpecCycle- MemWINV- VGASnoop- ParErr- Stepping- SERR- FastB2B- DisINTx-
>         Status: Cap- 66MHz- UDF- FastB2B+ ParErr- DEVSEL=medium >TAbort- <TAbort- <MAbort- >SERR- <PERR- INTx-
>         Latency: 0
>         Interrupt: pin A routed to IRQ 16
>         Region 4: I/O ports at fe00 [size=32]
>         Kernel driver in use: uhci_hcd
>         Kernel modules: uhci-hcd
> 00: 86 80 34 28 05 00 80 02 02 00 03 0c 00 00 80 00
> 10: 00 00 00 00 00 00 00 00 00 00 00 00 00 00 00 00
> 20: 01 fe 00 00 00 00 00 00 00 00 00 00 19 10 65 21
> 30: 00 00 00 00 00 00 00 00 00 00 00 00 07 01 00 00
> 40: 00 00 00 00 00 00 00 00 00 00 00 00 00 00 00 00
> 50: 00 00 00 00 00 00 00 00 00 00 00 00 00 00 00 00
> 60: 10 00 00 00 00 00 00 00 00 00 00 00 00 00 00 00
> 70: 00 00 00 00 00 00 00 00 00 00 00 00 00 00 00 00
> 80: 00 00 00 00 00 00 00 00 00 00 00 00 00 00 00 00
> 90: 00 00 00 00 00 00 00 00 00 00 00 00 00 00 00 00
> a0: 00 00 00 00 00 00 00 00 00 00 00 00 00 00 00 00
> b0: 00 00 00 00 00 00 00 00 00 00 00 00 00 00 00 00
> c0: 00 20 00 00 00 00 00 00 00 00 01 00 00 00 00 00
> d0: 00 00 00 00 00 00 00 00 00 00 00 00 00 00 00 00
> e0: 00 00 00 00 00 00 00 00 00 00 00 00 00 00 00 00
> f0: 00 00 00 00 00 00 00 00 86 0f 02 00 00 00 00 00
> 
> 00:1a.1 USB Controller [0c03]: Intel Corporation 82801H (ICH8 Family) USB UHCI Controller #5 [8086:2835] (rev 02) (prog-if 00 [UHCI])
>         Subsystem: Elitegroup Computer Systems Unknown device [1019:2165]
>         Control: I/O+ Mem- BusMaster+ SpecCycle- MemWINV- VGASnoop- ParErr- Stepping- SERR- FastB2B- DisINTx-
>         Status: Cap- 66MHz- UDF- FastB2B+ ParErr- DEVSEL=medium >TAbort- <TAbort- <MAbort- >SERR- <PERR- INTx-
>         Latency: 0
>         Interrupt: pin B routed to IRQ 21
>         Region 4: I/O ports at fd00 [size=32]
>         Kernel driver in use: uhci_hcd
>         Kernel modules: uhci-hcd
> 00: 86 80 35 28 05 00 80 02 02 00 03 0c 00 00 00 00
> 10: 00 00 00 00 00 00 00 00 00 00 00 00 00 00 00 00
> 20: 01 fd 00 00 00 00 00 00 00 00 00 00 19 10 65 21
> 30: 00 00 00 00 00 00 00 00 00 00 00 00 0b 02 00 00
> 40: 00 00 00 00 00 00 00 00 00 00 00 00 00 00 00 00
> 50: 00 00 00 00 00 00 00 00 00 00 00 00 00 00 00 00
> 60: 10 00 00 00 00 00 00 00 00 00 00 00 00 00 00 00
> 70: 00 00 00 00 00 00 00 00 00 00 00 00 00 00 00 00
> 80: 00 00 00 00 00 00 00 00 00 00 00 00 00 00 00 00
> 90: 00 00 00 00 00 00 00 00 00 00 00 00 00 00 00 00
> a0: 00 00 00 00 00 00 00 00 00 00 00 00 00 00 00 00
> b0: 00 00 00 00 00 00 00 00 00 00 00 00 00 00 00 00
> c0: 00 20 00 00 00 00 00 00 00 00 01 00 00 00 00 00
> d0: 00 00 00 00 00 00 00 00 00 00 00 00 00 00 00 00
> e0: 00 00 00 00 00 00 00 00 00 00 00 00 00 00 00 00
> f0: 00 00 00 00 00 00 00 00 86 0f 02 00 00 00 00 00
> 
> 00:1a.7 USB Controller [0c03]: Intel Corporation 82801H (ICH8 Family) USB2 EHCI Controller #2 [8086:283a] (rev 02) (prog-if 20 [EHCI])
>         Subsystem: Elitegroup Computer Systems Unknown device [1019:2165]
>         Control: I/O- Mem+ BusMaster+ SpecCycle- MemWINV- VGASnoop- ParErr- Stepping- SERR- FastB2B- DisINTx-
>         Status: Cap+ 66MHz- UDF- FastB2B+ ParErr- DEVSEL=medium >TAbort- <TAbort- <MAbort- >SERR- <PERR- INTx-
>         Latency: 0
>         Interrupt: pin C routed to IRQ 18
>         Region 0: Memory at fdffe000 (32-bit, non-prefetchable) [size=1K]
>         Capabilities: [50] Power Management version 2
>                 Flags: PMEClk- DSI- D1- D2- AuxCurrent=375mA PME(D0+,D1-,D2-,D3hot+,D3cold+)
>                 Status: D0 PME-Enable- DSel=0 DScale=0 PME-
>         Capabilities: [58] Debug port: BAR=1 offset=00a0
>         Kernel driver in use: ehci_hcd
>         Kernel modules: ehci-hcd
> 00: 86 80 3a 28 06 00 90 02 02 20 03 0c 00 00 00 00
> 10: 00 e0 ff fd 00 00 00 00 00 00 00 00 00 00 00 00
> 20: 00 00 00 00 00 00 00 00 00 00 00 00 19 10 65 21
> 30: 00 00 00 00 50 00 00 00 00 00 00 00 0a 03 00 00
> 40: 00 00 00 00 00 00 00 00 00 00 00 00 00 00 00 00
> 50: 01 58 c2 c9 00 00 00 00 0a 00 a0 20 00 00 00 00
> 60: 20 20 ff 01 00 00 00 00 01 00 00 00 00 00 08 c0
> 70: 00 00 c7 03 00 00 00 00 00 00 00 00 00 00 00 00
> 80: 00 00 00 00 01 00 00 00 00 00 00 00 00 00 00 00
> 90: 00 00 00 00 00 00 00 00 00 00 00 00 00 00 00 00
> a0: 00 00 00 00 00 00 00 00 00 00 00 00 00 00 00 00
> b0: 00 00 00 00 00 00 00 00 00 00 00 00 00 00 00 00
> c0: 00 00 00 00 00 00 00 00 00 00 00 00 00 00 00 00
> d0: 00 00 00 00 00 aa ff 00 00 00 00 00 00 00 00 00
> e0: 00 00 00 00 00 00 00 00 00 00 00 00 00 00 00 00
> f0: 00 00 00 00 88 85 40 00 86 0f 02 00 86 97 02 7a
> 
> 00:1c.0 PCI bridge [0604]: Intel Corporation 82801H (ICH8 Family) PCI Express Port 1 [8086:283f] (rev 02) (prog-if 00 [Normal decode])
>         Control: I/O+ Mem+ BusMaster+ SpecCycle- MemWINV- VGASnoop- ParErr- Stepping- SERR- FastB2B- DisINTx+
>         Status: Cap+ 66MHz- UDF- FastB2B- ParErr- DEVSEL=fast >TAbort- <TAbort- <MAbort- >SERR- <PERR- INTx-
>         Latency: 0, Cache Line Size: 64 bytes
>         Bus: primary=00, secondary=02, subordinate=02, sec-latency=0
>         I/O behind bridge: 0000a000-0000afff
>         Memory behind bridge: fda00000-fdafffff
>         Prefetchable memory behind bridge: 00000000fd700000-00000000fd7fffff
>         Secondary status: 66MHz- FastB2B- ParErr- DEVSEL=fast >TAbort- <TAbort- <MAbort- <SERR- <PERR-
>         BridgeCtl: Parity- SERR- NoISA- VGA- MAbort- >Reset- FastB2B-
>                 PriDiscTmr- SecDiscTmr- DiscTmrStat- DiscTmrSERREn-
>         Capabilities: [40] Express (v1) Root Port (Slot+), MSI 00
>                 DevCap: MaxPayload 128 bytes, PhantFunc 0, Latency L0s unlimited, L1 unlimited
>                         ExtTag- RBE+ FLReset-
>                 DevCtl: Report errors: Correctable+ Non-Fatal+ Fatal+ Unsupported+
>                         RlxdOrd- ExtTag- PhantFunc- AuxPwr- NoSnoop-
>                         MaxPayload 128 bytes, MaxReadReq 128 bytes
>                 DevSta: CorrErr- UncorrErr- FatalErr- UnsuppReq- AuxPwr+ TransPend-
>                 LnkCap: Port #1, Speed 2.5GT/s, Width x1, ASPM L0s, Latency L0 <1us, L1 <4us
>                         ClockPM- Suprise- LLActRep+ BwNot-
>                 LnkCtl: ASPM Disabled; RCB 64 bytes Disabled+ Retrain- CommClk-
>                         ExtSynch- ClockPM- AutWidDis- BWInt- AutBWInt-
>                 LnkSta: Speed 2.5GT/s, Width x0, TrErr- Train- SlotClk+ DLActive- BWMgmt- ABWMgmt-
>                 SltCap: AttnBtn- PwrCtrl- MRL- AttnInd- PwrInd- HotPlug+ Surpise+
>                         Slot # 10, PowerLimit 10.000000; Interlock- NoCompl-
>                 SltCtl: Enable: AttnBtn- PwrFlt- MRL- PresDet- CmdCplt- HPIrq- LinkChg-
>                         Control: AttnInd Unknown, PwrInd Unknown, Power- Interlock-
>                 SltSta: Status: AttnBtn- PowerFlt- MRL- CmdCplt- PresDet- Interlock-
>                         Changed: MRL- PresDet- LinkState-
>                 RootCtl: ErrCorrectable- ErrNon-Fatal- ErrFatal+ PMEIntEna- CRSVisible-
>                 RootCap: CRSVisible-
>                 RootSta: PME ReqID 0000, PMEStatus- PMEPending-
>         Capabilities: [80] Message Signalled Interrupts: Mask- 64bit- Queue=0/0 Enable+
>                 Address: fee0300c  Data: 4169
>         Capabilities: [90] Subsystem: Intel Corporation 82801H (ICH8 Family) PCI Express Port 1 [8086:283f]
>         Capabilities: [a0] Power Management version 2
>                 Flags: PMEClk- DSI- D1- D2- AuxCurrent=0mA PME(D0+,D1-,D2-,D3hot+,D3cold+)
>                 Status: D0 PME-Enable- DSel=0 DScale=0 PME-
>         Capabilities: [100] Virtual Channel <?>
>         Capabilities: [180] Root Complex Link <?>
>         Kernel driver in use: pcieport-driver
>         Kernel modules: shpchp
> 00: 86 80 3f 28 07 04 10 00 02 00 04 06 10 00 81 00
> 10: 00 00 00 00 00 00 00 00 00 02 02 00 a0 a0 00 00
> 20: a0 fd a0 fd 71 fd 71 fd 00 00 00 00 00 00 00 00
> 30: 00 00 00 00 40 00 00 00 00 00 00 00 07 01 00 00
> 40: 10 80 41 01 c0 8f 00 00 0f 00 10 00 11 44 11 01
> 50: 10 00 01 10 60 05 80 00 00 00 00 00 04 00 00 00
> 60: 00 00 00 00 00 00 00 00 00 00 00 00 00 00 00 00
> 70: 00 00 00 00 00 00 00 00 00 00 00 00 00 00 00 00
> 80: 05 90 01 00 0c 30 e0 fe 69 41 00 00 00 00 00 00
> 90: 0d a0 00 00 86 80 3f 28 00 00 00 00 00 00 00 00
> a0: 01 00 02 c8 00 00 00 00 00 00 00 00 00 00 00 00
> b0: 00 00 00 00 00 00 00 00 00 00 00 00 00 00 00 00
> c0: 00 00 00 00 00 00 00 00 00 00 00 00 00 00 00 00
> d0: 00 00 00 00 00 00 00 00 80 00 11 88 00 00 00 00
> e0: 00 00 c7 00 06 07 08 00 30 00 00 00 00 00 00 00
> f0: 00 00 00 00 00 00 00 00 86 0f 02 00 00 00 00 00
> 
> 00:1c.1 PCI bridge [0604]: Intel Corporation 82801H (ICH8 Family) PCI Express Port 2 [8086:2841] (rev 02) (prog-if 00 [Normal decode])
>         Control: I/O+ Mem+ BusMaster+ SpecCycle- MemWINV- VGASnoop- ParErr- Stepping- SERR- FastB2B- DisINTx+
>         Status: Cap+ 66MHz- UDF- FastB2B- ParErr- DEVSEL=fast >TAbort- <TAbort- <MAbort- >SERR- <PERR- INTx-
>         Latency: 0, Cache Line Size: 64 bytes
>         Bus: primary=00, secondary=03, subordinate=03, sec-latency=0
>         I/O behind bridge: 00009000-00009fff
>         Memory behind bridge: fd600000-fd6fffff
>         Prefetchable memory behind bridge: 00000000fd500000-00000000fd5fffff
>         Secondary status: 66MHz- FastB2B- ParErr- DEVSEL=fast >TAbort- <TAbort- <MAbort- <SERR- <PERR-
>         BridgeCtl: Parity- SERR- NoISA- VGA- MAbort- >Reset- FastB2B-
>                 PriDiscTmr- SecDiscTmr- DiscTmrStat- DiscTmrSERREn-
>         Capabilities: [40] Express (v1) Root Port (Slot+), MSI 00
>                 DevCap: MaxPayload 128 bytes, PhantFunc 0, Latency L0s unlimited, L1 unlimited
>                         ExtTag- RBE+ FLReset-
>                 DevCtl: Report errors: Correctable+ Non-Fatal+ Fatal+ Unsupported+
>                         RlxdOrd- ExtTag- PhantFunc- AuxPwr- NoSnoop-
>                         MaxPayload 128 bytes, MaxReadReq 128 bytes
>                 DevSta: CorrErr- UncorrErr- FatalErr- UnsuppReq- AuxPwr+ TransPend-
>                 LnkCap: Port #2, Speed 2.5GT/s, Width x1, ASPM L0s, Latency L0 <256ns, L1 <4us
>                         ClockPM- Suprise- LLActRep+ BwNot-
>                 LnkCtl: ASPM Disabled; RCB 64 bytes Disabled- Retrain- CommClk+
>                         ExtSynch- ClockPM- AutWidDis- BWInt- AutBWInt-
>                 LnkSta: Speed 2.5GT/s, Width x1, TrErr- Train- SlotClk+ DLActive+ BWMgmt- ABWMgmt-
>                 SltCap: AttnBtn- PwrCtrl- MRL- AttnInd- PwrInd- HotPlug+ Surpise+
>                         Slot # 11, PowerLimit 10.000000; Interlock- NoCompl-
>                 SltCtl: Enable: AttnBtn- PwrFlt- MRL- PresDet- CmdCplt- HPIrq- LinkChg-
>                         Control: AttnInd Unknown, PwrInd Unknown, Power- Interlock-
>                 SltSta: Status: AttnBtn- PowerFlt- MRL- CmdCplt- PresDet+ Interlock-
>                         Changed: MRL- PresDet+ LinkState+
>                 RootCtl: ErrCorrectable- ErrNon-Fatal- ErrFatal+ PMEIntEna- CRSVisible-
>                 RootCap: CRSVisible-
>                 RootSta: PME ReqID 0000, PMEStatus- PMEPending-
>         Capabilities: [80] Message Signalled Interrupts: Mask- 64bit- Queue=0/0 Enable+
>                 Address: fee0300c  Data: 4171
>         Capabilities: [90] Subsystem: Intel Corporation 82801H (ICH8 Family) PCI Express Port 2 [8086:2841]
>         Capabilities: [a0] Power Management version 2
>                 Flags: PMEClk- DSI- D1- D2- AuxCurrent=0mA PME(D0+,D1-,D2-,D3hot+,D3cold+)
>                 Status: D0 PME-Enable- DSel=0 DScale=0 PME-
>         Capabilities: [100] Virtual Channel <?>
>         Capabilities: [180] Root Complex Link <?>
>         Kernel driver in use: pcieport-driver
>         Kernel modules: shpchp
> 00: 86 80 41 28 07 04 10 00 02 00 04 06 10 00 81 00
> 10: 00 00 00 00 00 00 00 00 00 03 03 00 90 90 00 00
> 20: 60 fd 60 fd 51 fd 51 fd 00 00 00 00 00 00 00 00
> 30: 00 00 00 00 40 00 00 00 00 00 00 00 05 02 00 00
> 40: 10 80 41 01 c0 8f 00 00 0f 00 10 00 11 24 11 02
> 50: 40 00 11 30 60 05 88 00 00 00 48 01 04 00 00 00
> 60: 00 00 00 00 00 00 00 00 00 00 00 00 00 00 00 00
> 70: 00 00 00 00 00 00 00 00 00 00 00 00 00 00 00 00
> 80: 05 90 01 00 0c 30 e0 fe 71 41 00 00 00 00 00 00
> 90: 0d a0 00 00 86 80 41 28 00 00 00 00 00 00 00 00
> a0: 01 00 02 c8 00 00 00 00 00 00 00 00 00 00 00 00
> b0: 00 00 00 00 00 00 00 00 00 00 00 00 00 00 00 00
> c0: 00 00 00 00 00 00 00 00 00 00 00 00 00 00 00 00
> d0: 00 00 00 00 00 00 00 00 80 00 11 88 00 00 00 00
> e0: 00 00 c7 00 06 07 08 00 30 00 00 00 00 00 00 00
> f0: 00 00 00 00 00 00 00 00 86 0f 02 00 00 00 00 00
> 
> 00:1c.2 PCI bridge [0604]: Intel Corporation 82801H (ICH8 Family) PCI Express Port 3 [8086:2843] (rev 02) (prog-if 00 [Normal decode])
>         Control: I/O+ Mem+ BusMaster+ SpecCycle- MemWINV- VGASnoop- ParErr- Stepping- SERR- FastB2B- DisINTx+
>         Status: Cap+ 66MHz- UDF- FastB2B- ParErr- DEVSEL=fast >TAbort- <TAbort- <MAbort- >SERR- <PERR- INTx-
>         Latency: 0, Cache Line Size: 64 bytes
>         Bus: primary=00, secondary=04, subordinate=04, sec-latency=0
>         I/O behind bridge: 0000d000-0000dfff
>         Memory behind bridge: fde00000-fdefffff
>         Prefetchable memory behind bridge: 00000000fdd00000-00000000fddfffff
>         Secondary status: 66MHz- FastB2B- ParErr- DEVSEL=fast >TAbort- <TAbort- <MAbort- <SERR- <PERR-
>         BridgeCtl: Parity- SERR- NoISA- VGA- MAbort- >Reset- FastB2B-
>                 PriDiscTmr- SecDiscTmr- DiscTmrStat- DiscTmrSERREn-
>         Capabilities: [40] Express (v1) Root Port (Slot+), MSI 00
>                 DevCap: MaxPayload 128 bytes, PhantFunc 0, Latency L0s unlimited, L1 unlimited
>                         ExtTag- RBE+ FLReset-
>                 DevCtl: Report errors: Correctable+ Non-Fatal+ Fatal+ Unsupported+
>                         RlxdOrd- ExtTag- PhantFunc- AuxPwr- NoSnoop-
>                         MaxPayload 128 bytes, MaxReadReq 128 bytes
>                 DevSta: CorrErr- UncorrErr- FatalErr- UnsuppReq- AuxPwr+ TransPend-
>                 LnkCap: Port #3, Speed 2.5GT/s, Width x1, ASPM L0s, Latency L0 <256ns, L1 <4us
>                         ClockPM- Suprise- LLActRep+ BwNot-
>                 LnkCtl: ASPM Disabled; RCB 64 bytes Disabled- Retrain- CommClk+
>                         ExtSynch- ClockPM- AutWidDis- BWInt- AutBWInt-
>                 LnkSta: Speed 2.5GT/s, Width x1, TrErr- Train- SlotClk+ DLActive+ BWMgmt- ABWMgmt-
>                 SltCap: AttnBtn- PwrCtrl- MRL- AttnInd- PwrInd- HotPlug+ Surpise+
>                         Slot # 12, PowerLimit 10.000000; Interlock- NoCompl-
>                 SltCtl: Enable: AttnBtn- PwrFlt- MRL- PresDet- CmdCplt- HPIrq- LinkChg-
>                         Control: AttnInd Unknown, PwrInd Unknown, Power- Interlock-
>                 SltSta: Status: AttnBtn- PowerFlt- MRL- CmdCplt- PresDet+ Interlock-
>                         Changed: MRL- PresDet+ LinkState+
>                 RootCtl: ErrCorrectable- ErrNon-Fatal- ErrFatal+ PMEIntEna- CRSVisible-
>                 RootCap: CRSVisible-
>                 RootSta: PME ReqID 0000, PMEStatus- PMEPending-
>         Capabilities: [80] Message Signalled Interrupts: Mask- 64bit- Queue=0/0 Enable+
>                 Address: fee0300c  Data: 4179
>         Capabilities: [90] Subsystem: Intel Corporation 82801H (ICH8 Family) PCI Express Port 3 [8086:2843]
>         Capabilities: [a0] Power Management version 2
>                 Flags: PMEClk- DSI- D1- D2- AuxCurrent=0mA PME(D0+,D1-,D2-,D3hot+,D3cold+)
>                 Status: D0 PME-Enable- DSel=0 DScale=0 PME-
>         Capabilities: [100] Virtual Channel <?>
>         Capabilities: [180] Root Complex Link <?>
>         Kernel driver in use: pcieport-driver
>         Kernel modules: shpchp
> 00: 86 80 43 28 07 04 10 00 02 00 04 06 10 00 81 00
> 10: 00 00 00 00 00 00 00 00 00 04 04 00 d0 d0 00 00
> 20: e0 fd e0 fd d1 fd d1 fd 00 00 00 00 00 00 00 00
> 30: 00 00 00 00 40 00 00 00 00 00 00 00 0a 03 00 00
> 40: 10 80 41 01 c0 8f 00 00 0f 00 10 00 11 24 11 03
> 50: 40 00 11 30 60 05 90 00 00 00 48 01 04 00 00 00
> 60: 00 00 00 00 00 00 00 00 00 00 00 00 00 00 00 00
> 70: 00 00 00 00 00 00 00 00 00 00 00 00 00 00 00 00
> 80: 05 90 01 00 0c 30 e0 fe 79 41 00 00 00 00 00 00
> 90: 0d a0 00 00 86 80 43 28 00 00 00 00 00 00 00 00
> a0: 01 00 02 c8 00 00 00 00 00 00 00 00 00 00 00 00
> b0: 00 00 00 00 00 00 00 00 00 00 00 00 00 00 00 00
> c0: 00 00 00 00 00 00 00 00 00 00 00 00 00 00 00 00
> d0: 00 00 00 00 00 00 00 00 80 00 11 88 00 00 00 00
> e0: 00 00 c7 00 06 07 08 00 30 00 00 00 00 00 00 00
> f0: 00 00 00 00 00 00 00 00 86 0f 02 00 00 00 00 00
> 
> 00:1c.4 PCI bridge [0604]: Intel Corporation 82801H (ICH8 Family) PCI Express Port 5 [8086:2847] (rev 02) (prog-if 00 [Normal decode])
>         Control: I/O+ Mem+ BusMaster+ SpecCycle- MemWINV- VGASnoop- ParErr- Stepping- SERR- FastB2B- DisINTx+
>         Status: Cap+ 66MHz- UDF- FastB2B- ParErr- DEVSEL=fast >TAbort- <TAbort- <MAbort- >SERR- <PERR- INTx-
>         Latency: 0, Cache Line Size: 64 bytes
>         Bus: primary=00, secondary=05, subordinate=05, sec-latency=0
>         I/O behind bridge: 0000c000-0000cfff
>         Memory behind bridge: fdc00000-fdcfffff
>         Prefetchable memory behind bridge: 00000000fdb00000-00000000fdbfffff
>         Secondary status: 66MHz- FastB2B- ParErr- DEVSEL=fast >TAbort- <TAbort- <MAbort- <SERR- <PERR-
>         BridgeCtl: Parity- SERR- NoISA- VGA- MAbort- >Reset- FastB2B-
>                 PriDiscTmr- SecDiscTmr- DiscTmrStat- DiscTmrSERREn-
>         Capabilities: [40] Express (v1) Root Port (Slot+), MSI 00
>                 DevCap: MaxPayload 128 bytes, PhantFunc 0, Latency L0s unlimited, L1 unlimited
>                         ExtTag- RBE+ FLReset-
>                 DevCtl: Report errors: Correctable+ Non-Fatal+ Fatal+ Unsupported+
>                         RlxdOrd- ExtTag- PhantFunc- AuxPwr- NoSnoop-
>                         MaxPayload 128 bytes, MaxReadReq 128 bytes
>                 DevSta: CorrErr- UncorrErr- FatalErr- UnsuppReq- AuxPwr+ TransPend-
>                 LnkCap: Port #5, Speed 2.5GT/s, Width x1, ASPM L0s, Latency L0 <256ns, L1 <4us
>                         ClockPM- Suprise- LLActRep+ BwNot-
>                 LnkCtl: ASPM Disabled; RCB 64 bytes Disabled- Retrain- CommClk+
>                         ExtSynch- ClockPM- AutWidDis- BWInt- AutBWInt-
>                 LnkSta: Speed 2.5GT/s, Width x1, TrErr- Train- SlotClk+ DLActive+ BWMgmt- ABWMgmt-
>                 SltCap: AttnBtn- PwrCtrl- MRL- AttnInd- PwrInd- HotPlug+ Surpise+
>                         Slot # 14, PowerLimit 10.000000; Interlock- NoCompl-
>                 SltCtl: Enable: AttnBtn- PwrFlt- MRL- PresDet- CmdCplt- HPIrq- LinkChg-
>                         Control: AttnInd Unknown, PwrInd Unknown, Power- Interlock-
>                 SltSta: Status: AttnBtn- PowerFlt- MRL- CmdCplt- PresDet+ Interlock-
>                         Changed: MRL- PresDet+ LinkState+
>                 RootCtl: ErrCorrectable- ErrNon-Fatal- ErrFatal+ PMEIntEna- CRSVisible-
>                 RootCap: CRSVisible-
>                 RootSta: PME ReqID 0000, PMEStatus- PMEPending-
>         Capabilities: [80] Message Signalled Interrupts: Mask- 64bit- Queue=0/0 Enable+
>                 Address: fee0300c  Data: 4181
>         Capabilities: [90] Subsystem: Intel Corporation 82801H (ICH8 Family) PCI Express Port 5 [8086:2847]
>         Capabilities: [a0] Power Management version 2
>                 Flags: PMEClk- DSI- D1- D2- AuxCurrent=0mA PME(D0+,D1-,D2-,D3hot+,D3cold+)
>                 Status: D0 PME-Enable- DSel=0 DScale=0 PME-
>         Capabilities: [100] Virtual Channel <?>
>         Capabilities: [180] Root Complex Link <?>
>         Kernel driver in use: pcieport-driver
>         Kernel modules: shpchp
> 00: 86 80 47 28 07 04 10 00 02 00 04 06 10 00 81 00
> 10: 00 00 00 00 00 00 00 00 00 05 05 00 c0 c0 00 00
> 20: c0 fd c0 fd b1 fd b1 fd 00 00 00 00 00 00 00 00
> 30: 00 00 00 00 40 00 00 00 00 00 00 00 07 01 00 00
> 40: 10 80 41 01 c0 8f 00 00 0f 00 10 00 11 24 11 05
> 50: 40 00 11 30 60 05 a0 00 00 00 48 01 04 00 00 00
> 60: 00 00 00 00 00 00 00 00 00 00 00 00 00 00 00 00
> 70: 00 00 00 00 00 00 00 00 00 00 00 00 00 00 00 00
> 80: 05 90 01 00 0c 30 e0 fe 81 41 00 00 00 00 00 00
> 90: 0d a0 00 00 86 80 47 28 00 00 00 00 00 00 00 00
> a0: 01 00 02 c8 00 00 00 00 00 00 00 00 00 00 00 00
> b0: 00 00 00 00 00 00 00 00 00 00 00 00 00 00 00 00
> c0: 00 00 00 00 00 00 00 00 00 00 00 00 00 00 00 00
> d0: 00 00 00 00 00 00 00 00 80 00 11 88 00 00 00 00
> e0: 00 00 c7 00 06 07 08 00 30 00 00 00 00 00 00 00
> f0: 00 00 00 00 00 00 00 00 86 0f 02 00 00 00 00 00
> 
> 00:1d.0 USB Controller [0c03]: Intel Corporation 82801H (ICH8 Family) USB UHCI Controller #1 [8086:2830] (rev 02) (prog-if 00 [UHCI])
>         Subsystem: Elitegroup Computer Systems Unknown device [1019:2165]
>         Control: I/O+ Mem- BusMaster+ SpecCycle- MemWINV- VGASnoop- ParErr- Stepping- SERR- FastB2B- DisINTx-
>         Status: Cap- 66MHz- UDF- FastB2B+ ParErr- DEVSEL=medium >TAbort- <TAbort- <MAbort- >SERR- <PERR- INTx-
>         Latency: 0
>         Interrupt: pin A routed to IRQ 23
>         Region 4: I/O ports at fc00 [size=32]
>         Kernel driver in use: uhci_hcd
>         Kernel modules: uhci-hcd
> 00: 86 80 30 28 05 00 80 02 02 00 03 0c 00 00 80 00
> 10: 00 00 00 00 00 00 00 00 00 00 00 00 00 00 00 00
> 20: 01 fc 00 00 00 00 00 00 00 00 00 00 19 10 65 21
> 30: 00 00 00 00 00 00 00 00 00 00 00 00 09 01 00 00
> 40: 00 00 00 00 00 00 00 00 00 00 00 00 00 00 00 00
> 50: 00 00 00 00 00 00 00 00 00 00 00 00 00 00 00 00
> 60: 10 00 00 00 00 00 00 00 00 00 00 00 00 00 00 00
> 70: 00 00 00 00 00 00 00 00 00 00 00 00 00 00 00 00
> 80: 00 00 00 00 00 00 00 00 00 00 00 00 00 00 00 00
> 90: 00 00 00 00 00 00 00 00 00 00 00 00 00 00 00 00
> a0: 00 00 00 00 00 00 00 00 00 00 00 00 00 00 00 00
> b0: 00 00 00 00 00 00 00 00 00 00 00 00 00 00 00 00
> c0: 00 20 00 00 00 00 00 00 00 00 01 00 00 00 00 00
> d0: 00 00 00 00 00 00 00 00 00 00 00 00 00 00 00 00
> e0: 00 00 00 00 00 00 00 00 00 00 00 00 00 00 00 00
> f0: 00 00 00 00 00 00 00 00 86 0f 02 00 00 00 00 00
> 
> 00:1d.1 USB Controller [0c03]: Intel Corporation 82801H (ICH8 Family) USB UHCI Controller #2 [8086:2831] (rev 02) (prog-if 00 [UHCI])
>         Subsystem: Elitegroup Computer Systems Unknown device [1019:2165]
>         Control: I/O+ Mem- BusMaster+ SpecCycle- MemWINV- VGASnoop- ParErr- Stepping- SERR- FastB2B- DisINTx-
>         Status: Cap- 66MHz- UDF- FastB2B+ ParErr- DEVSEL=medium >TAbort- <TAbort- <MAbort- >SERR- <PERR- INTx-
>         Latency: 0
>         Interrupt: pin B routed to IRQ 19
>         Region 4: I/O ports at fb00 [size=32]
>         Kernel driver in use: uhci_hcd
>         Kernel modules: uhci-hcd
> 00: 86 80 31 28 05 00 80 02 02 00 03 0c 00 00 00 00
> 10: 00 00 00 00 00 00 00 00 00 00 00 00 00 00 00 00
> 20: 01 fb 00 00 00 00 00 00 00 00 00 00 19 10 65 21
> 30: 00 00 00 00 00 00 00 00 00 00 00 00 0b 02 00 00
> 40: 00 00 00 00 00 00 00 00 00 00 00 00 00 00 00 00
> 50: 00 00 00 00 00 00 00 00 00 00 00 00 00 00 00 00
> 60: 10 00 00 00 00 00 00 00 00 00 00 00 00 00 00 00
> 70: 00 00 00 00 00 00 00 00 00 00 00 00 00 00 00 00
> 80: 00 00 00 00 00 00 00 00 00 00 00 00 00 00 00 00
> 90: 00 00 00 00 00 00 00 00 00 00 00 00 00 00 00 00
> a0: 00 00 00 00 00 00 00 00 00 00 00 00 00 00 00 00
> b0: 00 00 00 00 00 00 00 00 00 00 00 00 00 00 00 00
> c0: 00 20 00 00 00 00 00 00 00 00 01 00 00 00 00 00
> d0: 00 00 00 00 00 00 00 00 00 00 00 00 00 00 00 00
> e0: 00 00 00 00 00 00 00 00 00 00 00 00 00 00 00 00
> f0: 00 00 00 00 00 00 00 00 86 0f 02 00 00 00 00 00
> 
> 00:1d.2 USB Controller [0c03]: Intel Corporation 82801H (ICH8 Family) USB UHCI Controller #3 [8086:2832] (rev 02) (prog-if 00 [UHCI])
>         Subsystem: Elitegroup Computer Systems Unknown device [1019:2165]
>         Control: I/O+ Mem- BusMaster+ SpecCycle- MemWINV- VGASnoop- ParErr- Stepping- SERR- FastB2B- DisINTx-
>         Status: Cap- 66MHz- UDF- FastB2B+ ParErr- DEVSEL=medium >TAbort- <TAbort- <MAbort- >SERR- <PERR- INTx-
>         Latency: 0
>         Interrupt: pin C routed to IRQ 18
>         Region 4: I/O ports at fa00 [size=32]
>         Kernel driver in use: uhci_hcd
>         Kernel modules: uhci-hcd
> 00: 86 80 32 28 05 00 80 02 02 00 03 0c 00 00 00 00
> 10: 00 00 00 00 00 00 00 00 00 00 00 00 00 00 00 00
> 20: 01 fa 00 00 00 00 00 00 00 00 00 00 19 10 65 21
> 30: 00 00 00 00 00 00 00 00 00 00 00 00 0a 03 00 00
> 40: 00 00 00 00 00 00 00 00 00 00 00 00 00 00 00 00
> 50: 00 00 00 00 00 00 00 00 00 00 00 00 00 00 00 00
> 60: 10 00 00 00 00 00 00 00 00 00 00 00 00 00 00 00
> 70: 00 00 00 00 00 00 00 00 00 00 00 00 00 00 00 00
> 80: 00 00 00 00 00 00 00 00 00 00 00 00 00 00 00 00
> 90: 00 00 00 00 00 00 00 00 00 00 00 00 00 00 00 00
> a0: 00 00 00 00 00 00 00 00 00 00 00 00 00 00 00 00
> b0: 00 00 00 00 00 00 00 00 00 00 00 00 00 00 00 00
> c0: 00 20 00 00 00 00 00 00 00 00 01 00 00 00 00 00
> d0: 00 00 00 00 00 00 00 00 00 00 00 00 00 00 00 00
> e0: 00 00 00 00 00 00 00 00 00 00 00 00 00 00 00 00
> f0: 00 00 00 00 00 00 00 00 86 0f 02 00 00 00 00 00
> 
> 00:1d.7 USB Controller [0c03]: Intel Corporation 82801H (ICH8 Family) USB2 EHCI Controller #1 [8086:2836] (rev 02) (prog-if 20 [EHCI])
>         Subsystem: Elitegroup Computer Systems Unknown device [1019:2165]
>         Control: I/O- Mem+ BusMaster+ SpecCycle- MemWINV- VGASnoop- ParErr- Stepping- SERR- FastB2B- DisINTx-
>         Status: Cap+ 66MHz- UDF- FastB2B+ ParErr- DEVSEL=medium >TAbort- <TAbort- <MAbort- >SERR- <PERR- INTx-
>         Latency: 0
>         Interrupt: pin A routed to IRQ 23
>         Region 0: Memory at fdffd000 (32-bit, non-prefetchable) [size=1K]
>         Capabilities: [50] Power Management version 2
>                 Flags: PMEClk- DSI- D1- D2- AuxCurrent=375mA PME(D0+,D1-,D2-,D3hot+,D3cold+)
>                 Status: D0 PME-Enable- DSel=0 DScale=0 PME-
>         Capabilities: [58] Debug port: BAR=1 offset=00a0
>         Kernel driver in use: ehci_hcd
>         Kernel modules: ehci-hcd
> 00: 86 80 36 28 06 00 90 02 02 20 03 0c 00 00 00 00
> 10: 00 d0 ff fd 00 00 00 00 00 00 00 00 00 00 00 00
> 20: 00 00 00 00 00 00 00 00 00 00 00 00 19 10 65 21
> 30: 00 00 00 00 50 00 00 00 00 00 00 00 09 01 00 00
> 40: 00 00 00 00 00 00 00 00 00 00 00 00 00 00 00 00
> 50: 01 58 c2 c9 00 00 00 00 0a 00 a0 20 00 00 00 00
> 60: 20 20 ff 01 00 00 00 00 01 00 00 00 00 00 08 c0
> 70: 00 00 d5 3f 00 00 00 00 00 00 00 00 00 00 00 00
> 80: 00 00 00 00 01 00 00 00 00 00 00 00 00 00 00 00
> 90: 00 00 00 00 00 00 00 00 00 00 00 00 00 00 00 00
> a0: 00 00 00 00 00 00 00 00 00 00 00 00 00 00 00 00
> b0: 00 00 00 00 00 00 00 00 00 00 00 00 00 00 00 00
> c0: 00 00 00 00 00 00 00 00 00 00 00 00 00 00 00 00
> d0: 00 00 00 00 00 aa ff 00 00 00 00 00 00 00 00 00
> e0: 00 00 00 00 00 00 00 00 00 00 00 00 00 00 00 00
> f0: 00 00 00 00 88 85 40 00 86 0f 02 00 86 97 02 7a
> 
> 00:1e.0 PCI bridge [0604]: Intel Corporation 82801 PCI Bridge [8086:244e] (rev f2) (prog-if 01 [Subtractive decode])
>         Control: I/O+ Mem+ BusMaster+ SpecCycle- MemWINV- VGASnoop- ParErr- Stepping- SERR+ FastB2B- DisINTx-
>         Status: Cap+ 66MHz- UDF- FastB2B- ParErr- DEVSEL=fast >TAbort- <TAbort- <MAbort- >SERR- <PERR- INTx-
>         Latency: 0
>         Bus: primary=00, secondary=06, subordinate=06, sec-latency=32
>         I/O behind bridge: 00008000-00008fff
>         Memory behind bridge: fd900000-fd9fffff
>         Prefetchable memory behind bridge: 00000000fd800000-00000000fd8fffff
>         Secondary status: 66MHz- FastB2B+ ParErr- DEVSEL=medium >TAbort- <TAbort- <MAbort+ <SERR- <PERR-
>         BridgeCtl: Parity- SERR- NoISA- VGA- MAbort- >Reset- FastB2B-
>                 PriDiscTmr- SecDiscTmr- DiscTmrStat- DiscTmrSERREn-
>         Capabilities: [50] Subsystem: Elitegroup Computer Systems Unknown device [1019:2165]
> 00: 86 80 4e 24 07 01 10 00 f2 01 04 06 00 00 01 00
> 10: 00 00 00 00 00 00 00 00 00 06 06 20 80 80 80 22
> 20: 90 fd 90 fd 81 fd 81 fd 00 00 00 00 00 00 00 00
> 30: 00 00 00 00 50 00 00 00 00 00 00 00 ff 00 00 00
> 40: 30 00 00 00 00 00 00 00 00 00 00 00 00 12 00 00
> 50: 0d 00 00 00 19 10 65 21 00 00 00 00 00 00 00 00
> 60: 00 00 00 00 00 00 00 00 00 00 00 00 00 00 00 00
> 70: 00 00 00 00 00 00 00 00 00 00 00 00 00 00 00 00
> 80: 00 00 00 00 00 00 00 00 00 00 00 00 00 00 00 00
> 90: 00 00 00 00 00 00 00 00 00 00 00 00 00 00 00 00
> a0: 00 00 00 00 00 00 00 00 00 00 00 00 00 00 00 00
> b0: 00 00 00 00 00 00 00 00 00 00 00 00 00 00 00 00
> c0: 00 00 00 00 00 00 00 00 00 00 00 00 00 00 00 00
> d0: 00 00 00 00 00 00 00 00 00 00 00 00 00 00 00 00
> e0: 00 00 00 00 00 00 00 00 00 00 00 00 00 00 00 00
> f0: 00 00 00 00 00 00 00 00 86 0f 02 00 00 00 00 00
> 
> 00:1f.0 ISA bridge [0601]: Intel Corporation 82801HH (ICH8DH) LPC Interface Controller [8086:2812] (rev 02)
>         Subsystem: Elitegroup Computer Systems Unknown device [1019:2165]
>         Control: I/O+ Mem+ BusMaster+ SpecCycle- MemWINV- VGASnoop- ParErr- Stepping- SERR+ FastB2B- DisINTx-
>         Status: Cap+ 66MHz- UDF- FastB2B- ParErr- DEVSEL=medium >TAbort- <TAbort- <MAbort- >SERR- <PERR- INTx-
>         Latency: 0
>         Capabilities: [e0] Vendor Specific Information <?>
>         Kernel modules: iTCO_wdt
> 00: 86 80 12 28 07 01 10 02 02 00 01 06 00 00 80 00
> 10: 00 00 00 00 00 00 00 00 00 00 00 00 00 00 00 00
> 20: 00 00 00 00 00 00 00 00 00 00 00 00 19 10 65 21
> 30: 00 00 00 00 e0 00 00 00 00 00 00 00 00 00 00 00
> 40: 01 04 00 00 80 00 00 00 81 04 00 00 10 00 00 00
> 50: 00 00 00 00 00 00 00 00 00 00 00 00 00 00 00 00
> 60: 87 85 8a 8b d0 00 00 00 83 8b 80 89 00 00 00 00
> 70: 00 00 00 00 00 00 00 00 00 00 00 00 00 00 00 00
> 80: 00 00 09 34 01 08 3c 00 91 02 1c 00 00 00 00 00
> 90: 00 00 00 00 00 00 00 00 00 00 00 00 00 00 00 00
> a0: 23 06 00 00 08 00 00 00 13 00 00 00 00 03 00 00
> b0: 00 00 f0 00 00 00 00 00 55 55 55 59 00 00 00 00
> c0: 00 00 00 00 00 00 00 00 00 00 00 00 00 00 00 00
> d0: 33 22 11 00 67 45 00 00 c0 c0 00 00 00 00 00 00
> e0: 09 00 0c 10 01 00 80 c0 60 00 00 00 00 00 00 00
> f0: 01 c0 d1 fe 4c f9 25 00 86 0f 02 00 00 00 00 00
> 
> 00:1f.2 SATA controller [0106]: Intel Corporation 82801HR/HO/HH (ICH8R/DO/DH) 6 port SATA AHCI Controller [8086:2821] (rev 02) (prog-if 01 [AHCI 1.0])
>         Subsystem: Elitegroup Computer Systems Unknown device [1019:2165]
>         Control: I/O+ Mem+ BusMaster+ SpecCycle- MemWINV- VGASnoop- ParErr- Stepping- SERR- FastB2B- DisINTx+
>         Status: Cap+ 66MHz+ UDF- FastB2B+ ParErr- DEVSEL=medium >TAbort- <TAbort- <MAbort- >SERR- <PERR- INTx-
>         Latency: 0
>         Interrupt: pin B routed to IRQ 506
>         Region 0: I/O ports at f900 [size=8]
>         Region 1: I/O ports at f800 [size=4]
>         Region 2: I/O ports at f700 [size=8]
>         Region 3: I/O ports at f600 [size=4]
>         Region 4: I/O ports at f500 [size=32]
>         Region 5: Memory at fdffc000 (32-bit, non-prefetchable) [size=2K]
>         Capabilities: [80] Message Signalled Interrupts: Mask- 64bit- Queue=0/4 Enable+
>                 Address: fee0300c  Data: 41a1
>         Capabilities: [70] Power Management version 3
>                 Flags: PMEClk- DSI- D1- D2- AuxCurrent=0mA PME(D0-,D1-,D2-,D3hot+,D3cold-)
>                 Status: D0 PME-Enable- DSel=0 DScale=0 PME-
>         Capabilities: [a8] SATA HBA <?>
>         Kernel driver in use: ahci
>         Kernel modules: ahci
> 00: 86 80 21 28 07 04 b0 02 02 01 06 01 00 00 00 00
> 10: 01 f9 00 00 01 f8 00 00 01 f7 00 00 01 f6 00 00
> 20: 01 f5 00 00 00 c0 ff fd 00 00 00 00 19 10 65 21
> 30: 00 00 00 00 80 00 00 00 00 00 00 00 0b 02 00 00
> 40: 00 80 00 80 00 00 00 00 00 00 00 00 00 00 00 00
> 50: 00 00 00 00 00 00 00 00 00 00 00 00 00 00 00 00
> 60: 00 00 00 00 00 00 00 00 00 00 00 00 00 00 00 00
> 70: 01 a8 03 40 08 00 00 00 00 00 00 00 00 00 00 00
> 80: 05 70 09 00 0c 30 e0 fe a1 41 00 00 00 00 00 00
> 90: 40 00 3f bf 80 01 00 40 00 00 00 00 00 00 00 00
> a0: 00 00 00 00 00 00 00 00 12 00 10 00 48 00 00 00
> b0: 00 00 00 00 00 00 00 00 00 00 00 00 00 00 00 00
> c0: 00 00 00 00 00 00 00 00 00 00 00 00 00 00 00 00
> d0: 00 00 00 00 00 00 00 00 00 00 00 00 00 00 00 00
> e0: 00 00 00 00 00 00 00 00 00 00 00 00 00 00 00 00
> f0: 00 00 00 00 00 00 00 00 86 0f 02 00 00 00 00 00
> 
> 00:1f.3 SMBus [0c05]: Intel Corporation 82801H (ICH8 Family) SMBus Controller [8086:283e] (rev 02)
>         Subsystem: Elitegroup Computer Systems Unknown device [1019:2165]
>         Control: I/O+ Mem+ BusMaster- SpecCycle- MemWINV- VGASnoop- ParErr- Stepping- SERR- FastB2B- DisINTx-
>         Status: Cap- 66MHz- UDF- FastB2B+ ParErr- DEVSEL=medium >TAbort- <TAbort- <MAbort- >SERR- <PERR- INTx-
>         Interrupt: pin B routed to IRQ 19
>         Region 0: Memory at fdffb000 (32-bit, non-prefetchable) [size=256]
>         Region 4: I/O ports at 0500 [size=32]
>         Kernel driver in use: i801_smbus
>         Kernel modules: i2c-i801
> 00: 86 80 3e 28 03 00 80 02 02 00 05 0c 00 00 00 00
> 10: 00 b0 ff fd 00 00 00 00 00 00 00 00 00 00 00 00
> 20: 01 05 00 00 00 00 00 00 00 00 00 00 19 10 65 21
> 30: 00 00 00 00 00 00 00 00 00 00 00 00 0b 02 00 00
> 40: 01 00 00 00 00 00 00 00 00 00 00 00 00 00 00 00
> 50: 00 00 00 00 00 00 00 00 00 00 00 00 00 00 00 00
> 60: 03 04 04 00 00 00 08 08 00 00 00 00 00 00 00 00
> 70: 00 00 00 00 00 00 00 00 00 00 00 00 00 00 00 00
> 80: 04 00 00 00 00 00 00 00 00 00 00 00 00 00 00 00
> 90: 00 00 00 00 00 00 00 00 00 00 00 00 00 00 00 00
> a0: 00 00 00 00 00 00 00 00 00 00 00 00 00 00 00 00
> b0: 00 00 00 00 00 00 00 00 00 00 00 00 00 00 00 00
> c0: 00 00 00 00 00 00 00 00 00 00 00 00 00 00 00 00
> d0: 00 00 00 00 00 00 00 00 00 00 00 00 00 00 00 00
> e0: 00 00 00 00 00 00 00 00 00 00 00 00 00 00 00 00
> f0: 00 00 00 00 00 00 00 00 86 0f 02 00 00 00 00 00
> 
> 01:00.0 VGA compatible controller [0300]: nVidia Corporation NV44 [GeForce 6200 TurboCache(TM)] [10de:0161] (rev a1) (prog-if 00 [VGA controller])
>         Subsystem: CardExpert Technology Unknown device [10b0:0403]
>         Control: I/O+ Mem+ BusMaster+ SpecCycle- MemWINV- VGASnoop- ParErr- Stepping- SERR- FastB2B- DisINTx-
>         Status: Cap+ 66MHz- UDF- FastB2B- ParErr- DEVSEL=fast >TAbort- <TAbort- <MAbort- >SERR- <PERR- INTx-
>         Latency: 0, Cache Line Size: 64 bytes
>         Interrupt: pin A routed to IRQ 7
>         Region 0: Memory at fa000000 (32-bit, non-prefetchable) [size=16M]
>         Region 1: Memory at d0000000 (64-bit, prefetchable) [size=256M]
>         Region 3: Memory at fb000000 (64-bit, non-prefetchable) [size=16M]
>         [virtual] Expansion ROM at fc000000 [disabled] [size=128K]
>         Capabilities: [60] Power Management version 2
>                 Flags: PMEClk- DSI- D1- D2- AuxCurrent=0mA PME(D0-,D1-,D2-,D3hot-,D3cold-)
>                 Status: D0 PME-Enable- DSel=0 DScale=0 PME-
>         Capabilities: [68] Message Signalled Interrupts: Mask- 64bit+ Queue=0/0 Enable-
>                 Address: 0000000000000000  Data: 0000
>         Capabilities: [78] Express (v1) Endpoint, MSI 00
>                 DevCap: MaxPayload 128 bytes, PhantFunc 0, Latency L0s <512ns, L1 <4us
>                         ExtTag- AttnBtn- AttnInd- PwrInd- RBE- FLReset-
>                 DevCtl: Report errors: Correctable- Non-Fatal- Fatal- Unsupported-
>                         RlxdOrd+ ExtTag- PhantFunc- AuxPwr- NoSnoop+
>                         MaxPayload 128 bytes, MaxReadReq 512 bytes
>                 DevSta: CorrErr- UncorrErr+ FatalErr- UnsuppReq+ AuxPwr- TransPend-
>                 LnkCap: Port #0, Speed 2.5GT/s, Width x16, ASPM L0s L1, Latency L0 <256ns, L1 <4us
>                         ClockPM- Suprise- LLActRep- BwNot-
>                 LnkCtl: ASPM Disabled; RCB 128 bytes Disabled- Retrain- CommClk+
>                         ExtSynch- ClockPM- AutWidDis- BWInt- AutBWInt-
>                 LnkSta: Speed 2.5GT/s, Width x16, TrErr- Train- SlotClk+ DLActive- BWMgmt- ABWMgmt-
>         Capabilities: [100] Virtual Channel <?>
>         Capabilities: [128] Power Budgeting <?>
>         Kernel modules: nvidiafb
> 00: de 10 61 01 07 00 10 00 a1 00 00 03 10 00 00 00
> 10: 00 00 00 fa 0c 00 00 d0 00 00 00 00 04 00 00 fb
> 20: 00 00 00 00 00 00 00 00 00 00 00 00 b0 10 03 04
> 30: 00 00 00 00 60 00 00 00 00 00 00 00 07 01 00 00
> 40: 00 00 00 00 00 00 00 00 00 00 00 00 00 00 00 00
> 50: 01 00 00 00 01 00 00 00 ce d6 23 00 00 00 00 00
> 60: 01 68 02 00 00 00 00 00 05 78 80 00 00 00 00 00
> 70: 00 00 00 00 00 00 00 00 10 00 01 00 c0 04 00 00
> 80: 10 28 0a 00 01 2d 01 00 48 00 01 11 00 00 00 00
> 90: 00 00 00 00 00 00 00 00 00 00 00 00 00 00 00 00
> a0: 00 00 00 00 00 00 00 00 00 00 00 00 00 00 00 00
> b0: 00 00 00 00 00 00 00 00 00 00 00 00 00 00 00 00
> c0: 00 00 00 00 00 00 00 00 00 00 00 00 00 00 00 00
> d0: 00 00 00 00 00 00 00 00 00 00 00 00 00 00 00 00
> e0: 00 00 00 00 00 00 00 00 00 00 00 00 00 00 00 00
> f0: 00 00 00 00 00 00 00 00 00 00 00 00 00 00 00 00
> 
> 03:00.0 RAID bus controller [0104]: Silicon Image, Inc. SiI 3132 Serial ATA Raid II Controller [1095:3132] (rev 01)
>         Subsystem: Silicon Image, Inc. Unknown device [1095:7132]
>         Control: I/O+ Mem+ BusMaster+ SpecCycle- MemWINV- VGASnoop- ParErr- Stepping- SERR- FastB2B- DisINTx-
>         Status: Cap+ 66MHz- UDF- FastB2B- ParErr- DEVSEL=fast >TAbort- <TAbort- <MAbort- >SERR- <PERR- INTx-
>         Latency: 0, Cache Line Size: 64 bytes
>         Interrupt: pin A routed to IRQ 17
>         Region 0: Memory at fd6ff000 (64-bit, non-prefetchable) [size=128]
>         Region 2: Memory at fd6f8000 (64-bit, non-prefetchable) [size=16K]
>         Region 4: I/O ports at 9f00 [size=128]
>         [virtual] Expansion ROM at fd500000 [disabled] [size=512K]
>         Capabilities: [54] Power Management version 2
>                 Flags: PMEClk- DSI+ D1+ D2+ AuxCurrent=0mA PME(D0-,D1-,D2-,D3hot-,D3cold-)
>                 Status: D0 PME-Enable- DSel=0 DScale=1 PME-
>         Capabilities: [5c] Message Signalled Interrupts: Mask- 64bit+ Queue=0/0 Enable-
>                 Address: 0000000000000000  Data: 0000
>         Capabilities: [70] Express (v1) Legacy Endpoint, MSI 00
>                 DevCap: MaxPayload 1024 bytes, PhantFunc 0, Latency L0s <64ns, L1 <1us
>                         ExtTag- AttnBtn- AttnInd- PwrInd- RBE- FLReset-
>                 DevCtl: Report errors: Correctable- Non-Fatal- Fatal- Unsupported-
>                         RlxdOrd- ExtTag- PhantFunc- AuxPwr- NoSnoop-
>                         MaxPayload 128 bytes, MaxReadReq 512 bytes
>                 DevSta: CorrErr- UncorrErr+ FatalErr- UnsuppReq+ AuxPwr- TransPend-
>                 LnkCap: Port #0, Speed 2.5GT/s, Width x1, ASPM L0s, Latency L0 unlimited, L1 unlimited
>                         ClockPM- Suprise- LLActRep- BwNot-
>                 LnkCtl: ASPM Disabled; RCB 64 bytes Disabled- Retrain- CommClk+
>                         ExtSynch- ClockPM- AutWidDis- BWInt- AutBWInt-
>                 LnkSta: Speed 2.5GT/s, Width x1, TrErr- Train- SlotClk+ DLActive- BWMgmt- ABWMgmt-
>         Capabilities: [100] Advanced Error Reporting <?>
>         Kernel driver in use: sata_sil24
>         Kernel modules: sata_sil24
> 00: 95 10 32 31 07 00 10 00 01 00 04 01 10 00 00 00
> 10: 04 f0 6f fd 00 00 00 00 04 80 6f fd 00 00 00 00
> 20: 01 9f 00 00 00 00 00 00 00 00 00 00 95 10 32 71
> 30: 00 00 00 00 54 00 00 00 00 00 00 00 05 01 00 00
> 40: 00 00 00 00 00 00 00 00 00 00 00 00 00 00 00 00
> 50: 00 00 00 00 01 5c 22 06 00 20 00 0c 05 70 80 00
> 60: 00 00 00 00 00 00 00 00 00 00 00 00 00 00 00 00
> 70: 10 00 11 00 03 00 00 00 00 20 0a 00 11 f4 03 00
> 80: 40 00 11 10 00 00 00 00 00 00 00 00 00 00 00 00
> 90: 00 00 00 00 00 00 00 00 00 00 00 00 00 00 00 00
> a0: 00 00 00 00 00 00 00 00 00 00 00 00 00 00 00 00
> b0: 00 00 00 00 00 00 00 00 00 00 00 00 00 00 00 00
> c0: 00 00 00 00 00 00 00 00 00 00 00 00 00 00 00 00
> d0: 00 00 00 00 00 00 00 00 00 00 00 00 00 00 00 00
> e0: 00 00 00 00 00 00 00 00 00 00 00 00 00 00 00 00
> f0: 00 00 00 00 00 00 00 00 00 00 00 00 00 00 00 00
> 
> 04:00.0 RAID bus controller [0104]: Silicon Image, Inc. SiI 3132 Serial ATA Raid II Controller [1095:3132] (rev 01)
>         Subsystem: Silicon Image, Inc. Unknown device [1095:7132]
>         Control: I/O+ Mem+ BusMaster+ SpecCycle- MemWINV- VGASnoop- ParErr- Stepping- SERR- FastB2B- DisINTx-
>         Status: Cap+ 66MHz- UDF- FastB2B- ParErr- DEVSEL=fast >TAbort- <TAbort- <MAbort- >SERR- <PERR- INTx-
>         Latency: 0, Cache Line Size: 64 bytes
>         Interrupt: pin A routed to IRQ 18
>         Region 0: Memory at fdeff000 (64-bit, non-prefetchable) [size=128]
>         Region 2: Memory at fdef8000 (64-bit, non-prefetchable) [size=16K]
>         Region 4: I/O ports at df00 [size=128]
>         [virtual] Expansion ROM at fdd00000 [disabled] [size=512K]
>         Capabilities: [54] Power Management version 2
>                 Flags: PMEClk- DSI+ D1+ D2+ AuxCurrent=0mA PME(D0-,D1-,D2-,D3hot-,D3cold-)
>                 Status: D0 PME-Enable- DSel=0 DScale=1 PME-
>         Capabilities: [5c] Message Signalled Interrupts: Mask- 64bit+ Queue=0/0 Enable-
>                 Address: 0000000000000000  Data: 0000
>         Capabilities: [70] Express (v1) Legacy Endpoint, MSI 00
>                 DevCap: MaxPayload 1024 bytes, PhantFunc 0, Latency L0s <64ns, L1 <1us
>                         ExtTag- AttnBtn- AttnInd- PwrInd- RBE- FLReset-
>                 DevCtl: Report errors: Correctable- Non-Fatal- Fatal- Unsupported-
>                         RlxdOrd- ExtTag- PhantFunc- AuxPwr- NoSnoop-
>                         MaxPayload 128 bytes, MaxReadReq 512 bytes
>                 DevSta: CorrErr- UncorrErr+ FatalErr- UnsuppReq+ AuxPwr- TransPend-
>                 LnkCap: Port #0, Speed 2.5GT/s, Width x1, ASPM L0s, Latency L0 unlimited, L1 unlimited
>                         ClockPM- Suprise- LLActRep- BwNot-
>                 LnkCtl: ASPM Disabled; RCB 64 bytes Disabled- Retrain- CommClk+
>                         ExtSynch- ClockPM- AutWidDis- BWInt- AutBWInt-
>                 LnkSta: Speed 2.5GT/s, Width x1, TrErr- Train- SlotClk+ DLActive- BWMgmt- ABWMgmt-
>         Capabilities: [100] Advanced Error Reporting <?>
>         Kernel driver in use: sata_sil24
>         Kernel modules: sata_sil24
> 00: 95 10 32 31 07 00 10 00 01 00 04 01 10 00 00 00
> 10: 04 f0 ef fd 00 00 00 00 04 80 ef fd 00 00 00 00
> 20: 01 df 00 00 00 00 00 00 00 00 00 00 95 10 32 71
> 30: 00 00 00 00 54 00 00 00 00 00 00 00 0a 01 00 00
> 40: 00 00 00 00 00 00 00 00 00 00 00 00 00 00 00 00
> 50: 00 00 00 00 01 5c 22 06 00 20 00 0c 05 70 80 00
> 60: 00 00 00 00 00 00 00 00 00 00 00 00 00 00 00 00
> 70: 10 00 11 00 03 00 00 00 00 20 0a 00 11 f4 03 00
> 80: 40 00 11 10 00 00 00 00 00 00 00 00 00 00 00 00
> 90: 00 00 00 00 00 00 00 00 00 00 00 00 00 00 00 00
> a0: 00 00 00 00 00 00 00 00 00 00 00 00 00 00 00 00
> b0: 00 00 00 00 00 00 00 00 00 00 00 00 00 00 00 00
> c0: 00 00 00 00 00 00 00 00 00 00 00 00 00 00 00 00
> d0: 00 00 00 00 00 00 00 00 00 00 00 00 00 00 00 00
> e0: 00 00 00 00 00 00 00 00 00 00 00 00 00 00 00 00
> f0: 00 00 00 00 00 00 00 00 00 00 00 00 00 00 00 00
> 
> 05:00.0 SATA controller [0106]: JMicron Technologies, Inc. JMicron 20360/20363 AHCI Controller [197b:2363] (rev 02) (prog-if 01 [AHCI 1.0])
>         Subsystem: Elitegroup Computer Systems Unknown device [1019:2363]
>         Control: I/O+ Mem+ BusMaster+ SpecCycle- MemWINV- VGASnoop- ParErr- Stepping- SERR- FastB2B- DisINTx-
>         Status: Cap+ 66MHz- UDF- FastB2B- ParErr- DEVSEL=fast >TAbort- <TAbort- <MAbort- >SERR- <PERR- INTx-
>         Latency: 0, Cache Line Size: 64 bytes
>         Interrupt: pin A routed to IRQ 16
>         Region 5: Memory at fdcfe000 (32-bit, non-prefetchable) [size=8K]
>         [virtual] Expansion ROM at fdb00000 [disabled] [size=64K]
>         Capabilities: [68] Power Management version 2
>                 Flags: PMEClk- DSI- D1- D2- AuxCurrent=0mA PME(D0-,D1-,D2-,D3hot+,D3cold-)
>                 Status: D0 PME-Enable- DSel=0 DScale=0 PME-
>         Capabilities: [50] Express (v1) Legacy Endpoint, MSI 01
>                 DevCap: MaxPayload 128 bytes, PhantFunc 0, Latency L0s <64ns, L1 <1us
>                         ExtTag- AttnBtn- AttnInd- PwrInd- RBE- FLReset-
>                 DevCtl: Report errors: Correctable- Non-Fatal- Fatal- Unsupported-
>                         RlxdOrd- ExtTag- PhantFunc- AuxPwr- NoSnoop-
>                         MaxPayload 128 bytes, MaxReadReq 512 bytes
>                 DevSta: CorrErr- UncorrErr- FatalErr- UnsuppReq+ AuxPwr- TransPend-
>                 LnkCap: Port #1, Speed 2.5GT/s, Width x1, ASPM L0s, Latency L0 <1us, L1 <16us
>                         ClockPM- Suprise- LLActRep- BwNot-
>                 LnkCtl: ASPM Disabled; RCB 64 bytes Disabled- Retrain- CommClk+
>                         ExtSynch- ClockPM- AutWidDis- BWInt- AutBWInt-
>                 LnkSta: Speed 2.5GT/s, Width x1, TrErr- Train- SlotClk+ DLActive- BWMgmt- ABWMgmt-
>         Kernel driver in use: ahci
>         Kernel modules: ahci
> 00: 7b 19 63 23 07 00 10 00 02 01 06 01 10 00 80 00
> 10: 00 00 00 00 00 00 00 00 00 00 00 00 00 00 00 00
> 20: 00 00 00 00 00 e0 cf fd 00 00 00 00 19 10 63 23
> 30: 00 00 00 00 68 00 00 00 00 00 00 00 07 01 00 00
> 40: b3 a1 c2 80 08 08 ff f0 20 00 00 24 00 00 00 00
> 50: 10 00 11 02 00 00 00 00 00 20 08 00 11 44 02 01
> 60: 40 00 11 10 00 00 00 00 01 50 02 40 00 00 00 00
> 70: 00 00 00 00 00 00 00 00 00 00 00 00 00 00 00 00
> 80: 08 08 00 00 a0 01 0a 00 0f aa 0f aa 00 00 00 00
> 90: 00 00 00 00 00 00 00 00 00 00 00 00 00 00 00 00
> a0: 00 00 00 00 00 00 00 00 00 00 00 00 00 00 00 00
> b0: 00 00 00 00 00 00 00 00 00 00 00 00 00 00 00 80
> c0: c3 8b 38 00 03 45 02 00 9c 34 27 c0 49 be 00 00
> d0: 18 00 80 80 01 00 00 00 00 00 eb 00 00 00 00 28
> e0: 00 00 00 00 00 00 00 00 9c 34 27 c0 49 be 00 89
> f0: 00 00 00 00 00 00 00 00 00 00 00 00 00 00 00 00
> 
> 05:00.1 IDE interface [0101]: JMicron Technologies, Inc. JMicron 20360/20363 AHCI Controller [197b:2363] (rev 02) (prog-if 85 [Master SecO PriO])
>         Subsystem: Elitegroup Computer Systems Unknown device [1019:2363]
>         Control: I/O+ Mem- BusMaster+ SpecCycle- MemWINV- VGASnoop- ParErr- Stepping- SERR- FastB2B- DisINTx-
>         Status: Cap+ 66MHz- UDF- FastB2B- ParErr- DEVSEL=fast >TAbort- <TAbort- <MAbort- >SERR- <PERR- INTx-
>         Latency: 0
>         Interrupt: pin B routed to IRQ 17
>         Region 0: I/O ports at cf00 [size=8]
>         Region 1: I/O ports at ce00 [size=4]
>         Region 2: I/O ports at cd00 [size=8]
>         Region 3: I/O ports at cc00 [size=4]
>         Region 4: I/O ports at cb00 [size=16]
>         Capabilities: [68] Power Management version 2
>                 Flags: PMEClk- DSI- D1- D2- AuxCurrent=0mA PME(D0-,D1-,D2-,D3hot-,D3cold-)
>                 Status: D0 PME-Enable- DSel=0 DScale=0 PME-
>         Kernel driver in use: pata_jmicron
>         Kernel modules: pata_jmicron, pata_acpi, ata_generic
> 00: 7b 19 63 23 05 00 10 00 02 85 01 01 00 00 00 00
> 10: 01 cf 00 00 01 ce 00 00 01 cd 00 00 01 cc 00 00
> 20: 01 cb 00 00 00 00 00 00 00 00 00 00 19 10 63 23
> 30: 00 00 00 00 68 00 00 00 00 00 00 00 00 02 00 00
> 40: b3 a1 c2 80 08 08 ff f0 20 00 00 24 00 00 00 00
> 50: 00 00 00 00 00 00 00 00 00 00 00 00 00 00 00 00
> 60: 00 00 00 00 00 00 00 00 01 00 02 00 00 00 00 00
> 70: 00 00 00 00 00 00 00 00 00 00 00 00 00 00 00 00
> 80: 08 08 00 00 a0 01 0a 00 0f aa 0f aa 00 00 00 00
> 90: 00 00 00 00 00 00 00 00 00 00 00 00 00 00 00 00
> a0: 00 00 00 00 00 00 00 00 00 00 00 00 00 00 00 00
> b0: 00 00 00 00 00 00 00 00 00 00 00 00 00 00 00 80
> c0: c3 8b 38 00 03 45 02 00 9c 34 27 c0 49 be 00 00
> d0: 18 00 80 80 01 00 00 00 00 00 eb 00 00 00 00 28
> e0: 00 00 00 00 00 00 00 00 9c 34 27 c0 49 be 00 89
> f0: 00 00 00 00 00 00 00 00 00 00 00 00 00 00 00 00
#
# Automatically generated make config: don't edit
# Linux kernel version: 2.6.25-rc2-git1
# Tue Feb 19 23:19:25 2008
#
CONFIG_64BIT=y
# CONFIG_X86_32 is not set
CONFIG_X86_64=y
CONFIG_X86=y
# CONFIG_GENERIC_LOCKBREAK is not set
CONFIG_GENERIC_TIME=y
CONFIG_GENERIC_CMOS_UPDATE=y
CONFIG_CLOCKSOURCE_WATCHDOG=y
CONFIG_GENERIC_CLOCKEVENTS=y
CONFIG_GENERIC_CLOCKEVENTS_BROADCAST=y
CONFIG_LOCKDEP_SUPPORT=y
CONFIG_STACKTRACE_SUPPORT=y
CONFIG_HAVE_LATENCYTOP_SUPPORT=y
CONFIG_SEMAPHORE_SLEEPERS=y
CONFIG_FAST_CMPXCHG_LOCAL=y
CONFIG_MMU=y
CONFIG_ZONE_DMA=y
# CONFIG_QUICKLIST is not set
CONFIG_GENERIC_ISA_DMA=y
CONFIG_GENERIC_IOMAP=y
CONFIG_GENERIC_BUG=y
CONFIG_GENERIC_HWEIGHT=y
# CONFIG_GENERIC_GPIO is not set
CONFIG_ARCH_MAY_HAVE_PC_FDC=y
CONFIG_DMI=y
CONFIG_RWSEM_GENERIC_SPINLOCK=y
# CONFIG_RWSEM_XCHGADD_ALGORITHM is not set
# CONFIG_ARCH_HAS_ILOG2_U32 is not set
# CONFIG_ARCH_HAS_ILOG2_U64 is not set
CONFIG_ARCH_HAS_CPU_IDLE_WAIT=y
CONFIG_GENERIC_CALIBRATE_DELAY=y
CONFIG_GENERIC_TIME_VSYSCALL=y
CONFIG_ARCH_HAS_CPU_RELAX=y
CONFIG_HAVE_SETUP_PER_CPU_AREA=y
CONFIG_ARCH_HIBERNATION_POSSIBLE=y
CONFIG_ARCH_SUSPEND_POSSIBLE=y
CONFIG_ZONE_DMA32=y
CONFIG_ARCH_POPULATES_NODE_MAP=y
CONFIG_AUDIT_ARCH=y
CONFIG_ARCH_SUPPORTS_AOUT=y
CONFIG_GENERIC_HARDIRQS=y
CONFIG_GENERIC_IRQ_PROBE=y
CONFIG_GENERIC_PENDING_IRQ=y
CONFIG_X86_SMP=y
CONFIG_X86_64_SMP=y
CONFIG_X86_HT=y
CONFIG_X86_TRAMPOLINE=y
# CONFIG_KTIME_SCALAR is not set
CONFIG_DEFCONFIG_LIST="/lib/modules/$UNAME_RELEASE/.config"
#
# General setup
#
CONFIG_EXPERIMENTAL=y
CONFIG_LOCK_KERNEL=y
CONFIG_INIT_ENV_ARG_LIMIT=32
CONFIG_LOCALVERSION=""
# CONFIG_LOCALVERSION_AUTO is not set
CONFIG_SWAP=y
CONFIG_SYSVIPC=y
CONFIG_SYSVIPC_SYSCTL=y
CONFIG_POSIX_MQUEUE=y
# CONFIG_BSD_PROCESS_ACCT is not set
CONFIG_TASKSTATS=y
CONFIG_TASK_DELAY_ACCT=y
CONFIG_TASK_XACCT=y
CONFIG_TASK_IO_ACCOUNTING=y
# CONFIG_AUDIT is not set
# CONFIG_IKCONFIG is not set
CONFIG_LOG_BUF_SHIFT=16
CONFIG_CGROUPS=y
# CONFIG_CGROUP_DEBUG is not set
CONFIG_CGROUP_NS=y
CONFIG_CPUSETS=y
CONFIG_GROUP_SCHED=y
CONFIG_FAIR_GROUP_SCHED=y
CONFIG_RT_GROUP_SCHED=y
CONFIG_USER_SCHED=y
# CONFIG_CGROUP_SCHED is not set
# CONFIG_CGROUP_CPUACCT is not set
# CONFIG_RESOURCE_COUNTERS is not set
# CONFIG_SYSFS_DEPRECATED is not set
CONFIG_PROC_PID_CPUSET=y
CONFIG_RELAY=y
CONFIG_NAMESPACES=y
CONFIG_UTS_NS=y
CONFIG_IPC_NS=y
CONFIG_USER_NS=y
CONFIG_PID_NS=y
CONFIG_BLK_DEV_INITRD=y
CONFIG_INITRAMFS_SOURCE=""
CONFIG_CC_OPTIMIZE_FOR_SIZE=y
CONFIG_SYSCTL=y
CONFIG_EMBEDDED=y
CONFIG_UID16=y
CONFIG_SYSCTL_SYSCALL=y
CONFIG_KALLSYMS=y
# CONFIG_KALLSYMS_ALL is not set
# CONFIG_KALLSYMS_EXTRA_PASS is not set
CONFIG_HOTPLUG=y
CONFIG_PRINTK=y
CONFIG_BUG=y
CONFIG_ELF_CORE=y
# CONFIG_COMPAT_BRK is not set
CONFIG_BASE_FULL=y
CONFIG_FUTEX=y
CONFIG_ANON_INODES=y
CONFIG_EPOLL=y
CONFIG_SIGNALFD=y
CONFIG_TIMERFD=y
CONFIG_EVENTFD=y
CONFIG_SHMEM=y
CONFIG_VM_EVENT_COUNTERS=y
CONFIG_SLAB=y
# CONFIG_SLUB is not set
# CONFIG_SLOB is not set
# CONFIG_PROFILING is not set
# CONFIG_MARKERS is not set
CONFIG_HAVE_OPROFILE=y
# CONFIG_KPROBES is not set
CONFIG_HAVE_KPROBES=y
CONFIG_PROC_PAGE_MONITOR=y
CONFIG_SLABINFO=y
CONFIG_RT_MUTEXES=y
# CONFIG_TINY_SHMEM is not set
CONFIG_BASE_SMALL=0
CONFIG_MODULES=y
CONFIG_MODULE_UNLOAD=y
# CONFIG_MODULE_FORCE_UNLOAD is not set
# CONFIG_MODVERSIONS is not set
# CONFIG_MODULE_SRCVERSION_ALL is not set
# CONFIG_KMOD is not set
CONFIG_STOP_MACHINE=y
CONFIG_BLOCK=y
# CONFIG_BLK_DEV_IO_TRACE is not set
CONFIG_BLK_DEV_BSG=y
CONFIG_BLOCK_COMPAT=y
#
# IO Schedulers
#
CONFIG_IOSCHED_NOOP=y
CONFIG_IOSCHED_AS=y
CONFIG_IOSCHED_DEADLINE=y
CONFIG_IOSCHED_CFQ=y
# CONFIG_DEFAULT_AS is not set
CONFIG_DEFAULT_DEADLINE=y
# CONFIG_DEFAULT_CFQ is not set
# CONFIG_DEFAULT_NOOP is not set
CONFIG_DEFAULT_IOSCHED="deadline"
CONFIG_PREEMPT_NOTIFIERS=y
CONFIG_CLASSIC_RCU=y
# CONFIG_PREEMPT_RCU is not set
#
# Processor type and features
#
CONFIG_TICK_ONESHOT=y
CONFIG_NO_HZ=y
CONFIG_HIGH_RES_TIMERS=y
CONFIG_GENERIC_CLOCKEVENTS_BUILD=y
CONFIG_SMP=y
CONFIG_X86_PC=y
# CONFIG_X86_ELAN is not set
# CONFIG_X86_VOYAGER is not set
# CONFIG_X86_NUMAQ is not set
# CONFIG_X86_SUMMIT is not set
# CONFIG_X86_BIGSMP is not set
# CONFIG_X86_VISWS is not set
# CONFIG_X86_GENERICARCH is not set
# CONFIG_X86_ES7000 is not set
# CONFIG_X86_RDC321X is not set
# CONFIG_X86_VSMP is not set
# CONFIG_PARAVIRT_GUEST is not set
# CONFIG_M386 is not set
# CONFIG_M486 is not set
# CONFIG_M586 is not set
# CONFIG_M586TSC is not set
# CONFIG_M586MMX is not set
# CONFIG_M686 is not set
# CONFIG_MPENTIUMII is not set
# CONFIG_MPENTIUMIII is not set
# CONFIG_MPENTIUMM is not set
# CONFIG_MPENTIUM4 is not set
# CONFIG_MK6 is not set
# CONFIG_MK7 is not set
# CONFIG_MK8 is not set
# CONFIG_MCRUSOE is not set
# CONFIG_MEFFICEON is not set
# CONFIG_MWINCHIPC6 is not set
# CONFIG_MWINCHIP2 is not set
# CONFIG_MWINCHIP3D is not set
# CONFIG_MGEODEGX1 is not set
# CONFIG_MGEODE_LX is not set
# CONFIG_MCYRIXIII is not set
# CONFIG_MVIAC3_2 is not set
# CONFIG_MVIAC7 is not set
# CONFIG_MPSC is not set
# CONFIG_MCORE2 is not set
CONFIG_GENERIC_CPU=y
CONFIG_X86_L1_CACHE_BYTES=128
CONFIG_X86_INTERNODE_CACHE_BYTES=128
CONFIG_X86_CMPXCHG=y
CONFIG_X86_L1_CACHE_SHIFT=7
CONFIG_X86_GOOD_APIC=y
CONFIG_X86_TSC=y
CONFIG_X86_MINIMUM_CPU_FAMILY=64
CONFIG_X86_DEBUGCTLMSR=y
CONFIG_HPET_TIMER=y
CONFIG_HPET_EMULATE_RTC=y
CONFIG_GART_IOMMU=y
CONFIG_CALGARY_IOMMU=y
CONFIG_CALGARY_IOMMU_ENABLED_BY_DEFAULT=y
CONFIG_IOMMU_HELPER=y
CONFIG_SWIOTLB=y
CONFIG_NR_CPUS=8
# CONFIG_SCHED_SMT is not set
CONFIG_SCHED_MC=y
CONFIG_PREEMPT_NONE=y
# CONFIG_PREEMPT_VOLUNTARY is not set
# CONFIG_PREEMPT is not set
# CONFIG_RCU_TRACE is not set
CONFIG_X86_LOCAL_APIC=y
CONFIG_X86_IO_APIC=y
CONFIG_X86_MCE=y
CONFIG_X86_MCE_INTEL=y
CONFIG_X86_MCE_AMD=y
CONFIG_I8K=m
# CONFIG_MICROCODE is not set
# CONFIG_X86_MSR is not set
# CONFIG_X86_CPUID is not set
CONFIG_NUMA=y
# CONFIG_K8_NUMA is not set
CONFIG_X86_64_ACPI_NUMA=y
# CONFIG_NUMA_EMU is not set
CONFIG_NODES_SHIFT=6
CONFIG_ARCH_SPARSEMEM_DEFAULT=y
CONFIG_ARCH_SPARSEMEM_ENABLE=y
CONFIG_ARCH_SELECT_MEMORY_MODEL=y
CONFIG_SELECT_MEMORY_MODEL=y
# CONFIG_FLATMEM_MANUAL is not set
# CONFIG_DISCONTIGMEM_MANUAL is not set
CONFIG_SPARSEMEM_MANUAL=y
CONFIG_SPARSEMEM=y
CONFIG_NEED_MULTIPLE_NODES=y
CONFIG_HAVE_MEMORY_PRESENT=y
# CONFIG_SPARSEMEM_STATIC is not set
CONFIG_SPARSEMEM_EXTREME=y
CONFIG_SPARSEMEM_VMEMMAP_ENABLE=y
CONFIG_SPARSEMEM_VMEMMAP=y
# CONFIG_MEMORY_HOTPLUG is not set
CONFIG_SPLIT_PTLOCK_CPUS=4
CONFIG_MIGRATION=y
CONFIG_RESOURCES_64BIT=y
CONFIG_ZONE_DMA_FLAG=1
CONFIG_BOUNCE=y
CONFIG_VIRT_TO_BUS=y
CONFIG_MTRR=y
CONFIG_EFI=y
# CONFIG_SECCOMP is not set
CONFIG_CC_STACKPROTECTOR=y
# CONFIG_CC_STACKPROTECTOR_ALL is not set
CONFIG_HZ_100=y
# CONFIG_HZ_250 is not set
# CONFIG_HZ_300 is not set
# CONFIG_HZ_1000 is not set
CONFIG_HZ=100
CONFIG_SCHED_HRTICK=y
# CONFIG_KEXEC is not set
# CONFIG_CRASH_DUMP is not set
CONFIG_PHYSICAL_START=0x200000
# CONFIG_RELOCATABLE is not set
CONFIG_PHYSICAL_ALIGN=0x200000
CONFIG_HOTPLUG_CPU=y
CONFIG_COMPAT_VDSO=y
CONFIG_ARCH_ENABLE_MEMORY_HOTPLUG=y
CONFIG_HAVE_ARCH_EARLY_PFN_TO_NID=y
#
# Power management options
#
CONFIG_PM=y
CONFIG_PM_LEGACY=y
# CONFIG_PM_DEBUG is not set
CONFIG_PM_SLEEP_SMP=y
CONFIG_PM_SLEEP=y
CONFIG_SUSPEND=y
CONFIG_SUSPEND_FREEZER=y
# CONFIG_HIBERNATION is not set
CONFIG_ACPI=y
CONFIG_ACPI_SLEEP=y
CONFIG_ACPI_PROCFS=y
CONFIG_ACPI_PROCFS_POWER=y
CONFIG_ACPI_SYSFS_POWER=y
CONFIG_ACPI_PROC_EVENT=y
CONFIG_ACPI_AC=m
CONFIG_ACPI_BATTERY=m
CONFIG_ACPI_BUTTON=m
CONFIG_ACPI_VIDEO=m
CONFIG_ACPI_FAN=m
CONFIG_ACPI_DOCK=m
CONFIG_ACPI_BAY=m
CONFIG_ACPI_PROCESSOR=m
CONFIG_ACPI_HOTPLUG_CPU=y
CONFIG_ACPI_THERMAL=m
CONFIG_ACPI_NUMA=y
CONFIG_ACPI_WMI=m
CONFIG_ACPI_ASUS=m
CONFIG_ACPI_TOSHIBA=m
CONFIG_ACPI_CUSTOM_DSDT_INITRD=y
CONFIG_ACPI_BLACKLIST_YEAR=0
# CONFIG_ACPI_DEBUG is not set
CONFIG_ACPI_EC=y
CONFIG_ACPI_POWER=y
CONFIG_ACPI_SYSTEM=y
CONFIG_X86_PM_TIMER=y
CONFIG_ACPI_CONTAINER=m
# CONFIG_ACPI_SBS is not set
#
# CPU Frequency scaling
#
CONFIG_CPU_FREQ=y
CONFIG_CPU_FREQ_TABLE=y
# CONFIG_CPU_FREQ_DEBUG is not set
CONFIG_CPU_FREQ_STAT=y
# CONFIG_CPU_FREQ_STAT_DETAILS is not set
# CONFIG_CPU_FREQ_DEFAULT_GOV_PERFORMANCE is not set
# CONFIG_CPU_FREQ_DEFAULT_GOV_USERSPACE is not set
CONFIG_CPU_FREQ_DEFAULT_GOV_ONDEMAND=y
# CONFIG_CPU_FREQ_DEFAULT_GOV_CONSERVATIVE is not set
CONFIG_CPU_FREQ_GOV_PERFORMANCE=y
CONFIG_CPU_FREQ_GOV_POWERSAVE=m
CONFIG_CPU_FREQ_GOV_USERSPACE=m
CONFIG_CPU_FREQ_GOV_ONDEMAND=y
CONFIG_CPU_FREQ_GOV_CONSERVATIVE=m
#
# CPUFreq processor drivers
#
CONFIG_X86_ACPI_CPUFREQ=m
CONFIG_X86_POWERNOW_K8=m
CONFIG_X86_POWERNOW_K8_ACPI=y
CONFIG_X86_SPEEDSTEP_CENTRINO=m
CONFIG_X86_P4_CLOCKMOD=m
#
# shared options
#
# CONFIG_X86_ACPI_CPUFREQ_PROC_INTF is not set
CONFIG_X86_SPEEDSTEP_LIB=m
CONFIG_CPU_IDLE=y
CONFIG_CPU_IDLE_GOV_LADDER=y
CONFIG_CPU_IDLE_GOV_MENU=y
#
# Bus options (PCI etc.)
#
CONFIG_PCI=y
CONFIG_PCI_DIRECT=y
CONFIG_PCI_MMCONFIG=y
CONFIG_PCI_DOMAINS=y
# CONFIG_DMAR is not set
CONFIG_PCIEPORTBUS=y
CONFIG_HOTPLUG_PCI_PCIE=m
CONFIG_PCIEAER=y
CONFIG_ARCH_SUPPORTS_MSI=y
CONFIG_PCI_MSI=y
CONFIG_PCI_LEGACY=y
# CONFIG_PCI_DEBUG is not set
CONFIG_HT_IRQ=y
CONFIG_ISA_DMA_API=y
CONFIG_K8_NB=y
CONFIG_PCCARD=m
# CONFIG_PCMCIA_DEBUG is not set
CONFIG_PCMCIA=m
CONFIG_PCMCIA_LOAD_CIS=y
CONFIG_PCMCIA_IOCTL=y
CONFIG_CARDBUS=y
#
# PC-card bridges
#
CONFIG_YENTA=m
CONFIG_YENTA_O2=y
CONFIG_YENTA_RICOH=y
CONFIG_YENTA_TI=y
CONFIG_YENTA_ENE_TUNE=y
CONFIG_YENTA_TOSHIBA=y
CONFIG_PD6729=m
CONFIG_I82092=m
CONFIG_PCCARD_NONSTATIC=m
CONFIG_HOTPLUG_PCI=m
CONFIG_HOTPLUG_PCI_FAKE=m
CONFIG_HOTPLUG_PCI_ACPI=m
CONFIG_HOTPLUG_PCI_ACPI_IBM=m
# CONFIG_HOTPLUG_PCI_CPCI is not set
CONFIG_HOTPLUG_PCI_SHPC=m
#
# Executable file formats / Emulations
#
CONFIG_BINFMT_ELF=y
CONFIG_COMPAT_BINFMT_ELF=y
# CONFIG_BINFMT_MISC is not set
CONFIG_IA32_EMULATION=y
# CONFIG_IA32_AOUT is not set
CONFIG_COMPAT=y
CONFIG_COMPAT_FOR_U64_ALIGNMENT=y
CONFIG_SYSVIPC_COMPAT=y
#
# Networking
#
CONFIG_NET=y
#
# Networking options
#
CONFIG_PACKET=y
CONFIG_PACKET_MMAP=y
CONFIG_UNIX=y
CONFIG_XFRM=y
CONFIG_XFRM_USER=m
# CONFIG_XFRM_SUB_POLICY is not set
CONFIG_XFRM_MIGRATE=y
# CONFIG_XFRM_STATISTICS is not set
CONFIG_NET_KEY=m
CONFIG_NET_KEY_MIGRATE=y
CONFIG_INET=y
CONFIG_IP_MULTICAST=y
CONFIG_IP_ADVANCED_ROUTER=y
CONFIG_ASK_IP_FIB_HASH=y
# CONFIG_IP_FIB_TRIE is not set
CONFIG_IP_FIB_HASH=y
CONFIG_IP_MULTIPLE_TABLES=y
# CONFIG_IP_ROUTE_MULTIPATH is not set
# CONFIG_IP_ROUTE_VERBOSE is not set
# CONFIG_IP_PNP is not set
CONFIG_NET_IPIP=m
CONFIG_NET_IPGRE=m
# CONFIG_NET_IPGRE_BROADCAST is not set
# CONFIG_IP_MROUTE is not set
# CONFIG_ARPD is not set
CONFIG_SYN_COOKIES=y
CONFIG_INET_AH=m
CONFIG_INET_ESP=m
CONFIG_INET_IPCOMP=m
CONFIG_INET_XFRM_TUNNEL=m
CONFIG_INET_TUNNEL=m
CONFIG_INET_XFRM_MODE_TRANSPORT=m
CONFIG_INET_XFRM_MODE_TUNNEL=m
CONFIG_INET_XFRM_MODE_BEET=m
CONFIG_INET_LRO=m
CONFIG_INET_DIAG=m
CONFIG_INET_TCP_DIAG=m
# CONFIG_TCP_CONG_ADVANCED is not set
CONFIG_TCP_CONG_CUBIC=y
CONFIG_DEFAULT_TCP_CONG="cubic"
CONFIG_TCP_MD5SIG=y
CONFIG_IP_VS=m
# CONFIG_IP_VS_DEBUG is not set
CONFIG_IP_VS_TAB_BITS=12
#
# IPVS transport protocol load balancing support
#
CONFIG_IP_VS_PROTO_TCP=y
CONFIG_IP_VS_PROTO_UDP=y
CONFIG_IP_VS_PROTO_ESP=y
CONFIG_IP_VS_PROTO_AH=y
#
# IPVS scheduler
#
CONFIG_IP_VS_RR=m
CONFIG_IP_VS_WRR=m
CONFIG_IP_VS_LC=m
CONFIG_IP_VS_WLC=m
CONFIG_IP_VS_LBLC=m
CONFIG_IP_VS_LBLCR=m
CONFIG_IP_VS_DH=m
CONFIG_IP_VS_SH=m
CONFIG_IP_VS_SED=m
CONFIG_IP_VS_NQ=m
#
# IPVS application helper
#
CONFIG_IP_VS_FTP=m
CONFIG_IPV6=m
# CONFIG_IPV6_PRIVACY is not set
# CONFIG_IPV6_ROUTER_PREF is not set
# CONFIG_IPV6_OPTIMISTIC_DAD is not set
CONFIG_INET6_AH=m
CONFIG_INET6_ESP=m
CONFIG_INET6_IPCOMP=m
# CONFIG_IPV6_MIP6 is not set
CONFIG_INET6_XFRM_TUNNEL=m
CONFIG_INET6_TUNNEL=m
CONFIG_INET6_XFRM_MODE_TRANSPORT=m
CONFIG_INET6_XFRM_MODE_TUNNEL=m
CONFIG_INET6_XFRM_MODE_BEET=m
# CONFIG_INET6_XFRM_MODE_ROUTEOPTIMIZATION is not set
CONFIG_IPV6_SIT=m
CONFIG_IPV6_TUNNEL=m
CONFIG_IPV6_MULTIPLE_TABLES=y
CONFIG_IPV6_SUBTREES=y
# CONFIG_NETWORK_SECMARK is not set
CONFIG_NETFILTER=y
# CONFIG_NETFILTER_DEBUG is not set
CONFIG_NETFILTER_ADVANCED=y
CONFIG_BRIDGE_NETFILTER=y
#
# Core Netfilter Configuration
#
CONFIG_NETFILTER_NETLINK=m
CONFIG_NETFILTER_NETLINK_QUEUE=m
CONFIG_NETFILTER_NETLINK_LOG=m
CONFIG_NF_CONNTRACK=m
CONFIG_NF_CT_ACCT=y
CONFIG_NF_CONNTRACK_MARK=y
# CONFIG_NF_CONNTRACK_EVENTS is not set
CONFIG_NF_CT_PROTO_GRE=m
CONFIG_NF_CT_PROTO_SCTP=m
CONFIG_NF_CT_PROTO_UDPLITE=m
CONFIG_NF_CONNTRACK_AMANDA=m
CONFIG_NF_CONNTRACK_FTP=m
CONFIG_NF_CONNTRACK_H323=m
CONFIG_NF_CONNTRACK_IRC=m
CONFIG_NF_CONNTRACK_NETBIOS_NS=m
CONFIG_NF_CONNTRACK_PPTP=m
CONFIG_NF_CONNTRACK_SANE=m
CONFIG_NF_CONNTRACK_SIP=m
CONFIG_NF_CONNTRACK_TFTP=m
CONFIG_NF_CT_NETLINK=m
CONFIG_NETFILTER_XTABLES=m
CONFIG_NETFILTER_XT_TARGET_CLASSIFY=m
CONFIG_NETFILTER_XT_TARGET_CONNMARK=m
CONFIG_NETFILTER_XT_TARGET_DSCP=m
CONFIG_NETFILTER_XT_TARGET_MARK=m
CONFIG_NETFILTER_XT_TARGET_NFQUEUE=m
CONFIG_NETFILTER_XT_TARGET_NFLOG=m
CONFIG_NETFILTER_XT_TARGET_NOTRACK=m
CONFIG_NETFILTER_XT_TARGET_RATEEST=m
CONFIG_NETFILTER_XT_TARGET_TRACE=m
CONFIG_NETFILTER_XT_TARGET_TCPMSS=m
CONFIG_NETFILTER_XT_TARGET_TCPOPTSTRIP=m
CONFIG_NETFILTER_XT_MATCH_COMMENT=m
CONFIG_NETFILTER_XT_MATCH_CONNBYTES=m
CONFIG_NETFILTER_XT_MATCH_CONNLIMIT=m
CONFIG_NETFILTER_XT_MATCH_CONNMARK=m
CONFIG_NETFILTER_XT_MATCH_CONNTRACK=m
CONFIG_NETFILTER_XT_MATCH_DCCP=m
CONFIG_NETFILTER_XT_MATCH_DSCP=m
CONFIG_NETFILTER_XT_MATCH_ESP=m
CONFIG_NETFILTER_XT_MATCH_HELPER=m
CONFIG_NETFILTER_XT_MATCH_IPRANGE=m
CONFIG_NETFILTER_XT_MATCH_LENGTH=m
CONFIG_NETFILTER_XT_MATCH_LIMIT=m
CONFIG_NETFILTER_XT_MATCH_MAC=m
CONFIG_NETFILTER_XT_MATCH_MARK=m
CONFIG_NETFILTER_XT_MATCH_OWNER=m
CONFIG_NETFILTER_XT_MATCH_POLICY=m
CONFIG_NETFILTER_XT_MATCH_MULTIPORT=m
CONFIG_NETFILTER_XT_MATCH_PHYSDEV=m
CONFIG_NETFILTER_XT_MATCH_PKTTYPE=m
CONFIG_NETFILTER_XT_MATCH_QUOTA=m
CONFIG_NETFILTER_XT_MATCH_RATEEST=m
CONFIG_NETFILTER_XT_MATCH_REALM=m
CONFIG_NETFILTER_XT_MATCH_SCTP=m
CONFIG_NETFILTER_XT_MATCH_STATE=m
CONFIG_NETFILTER_XT_MATCH_STATISTIC=m
CONFIG_NETFILTER_XT_MATCH_STRING=m
CONFIG_NETFILTER_XT_MATCH_TCPMSS=m
CONFIG_NETFILTER_XT_MATCH_TIME=m
CONFIG_NETFILTER_XT_MATCH_U32=m
CONFIG_NETFILTER_XT_MATCH_HASHLIMIT=m
#
# IP: Netfilter Configuration
#
CONFIG_NF_CONNTRACK_IPV4=m
CONFIG_NF_CONNTRACK_PROC_COMPAT=y
# CONFIG_IP_NF_QUEUE is not set
CONFIG_IP_NF_IPTABLES=m
CONFIG_IP_NF_MATCH_RECENT=m
CONFIG_IP_NF_MATCH_ECN=m
CONFIG_IP_NF_MATCH_AH=m
CONFIG_IP_NF_MATCH_TTL=m
CONFIG_IP_NF_MATCH_ADDRTYPE=m
CONFIG_IP_NF_FILTER=m
CONFIG_IP_NF_TARGET_REJECT=m
CONFIG_IP_NF_TARGET_LOG=m
CONFIG_IP_NF_TARGET_ULOG=m
CONFIG_NF_NAT=m
CONFIG_NF_NAT_NEEDED=y
CONFIG_IP_NF_TARGET_MASQUERADE=m
CONFIG_IP_NF_TARGET_REDIRECT=m
CONFIG_IP_NF_TARGET_NETMAP=m
CONFIG_NF_NAT_SNMP_BASIC=m
CONFIG_NF_NAT_PROTO_GRE=m
CONFIG_NF_NAT_FTP=m
CONFIG_NF_NAT_IRC=m
CONFIG_NF_NAT_TFTP=m
CONFIG_NF_NAT_AMANDA=m
CONFIG_NF_NAT_PPTP=m
CONFIG_NF_NAT_H323=m
CONFIG_NF_NAT_SIP=m
CONFIG_IP_NF_MANGLE=m
CONFIG_IP_NF_TARGET_ECN=m
CONFIG_IP_NF_TARGET_TTL=m
CONFIG_IP_NF_TARGET_CLUSTERIP=m
CONFIG_IP_NF_RAW=m
# CONFIG_IP_NF_ARPTABLES is not set
#
# IPv6: Netfilter Configuration
#
CONFIG_NF_CONNTRACK_IPV6=m
# CONFIG_IP6_NF_QUEUE is not set
CONFIG_IP6_NF_IPTABLES=m
CONFIG_IP6_NF_MATCH_RT=m
CONFIG_IP6_NF_MATCH_OPTS=m
CONFIG_IP6_NF_MATCH_FRAG=m
CONFIG_IP6_NF_MATCH_HL=m
CONFIG_IP6_NF_MATCH_IPV6HEADER=m
CONFIG_IP6_NF_MATCH_AH=m
CONFIG_IP6_NF_MATCH_MH=m
CONFIG_IP6_NF_MATCH_EUI64=m
CONFIG_IP6_NF_FILTER=m
CONFIG_IP6_NF_TARGET_LOG=m
CONFIG_IP6_NF_TARGET_REJECT=m
CONFIG_IP6_NF_MANGLE=m
CONFIG_IP6_NF_TARGET_HL=m
CONFIG_IP6_NF_RAW=m
#
# Bridge: Netfilter Configuration
#
# CONFIG_BRIDGE_NF_EBTABLES is not set
CONFIG_IP_DCCP=m
CONFIG_INET_DCCP_DIAG=m
CONFIG_IP_DCCP_ACKVEC=y
#
# DCCP CCIDs Configuration (EXPERIMENTAL)
#
CONFIG_IP_DCCP_CCID2=m
# CONFIG_IP_DCCP_CCID2_DEBUG is not set
CONFIG_IP_DCCP_CCID3=m
# CONFIG_IP_DCCP_CCID3_DEBUG is not set
CONFIG_IP_DCCP_CCID3_RTO=100
CONFIG_IP_DCCP_TFRC_LIB=m
#
# DCCP Kernel Hacking
#
# CONFIG_IP_DCCP_DEBUG is not set
CONFIG_IP_SCTP=m
# CONFIG_SCTP_DBG_MSG is not set
# CONFIG_SCTP_DBG_OBJCNT is not set
# CONFIG_SCTP_HMAC_NONE is not set
# CONFIG_SCTP_HMAC_SHA1 is not set
CONFIG_SCTP_HMAC_MD5=y
# CONFIG_TIPC is not set
# CONFIG_ATM is not set
CONFIG_BRIDGE=m
CONFIG_VLAN_8021Q=m
# CONFIG_DECNET is not set
CONFIG_LLC=m
# CONFIG_LLC2 is not set
# CONFIG_IPX is not set
CONFIG_ATALK=m
CONFIG_DEV_APPLETALK=m
CONFIG_IPDDP=m
CONFIG_IPDDP_ENCAP=y
CONFIG_IPDDP_DECAP=y
# CONFIG_X25 is not set
# CONFIG_LAPB is not set
# CONFIG_ECONET is not set
# CONFIG_WAN_ROUTER is not set
CONFIG_NET_SCHED=y
#
# Queueing/Scheduling
#
CONFIG_NET_SCH_CBQ=m
CONFIG_NET_SCH_HTB=m
CONFIG_NET_SCH_HFSC=m
CONFIG_NET_SCH_PRIO=m
CONFIG_NET_SCH_RR=m
CONFIG_NET_SCH_RED=m
CONFIG_NET_SCH_SFQ=m
CONFIG_NET_SCH_TEQL=m
CONFIG_NET_SCH_TBF=m
CONFIG_NET_SCH_GRED=m
CONFIG_NET_SCH_DSMARK=m
CONFIG_NET_SCH_NETEM=m
CONFIG_NET_SCH_INGRESS=m
#
# Classification
#
CONFIG_NET_CLS=y
CONFIG_NET_CLS_BASIC=m
CONFIG_NET_CLS_TCINDEX=m
CONFIG_NET_CLS_ROUTE4=m
CONFIG_NET_CLS_ROUTE=y
CONFIG_NET_CLS_FW=m
CONFIG_NET_CLS_U32=m
CONFIG_CLS_U32_PERF=y
CONFIG_CLS_U32_MARK=y
CONFIG_NET_CLS_RSVP=m
CONFIG_NET_CLS_RSVP6=m
CONFIG_NET_CLS_FLOW=m
CONFIG_NET_EMATCH=y
CONFIG_NET_EMATCH_STACK=32
CONFIG_NET_EMATCH_CMP=m
CONFIG_NET_EMATCH_NBYTE=m
CONFIG_NET_EMATCH_U32=m
CONFIG_NET_EMATCH_META=m
CONFIG_NET_EMATCH_TEXT=m
CONFIG_NET_CLS_ACT=y
CONFIG_NET_ACT_POLICE=m
CONFIG_NET_ACT_GACT=m
CONFIG_GACT_PROB=y
CONFIG_NET_ACT_MIRRED=m
# CONFIG_NET_ACT_IPT is not set
# CONFIG_NET_ACT_NAT is not set
CONFIG_NET_ACT_PEDIT=m
# CONFIG_NET_ACT_SIMP is not set
CONFIG_NET_CLS_IND=y
CONFIG_NET_SCH_FIFO=y
#
# Network testing
#
CONFIG_NET_PKTGEN=m
# CONFIG_HAMRADIO is not set
# CONFIG_CAN is not set
CONFIG_IRDA=m
#
# IrDA protocols
#
CONFIG_IRLAN=m
CONFIG_IRNET=m
CONFIG_IRCOMM=m
CONFIG_IRDA_ULTRA=y
#
# IrDA options
#
CONFIG_IRDA_CACHE_LAST_LSAP=y
CONFIG_IRDA_FAST_RR=y
# CONFIG_IRDA_DEBUG is not set
#
# Infrared-port device drivers
#
#
# SIR device drivers
#
CONFIG_IRTTY_SIR=m
#
# Dongle support
#
CONFIG_DONGLE=y
CONFIG_ESI_DONGLE=m
CONFIG_ACTISYS_DONGLE=m
CONFIG_TEKRAM_DONGLE=m
CONFIG_TOIM3232_DONGLE=m
CONFIG_LITELINK_DONGLE=m
CONFIG_MA600_DONGLE=m
CONFIG_GIRBIL_DONGLE=m
CONFIG_MCP2120_DONGLE=m
CONFIG_OLD_BELKIN_DONGLE=m
CONFIG_ACT200L_DONGLE=m
CONFIG_KINGSUN_DONGLE=m
CONFIG_KSDAZZLE_DONGLE=m
CONFIG_KS959_DONGLE=m
#
# FIR device drivers
#
CONFIG_USB_IRDA=m
CONFIG_SIGMATEL_FIR=m
CONFIG_NSC_FIR=m
CONFIG_WINBOND_FIR=m
CONFIG_SMC_IRCC_FIR=m
CONFIG_ALI_FIR=m
CONFIG_VLSI_FIR=m
CONFIG_VIA_FIR=m
CONFIG_MCS_FIR=m
CONFIG_BT=m
CONFIG_BT_L2CAP=m
CONFIG_BT_SCO=m
CONFIG_BT_RFCOMM=m
CONFIG_BT_RFCOMM_TTY=y
CONFIG_BT_BNEP=m
CONFIG_BT_BNEP_MC_FILTER=y
CONFIG_BT_BNEP_PROTO_FILTER=y
CONFIG_BT_HIDP=m
#
# Bluetooth device drivers
#
CONFIG_BT_HCIUSB=m
CONFIG_BT_HCIUSB_SCO=y
# CONFIG_BT_HCIBTSDIO is not set
CONFIG_BT_HCIUART=m
CONFIG_BT_HCIUART_H4=y
CONFIG_BT_HCIUART_BCSP=y
CONFIG_BT_HCIUART_LL=y
CONFIG_BT_HCIBCM203X=m
CONFIG_BT_HCIBPA10X=m
CONFIG_BT_HCIBFUSB=m
CONFIG_BT_HCIDTL1=m
CONFIG_BT_HCIBT3C=m
CONFIG_BT_HCIBLUECARD=m
CONFIG_BT_HCIBTUART=m
CONFIG_BT_HCIVHCI=m
# CONFIG_AF_RXRPC is not set
CONFIG_FIB_RULES=y
#
# Wireless
#
CONFIG_CFG80211=m
CONFIG_NL80211=y
CONFIG_WIRELESS_EXT=y
CONFIG_MAC80211=m
#
# Rate control algorithm selection
#
CONFIG_MAC80211_RC_DEFAULT_PID=y
# CONFIG_MAC80211_RC_DEFAULT_SIMPLE is not set
# CONFIG_MAC80211_RC_DEFAULT_NONE is not set
#
# Selecting 'y' for an algorithm will
#
#
# build the algorithm into mac80211.
#
CONFIG_MAC80211_RC_DEFAULT="pid"
CONFIG_MAC80211_RC_PID=y
CONFIG_MAC80211_RC_SIMPLE=m
CONFIG_MAC80211_LEDS=y
# CONFIG_MAC80211_DEBUG_PACKET_ALIGNMENT is not set
# CONFIG_MAC80211_DEBUG is not set
CONFIG_IEEE80211=m
# CONFIG_IEEE80211_DEBUG is not set
CONFIG_IEEE80211_CRYPT_WEP=m
CONFIG_IEEE80211_CRYPT_CCMP=m
CONFIG_IEEE80211_CRYPT_TKIP=m
CONFIG_IEEE80211_SOFTMAC=m
# CONFIG_IEEE80211_SOFTMAC_DEBUG is not set
CONFIG_RFKILL=m
CONFIG_RFKILL_INPUT=m
CONFIG_RFKILL_LEDS=y
# CONFIG_NET_9P is not set
#
# Device Drivers
#
#
# Generic Driver Options
#
CONFIG_UEVENT_HELPER_PATH="/sbin/hotplug"
CONFIG_STANDALONE=y
CONFIG_PREVENT_FIRMWARE_BUILD=y
CONFIG_FW_LOADER=m
# CONFIG_DEBUG_DRIVER is not set
# CONFIG_DEBUG_DEVRES is not set
# CONFIG_SYS_HYPERVISOR is not set
# CONFIG_CONNECTOR is not set
# CONFIG_MTD is not set
# CONFIG_PARPORT is not set
CONFIG_PNP=y
# CONFIG_PNP_DEBUG is not set
#
# Protocols
#
CONFIG_PNPACPI=y
CONFIG_BLK_DEV=y
CONFIG_BLK_DEV_FD=m
CONFIG_BLK_CPQ_DA=m
CONFIG_BLK_CPQ_CISS_DA=m
# CONFIG_CISS_SCSI_TAPE is not set
CONFIG_BLK_DEV_DAC960=m
# CONFIG_BLK_DEV_UMEM is not set
# CONFIG_BLK_DEV_COW_COMMON is not set
CONFIG_BLK_DEV_LOOP=m
# CONFIG_BLK_DEV_CRYPTOLOOP is not set
CONFIG_BLK_DEV_NBD=m
CONFIG_BLK_DEV_SX8=m
# CONFIG_BLK_DEV_UB is not set
CONFIG_BLK_DEV_RAM=y
CONFIG_BLK_DEV_RAM_COUNT=16
CONFIG_BLK_DEV_RAM_SIZE=8192
# CONFIG_BLK_DEV_XIP is not set
CONFIG_CDROM_PKTCDVD=m
CONFIG_CDROM_PKTCDVD_BUFFERS=8
# CONFIG_CDROM_PKTCDVD_WCACHE is not set
# CONFIG_ATA_OVER_ETH is not set
CONFIG_VIRTIO_BLK=m
CONFIG_MISC_DEVICES=y
CONFIG_IBM_ASM=m
# CONFIG_PHANTOM is not set
CONFIG_EEPROM_93CX6=m
# CONFIG_SGI_IOC4 is not set
CONFIG_TIFM_CORE=m
CONFIG_TIFM_7XX1=m
CONFIG_ACER_WMI=m
CONFIG_ASUS_LAPTOP=m
# CONFIG_FUJITSU_LAPTOP is not set
# CONFIG_MSI_LAPTOP is not set
# CONFIG_SONY_LAPTOP is not set
# CONFIG_THINKPAD_ACPI is not set
CONFIG_INTEL_MENLOW=m
CONFIG_ENCLOSURE_SERVICES=m
CONFIG_HAVE_IDE=y
# CONFIG_IDE is not set
#
# SCSI device support
#
CONFIG_RAID_ATTRS=m
CONFIG_SCSI=m
CONFIG_SCSI_DMA=y
CONFIG_SCSI_TGT=m
CONFIG_SCSI_NETLINK=y
CONFIG_SCSI_PROC_FS=y
#
# SCSI support type (disk, tape, CD-ROM)
#
CONFIG_BLK_DEV_SD=m
CONFIG_CHR_DEV_ST=m
# CONFIG_CHR_DEV_OSST is not set
CONFIG_BLK_DEV_SR=m
CONFIG_BLK_DEV_SR_VENDOR=y
CONFIG_CHR_DEV_SG=m
CONFIG_CHR_DEV_SCH=m
CONFIG_SCSI_ENCLOSURE=m
#
# Some SCSI devices (e.g. CD jukebox) support multiple LUNs
#
CONFIG_SCSI_MULTI_LUN=y
CONFIG_SCSI_CONSTANTS=y
# CONFIG_SCSI_LOGGING is not set
# CONFIG_SCSI_SCAN_ASYNC is not set
CONFIG_SCSI_WAIT_SCAN=m
#
# SCSI Transports
#
CONFIG_SCSI_SPI_ATTRS=m
CONFIG_SCSI_FC_ATTRS=m
CONFIG_SCSI_FC_TGT_ATTRS=y
CONFIG_SCSI_ISCSI_ATTRS=m
CONFIG_SCSI_SAS_ATTRS=m
CONFIG_SCSI_SAS_LIBSAS=m
CONFIG_SCSI_SAS_ATA=y
CONFIG_SCSI_SAS_HOST_SMP=y
# CONFIG_SCSI_SAS_LIBSAS_DEBUG is not set
CONFIG_SCSI_SRP_ATTRS=m
CONFIG_SCSI_SRP_TGT_ATTRS=y
CONFIG_SCSI_LOWLEVEL=y
CONFIG_ISCSI_TCP=m
CONFIG_BLK_DEV_3W_XXXX_RAID=m
CONFIG_SCSI_3W_9XXX=m
# CONFIG_SCSI_ACARD is not set
CONFIG_SCSI_AACRAID=m
CONFIG_SCSI_AIC7XXX=m
CONFIG_AIC7XXX_CMDS_PER_DEVICE=32
CONFIG_AIC7XXX_RESET_DELAY_MS=15000
# CONFIG_AIC7XXX_DEBUG_ENABLE is not set
CONFIG_AIC7XXX_DEBUG_MASK=0
# CONFIG_AIC7XXX_REG_PRETTY_PRINT is not set
# CONFIG_SCSI_AIC7XXX_OLD is not set
CONFIG_SCSI_AIC79XX=m
CONFIG_AIC79XX_CMDS_PER_DEVICE=32
CONFIG_AIC79XX_RESET_DELAY_MS=15000
# CONFIG_AIC79XX_DEBUG_ENABLE is not set
CONFIG_AIC79XX_DEBUG_MASK=0
# CONFIG_AIC79XX_REG_PRETTY_PRINT is not set
CONFIG_SCSI_AIC94XX=m
# CONFIG_AIC94XX_DEBUG is not set
CONFIG_SCSI_ADVANSYS=m
CONFIG_SCSI_ARCMSR=m
CONFIG_SCSI_ARCMSR_AER=y
CONFIG_MEGARAID_NEWGEN=y
CONFIG_MEGARAID_MM=m
CONFIG_MEGARAID_MAILBOX=m
# CONFIG_MEGARAID_LEGACY is not set
CONFIG_MEGARAID_SAS=m
CONFIG_SCSI_HPTIOP=m
CONFIG_SCSI_BUSLOGIC=m
# CONFIG_SCSI_OMIT_FLASHPOINT is not set
# CONFIG_SCSI_DMX3191D is not set
# CONFIG_SCSI_EATA is not set
# CONFIG_SCSI_FUTURE_DOMAIN is not set
CONFIG_SCSI_GDTH=m
CONFIG_SCSI_IPS=m
CONFIG_SCSI_INITIO=m
# CONFIG_SCSI_INIA100 is not set
CONFIG_SCSI_STEX=m
CONFIG_SCSI_SYM53C8XX_2=m
CONFIG_SCSI_SYM53C8XX_DMA_ADDRESSING_MODE=0
CONFIG_SCSI_SYM53C8XX_DEFAULT_TAGS=16
CONFIG_SCSI_SYM53C8XX_MAX_TAGS=64
CONFIG_SCSI_SYM53C8XX_MMIO=y
CONFIG_SCSI_IPR=m
# CONFIG_SCSI_IPR_TRACE is not set
# CONFIG_SCSI_IPR_DUMP is not set
CONFIG_SCSI_QLOGIC_1280=m
CONFIG_SCSI_QLA_FC=m
CONFIG_SCSI_QLA_ISCSI=m
CONFIG_SCSI_LPFC=m
CONFIG_SCSI_DC395x=m
CONFIG_SCSI_DC390T=m
# CONFIG_SCSI_DEBUG is not set
# CONFIG_SCSI_SRP is not set
# CONFIG_SCSI_LOWLEVEL_PCMCIA is not set
CONFIG_ATA=m
# CONFIG_ATA_NONSTANDARD is not set
CONFIG_ATA_ACPI=y
CONFIG_SATA_AHCI=m
CONFIG_SATA_SVW=m
CONFIG_ATA_PIIX=m
CONFIG_SATA_MV=m
CONFIG_SATA_NV=m
CONFIG_PDC_ADMA=m
CONFIG_SATA_QSTOR=m
CONFIG_SATA_PROMISE=m
CONFIG_SATA_SX4=m
CONFIG_SATA_SIL=m
CONFIG_SATA_SIL24=m
CONFIG_SATA_SIS=m
CONFIG_SATA_ULI=m
CONFIG_SATA_VIA=m
CONFIG_SATA_VITESSE=m
CONFIG_SATA_INIC162X=m
CONFIG_PATA_ACPI=m
CONFIG_PATA_ALI=m
CONFIG_PATA_AMD=m
CONFIG_PATA_ARTOP=m
CONFIG_PATA_ATIIXP=m
CONFIG_PATA_CMD640_PCI=m
CONFIG_PATA_CMD64X=m
CONFIG_PATA_CS5520=m
CONFIG_PATA_CS5530=m
CONFIG_PATA_CYPRESS=m
CONFIG_PATA_EFAR=m
CONFIG_ATA_GENERIC=m
CONFIG_PATA_HPT366=m
CONFIG_PATA_HPT37X=m
CONFIG_PATA_HPT3X2N=m
CONFIG_PATA_HPT3X3=m
# CONFIG_PATA_HPT3X3_DMA is not set
CONFIG_PATA_IT821X=m
CONFIG_PATA_IT8213=m
CONFIG_PATA_JMICRON=m
CONFIG_PATA_TRIFLEX=m
CONFIG_PATA_MARVELL=m
CONFIG_PATA_MPIIX=m
CONFIG_PATA_OLDPIIX=m
CONFIG_PATA_NETCELL=m
CONFIG_PATA_NINJA32=m
CONFIG_PATA_NS87410=m
CONFIG_PATA_NS87415=m
CONFIG_PATA_OPTI=m
CONFIG_PATA_OPTIDMA=m
CONFIG_PATA_PCMCIA=m
CONFIG_PATA_PDC_OLD=m
CONFIG_PATA_RADISYS=m
CONFIG_PATA_RZ1000=m
CONFIG_PATA_SC1200=m
CONFIG_PATA_SERVERWORKS=m
CONFIG_PATA_PDC2027X=m
CONFIG_PATA_SIL680=m
CONFIG_PATA_SIS=m
CONFIG_PATA_VIA=m
CONFIG_PATA_WINBOND=m
# CONFIG_PATA_PLATFORM is not set
CONFIG_MD=y
CONFIG_BLK_DEV_MD=m
CONFIG_MD_LINEAR=m
CONFIG_MD_RAID0=m
CONFIG_MD_RAID1=m
CONFIG_MD_RAID10=m
CONFIG_MD_RAID456=m
CONFIG_MD_RAID5_RESHAPE=y
CONFIG_MD_MULTIPATH=m
CONFIG_MD_FAULTY=m
CONFIG_BLK_DEV_DM=m
# CONFIG_DM_DEBUG is not set
CONFIG_DM_CRYPT=m
CONFIG_DM_SNAPSHOT=m
CONFIG_DM_MIRROR=m
CONFIG_DM_ZERO=m
CONFIG_DM_MULTIPATH=m
CONFIG_DM_MULTIPATH_EMC=m
CONFIG_DM_MULTIPATH_RDAC=m
CONFIG_DM_MULTIPATH_HP=m
CONFIG_DM_DELAY=m
CONFIG_DM_UEVENT=y
CONFIG_FUSION=y
CONFIG_FUSION_SPI=m
CONFIG_FUSION_FC=m
CONFIG_FUSION_SAS=m
CONFIG_FUSION_MAX_SGE=128
CONFIG_FUSION_CTL=m
CONFIG_FUSION_LAN=m
# CONFIG_FUSION_LOGGING is not set
#
# IEEE 1394 (FireWire) support
#
# CONFIG_FIREWIRE is not set
CONFIG_IEEE1394=m
#
# Subsystem Options
#
# CONFIG_IEEE1394_VERBOSEDEBUG is not set
#
# Controllers
#
CONFIG_IEEE1394_PCILYNX=m
CONFIG_IEEE1394_OHCI1394=m
#
# Protocols
#
# CONFIG_IEEE1394_VIDEO1394 is not set
CONFIG_IEEE1394_SBP2=m
# CONFIG_IEEE1394_SBP2_PHYS_DMA is not set
CONFIG_IEEE1394_ETH1394_ROM_ENTRY=y
CONFIG_IEEE1394_ETH1394=m
CONFIG_IEEE1394_DV1394=m
CONFIG_IEEE1394_RAWIO=m
CONFIG_I2O=m
CONFIG_I2O_LCT_NOTIFY_ON_CHANGES=y
CONFIG_I2O_EXT_ADAPTEC=y
CONFIG_I2O_EXT_ADAPTEC_DMA64=y
CONFIG_I2O_CONFIG=m
CONFIG_I2O_CONFIG_OLD_IOCTL=y
CONFIG_I2O_BUS=m
CONFIG_I2O_BLOCK=m
CONFIG_I2O_SCSI=m
CONFIG_I2O_PROC=m
# CONFIG_MACINTOSH_DRIVERS is not set
CONFIG_NETDEVICES=y
# CONFIG_NETDEVICES_MULTIQUEUE is not set
CONFIG_IFB=m
CONFIG_DUMMY=m
CONFIG_BONDING=m
CONFIG_MACVLAN=m
# CONFIG_EQUALIZER is not set
CONFIG_TUN=m
# CONFIG_VETH is not set
# CONFIG_NET_SB1000 is not set
# CONFIG_ARCNET is not set
CONFIG_PHYLIB=m
#
# MII PHY device drivers
#
CONFIG_MARVELL_PHY=m
CONFIG_DAVICOM_PHY=m
CONFIG_QSEMI_PHY=m
CONFIG_LXT_PHY=m
CONFIG_CICADA_PHY=m
CONFIG_VITESSE_PHY=m
CONFIG_SMSC_PHY=m
CONFIG_BROADCOM_PHY=m
CONFIG_ICPLUS_PHY=m
CONFIG_REALTEK_PHY=m
CONFIG_FIXED_PHY=y
CONFIG_MDIO_BITBANG=m
CONFIG_NET_ETHERNET=y
CONFIG_MII=m
# CONFIG_HAPPYMEAL is not set
CONFIG_SUNGEM=m
CONFIG_CASSINI=m
CONFIG_NET_VENDOR_3COM=y
CONFIG_VORTEX=m
CONFIG_TYPHOON=m
CONFIG_NET_TULIP=y
# CONFIG_DE2104X is not set
CONFIG_TULIP=m
CONFIG_TULIP_MWI=y
CONFIG_TULIP_MMIO=y
CONFIG_TULIP_NAPI=y
CONFIG_TULIP_NAPI_HW_MITIGATION=y
CONFIG_DE4X5=m
CONFIG_WINBOND_840=m
CONFIG_DM9102=m
CONFIG_ULI526X=m
CONFIG_PCMCIA_XIRCOM=m
CONFIG_HP100=m
# CONFIG_IBM_NEW_EMAC_ZMII is not set
# CONFIG_IBM_NEW_EMAC_RGMII is not set
# CONFIG_IBM_NEW_EMAC_TAH is not set
# CONFIG_IBM_NEW_EMAC_EMAC4 is not set
CONFIG_NET_PCI=y
CONFIG_PCNET32=m
CONFIG_PCNET32_NAPI=y
CONFIG_AMD8111_ETH=m
CONFIG_AMD8111E_NAPI=y
CONFIG_ADAPTEC_STARFIRE=m
CONFIG_ADAPTEC_STARFIRE_NAPI=y
CONFIG_B44=m
CONFIG_B44_PCI_AUTOSELECT=y
CONFIG_B44_PCICORE_AUTOSELECT=y
CONFIG_B44_PCI=y
CONFIG_FORCEDETH=m
CONFIG_FORCEDETH_NAPI=y
CONFIG_EEPRO100=m
CONFIG_E100=m
CONFIG_FEALNX=m
CONFIG_NATSEMI=m
CONFIG_NE2K_PCI=m
CONFIG_8139CP=m
CONFIG_8139TOO=m
# CONFIG_8139TOO_PIO is not set
CONFIG_8139TOO_TUNE_TWISTER=y
CONFIG_8139TOO_8129=y
# CONFIG_8139_OLD_RX_RESET is not set
# CONFIG_R6040 is not set
CONFIG_SIS900=m
CONFIG_EPIC100=m
CONFIG_SUNDANCE=m
# CONFIG_SUNDANCE_MMIO is not set
CONFIG_VIA_RHINE=m
CONFIG_VIA_RHINE_MMIO=y
CONFIG_VIA_RHINE_NAPI=y
CONFIG_SC92031=m
CONFIG_NETDEV_1000=y
CONFIG_ACENIC=m
# CONFIG_ACENIC_OMIT_TIGON_I is not set
CONFIG_DL2K=m
CONFIG_E1000=m
CONFIG_E1000_NAPI=y
# CONFIG_E1000_DISABLE_PACKET_SPLIT is not set
CONFIG_E1000E=m
CONFIG_E1000E_ENABLED=y
CONFIG_IP1000=m
CONFIG_IGB=m
CONFIG_NS83820=m
CONFIG_HAMACHI=m
CONFIG_YELLOWFIN=m
CONFIG_R8169=m
CONFIG_R8169_NAPI=y
CONFIG_R8169_VLAN=y
CONFIG_SIS190=m
CONFIG_SKGE=m
CONFIG_SKY2=m
CONFIG_SK98LIN=m
CONFIG_VIA_VELOCITY=m
CONFIG_TIGON3=m
CONFIG_BNX2=m
CONFIG_QLA3XXX=m
CONFIG_ATL1=m
CONFIG_NETDEV_10000=y
CONFIG_CHELSIO_T1=m
CONFIG_CHELSIO_T1_1G=y
CONFIG_CHELSIO_T1_NAPI=y
CONFIG_CHELSIO_T3=m
CONFIG_IXGBE=m
CONFIG_IXGB=m
CONFIG_IXGB_NAPI=y
CONFIG_S2IO=m
CONFIG_S2IO_NAPI=y
CONFIG_MYRI10GE=m
CONFIG_NETXEN_NIC=m
CONFIG_NIU=m
# CONFIG_MLX4_CORE is not set
CONFIG_TEHUTI=m
CONFIG_BNX2X=m
# CONFIG_TR is not set
#
# Wireless LAN
#
# CONFIG_WLAN_PRE80211 is not set
CONFIG_WLAN_80211=y
# CONFIG_PCMCIA_RAYCS is not set
CONFIG_IPW2100=m
CONFIG_IPW2100_MONITOR=y
# CONFIG_IPW2100_DEBUG is not set
CONFIG_IPW2200=m
CONFIG_IPW2200_MONITOR=y
CONFIG_IPW2200_RADIOTAP=y
CONFIG_IPW2200_PROMISCUOUS=y
CONFIG_IPW2200_QOS=y
# CONFIG_IPW2200_DEBUG is not set
CONFIG_LIBERTAS=m
CONFIG_LIBERTAS_USB=m
CONFIG_LIBERTAS_CS=m
# CONFIG_LIBERTAS_SDIO is not set
# CONFIG_LIBERTAS_DEBUG is not set
CONFIG_AIRO=m
CONFIG_HERMES=m
CONFIG_PLX_HERMES=m
CONFIG_TMD_HERMES=m
CONFIG_NORTEL_HERMES=m
CONFIG_PCI_HERMES=m
CONFIG_PCMCIA_HERMES=m
CONFIG_PCMCIA_SPECTRUM=m
CONFIG_ATMEL=m
CONFIG_PCI_ATMEL=m
CONFIG_PCMCIA_ATMEL=m
CONFIG_AIRO_CS=m
CONFIG_PCMCIA_WL3501=m
CONFIG_PRISM54=m
CONFIG_USB_ZD1201=m
CONFIG_USB_NET_RNDIS_WLAN=m
CONFIG_RTL8180=m
CONFIG_RTL8187=m
CONFIG_ADM8211=m
CONFIG_P54_COMMON=m
CONFIG_P54_USB=m
CONFIG_P54_PCI=m
CONFIG_ATH5K=m
CONFIG_IWL4965=m
# CONFIG_IWL4965_QOS is not set
CONFIG_IWL4965_SPECTRUM_MEASUREMENT=y
CONFIG_IWL4965_SENSITIVITY=y
# CONFIG_IWL4965_DEBUG is not set
CONFIG_IWL3945=m
# CONFIG_IWL3945_QOS is not set
CONFIG_IWL3945_SPECTRUM_MEASUREMENT=y
# CONFIG_IWL3945_DEBUG is not set
CONFIG_HOSTAP=m
CONFIG_HOSTAP_FIRMWARE=y
CONFIG_HOSTAP_FIRMWARE_NVRAM=y
CONFIG_HOSTAP_PLX=m
CONFIG_HOSTAP_PCI=m
CONFIG_HOSTAP_CS=m
CONFIG_BCM43XX=m
# CONFIG_BCM43XX_DEBUG is not set
CONFIG_BCM43XX_DMA=y
CONFIG_BCM43XX_PIO=y
CONFIG_BCM43XX_DMA_AND_PIO_MODE=y
# CONFIG_BCM43XX_DMA_MODE is not set
# CONFIG_BCM43XX_PIO_MODE is not set
CONFIG_B43=m
CONFIG_B43_PCI_AUTOSELECT=y
CONFIG_B43_PCICORE_AUTOSELECT=y
# CONFIG_B43_PCMCIA is not set
CONFIG_B43_LEDS=y
CONFIG_B43_RFKILL=y
# CONFIG_B43_DEBUG is not set
CONFIG_B43LEGACY=m
CONFIG_B43LEGACY_PCI_AUTOSELECT=y
CONFIG_B43LEGACY_PCICORE_AUTOSELECT=y
CONFIG_B43LEGACY_LEDS=y
CONFIG_B43LEGACY_RFKILL=y
CONFIG_B43LEGACY_DEBUG=y
CONFIG_B43LEGACY_DMA=y
CONFIG_B43LEGACY_PIO=y
CONFIG_B43LEGACY_DMA_AND_PIO_MODE=y
# CONFIG_B43LEGACY_DMA_MODE is not set
# CONFIG_B43LEGACY_PIO_MODE is not set
CONFIG_ZD1211RW=m
# CONFIG_ZD1211RW_DEBUG is not set
CONFIG_RT2X00=m
CONFIG_RT2X00_LIB=m
CONFIG_RT2X00_LIB_PCI=m
CONFIG_RT2X00_LIB_USB=m
CONFIG_RT2X00_LIB_FIRMWARE=y
CONFIG_RT2X00_LIB_RFKILL=y
CONFIG_RT2400PCI=m
CONFIG_RT2400PCI_RFKILL=y
CONFIG_RT2500PCI=m
CONFIG_RT2500PCI_RFKILL=y
CONFIG_RT61PCI=m
CONFIG_RT61PCI_RFKILL=y
CONFIG_RT2500USB=m
CONFIG_RT73USB=m
# CONFIG_RT2X00_DEBUG is not set
#
# USB Network Adapters
#
CONFIG_USB_CATC=m
CONFIG_USB_KAWETH=m
CONFIG_USB_PEGASUS=m
CONFIG_USB_RTL8150=m
CONFIG_USB_USBNET=m
CONFIG_USB_NET_AX8817X=m
CONFIG_USB_NET_CDCETHER=m
CONFIG_USB_NET_DM9601=m
CONFIG_USB_NET_GL620A=m
CONFIG_USB_NET_NET1080=m
CONFIG_USB_NET_PLUSB=m
CONFIG_USB_NET_MCS7830=m
CONFIG_USB_NET_RNDIS_HOST=m
CONFIG_USB_NET_CDC_SUBSET=m
CONFIG_USB_ALI_M5632=y
CONFIG_USB_AN2720=y
CONFIG_USB_BELKIN=y
CONFIG_USB_ARMLINUX=y
# CONFIG_USB_EPSON2888 is not set
CONFIG_USB_KC2190=y
CONFIG_USB_NET_ZAURUS=m
CONFIG_NET_PCMCIA=y
CONFIG_PCMCIA_3C589=m
CONFIG_PCMCIA_3C574=m
CONFIG_PCMCIA_FMVJ18X=m
CONFIG_PCMCIA_PCNET=m
CONFIG_PCMCIA_NMCLAN=m
CONFIG_PCMCIA_SMC91C92=m
CONFIG_PCMCIA_XIRC2PS=m
CONFIG_PCMCIA_AXNET=m
# CONFIG_WAN is not set
# CONFIG_FDDI is not set
# CONFIG_HIPPI is not set
CONFIG_PPP=m
CONFIG_PPP_MULTILINK=y
CONFIG_PPP_FILTER=y
CONFIG_PPP_ASYNC=m
CONFIG_PPP_SYNC_TTY=m
CONFIG_PPP_DEFLATE=m
CONFIG_PPP_BSDCOMP=m
CONFIG_PPP_MPPE=m
CONFIG_PPPOE=m
CONFIG_PPPOL2TP=m
# CONFIG_SLIP is not set
CONFIG_SLHC=m
CONFIG_NET_FC=y
# CONFIG_NETCONSOLE is not set
# CONFIG_NETPOLL is not set
# CONFIG_NET_POLL_CONTROLLER is not set
CONFIG_VIRTIO_NET=m
# CONFIG_ISDN is not set
# CONFIG_PHONE is not set
#
# Input device support
#
CONFIG_INPUT=y
# CONFIG_INPUT_FF_MEMLESS is not set
CONFIG_INPUT_POLLDEV=m
#
# Userland interfaces
#
CONFIG_INPUT_MOUSEDEV=y
# CONFIG_INPUT_MOUSEDEV_PSAUX is not set
CONFIG_INPUT_MOUSEDEV_SCREEN_X=1024
CONFIG_INPUT_MOUSEDEV_SCREEN_Y=768
# CONFIG_INPUT_JOYDEV is not set
CONFIG_INPUT_EVDEV=m
# CONFIG_INPUT_EVBUG is not set
#
# Input Device Drivers
#
CONFIG_INPUT_KEYBOARD=y
CONFIG_KEYBOARD_ATKBD=y
# CONFIG_KEYBOARD_SUNKBD is not set
# CONFIG_KEYBOARD_LKKBD is not set
# CONFIG_KEYBOARD_XTKBD is not set
# CONFIG_KEYBOARD_NEWTON is not set
# CONFIG_KEYBOARD_STOWAWAY is not set
CONFIG_INPUT_MOUSE=y
CONFIG_MOUSE_PS2=m
CONFIG_MOUSE_PS2_ALPS=y
CONFIG_MOUSE_PS2_LOGIPS2PP=y
CONFIG_MOUSE_PS2_SYNAPTICS=y
CONFIG_MOUSE_PS2_LIFEBOOK=y
CONFIG_MOUSE_PS2_TRACKPOINT=y
CONFIG_MOUSE_PS2_TOUCHKIT=y
# CONFIG_MOUSE_SERIAL is not set
# CONFIG_MOUSE_APPLETOUCH is not set
# CONFIG_MOUSE_VSXXXAA is not set
# CONFIG_INPUT_JOYSTICK is not set
# CONFIG_INPUT_TABLET is not set
# CONFIG_INPUT_TOUCHSCREEN is not set
CONFIG_INPUT_MISC=y
CONFIG_INPUT_PCSPKR=m
CONFIG_INPUT_APANEL=m
# CONFIG_INPUT_ATLAS_BTNS is not set
CONFIG_INPUT_ATI_REMOTE=m
CONFIG_INPUT_ATI_REMOTE2=m
CONFIG_INPUT_KEYSPAN_REMOTE=m
# CONFIG_INPUT_POWERMATE is not set
# CONFIG_INPUT_YEALINK is not set
CONFIG_INPUT_UINPUT=m
#
# Hardware I/O ports
#
CONFIG_SERIO=y
CONFIG_SERIO_I8042=y
CONFIG_SERIO_SERPORT=m
# CONFIG_SERIO_CT82C710 is not set
# CONFIG_SERIO_PCIPS2 is not set
CONFIG_SERIO_LIBPS2=y
CONFIG_SERIO_RAW=m
# CONFIG_GAMEPORT is not set
#
# Character devices
#
CONFIG_VT=y
CONFIG_VT_CONSOLE=y
CONFIG_HW_CONSOLE=y
# CONFIG_VT_HW_CONSOLE_BINDING is not set
# CONFIG_SERIAL_NONSTANDARD is not set
CONFIG_NOZOMI=m
#
# Serial drivers
#
CONFIG_SERIAL_8250=y
CONFIG_SERIAL_8250_CONSOLE=y
CONFIG_FIX_EARLYCON_MEM=y
CONFIG_SERIAL_8250_PCI=y
CONFIG_SERIAL_8250_PNP=y
CONFIG_SERIAL_8250_CS=m
CONFIG_SERIAL_8250_NR_UARTS=4
CONFIG_SERIAL_8250_RUNTIME_UARTS=4
# CONFIG_SERIAL_8250_EXTENDED is not set
#
# Non-8250 serial port support
#
CONFIG_SERIAL_CORE=y
CONFIG_SERIAL_CORE_CONSOLE=y
CONFIG_SERIAL_JSM=m
CONFIG_UNIX98_PTYS=y
# CONFIG_LEGACY_PTYS is not set
CONFIG_IPMI_HANDLER=m
# CONFIG_IPMI_PANIC_EVENT is not set
CONFIG_IPMI_DEVICE_INTERFACE=m
CONFIG_IPMI_SI=m
CONFIG_IPMI_WATCHDOG=m
CONFIG_IPMI_POWEROFF=m
CONFIG_HW_RANDOM=y
CONFIG_HW_RANDOM_INTEL=m
CONFIG_HW_RANDOM_AMD=m
CONFIG_NVRAM=m
CONFIG_RTC=m
CONFIG_GEN_RTC=m
CONFIG_GEN_RTC_X=y
# CONFIG_R3964 is not set
# CONFIG_APPLICOM is not set
#
# PCMCIA character devices
#
# CONFIG_SYNCLINK_CS is not set
CONFIG_CARDMAN_4000=m
CONFIG_CARDMAN_4040=m
CONFIG_IPWIRELESS=m
CONFIG_MWAVE=m
# CONFIG_PC8736x_GPIO is not set
# CONFIG_RAW_DRIVER is not set
CONFIG_HPET=y
# CONFIG_HPET_RTC_IRQ is not set
CONFIG_HPET_MMAP=y
CONFIG_HANGCHECK_TIMER=m
CONFIG_TCG_TPM=m
CONFIG_TCG_TIS=m
CONFIG_TCG_NSC=m
CONFIG_TCG_ATMEL=m
CONFIG_TCG_INFINEON=m
# CONFIG_TELCLOCK is not set
CONFIG_DEVPORT=y
CONFIG_I2C=m
CONFIG_I2C_BOARDINFO=y
CONFIG_I2C_CHARDEV=m
#
# I2C Algorithms
#
CONFIG_I2C_ALGOBIT=m
CONFIG_I2C_ALGOPCF=m
CONFIG_I2C_ALGOPCA=m
#
# I2C Hardware Bus support
#
CONFIG_I2C_ALI1535=m
CONFIG_I2C_ALI1563=m
CONFIG_I2C_ALI15X3=m
CONFIG_I2C_AMD756=m
CONFIG_I2C_AMD756_S4882=m
CONFIG_I2C_AMD8111=m
CONFIG_I2C_I801=m
CONFIG_I2C_I810=m
CONFIG_I2C_PIIX4=m
CONFIG_I2C_NFORCE2=m
CONFIG_I2C_OCORES=m
# CONFIG_I2C_PARPORT_LIGHT is not set
CONFIG_I2C_PROSAVAGE=m
CONFIG_I2C_SAVAGE4=m
# CONFIG_I2C_SIMTEC is not set
CONFIG_I2C_SIS5595=m
CONFIG_I2C_SIS630=m
CONFIG_I2C_SIS96X=m
CONFIG_I2C_TAOS_EVM=m
CONFIG_I2C_STUB=m
CONFIG_I2C_TINY_USB=m
CONFIG_I2C_VIA=m
CONFIG_I2C_VIAPRO=m
# CONFIG_I2C_VOODOO3 is not set
#
# Miscellaneous I2C Chip support
#
CONFIG_DS1682=m
CONFIG_SENSORS_EEPROM=m
CONFIG_SENSORS_PCF8574=m
CONFIG_PCF8575=m
CONFIG_SENSORS_PCF8591=m
# CONFIG_TPS65010 is not set
CONFIG_SENSORS_MAX6875=m
CONFIG_SENSORS_TSL2550=m
# CONFIG_I2C_DEBUG_CORE is not set
# CONFIG_I2C_DEBUG_ALGO is not set
# CONFIG_I2C_DEBUG_BUS is not set
# CONFIG_I2C_DEBUG_CHIP is not set
#
# SPI support
#
# CONFIG_SPI is not set
# CONFIG_SPI_MASTER is not set
# CONFIG_W1 is not set
CONFIG_POWER_SUPPLY=y
# CONFIG_POWER_SUPPLY_DEBUG is not set
# CONFIG_PDA_POWER is not set
# CONFIG_BATTERY_DS2760 is not set
CONFIG_HWMON=m
CONFIG_HWMON_VID=m
CONFIG_SENSORS_ABITUGURU=m
CONFIG_SENSORS_ABITUGURU3=m
CONFIG_SENSORS_AD7418=m
CONFIG_SENSORS_ADM1021=m
CONFIG_SENSORS_ADM1025=m
CONFIG_SENSORS_ADM1026=m
CONFIG_SENSORS_ADM1029=m
CONFIG_SENSORS_ADM1031=m
CONFIG_SENSORS_ADM9240=m
CONFIG_SENSORS_ADT7470=m
CONFIG_SENSORS_K8TEMP=m
CONFIG_SENSORS_ASB100=m
CONFIG_SENSORS_ATXP1=m
CONFIG_SENSORS_DS1621=m
CONFIG_SENSORS_I5K_AMB=m
CONFIG_SENSORS_F71805F=m
CONFIG_SENSORS_F71882FG=m
CONFIG_SENSORS_F75375S=m
CONFIG_SENSORS_FSCHER=m
CONFIG_SENSORS_FSCPOS=m
CONFIG_SENSORS_FSCHMD=m
CONFIG_SENSORS_GL518SM=m
CONFIG_SENSORS_GL520SM=m
CONFIG_SENSORS_CORETEMP=m
CONFIG_SENSORS_IBMPEX=m
CONFIG_SENSORS_IT87=m
CONFIG_SENSORS_LM63=m
CONFIG_SENSORS_LM75=m
CONFIG_SENSORS_LM77=m
CONFIG_SENSORS_LM78=m
CONFIG_SENSORS_LM80=m
CONFIG_SENSORS_LM83=m
CONFIG_SENSORS_LM85=m
CONFIG_SENSORS_LM87=m
CONFIG_SENSORS_LM90=m
CONFIG_SENSORS_LM92=m
CONFIG_SENSORS_LM93=m
CONFIG_SENSORS_MAX1619=m
CONFIG_SENSORS_MAX6650=m
CONFIG_SENSORS_PC87360=m
CONFIG_SENSORS_PC87427=m
CONFIG_SENSORS_SIS5595=m
CONFIG_SENSORS_DME1737=m
CONFIG_SENSORS_SMSC47M1=m
CONFIG_SENSORS_SMSC47M192=m
CONFIG_SENSORS_SMSC47B397=m
CONFIG_SENSORS_ADS7828=m
CONFIG_SENSORS_THMC50=m
CONFIG_SENSORS_VIA686A=m
CONFIG_SENSORS_VT1211=m
CONFIG_SENSORS_VT8231=m
CONFIG_SENSORS_W83781D=m
CONFIG_SENSORS_W83791D=m
CONFIG_SENSORS_W83792D=m
CONFIG_SENSORS_W83793=m
CONFIG_SENSORS_W83L785TS=m
CONFIG_SENSORS_W83L786NG=m
CONFIG_SENSORS_W83627HF=m
CONFIG_SENSORS_W83627EHF=m
CONFIG_SENSORS_HDAPS=m
CONFIG_SENSORS_APPLESMC=m
# CONFIG_HWMON_DEBUG_CHIP is not set
CONFIG_THERMAL=y
CONFIG_WATCHDOG=y
# CONFIG_WATCHDOG_NOWAYOUT is not set
#
# Watchdog Device Drivers
#
CONFIG_SOFT_WATCHDOG=m
CONFIG_ACQUIRE_WDT=m
CONFIG_ADVANTECH_WDT=m
CONFIG_ALIM1535_WDT=m
CONFIG_ALIM7101_WDT=m
CONFIG_SC520_WDT=m
CONFIG_EUROTECH_WDT=m
CONFIG_IB700_WDT=m
CONFIG_IBMASR=m
CONFIG_WAFER_WDT=m
CONFIG_I6300ESB_WDT=m
CONFIG_ITCO_WDT=m
CONFIG_ITCO_VENDOR_SUPPORT=y
CONFIG_IT8712F_WDT=m
CONFIG_SC1200_WDT=m
CONFIG_PC87413_WDT=m
CONFIG_60XX_WDT=m
CONFIG_SBC8360_WDT=m
CONFIG_CPU5_WDT=m
CONFIG_SMSC37B787_WDT=m
CONFIG_W83627HF_WDT=m
CONFIG_W83697HF_WDT=m
CONFIG_W83877F_WDT=m
CONFIG_W83977F_WDT=m
CONFIG_MACHZ_WDT=m
CONFIG_SBC_EPX_C3_WATCHDOG=m
#
# PCI-based Watchdog Cards
#
CONFIG_PCIPCWATCHDOG=m
CONFIG_WDTPCI=m
# CONFIG_WDT_501_PCI is not set
#
# USB-based Watchdog Cards
#
CONFIG_USBPCWATCHDOG=m
#
# Sonics Silicon Backplane
#
CONFIG_SSB_POSSIBLE=y
CONFIG_SSB=m
CONFIG_SSB_PCIHOST_POSSIBLE=y
CONFIG_SSB_PCIHOST=y
CONFIG_SSB_PCMCIAHOST_POSSIBLE=y
# CONFIG_SSB_PCMCIAHOST is not set
# CONFIG_SSB_SILENT is not set
# CONFIG_SSB_DEBUG is not set
CONFIG_SSB_DRIVER_PCICORE_POSSIBLE=y
CONFIG_SSB_DRIVER_PCICORE=y
#
# Multifunction device drivers
#
# CONFIG_MFD_SM501 is not set
#
# Multimedia devices
#
CONFIG_VIDEO_DEV=m
CONFIG_VIDEO_V4L1=y
CONFIG_VIDEO_V4L1_COMPAT=y
CONFIG_VIDEO_V4L2=y
CONFIG_VIDEO_CAPTURE_DRIVERS=y
# CONFIG_VIDEO_ADV_DEBUG is not set
CONFIG_VIDEO_HELPER_CHIPS_AUTO=y
CONFIG_VIDEO_TVAUDIO=m
CONFIG_VIDEO_TDA7432=m
CONFIG_VIDEO_TDA9840=m
CONFIG_VIDEO_TDA9875=m
CONFIG_VIDEO_TEA6415C=m
CONFIG_VIDEO_TEA6420=m
CONFIG_VIDEO_MSP3400=m
CONFIG_VIDEO_CS53L32A=m
CONFIG_VIDEO_M52790=m
CONFIG_VIDEO_WM8775=m
CONFIG_VIDEO_WM8739=m
CONFIG_VIDEO_VP27SMPX=m
CONFIG_VIDEO_BT819=m
CONFIG_VIDEO_BT856=m
CONFIG_VIDEO_KS0127=m
CONFIG_VIDEO_OV7670=m
CONFIG_VIDEO_SAA7110=m
CONFIG_VIDEO_SAA7111=m
CONFIG_VIDEO_SAA7114=m
CONFIG_VIDEO_SAA711X=m
CONFIG_VIDEO_TVP5150=m
CONFIG_VIDEO_VPX3220=m
CONFIG_VIDEO_CX25840=m
CONFIG_VIDEO_CX2341X=m
CONFIG_VIDEO_SAA7127=m
CONFIG_VIDEO_SAA7185=m
CONFIG_VIDEO_ADV7170=m
CONFIG_VIDEO_ADV7175=m
CONFIG_VIDEO_UPD64031A=m
CONFIG_VIDEO_UPD64083=m
CONFIG_VIDEO_VIVI=m
CONFIG_VIDEO_BT848=m
CONFIG_VIDEO_BT848_DVB=y
CONFIG_VIDEO_SAA6588=m
CONFIG_VIDEO_CPIA=m
CONFIG_VIDEO_CPIA_USB=m
CONFIG_VIDEO_CPIA2=m
CONFIG_VIDEO_SAA5246A=m
CONFIG_VIDEO_SAA5249=m
CONFIG_TUNER_3036=m
CONFIG_VIDEO_STRADIS=m
CONFIG_VIDEO_ZORAN_ZR36060=m
CONFIG_VIDEO_ZORAN=m
CONFIG_VIDEO_ZORAN_BUZ=m
CONFIG_VIDEO_ZORAN_DC10=m
CONFIG_VIDEO_ZORAN_DC30=m
CONFIG_VIDEO_ZORAN_LML33=m
CONFIG_VIDEO_ZORAN_LML33R10=m
CONFIG_VIDEO_ZORAN_AVS6EYES=m
CONFIG_VIDEO_SAA7134=m
CONFIG_VIDEO_SAA7134_ALSA=m
CONFIG_VIDEO_SAA7134_DVB=m
CONFIG_VIDEO_MXB=m
CONFIG_VIDEO_DPC=m
CONFIG_VIDEO_HEXIUM_ORION=m
CONFIG_VIDEO_HEXIUM_GEMINI=m
CONFIG_VIDEO_CX88=m
CONFIG_VIDEO_CX88_ALSA=m
CONFIG_VIDEO_CX88_BLACKBIRD=m
CONFIG_VIDEO_CX88_DVB=m
CONFIG_VIDEO_CX88_VP3054=m
CONFIG_VIDEO_CX23885=m
CONFIG_VIDEO_IVTV=m
CONFIG_VIDEO_FB_IVTV=m
CONFIG_VIDEO_CAFE_CCIC=m
CONFIG_V4L_USB_DRIVERS=y
CONFIG_VIDEO_PVRUSB2=m
CONFIG_VIDEO_PVRUSB2_ONAIR_CREATOR=y
CONFIG_VIDEO_PVRUSB2_ONAIR_USB2=y
CONFIG_VIDEO_PVRUSB2_SYSFS=y
# CONFIG_VIDEO_PVRUSB2_DEBUGIFC is not set
CONFIG_VIDEO_EM28XX=m
CONFIG_VIDEO_EM28XX_ALSA=m
CONFIG_VIDEO_USBVISION=m
CONFIG_VIDEO_USBVIDEO=m
CONFIG_USB_VICAM=m
CONFIG_USB_IBMCAM=m
CONFIG_USB_KONICAWC=m
CONFIG_USB_QUICKCAM_MESSENGER=m
CONFIG_USB_ET61X251=m
CONFIG_VIDEO_OVCAMCHIP=m
CONFIG_USB_W9968CF=m
CONFIG_USB_OV511=m
CONFIG_USB_SE401=m
CONFIG_USB_SN9C102=m
CONFIG_USB_STV680=m
CONFIG_USB_ZC0301=m
CONFIG_USB_PWC=m
# CONFIG_USB_PWC_DEBUG is not set
CONFIG_USB_ZR364XX=m
CONFIG_USB_STKWEBCAM=m
CONFIG_RADIO_ADAPTERS=y
CONFIG_RADIO_GEMTEK_PCI=m
CONFIG_RADIO_MAXIRADIO=m
CONFIG_RADIO_MAESTRO=m
CONFIG_USB_DSBR=m
CONFIG_USB_SI470X=m
CONFIG_DVB_CORE=m
# CONFIG_DVB_CORE_ATTACH is not set
CONFIG_DVB_CAPTURE_DRIVERS=y
#
# Supported SAA7146 based PCI Adapters
#
CONFIG_TTPCI_EEPROM=m
CONFIG_DVB_AV7110=m
CONFIG_DVB_AV7110_OSD=y
CONFIG_DVB_BUDGET_CORE=m
CONFIG_DVB_BUDGET=m
CONFIG_DVB_BUDGET_CI=m
CONFIG_DVB_BUDGET_AV=m
CONFIG_DVB_BUDGET_PATCH=m
#
# Supported USB Adapters
#
CONFIG_DVB_USB=m
# CONFIG_DVB_USB_DEBUG is not set
CONFIG_DVB_USB_A800=m
CONFIG_DVB_USB_DIBUSB_MB=m
CONFIG_DVB_USB_DIBUSB_MB_FAULTY=y
CONFIG_DVB_USB_DIBUSB_MC=m
CONFIG_DVB_USB_DIB0700=m
CONFIG_DVB_USB_UMT_010=m
CONFIG_DVB_USB_CXUSB=m
CONFIG_DVB_USB_M920X=m
CONFIG_DVB_USB_GL861=m
CONFIG_DVB_USB_AU6610=m
CONFIG_DVB_USB_DIGITV=m
CONFIG_DVB_USB_VP7045=m
CONFIG_DVB_USB_VP702X=m
CONFIG_DVB_USB_GP8PSK=m
CONFIG_DVB_USB_NOVA_T_USB2=m
CONFIG_DVB_USB_TTUSB2=m
CONFIG_DVB_USB_DTT200U=m
CONFIG_DVB_USB_OPERA1=m
CONFIG_DVB_USB_AF9005=m
CONFIG_DVB_USB_AF9005_REMOTE=m
CONFIG_DVB_TTUSB_BUDGET=m
CONFIG_DVB_TTUSB_DEC=m
CONFIG_DVB_CINERGYT2=m
# CONFIG_DVB_CINERGYT2_TUNING is not set
#
# Supported FlexCopII (B2C2) Adapters
#
CONFIG_DVB_B2C2_FLEXCOP=m
CONFIG_DVB_B2C2_FLEXCOP_PCI=m
CONFIG_DVB_B2C2_FLEXCOP_USB=m
# CONFIG_DVB_B2C2_FLEXCOP_DEBUG is not set
#
# Supported BT878 Adapters
#
CONFIG_DVB_BT8XX=m
#
# Supported Pluto2 Adapters
#
CONFIG_DVB_PLUTO2=m
#
# Supported DVB Frontends
#
#
# Customise DVB Frontends
#
# CONFIG_DVB_FE_CUSTOMISE is not set
#
# DVB-S (satellite) frontends
#
CONFIG_DVB_STV0299=m
CONFIG_DVB_CX24110=m
CONFIG_DVB_CX24123=m
CONFIG_DVB_TDA8083=m
CONFIG_DVB_MT312=m
CONFIG_DVB_VES1X93=m
CONFIG_DVB_S5H1420=m
CONFIG_DVB_TDA10086=m
#
# DVB-T (terrestrial) frontends
#
CONFIG_DVB_SP8870=m
CONFIG_DVB_SP887X=m
CONFIG_DVB_CX22700=m
CONFIG_DVB_CX22702=m
CONFIG_DVB_L64781=m
CONFIG_DVB_TDA1004X=m
CONFIG_DVB_NXT6000=m
CONFIG_DVB_MT352=m
CONFIG_DVB_ZL10353=m
CONFIG_DVB_DIB3000MB=m
CONFIG_DVB_DIB3000MC=m
CONFIG_DVB_DIB7000M=m
CONFIG_DVB_DIB7000P=m
#
# DVB-C (cable) frontends
#
CONFIG_DVB_VES1820=m
