Date: Mon, 30 Aug 1999 11:35:47 +0200
From: Harald Koenig <>
Subject: Re: VIA chipset hangs???
Sender: linux-kernel-owner@vger.kernel.org
Precedence: bulk
List-ID: <linux-kernel.vger.kernel.org>
X-Mailing-List: linux-kernel@vger.kernel.org
X-Lkml-Link: https://lkml.org/lkml/1999/8/30/26

On Aug 30, Dan Hollis wrote:
> On Mon, 30 Aug 1999, Heinz Diehl wrote:
> > On Sun Aug 29 1999, Andre Hedrick wrote:
> > > I see the closing in on a chipset quirk in the near future, Martin?
> > There are mainboards with the MPV3 chipset which run perfectly
> > with both options enabled, the "CPU to PCI write buffer" and the
> > "Peer Concurrency". So do (in four cases) the DFI-PB5V3+ mainboards,
> > and it seems to be a problem related to the implementation of the chipset
> > on the mainboards,  and NOT a generic chipset-problem of the MVP3.
> 
> I suspect it IS a generic chipset problem of VIA chipsets, and only shows
> up with specific devices.
I didn't catch the start of this thread.  which devices are suspected to show
these lockups ?
I have a DFI-PB5V3+ too (with AMD K6/2-400) and don't have any problem
with this configuration:
	00:00.0 Host bridge: VIA Technologies, Inc. VT82C598 [Apollo MVP3] (rev 04)
	00:01.0 PCI bridge: VIA Technologies, Inc. VT82C598 [Apollo MVP3 AGP]
	00:07.0 ISA bridge: VIA Technologies, Inc. VT82C586 ISA [Apollo VP] (rev 47)
	00:07.1 IDE interface: VIA Technologies, Inc. VT82C586 IDE [Apollo] (rev 06)
	00:07.2 USB Controller: VIA Technologies, Inc. VT82C586B USB (rev 02)
	00:07.3 Host bridge: VIA Technologies, Inc. VT82C586B ACPI (rev 10)
	00:11.0 VGA compatible controller: S3 Inc. 86C325 [ViRGE] (rev 06)
	00:12.0 SCSI storage controller: Symbios Logic Inc. (formerly NCR) 53c815 (rev 04)
	00:13.0 Ethernet controller: Digital Equipment Corporation DECchip 21041 [Tulip Pass 3] (rev 21)
plus 3 ISA cards (AHA1542B and 2 serial/parallel cards).
-------------------------------------------------------------------------------
00:00.0 Host bridge: VIA Technologies, Inc. VT82C598 [Apollo MVP3] (rev 04)
	Control: I/O- Mem+ BusMaster+ SpecCycle- MemWINV- VGASnoop- ParErr- Stepping- SERR- FastB2B-
	Status: Cap+ 66Mhz- UDF- FastB2B+ ParErr- DEVSEL=medium >TAbort- <TAbort- <MAbort- >SERR- <PERR-
	Latency: 16 set
	Region 0: Memory at e0000000 (32-bit, prefetchable)
	Capabilities: [a0] AGP version 1.0
		Status: RQ=7 SBA+ 64bit- FW- Rate=21
		Command: RQ=7 SBA+ AGP- 64bit- FW- Rate=21
00: 06 11 98 05 06 00 90 02 04 00 00 06 00 10 00 00
10: 08 00 00 e0 00 00 00 00 00 00 00 00 00 00 00 00
20: 00 00 00 00 00 00 00 00 00 00 00 00 00 00 00 00
30: 00 00 00 00 a0 00 00 00 00 00 00 00 00 00 00 00
40: 00 00 00 00 00 00 00 00 00 00 00 00 00 00 00 00
50: 80 02 85 00 00 00 00 00 90 00 08 10 10 10 10 10
60: 03 2a 00 23 10 04 04 00 01 00 65 01 00 7f 00 00
70: e0 88 ec 41 00 80 40 00 00 00 00 00 00 00 00 40
80: 0f 40 00 00 c0 00 00 00 02 00 00 00 00 00 00 00
90: 00 00 00 00 00 00 00 00 00 00 00 00 00 00 00 00
a0: 02 00 10 00 03 02 00 07 00 00 00 00 0a 00 00 00
b0: 00 00 00 00 00 00 00 00 00 00 00 00 00 00 00 00
c0: 00 00 00 00 00 00 00 00 00 00 00 00 00 00 00 00
d0: 00 00 00 00 00 00 00 00 00 00 00 00 00 00 00 00
e0: 00 00 00 00 00 00 00 00 00 00 00 00 00 00 00 00
f0: 00 00 00 00 00 00 00 00 00 00 00 00 00 00 97 00
-------------------------------------------------------------------------------
Harald
-- 
All SCSI disks will from now on                     ___       _____
be required to send an email notice                0--,|    /OOOOOOO\
24 hours prior to complete hardware failure!      <_/  /  /OOOOOOOOOOO\
                                                    \  \/OOOOOOOOOOOOOOO\
                                                      \ OOOOOOOOOOOOOOOOO|//
Harald Koenig,                                         \/\/\/\/\/\/\/\/\/
Inst.f.Theoret.Astrophysik                              //  /     \\  \
koenig@tat.physik.uni-tuebingen.de                     ^^^^^       ^^^^^
-
To unsubscribe from this list: send the line "unsubscribe linux-kernel" in
the body of a message to majordomo@vger.rutgers.edu
Please read the FAQ at 
http://www.tux.org/lkml/