Date: Fri, 29 Oct 2004 18:30:01 -0500
From: <>
Subject: RE: [BUG][2.6.8.1] serial driver hangs SMP kernel, but not the UP kernel
Sender: linux-kernel-owner@vger.kernel.org
Precedence: bulk
List-ID: <linux-kernel.vger.kernel.org>
X-Mailing-List: linux-kernel@vger.kernel.org
X-Lkml-Link: https://lkml.org/lkml/2004/10/29/368

> Well, if you forward lspci -vvx and the "maddr" and "irqno"
information
> (in private mail if you prefer) then I'll fix 8250_pci to work.
maddr:	10		# note, this is for the UP kernel. for SMP,
maddr=201
irqno:	ec40
lspci -d 1028:0008 -vvx:
00:08.1 Class ff00: Dell Remote Access Card III
	Subsystem: Dell Remote Access Card III
	Control: I/O+ Mem+ BusMaster- SpecCycle- MemWINV- VGASnoop-
ParErr- Stepping- SERR+ FastB2B-
	Status: Cap+ 66Mhz- UDF- FastB2B+ ParErr- DEVSEL=medium >TAbort-
<TAbort- <MAbort- >SERR- <PERR-
	Interrupt: pin B routed to IRQ 10
	Region 0: Memory at fe202000 (32-bit, non-prefetchable)
[size=4K]
	Region 1: I/O ports at ec40 [size=64]
	Region 2: Memory at feb00000 (32-bit, prefetchable) [size=512K]
	Capabilities: [48] Power Management version 2
		Flags: PMEClk- DSI- D1- D2- AuxCurrent=0mA
PME(D0-,D1-,D2-,D3hot-,D3cold-)
		Status: D0 PME-Enable- DSel=0 DScale=0 PME-
00: 28 10 08 00 03 01 90 02 00 00 00 ff 10 20 80 00
10: 00 20 20 fe 41 ec 00 00 08 00 b0 fe 00 00 00 00
20: 00 00 00 00 00 00 00 00 00 00 00 00 28 10 08 00
30: 00 00 00 00 48 00 00 00 00 00 00 00 0a 02 00 00
> I think dropping low_latency will work around the problem for the time
> being.
Thanks a lot for the help and advice, I will try this and report
results.
Tim
-
To unsubscribe from this list: send the line "unsubscribe linux-kernel" in
the body of a message to majordomo@vger.kernel.org
More majordomo info at  
http://vger.kernel.org/majordomo-info.html
Please read the FAQ at  
http://www.tux.org/lkml/