Date: Thu, 18 Nov 1999 13:59:19 +0000 (UTC)
From: Adam Fritzler <>
Subject: Re: pci-pci bridge not working
Sender: linux-kernel-owner@vger.kernel.org
Precedence: bulk
List-ID: <linux-kernel.vger.kernel.org>
X-Mailing-List: linux-kernel@vger.kernel.org
X-Lkml-Link: https://lkml.org/lkml/1999/11/18/34

lspci attached.  All bootup PCI messages have scrolled out of my dmesg.
If you really need them, I can reboot.
af
On Thu, 18 Nov 1999, Martin Mares wrote:
> Hello!
> 
> > I am trying to use an iomega buz board in my linux box (running 2.3.28).
> > The board has a NatSemi PicoPower PCI-to-PCI bridge on it, and a Zoran and
> > Advansys SCSI controller on the far side of the bridge.  However, the
> > latter two devices are not getting detected by linux, as the pci-pci
> > bridge does not appear to be getting setup.
> 
>    Please send me complete 'lspci -vvx' output for your machine and also
> all PCI related kernel messages.
> 
> 				Have a nice fortnight
> -- 
> Martin `MJ' Mares <mj@ucw.cz> <mj@suse.cz> 
http://atrey.karlin.mff.cuni.cz/~mj/
> "We all live in a yellow subroutine."
> 
> -
> To unsubscribe from this list: send the line "unsubscribe linux-kernel" in
> the body of a message to majordomo@vger.rutgers.edu
> Please read the FAQ at 
http://www.tux.org/lkml/
> 
---
  Adam Fritzler
  { mid@auk.cx, afritz@iname.com}
    
http://www.auk.cx/~mid/
  "You may call me Lor." -- Lor
00:00.0 Host bridge: Acer Laboratories Inc. [ALi] M1541 (rev 04)
	Subsystem: Acer Laboratories Inc. [ALi]: Unknown device 1541
	Control: I/O- Mem+ BusMaster+ SpecCycle- MemWINV- VGASnoop- ParErr- Stepping- SERR- FastB2B-
	Status: Cap+ 66Mhz- UDF- FastB2B- ParErr- DEVSEL=slow >TAbort- <TAbort- <MAbort+ >SERR- <PERR-
	Latency: 32 set
	Region 0: Memory at e0000000 (32-bit, non-prefetchable) [size=64M]
	Capabilities: [b0] AGP version 1.0
		Status: RQ=27 SBA+ 64bit- FW- Rate=21
		Command: RQ=0 SBA- AGP- 64bit- FW- Rate=
00: b9 10 41 15 06 00 10 24 04 00 00 06 00 20 00 00
10: 00 00 00 e0 00 00 00 00 00 00 00 00 00 00 00 00
20: 00 00 00 00 00 00 00 00 00 00 00 00 b9 10 41 15
30: 00 00 00 00 b0 00 00 00 00 00 00 00 00 00 00 00
00:01.0 PCI bridge: Acer Laboratories Inc. [ALi] M5243 (rev 04)
	Control: I/O+ Mem+ BusMaster+ SpecCycle- MemWINV- VGASnoop- ParErr- Stepping- SERR- FastB2B-
	Status: Cap- 66Mhz- UDF- FastB2B- ParErr- DEVSEL=slow >TAbort- <TAbort- <MAbort- >SERR- <PERR-
	Latency: 32 set
	Bus: primary=00, secondary=01, subordinate=01, sec-latency=32
	Memory behind bridge: e4000000-e5ffffff
	Prefetchable memory behind bridge: e6000000-e6ffffff
	BridgeCtl: Parity- SERR- NoISA+ VGA+ MAbort- >Reset- FastB2B-
00: b9 10 43 52 07 00 00 04 04 00 04 06 00 20 01 00
10: 00 00 00 00 00 00 00 00 00 01 01 20 f0 00 00 20
20: 00 e4 f0 e5 00 e6 f0 e6 00 00 00 00 00 00 00 00
30: 00 00 00 00 e0 00 00 00 00 00 00 00 00 00 0c 00
00:07.0 ISA bridge: Acer Laboratories Inc. [ALi] M1533 PCI to ISA Bridge [Aladdin IV] (rev c3)
	Control: I/O+ Mem+ BusMaster+ SpecCycle+ MemWINV- VGASnoop- ParErr- Stepping- SERR- FastB2B-
	Status: Cap- 66Mhz- UDF- FastB2B- ParErr- DEVSEL=medium >TAbort- <TAbort+ <MAbort+ >SERR- <PERR-
	Latency: 0 set
00: b9 10 33 15 0f 00 00 32 c3 00 01 06 00 00 00 00
10: 00 00 00 00 00 00 00 00 00 00 00 00 00 00 00 00
20: 00 00 00 00 00 00 00 00 00 00 00 00 00 00 00 00
30: 00 00 00 00 00 00 00 00 00 00 00 00 00 00 00 00
00:08.0 Ethernet controller: Digital Equipment Corporation DECchip 21140 [FasterNet] (rev 22)
	Subsystem: Kingston Technologies KNE100TX Fast Ethernet
	Control: I/O+ Mem+ BusMaster+ SpecCycle- MemWINV- VGASnoop- ParErr- Stepping- SERR- FastB2B-
	Status: Cap- 66Mhz- UDF- FastB2B+ ParErr- DEVSEL=medium >TAbort- <TAbort- <MAbort- >SERR- <PERR-
	Latency: 20 min, 40 max, 32 set, cache line size 08
	Interrupt: pin A routed to IRQ 11
	Region 0: I/O ports at e000 [size=128]
	Region 1: Memory at e8102000 (32-bit, non-prefetchable) [size=128]
	Expansion ROM at e7000000 [disabled] [size=256K]
00: 11 10 09 00 07 00 80 02 22 00 00 02 08 20 00 00
10: 01 e0 00 00 00 20 10 e8 00 00 00 00 00 00 00 00
20: 00 00 00 00 00 00 00 00 00 00 00 00 46 26 01 00
30: 00 00 00 e7 00 00 00 00 00 00 00 00 0b 01 14 28
00:09.0 Multimedia video controller: Brooktree Corporation Bt848 TV with DMA push (rev 12)
	Control: I/O- Mem+ BusMaster+ SpecCycle- MemWINV- VGASnoop- ParErr- Stepping- SERR- FastB2B-
	Status: Cap- 66Mhz- UDF- FastB2B+ ParErr- DEVSEL=medium >TAbort- <TAbort- <MAbort- >SERR- <PERR-
	Latency: 16 min, 40 max, 32 set
	Interrupt: pin A routed to IRQ 10
	Region 0: Memory at e8101000 (32-bit, prefetchable) [size=4K]
00: 9e 10 50 03 06 00 80 02 12 00 00 04 00 20 00 00
10: 08 10 10 e8 00 00 00 00 00 00 00 00 00 00 00 00
20: 00 00 00 00 00 00 00 00 00 00 00 00 00 00 00 00
30: 00 00 00 00 00 00 00 00 00 00 00 00 0a 01 10 28
00:0a.0 Multimedia audio controller: Ensoniq ES1371 [AudioPCI-97] (rev 06)
	Subsystem: Ensoniq: Unknown device 1371
	Control: I/O+ Mem- BusMaster+ SpecCycle- MemWINV- VGASnoop- ParErr- Stepping- SERR- FastB2B-
	Status: Cap+ 66Mhz- UDF- FastB2B- ParErr- DEVSEL=slow >TAbort- <TAbort+ <MAbort+ >SERR- <PERR-
	Latency: 12 min, 128 max, 32 set
	Interrupt: pin A routed to IRQ 5
	Region 0: I/O ports at e400 [size=64]
	Capabilities: [dc] Power Management version 1
		Flags: PMEClk- AuxPwr+ DSI+ D1- D2+ PME+
		Status: D3 PME-Enable- DSel=0 DScale=0 PME-
00: 74 12 71 13 05 00 10 34 06 00 01 04 00 20 00 00
10: 01 e4 00 00 00 00 00 00 00 00 00 00 00 00 00 00
20: 00 00 00 00 00 00 00 00 00 00 00 00 74 12 71 13
30: 00 00 00 00 dc 00 00 00 00 00 00 00 05 01 0c 80
00:0b.0 PCI bridge: PicoPower Technology: Unknown device 0004 (rev 01)
	Control: I/O+ Mem+ BusMaster+ SpecCycle- MemWINV- VGASnoop- ParErr- Stepping- SERR- FastB2B-
	Status: Cap- 66Mhz- UDF- FastB2B+ ParErr- DEVSEL=medium >TAbort- <TAbort- <MAbort- >SERR- <PERR+
	Latency: 32 set, cache line size 08
	Bus: primary=00, secondary=02, subordinate=02, sec-latency=32
	Memory behind bridge: e8000000-e80fffff
	BridgeCtl: Parity- SERR+ NoISA+ VGA- MAbort- >Reset- FastB2B-
00: 66 10 04 00 07 00 80 82 01 00 04 06 08 20 01 00
10: 00 00 00 00 00 00 00 00 00 02 02 20 f0 00 80 a2
20: 00 e8 00 e8 f0 fe 00 00 00 00 00 00 00 00 00 00
30: 00 00 00 00 00 00 00 00 00 00 00 00 ff 00 06 00
00:0f.0 IDE interface: Acer Laboratories Inc. [ALi] M5229 IDE (rev c1) (prog-if fa)
	Control: I/O+ Mem- BusMaster+ SpecCycle- MemWINV- VGASnoop- ParErr- Stepping- SERR- FastB2B-
	Status: Cap- 66Mhz- UDF- FastB2B+ ParErr- DEVSEL=medium >TAbort- <TAbort- <MAbort- >SERR- <PERR-
	Latency: 2 min, 4 max, 32 set
	Interrupt: pin A routed to IRQ 0
	Region 4: I/O ports at f000 [size=16]
00: b9 10 29 52 05 00 80 02 c1 fa 01 01 00 20 00 00
10: 00 00 00 00 00 00 00 00 00 00 00 00 00 00 00 00
20: 01 f0 00 00 00 00 00 00 00 00 00 00 00 00 00 00
30: 00 00 00 00 00 00 00 00 00 00 00 00 00 01 02 04
01:00.0 VGA compatible controller: NVidia / SGS Thomson (Joint Venture) Riva128 (rev 21)
	Subsystem: STB Systems Inc STB Velocity 128 AGP
	Control: I/O+ Mem+ BusMaster+ SpecCycle- MemWINV- VGASnoop- ParErr- Stepping- SERR- FastB2B-
	Status: Cap+ 66Mhz+ UDF- FastB2B+ ParErr- DEVSEL=medium >TAbort- <TAbort- <MAbort- >SERR- <PERR-
	Latency: 3 min, 1 max, 32 set
	Interrupt: pin A routed to IRQ 11
	Region 0: Memory at e4000000 (32-bit, non-prefetchable) [size=16M]
	Region 1: Memory at e6000000 (32-bit, prefetchable) [size=16M]
	Expansion ROM at <unassigned> [disabled] [size=4M]
	Capabilities: [44] AGP version 1.0
		Status: RQ=4 SBA- 64bit- FW- Rate=21
		Command: RQ=0 SBA- AGP- 64bit- FW- Rate=
00: d2 12 18 00 07 00 b0 02 21 00 00 03 00 20 00 00
10: 00 00 00 e4 08 00 00 e6 00 00 00 00 00 00 00 00
20: 00 00 00 00 00 00 00 00 00 00 00 00 b4 10 2a 22
30: 00 00 00 00 44 00 00 00 00 00 00 00 0b 01 03 01
02:09.0 Multimedia video controller: nVidia Corporation: Unknown device 6057 (rev 01)
	Control: I/O- Mem+ BusMaster+ SpecCycle- MemWINV- VGASnoop- ParErr- Stepping- SERR- FastB2B-
	Status: Cap- 66Mhz- UDF- FastB2B- ParErr- DEVSEL=fast >TAbort- <TAbort- <MAbort- >SERR- <PERR+
	Latency: 2 min, 16 max, 32 set
	Region 0: Memory at e8000000 (32-bit, non-prefetchable) [size=4K]
00: de 10 57 60 06 00 00 80 01 00 00 04 00 20 00 00
10: 00 00 00 e8 00 00 00 00 00 00 00 00 00 00 00 00
20: 00 00 00 00 00 00 00 00 00 00 00 00 00 00 00 00
30: 00 00 00 00 00 00 00 00 00 00 00 00 0a 00 02 10